Component: ARM Compiler 5.06 update 2 (build 183) Tool: armlink [4d35b7]

==============================================================================

Section Cross References

    startup_stm32f10x_md.o(RESET) refers to startup_stm32f10x_md.o(STACK) for __initial_sp
    startup_stm32f10x_md.o(RESET) refers to startup_stm32f10x_md.o(.text) for Reset_Handler
    startup_stm32f10x_md.o(RESET) refers to stm32f10x_it.o(.text) for NMI_Handler
    startup_stm32f10x_md.o(RESET) refers to tim.o(.text) for TIM3_IRQHandler
    startup_stm32f10x_md.o(RESET) refers to usart.o(.text) for USART2_IRQHandler
    startup_stm32f10x_md.o(.text) refers to system_stm32f10x.o(.text) for SystemInit
    startup_stm32f10x_md.o(.text) refers to entry.o(.ARM.Collect$$$$00000000) for __main
    system_stm32f10x.o(.text) refers to system_stm32f10x.o(.data) for SystemCoreClock
    stm32f10x_gpio.o(.text) refers to stm32f10x_rcc.o(.text) for RCC_APB2PeriphResetCmd
    stm32f10x_rcc.o(.text) refers to stm32f10x_rcc.o(.data) for APBAHBPrescTable
    stm32f10x_adc.o(.text) refers to stm32f10x_rcc.o(.text) for RCC_APB2PeriphResetCmd
    stm32f10x_usart.o(.text) refers to stm32f10x_rcc.o(.text) for RCC_APB2PeriphResetCmd
    stm32f10x_tim.o(.text) refers to stm32f10x_rcc.o(.text) for RCC_APB2PeriphResetCmd
    lcd.o(.text) refers to stm32f10x_gpio.o(.text) for GPIO_Init
    lcd.o(.text) refers to stm32f10x_rcc.o(.text) for RCC_APB2PeriphClockCmd
    lcd.o(.text) refers to lcd.o(.data) for dummy
    lcd.o(.text) refers to lcd.o(.constdata) for ASCII_Table
    main.o(.text) refers to led.o(.text) for LED_Control
==============================================================================

Removing Unused input sections from the image.

    Removing startup_stm32f10x_md.o(HEAP), (512 bytes).
    Removing system_stm32f10x.o(.rev16_text), (4 bytes).
    Removing system_stm32f10x.o(.revsh_text), (4 bytes).
    Removing core_cm3.o(.emb_text), (32 bytes).
    Removing stm32f10x_gpio.o(.rev16_text), (4 bytes).
    Removing stm32f10x_gpio.o(.revsh_text), (4 bytes).
    Removing stm32f10x_rcc.o(.rev16_text), (4 bytes).
    Removing stm32f10x_rcc.o(.revsh_text), (4 bytes).
    Removing stm32f10x_adc.o(.rev16_text), (4 bytes).
    Removing stm32f10x_adc.o(.revsh_text), (4 bytes).
    Removing stm32f10x_usart.o(.rev16_text), (4 bytes).
    Removing stm32f10x_usart.o(.revsh_text), (4 bytes).
    Removing misc.o(.rev16_text), (4 bytes).
    Removing misc.o(.revsh_text), (4 bytes).
    Removing stm32f10x_tim.o(.rev16_text), (4 bytes).
    Removing stm32f10x_tim.o(.revsh_text), (4 bytes).
    Removing lcd.o(.rev16_text), (4 bytes).
    Removing lcd.o(.revsh_text), (4 bytes).
==============================================================================

Image Symbol Table

    Local Symbols

    Symbol Name                              Value     Ov Type        Size  Object(Section)

    ../clib/microlib/division.c              0x00000000   Number         0  uidiv.o ABSOLUTE
    ../clib/microlib/division.c              0x00000000   Number         0  uldiv.o ABSOLUTE
    ../clib/microlib/init/entry.s            0x00000000   Number         0  entry11b.o ABSOLUTE
    ../clib/microlib/init/entry.s            0x00000000   Number         0  entry8b.o ABSOLUTE
    ../clib/microlib/init/entry.s            0x00000000   Number         0  entry2.o ABSOLUTE
    ../clib/microlib/init/entry.s            0x00000000   Number         0  entry.o ABSOLUTE
    ../clib/microlib/init/entry.s            0x00000000   Number         0  entry11a.o ABSOLUTE
    ../clib/microlib/init/entry.s            0x00000000   Number         0  entry10b.o ABSOLUTE
    ../clib/microlib/init/entry.s            0x00000000   Number         0  entry10a.o ABSOLUTE
    ../clib/microlib/init/entry.s            0x00000000   Number         0  entry9b.o ABSOLUTE
    ../clib/microlib/init/entry.s            0x00000000   Number         0  entry9a.o ABSOLUTE
    ../clib/microlib/init/entry.s            0x00000000   Number         0  entry8a.o ABSOLUTE
    ../clib/microlib/init/entry.s            0x00000000   Number         0  entry7b.o ABSOLUTE
    ../clib/microlib/init/entry.s            0x00000000   Number         0  entry7a.o ABSOLUTE
    ../clib/microlib/init/entry.s            0x00000000   Number         0  entry5.o ABSOLUTE
    ../clib/microlib/longlong.c              0x00000000   Number         0  llushr.o ABSOLUTE
    ../clib/microlib/longlong.c              0x00000000   Number         0  llshl.o ABSOLUTE
    ../clib/microlib/longlong.c              0x00000000   Number         0  llsshr.o ABSOLUTE
    ../clib/microlib/printf/printf.c         0x00000000   Number         0  printf6.o ABSOLUTE
    ../clib/microlib/printf/printf.c         0x00000000   Number         0  printf8.o ABSOLUTE
    ../clib/microlib/printf/printf.c         0x00000000   Number         0  printf0.o ABSOLUTE
    ../clib/microlib/printf/printf.c         0x00000000   Number         0  printfa.o ABSOLUTE
    ../clib/microlib/printf/printf.c         0x00000000   Number         0  printf7.o ABSOLUTE
    ../clib/microlib/printf/printf.c         0x00000000   Number         0  printfb.o ABSOLUTE
    ../clib/microlib/printf/printf.c         0x00000000   Number         0  printf1.o ABSOLUTE
    ../clib/microlib/printf/printf.c         0x00000000   Number         0  printf5.o ABSOLUTE
    ../clib/microlib/printf/printf.c         0x00000000   Number         0  printf2.o ABSOLUTE
    ../clib/microlib/printf/printf.c         0x00000000   Number         0  printf4.o ABSOLUTE
    ../clib/microlib/printf/printf.c         0x00000000   Number         0  printf3.o ABSOLUTE
    ../clib/microlib/printf/stubs.s          0x00000000   Number         0  stubs.o ABSOLUTE
    ../clib/microlib/stdio/fputc.c           0x00000000   Number         0  fputc.o ABSOLUTE
    ../clib/microlib/stdio/semi.s            0x00000000   Number         0  semi.o ABSOLUTE
    ../clib/microlib/stdio/streams.c         0x00000000   Number         0  stdout.o ABSOLUTE
    ../clib/microlib/stubs.s                 0x00000000   Number         0  iusesemip.o ABSOLUTE
    ../clib/microlib/stubs.s                 0x00000000   Number         0  iusefp.o ABSOLUTE
    ../fplib/microlib/fpadd.c                0x00000000   Number         0  dadd.o ABSOLUTE
    ../fplib/microlib/fpdiv.c                0x00000000   Number         0  ddiv.o ABSOLUTE
    ../fplib/microlib/fpepilogue.c           0x00000000   Number         0  depilogue.o ABSOLUTE
    ../fplib/microlib/fpepilogue.c           0x00000000   Number         0  fepilogue.o ABSOLUTE
    ../fplib/microlib/fpfix.c                0x00000000   Number         0  dfixul.o ABSOLUTE
    ../fplib/microlib/fpflt.c                0x00000000   Number         0  fflti.o ABSOLUTE
    ../fplib/microlib/fpflt.c                0x00000000   Number         0  ffltui.o ABSOLUTE
    ../fplib/microlib/fpflt.c                0x00000000   Number         0  dfltui.o ABSOLUTE
    ../fplib/microlib/fpmul.c                0x00000000   Number         0  dmul.o ABSOLUTE
    ..\Libraries\CMSIS\CM3\CoreSupport\core_cm3.c 0x00000000   Number         0  core_cm3.o ABSOLUTE
    ..\Libraries\CMSIS\CM3\DeviceSupport\ST\STM32F10x\startup\arm\startup_stm32f10x_md.s 0x00000000   Number         0  startup_stm32f10x_md.o ABSOLUTE
    ..\Libraries\CMSIS\CM3\DeviceSupport\ST\STM32F10x\system_stm32f10x.c 0x00000000   Number         0  system_stm32f10x.o ABSOLUTE
    ..\Libraries\STM32F10x_StdPeriph_Driver\src\misc.c 0x00000000   Number         0  misc.o ABSOLUTE
    ..\Libraries\STM32F10x_StdPeriph_Driver\src\stm32f10x_adc.c 0x00000000   Number         0  stm32f10x_adc.o ABSOLUTE
    ..\Libraries\STM32F10x_StdPeriph_Driver\src\stm32f10x_gpio.c 0x00000000   Number         0  stm32f10x_gpio.o ABSOLUTE
    ..\Libraries\STM32F10x_StdPeriph_Driver\src\stm32f10x_rcc.c 0x00000000   Number         0  stm32f10x_rcc.o ABSOLUTE
    ..\Libraries\STM32F10x_StdPeriph_Driver\src\stm32f10x_tim.c 0x00000000   Number         0  stm32f10x_tim.o ABSOLUTE
    ..\Libraries\STM32F10x_StdPeriph_Driver\src\stm32f10x_usart.c 0x00000000   Number         0  stm32f10x_usart.o ABSOLUTE
    ..\Sre\adc.c                             0x00000000   Number         0  adc.o ABSOLUTE
    ..\Sre\delay.c                           0x00000000   Number         0  delay.o ABSOLUTE
    ..\Sre\eeprom.c                          0x00000000   Number         0  eeprom.o ABSOLUTE
    ..\Sre\iic.c                             0x00000000   Number         0  iic.o ABSOLUTE
    ..\Sre\key.c                             0x00000000   Number         0  key.o ABSOLUTE
    ..\Sre\lcd.c                             0x00000000   Number         0  lcd.o ABSOLUTE
    ..\Sre\led.c                             0x00000000   Number         0  led.o ABSOLUTE
    ..\Sre\main.c                            0x00000000   Number         0  main.o ABSOLUTE
    ..\Sre\stm32f10x_it.c                    0x00000000   Number         0  stm32f10x_it.o ABSOLUTE
    ..\Sre\tim.c                             0x00000000   Number         0  tim.o ABSOLUTE
    ..\Sre\usart.c                           0x00000000   Number         0  usart.o ABSOLUTE
    ..\\Libraries\\CMSIS\\CM3\\CoreSupport\\core_cm3.c 0x00000000   Number         0  core_cm3.o ABSOLUTE
    ..\\Libraries\\CMSIS\\CM3\\DeviceSupport\\ST\\STM32F10x\\system_stm32f10x.c 0x00000000   Number         0  system_stm32f10x.o ABSOLUTE
    ..\\Libraries\\STM32F10x_StdPeriph_Driver\\src\\misc.c 0x00000000   Number         0  misc.o ABSOLUTE
    ..\\Libraries\\STM32F10x_StdPeriph_Driver\\src\\stm32f10x_adc.c 0x00000000   Number         0  stm32f10x_adc.o ABSOLUTE
    ..\\Libraries\\STM32F10x_StdPeriph_Driver\\src\\stm32f10x_gpio.c 0x00000000   Number         0  stm32f10x_gpio.o ABSOLUTE
    ..\\Libraries\\STM32F10x_StdPeriph_Driver\\src\\stm32f10x_rcc.c 0x00000000   Number         0  stm32f10x_rcc.o ABSOLUTE
    ..\\Libraries\\STM32F10x_StdPeriph_Driver\\src\\stm32f10x_tim.c 0x00000000   Number         0  stm32f10x_tim.o ABSOLUTE
    ..\\Libraries\\STM32F10x_StdPeriph_Driver\\src\\stm32f10x_usart.c 0x00000000   Number         0  stm32f10x_usart.o ABSOLUTE
    ..\\Sre\\adc.c                           0x00000000   Number         0  adc.o ABSOLUTE
    ..\\Sre\\delay.c                         0x00000000   Number         0  delay.o ABSOLUTE
    ..\\Sre\\iic.c                           0x00000000   Number         0  iic.o ABSOLUTE
    ..\\Sre\\key.c                           0x00000000   Number         0  key.o ABSOLUTE
    ..\\Sre\\lcd.c                           0x00000000   Number         0  lcd.o ABSOLUTE
    ..\\Sre\\led.c                           0x00000000   Number         0  led.o ABSOLUTE
    ..\\Sre\\main.c                          0x00000000   Number         0  main.o ABSOLUTE
    ..\\Sre\\stm32f10x_it.c                  0x00000000   Number         0  stm32f10x_it.o ABSOLUTE
    ..\\Sre\\tim.c                           0x00000000   Number         0  tim.o ABSOLUTE
    ..\\Sre\\usart.c                         0x00000000   Number         0  usart.o ABSOLUTE
    cdrcmple.s                               0x00000000   Number         0  cdrcmple.o ABSOLUTE
    dc.s                                     0x00000000   Number         0  dc.o ABSOLUTE
    handlers.s                               0x00000000   Number         0  handlers.o ABSOLUTE
    init.s                                   0x00000000   Number         0  init.o ABSOLUTE
    RESET                                    0x08000000   Section      236  startup_stm32f10x_md.o(RESET)
    .ARM.Collect$$$$00000000                 0x080000ec   Section        0  entry.o(.ARM.Collect$$$$00000000)
    .ARM.Collect$$$$00000001                 0x080000ec   Section        4  entry2.o(.ARM.Collect$$$$00000001)
    .ARM.Collect$$$$00000004                 0x080000f0   Section        4  entry5.o(.ARM.Collect$$$$00000004)
    .ARM.Collect$$$$00000008                 0x080000f4   Section        0  entry7b.o(.ARM.Collect$$$$00000008)
    .ARM.Collect$$$$0000000A                 0x080000f4   Section        0  entry8b.o(.ARM.Collect$$$$0000000A)
    .ARM.Collect$$$$0000000B                 0x080000f4   Section        8  entry9a.o(.ARM.Collect$$$$0000000B)
    .ARM.Collect$$$$0000000D                 0x080000fc   Section        0  entry10a.o(.ARM.Collect$$$$0000000D)
    .ARM.Collect$$$$0000000F                 0x080000fc   Section        0  entry11a.o(.ARM.Collect$$$$0000000F)
    .ARM.Collect$$$$00002712                 0x080000fc   Section        4  entry2.o(.ARM.Collect$$$$00002712)
    __lit__00000000                          0x080000fc   Data           4  entry2.o(.ARM.Collect$$$$00002712)
    .text                                    0x08000100   Section       36  startup_stm32f10x_md.o(.text)
    .text                                    0x08000124   Section        0  system_stm32f10x.o(.text)
    SetSysClockTo72                          0x08000125   Thumb Code   214  system_stm32f10x.o(.text)
    SetSysClock                              0x080001fb   Thumb Code     8  system_stm32f10x.o(.text)
    .text                                    0x08000304   Section        0  stm32f10x_gpio.o(.text)
    .text                                    0x08000660   Section        0  stm32f10x_rcc.o(.text)
    .text                                    0x08000a04   Section        0  stm32f10x_adc.o(.text)
    .text                                    0x08000e54   Section        0  stm32f10x_usart.o(.text)
    .text                                    0x0800125c   Section        0  misc.o(.text)
    .text                                    0x08001338   Section        0  stm32f10x_tim.o(.text)
    TI4_Config                               0x080017df   Thumb Code   130  stm32f10x_tim.o(.text)
    TI3_Config                               0x08001873   Thumb Code   122  stm32f10x_tim.o(.text)
    TI2_Config                               0x08001907   Thumb Code   130  stm32f10x_tim.o(.text)
    TI1_Config                               0x0800199b   Thumb Code   108  stm32f10x_tim.o(.text)
    .text                                    0x08002154   Section        0  lcd.o(.text)
    .text                                    0x08002b60   Section        0  main.o(.text)
    .text                                    0x08002f54   Section        0  stm32f10x_it.o(.text)
    .text                                    0x08002f7c   Section        0  adc.o(.text)
    .text                                    0x08003050   Section        0  key.o(.text)
    .text                                    0x080030e8   Section        0  led.o(.text)
    .text                                    0x0800316c   Section        0  usart.o(.text)
    .text                                    0x080032a4   Section        0  delay.o(.text)
    .text                                    0x080032b8   Section        0  tim.o(.text)
    .text                                    0x080033b4   Section        0  iic.o(.text)
    .text                                    0x0800364c   Section        0  dmul.o(.text)
    .text                                    0x08003730   Section        0  ddiv.o(.text)
    .text                                    0x0800380e   Section        0  fflti.o(.text)
    .text                                    0x08003820   Section        0  ffltui.o(.text)
    .text                                    0x0800382a   Section        0  dfltui.o(.text)
    .text                                    0x08003844   Section        0  uidiv.o(.text)
    .text                                    0x08003870   Section        0  iusefp.o(.text)
    .text                                    0x08003870   Section        0  fepilogue.o(.text)
    .text                                    0x080038de   Section        0  depilogue.o(.text)
    .text                                    0x08003998   Section       36  init.o(.text)
    .text                                    0x080039bc   Section        0  llshl.o(.text)
    .text                                    0x080039da   Section        0  llushr.o(.text)
    i.__0sprintf$6                           0x080039fc   Section        0  printf6.o(i.__0sprintf$6)
    i.__scatterload_copy                     0x08003a24   Section       14  handlers.o(i.__scatterload_copy)
    i.__scatterload_null                     0x08003a32   Section        2  handlers.o(i.__scatterload_null)
    i.__scatterload_zeroinit                 0x08003a34   Section       14  handlers.o(i.__scatterload_zeroinit)
    i._printf_core                           0x08003a44   Section        0  printf6.o(i._printf_core)
    _printf_core                             0x08003a45   Thumb Code   748  printf6.o(i._printf_core)
    i._printf_post_padding                   0x08003d34   Section        0  printf6.o(i._printf_post_padding)
    _printf_post_padding                     0x08003d35   Thumb Code    36  printf6.o(i._printf_post_padding)
    i._printf_pre_padding                    0x08003d58   Section        0  printf6.o(i._printf_pre_padding)
    _printf_pre_padding                      0x08003d59   Thumb Code    46  printf6.o(i._printf_pre_padding)
    i._sputc                                 0x08003d86   Section        0  printf6.o(i._sputc)
    _sputc                                   0x08003d87   Thumb Code    10  printf6.o(i._sputc)
    .constdata                               0x08003d90   Section     4560  lcd.o(.constdata)
    .data                                    0x20000000   Section       20  system_stm32f10x.o(.data)
    .data                                    0x20000014   Section       20  stm32f10x_rcc.o(.data)
    APBAHBPrescTable                         0x20000014   Data          16  stm32f10x_rcc.o(.data)
    ADCPrescTable                            0x20000024   Data           4  stm32f10x_rcc.o(.data)
    .data                                    0x20000028   Section        6  lcd.o(.data)
    TextColor                                0x20000028   Data           2  lcd.o(.data)
    BackColor                                0x2000002a   Data           2  lcd.o(.data)
    .data                                    0x20000030   Section       28  main.o(.data)
    .data                                    0x2000004c   Section        2  usart.o(.data)
    .data                                    0x20000050   Section       32  tim.o(.data)
    .bss                                     0x20000070   Section       20  main.o(.bss)
    .bss                                     0x20000084   Section       30  usart.o(.bss)
    STACK                                    0x200000a8   Section     1024  startup_stm32f10x_md.o(STACK)

    Global Symbols

    Symbol Name                              Value     Ov Type        Size  Object(Section)

    BuildAttributes$$THM_ISAv4$P$D$K$B$S$PE$A:L22UL41UL21$X:L11$S22US41US21$IEEE1$IW$USESV6$~STKCKD$USESV7$~SHL$OTIME$ROPI$EBA8$MICROLIB$REQ8$PRES8$EABIv2 0x00000000   Number         0  anon$$obj.o ABSOLUTE
    __ARM_use_no_argv                        0x00000000   Number         0  main.o ABSOLUTE
    _printf_a                                0x00000000   Number         0  stubs.o ABSOLUTE
    _printf_c                                0x00000000   Number         0  stubs.o ABSOLUTE
    _printf_charcount                        0x00000000   Number         0  stubs.o ABSOLUTE
    _printf_d                                0x00000000   Number         0  stubs.o ABSOLUTE
    _printf_e                                0x00000000   Number         0  stubs.o ABSOLUTE
    _printf_f                                0x00000000   Number         0  stubs.o ABSOLUTE
    _printf_flags                            0x00000000   Number         0  stubs.o ABSOLUTE
    _printf_fp_dec                           0x00000000   Number         0  stubs.o ABSOLUTE
    _printf_fp_hex                           0x00000000   Number         0  stubs.o ABSOLUTE
    _printf_g                                0x00000000   Number         0  stubs.o ABSOLUTE
    _printf_i                                0x00000000   Number         0  stubs.o ABSOLUTE
    _printf_int_dec                          0x00000000   Number         0  stubs.o ABSOLUTE
    _printf_l                                0x00000000   Number         0  stubs.o ABSOLUTE
    _printf_lc                               0x00000000   Number         0  stubs.o ABSOLUTE
    _printf_ll                               0x00000000   Number         0  stubs.o ABSOLUTE
    _printf_lld                              0x00000000   Number         0  stubs.o ABSOLUTE
    _printf_lli                              0x00000000   Number         0  stubs.o ABSOLUTE
    _printf_llo                              0x00000000   Number         0  stubs.o ABSOLUTE
    _printf_llu                              0x00000000   Number         0  stubs.o ABSOLUTE
    _printf_llx                              0x00000000   Number         0  stubs.o ABSOLUTE
    _printf_longlong_dec                     0x00000000   Number         0  stubs.o ABSOLUTE
    _printf_longlong_hex                     0x00000000   Number         0  stubs.o ABSOLUTE
    _printf_longlong_oct                     0x00000000   Number         0  stubs.o ABSOLUTE
    _printf_ls                               0x00000000   Number         0  stubs.o ABSOLUTE
    _printf_mbtowc                           0x00000000   Number         0  stubs.o ABSOLUTE
    _printf_n                                0x00000000   Number         0  stubs.o ABSOLUTE
    _printf_o                                0x00000000   Number         0  stubs.o ABSOLUTE
    _printf_p                                0x00000000   Number         0  stubs.o ABSOLUTE
    _printf_percent                          0x00000000   Number         0  stubs.o ABSOLUTE
    _printf_pre_padding                      0x00000000   Number         0  stubs.o ABSOLUTE
    _printf_return_value                     0x00000000   Number         0  stubs.o ABSOLUTE
    _printf_s                                0x00000000   Number         0  stubs.o ABSOLUTE
    _printf_sizespec                         0x00000000   Number         0  stubs.o ABSOLUTE
    _printf_str                              0x00000000   Number         0  stubs.o ABSOLUTE
    _printf_truncate_signed                  0x00000000   Number         0  stubs.o ABSOLUTE
    _printf_truncate_unsigned                0x00000000   Number         0  stubs.o ABSOLUTE
    _printf_u                                0x00000000   Number         0  stubs.o ABSOLUTE
    _printf_wc                               0x00000000   Number         0  stubs.o ABSOLUTE
    _printf_wctomb                           0x00000000   Number         0  stubs.o ABSOLUTE
    _printf_widthprec                        0x00000000   Number         0  stubs.o ABSOLUTE
    _printf_x                                0x00000000   Number         0  stubs.o ABSOLUTE
    __cpp_initialize__aeabi_                  - Undefined Weak Reference
    __cxa_finalize                            - Undefined Weak Reference
    __decompress                              - Undefined Weak Reference
    _clock_init                               - Undefined Weak Reference
    _microlib_exit                            - Undefined Weak Reference
    __Vectors_Size                           0x000000ec   Number         0  startup_stm32f10x_md.o ABSOLUTE
    __Vectors                                0x08000000   Data           4  startup_stm32f10x_md.o(RESET)
    __Vectors_End                            0x080000ec   Data           0  startup_stm32f10x_md.o(RESET)
    __main                                   0x080000ed   Thumb Code     0  entry.o(.ARM.Collect$$$$00000000)
    _main_stk                                0x080000ed   Thumb Code     0  entry2.o(.ARM.Collect$$$$00000001)
    _main_scatterload                        0x080000f1   Thumb Code     0  entry5.o(.ARM.Collect$$$$00000004)
    __main_after_scatterload                 0x080000f5   Thumb Code     0  entry5.o(.ARM.Collect$$$$00000004)
    _main_clock                              0x080000f5   Thumb Code     0  entry7b.o(.ARM.Collect$$$$00000008)
    _main_cpp_init                           0x080000f5   Thumb Code     0  entry8b.o(.ARM.Collect$$$$0000000A)
    _main_init                               0x080000f5   Thumb Code     0  entry9a.o(.ARM.Collect$$$$0000000B)
    __rt_final_cpp                           0x080000fd   Thumb Code     0  entry10a.o(.ARM.Collect$$$$0000000D)
    __rt_final_exit                          0x080000fd   Thumb Code     0  entry11a.o(.ARM.Collect$$$$0000000F)
    Reset_Handler                            0x08000101   Thumb Code     8  startup_stm32f10x_md.o(.text)
    ADC1_2_IRQHandler                        0x0800011b   Thumb Code     0  startup_stm32f10x_md.o(.text)
    CAN1_RX1_IRQHandler                      0x0800011b   Thumb Code     0  startup_stm32f10x_md.o(.text)
    CAN1_SCE_IRQHandler                      0x0800011b   Thumb Code     0  startup_stm32f10x_md.o(.text)
    DMA1_Channel1_IRQHandler                 0x0800011b   Thumb Code     0  startup_stm32f10x_md.o(.text)
    DMA1_Channel2_IRQHandler                 0x0800011b   Thumb Code     0  startup_stm32f10x_md.o(.text)
    DMA1_Channel3_IRQHandler                 0x0800011b   Thumb Code     0  startup_stm32f10x_md.o(.text)
    DMA1_Channel4_IRQHandler                 0x0800011b   Thumb Code     0  startup_stm32f10x_md.o(.text)
    DMA1_Channel5_IRQHandler                 0x0800011b   Thumb Code     0  startup_stm32f10x_md.o(.text)
    DMA1_Channel6_IRQHandler                 0x0800011b   Thumb Code     0  startup_stm32f10x_md.o(.text)
    DMA1_Channel7_IRQHandler                 0x0800011b   Thumb Code     0  startup_stm32f10x_md.o(.text)
    EXTI0_IRQHandler                         0x0800011b   Thumb Code     0  startup_stm32f10x_md.o(.text)
    EXTI15_10_IRQHandler                     0x0800011b   Thumb Code     0  startup_stm32f10x_md.o(.text)
    EXTI1_IRQHandler                         0x0800011b   Thumb Code     0  startup_stm32f10x_md.o(.text)
    EXTI2_IRQHandler                         0x0800011b   Thumb Code     0  startup_stm32f10x_md.o(.text)
    EXTI3_IRQHandler                         0x0800011b   Thumb Code     0  startup_stm32f10x_md.o(.text)
    EXTI4_IRQHandler                         0x0800011b   Thumb Code     0  startup_stm32f10x_md.o(.text)
    EXTI9_5_IRQHandler                       0x0800011b   Thumb Code     0  startup_stm32f10x_md.o(.text)
    FLASH_IRQHandler                         0x0800011b   Thumb Code     0  startup_stm32f10x_md.o(.text)
    I2C1_ER_IRQHandler                       0x0800011b   Thumb Code     0  startup_stm32f10x_md.o(.text)
    I2C1_EV_IRQHandler                       0x0800011b   Thumb Code     0  startup_stm32f10x_md.o(.text)
    I2C2_ER_IRQHandler                       0x0800011b   Thumb Code     0  startup_stm32f10x_md.o(.text)
    I2C2_EV_IRQHandler                       0x0800011b   Thumb Code     0  startup_stm32f10x_md.o(.text)
    PVD_IRQHandler                           0x0800011b   Thumb Code     0  startup_stm32f10x_md.o(.text)
    RCC_IRQHandler                           0x0800011b   Thumb Code     0  startup_stm32f10x_md.o(.text)
    RTCAlarm_IRQHandler                      0x0800011b   Thumb Code     0  startup_stm32f10x_md.o(.text)
    RTC_IRQHandler                           0x0800011b   Thumb Code     0  startup_stm32f10x_md.o(.text)
    SPI1_IRQHandler                          0x0800011b   Thumb Code     0  startup_stm32f10x_md.o(.text)
    SPI2_IRQHandler                          0x0800011b   Thumb Code     0  startup_stm32f10x_md.o(.text)
    TAMPER_IRQHandler                        0x0800011b   Thumb Code     0  startup_stm32f10x_md.o(.text)
    TIM1_BRK_IRQHandler                      0x0800011b   Thumb Code     0  startup_stm32f10x_md.o(.text)
    TIM1_CC_IRQHandler                       0x0800011b   Thumb Code     0  startup_stm32f10x_md.o(.text)
    TIM1_TRG_COM_IRQHandler                  0x0800011b   Thumb Code     0  startup_stm32f10x_md.o(.text)
    TIM1_UP_IRQHandler                       0x0800011b   Thumb Code     0  startup_stm32f10x_md.o(.text)
    TIM2_IRQHandler                          0x0800011b   Thumb Code     0  startup_stm32f10x_md.o(.text)
    TIM4_IRQHandler                          0x0800011b   Thumb Code     0  startup_stm32f10x_md.o(.text)
    USART1_IRQHandler                        0x0800011b   Thumb Code     0  startup_stm32f10x_md.o(.text)
    USART3_IRQHandler                        0x0800011b   Thumb Code     0  startup_stm32f10x_md.o(.text)
    USBWakeUp_IRQHandler                     0x0800011b   Thumb Code     0  startup_stm32f10x_md.o(.text)
    USB_HP_CAN1_TX_IRQHandler                0x0800011b   Thumb Code     0  startup_stm32f10x_md.o(.text)
    USB_LP_CAN1_RX0_IRQHandler               0x0800011b   Thumb Code     0  startup_stm32f10x_md.o(.text)
    WWDG_IRQHandler                          0x0800011b   Thumb Code     0  startup_stm32f10x_md.o(.text)
    SystemInit                               0x08000203   Thumb Code    78  system_stm32f10x.o(.text)
    SystemCoreClockUpdate                    0x08000251   Thumb Code   142  system_stm32f10x.o(.text)
    GPIO_DeInit                              0x08000305   Thumb Code   172  stm32f10x_gpio.o(.text)
    GPIO_AFIODeInit                          0x080003b1   Thumb Code    20  stm32f10x_gpio.o(.text)
    GPIO_Init                                0x080003c5   Thumb Code   278  stm32f10x_gpio.o(.text)
    GPIO_StructInit                          0x080004db   Thumb Code    16  stm32f10x_gpio.o(.text)
    GPIO_ReadInputDataBit                    0x080004eb   Thumb Code    18  stm32f10x_gpio.o(.text)
    GPIO_ReadInputData                       0x080004fd   Thumb Code     8  stm32f10x_gpio.o(.text)
    GPIO_ReadOutputDataBit                   0x08000505   Thumb Code    18  stm32f10x_gpio.o(.text)
    GPIO_ReadOutputData                      0x08000517   Thumb Code     8  stm32f10x_gpio.o(.text)
    GPIO_SetBits                             0x0800051f   Thumb Code     4  stm32f10x_gpio.o(.text)
    GPIO_ResetBits                           0x08000523   Thumb Code     4  stm32f10x_gpio.o(.text)
    GPIO_WriteBit                            0x08000527   Thumb Code    10  stm32f10x_gpio.o(.text)
    GPIO_Write                               0x08000531   Thumb Code     4  stm32f10x_gpio.o(.text)
    GPIO_PinLockConfig                       0x08000535   Thumb Code    18  stm32f10x_gpio.o(.text)
    GPIO_EventOutputConfig                   0x08000547   Thumb Code    26  stm32f10x_gpio.o(.text)
    GPIO_EventOutputCmd                      0x08000561   Thumb Code     6  stm32f10x_gpio.o(.text)
    GPIO_PinRemapConfig                      0x08000567   Thumb Code   138  stm32f10x_gpio.o(.text)
    GPIO_EXTILineConfig                      0x080005f1   Thumb Code    66  stm32f10x_gpio.o(.text)
    GPIO_ETH_MediaInterfaceConfig            0x08000633   Thumb Code     8  stm32f10x_gpio.o(.text)
    RCC_DeInit                               0x08000661   Thumb Code    64  stm32f10x_rcc.o(.text)
    RCC_HSEConfig                            0x080006a1   Thumb Code    70  stm32f10x_rcc.o(.text)
    RCC_GetFlagStatus                        0x080006e7   Thumb Code    56  stm32f10x_rcc.o(.text)
    RCC_WaitForHSEStartUp                    0x0800071f   Thumb Code    56  stm32f10x_rcc.o(.text)
    RCC_AdjustHSICalibrationValue            0x08000757   Thumb Code    20  stm32f10x_rcc.o(.text)
    RCC_HSICmd                               0x0800076b   Thumb Code     6  stm32f10x_rcc.o(.text)
    RCC_PLLConfig                            0x08000771   Thumb Code    24  stm32f10x_rcc.o(.text)
    RCC_PLLCmd                               0x08000789   Thumb Code     6  stm32f10x_rcc.o(.text)
    RCC_SYSCLKConfig                         0x0800078f   Thumb Code    18  stm32f10x_rcc.o(.text)
    RCC_GetSYSCLKSource                      0x080007a1   Thumb Code    10  stm32f10x_rcc.o(.text)
    RCC_HCLKConfig                           0x080007ab   Thumb Code    18  stm32f10x_rcc.o(.text)
    RCC_PCLK1Config                          0x080007bd   Thumb Code    18  stm32f10x_rcc.o(.text)
    RCC_PCLK2Config                          0x080007cf   Thumb Code    20  stm32f10x_rcc.o(.text)
    RCC_ITConfig                             0x080007e3   Thumb Code    26  stm32f10x_rcc.o(.text)
    RCC_USBCLKConfig                         0x080007fd   Thumb Code     8  stm32f10x_rcc.o(.text)
    RCC_ADCCLKConfig                         0x08000805   Thumb Code    18  stm32f10x_rcc.o(.text)
    RCC_LSEConfig                            0x08000817   Thumb Code    50  stm32f10x_rcc.o(.text)
    RCC_LSICmd                               0x08000849   Thumb Code     6  stm32f10x_rcc.o(.text)
    RCC_RTCCLKConfig                         0x0800084f   Thumb Code    12  stm32f10x_rcc.o(.text)
    RCC_RTCCLKCmd                            0x0800085b   Thumb Code     8  stm32f10x_rcc.o(.text)
    RCC_GetClocksFreq                        0x08000863   Thumb Code   192  stm32f10x_rcc.o(.text)
    RCC_AHBPeriphClockCmd                    0x08000923   Thumb Code    26  stm32f10x_rcc.o(.text)
    RCC_APB2PeriphClockCmd                   0x0800093d   Thumb Code    26  stm32f10x_rcc.o(.text)
    RCC_APB1PeriphClockCmd                   0x08000957   Thumb Code    26  stm32f10x_rcc.o(.text)
    RCC_APB2PeriphResetCmd                   0x08000971   Thumb Code    26  stm32f10x_rcc.o(.text)
    RCC_APB1PeriphResetCmd                   0x0800098b   Thumb Code    26  stm32f10x_rcc.o(.text)
    RCC_BackupResetCmd                       0x080009a5   Thumb Code     8  stm32f10x_rcc.o(.text)
    RCC_ClockSecuritySystemCmd               0x080009ad   Thumb Code     6  stm32f10x_rcc.o(.text)
    RCC_MCOConfig                            0x080009b3   Thumb Code     6  stm32f10x_rcc.o(.text)
    RCC_ClearFlag                            0x080009b9   Thumb Code    14  stm32f10x_rcc.o(.text)
    RCC_GetITStatus                          0x080009c7   Thumb Code    20  stm32f10x_rcc.o(.text)
    RCC_ClearITPendingBit                    0x080009db   Thumb Code     6  stm32f10x_rcc.o(.text)
    ADC_DeInit                               0x08000a05   Thumb Code    78  stm32f10x_adc.o(.text)
    ADC_Init                                 0x08000a53   Thumb Code    70  stm32f10x_adc.o(.text)
    ADC_StructInit                           0x08000a99   Thumb Code    18  stm32f10x_adc.o(.text)
    ADC_Cmd                                  0x08000aab   Thumb Code    22  stm32f10x_adc.o(.text)
    ADC_DMACmd                               0x08000ac1   Thumb Code    22  stm32f10x_adc.o(.text)
    ADC_ITConfig                             0x08000ad7   Thumb Code    24  stm32f10x_adc.o(.text)
    ADC_ResetCalibration                     0x08000aef   Thumb Code    10  stm32f10x_adc.o(.text)
    ADC_GetResetCalibrationStatus            0x08000af9   Thumb Code    20  stm32f10x_adc.o(.text)
    ADC_StartCalibration                     0x08000b0d   Thumb Code    10  stm32f10x_adc.o(.text)
    ADC_GetCalibrationStatus                 0x08000b17   Thumb Code    20  stm32f10x_adc.o(.text)
    ADC_SoftwareStartConvCmd                 0x08000b2b   Thumb Code    22  stm32f10x_adc.o(.text)
    ADC_GetSoftwareStartConvStatus           0x08000b41   Thumb Code    20  stm32f10x_adc.o(.text)
    ADC_DiscModeChannelCountConfig           0x08000b55   Thumb Code    24  stm32f10x_adc.o(.text)
    ADC_DiscModeCmd                          0x08000b6d   Thumb Code    22  stm32f10x_adc.o(.text)
    ADC_RegularChannelConfig                 0x08000b83   Thumb Code   184  stm32f10x_adc.o(.text)
    ADC_ExternalTrigConvCmd                  0x08000c3b   Thumb Code    22  stm32f10x_adc.o(.text)
    ADC_GetConversionValue                   0x08000c51   Thumb Code     8  stm32f10x_adc.o(.text)
    ADC_GetDualModeConversionValue           0x08000c59   Thumb Code     8  stm32f10x_adc.o(.text)
    ADC_AutoInjectedConvCmd                  0x08000c61   Thumb Code    22  stm32f10x_adc.o(.text)
    ADC_InjectedDiscModeCmd                  0x08000c77   Thumb Code    22  stm32f10x_adc.o(.text)
    ADC_ExternalTrigInjectedConvConfig       0x08000c8d   Thumb Code    16  stm32f10x_adc.o(.text)
    ADC_ExternalTrigInjectedConvCmd          0x08000c9d   Thumb Code    22  stm32f10x_adc.o(.text)
    ADC_SoftwareStartInjectedConvCmd         0x08000cb3   Thumb Code    22  stm32f10x_adc.o(.text)
    ADC_GetSoftwareStartInjectedConvCmdStatus 0x08000cc9   Thumb Code    20  stm32f10x_adc.o(.text)
    ADC_InjectedChannelConfig                0x08000cdd   Thumb Code   130  stm32f10x_adc.o(.text)
    ADC_InjectedSequencerLengthConfig        0x08000d5f   Thumb Code    24  stm32f10x_adc.o(.text)
    ADC_SetInjectedOffset                    0x08000d77   Thumb Code    20  stm32f10x_adc.o(.text)
    ADC_GetInjectedConversionValue           0x08000d8b   Thumb Code    28  stm32f10x_adc.o(.text)
    ADC_AnalogWatchdogCmd                    0x08000da7   Thumb Code    16  stm32f10x_adc.o(.text)
    ADC_AnalogWatchdogThresholdsConfig       0x08000db7   Thumb Code     6  stm32f10x_adc.o(.text)
    ADC_AnalogWatchdogSingleChannelConfig    0x08000dbd   Thumb Code    16  stm32f10x_adc.o(.text)
    ADC_TempSensorVrefintCmd                 0x08000dcd   Thumb Code    64  stm32f10x_adc.o(.text)
    ADC_GetFlagStatus                        0x08000e0d   Thumb Code    18  stm32f10x_adc.o(.text)
    ADC_ClearFlag                            0x08000e1f   Thumb Code     6  stm32f10x_adc.o(.text)
    ADC_GetITStatus                          0x08000e25   Thumb Code    36  stm32f10x_adc.o(.text)
    ADC_ClearITPendingBit                    0x08000e49   Thumb Code    10  stm32f10x_adc.o(.text)
    USART_DeInit                             0x08000e55   Thumb Code   134  stm32f10x_usart.o(.text)
    USART_Init                               0x08000edb   Thumb Code   210  stm32f10x_usart.o(.text)
    USART_StructInit                         0x08000fad   Thumb Code    24  stm32f10x_usart.o(.text)
    USART_ClockInit                          0x08000fc5   Thumb Code    34  stm32f10x_usart.o(.text)
    USART_ClockStructInit                    0x08000fe7   Thumb Code    12  stm32f10x_usart.o(.text)
    USART_Cmd                                0x08000ff3   Thumb Code    24  stm32f10x_usart.o(.text)
    USART_ITConfig                           0x0800100b   Thumb Code    74  stm32f10x_usart.o(.text)
    USART_DMACmd                             0x08001055   Thumb Code    18  stm32f10x_usart.o(.text)
    USART_SetAddress                         0x08001067   Thumb Code    18  stm32f10x_usart.o(.text)
    USART_WakeUpConfig                       0x08001079   Thumb Code    18  stm32f10x_usart.o(.text)
    USART_ReceiverWakeUpCmd                  0x0800108b   Thumb Code    24  stm32f10x_usart.o(.text)
    USART_LINBreakDetectLengthConfig         0x080010a3   Thumb Code    18  stm32f10x_usart.o(.text)
    USART_LINCmd                             0x080010b5   Thumb Code    24  stm32f10x_usart.o(.text)
    USART_SendData                           0x080010cd   Thumb Code     8  stm32f10x_usart.o(.text)
    USART_ReceiveData                        0x080010d5   Thumb Code    10  stm32f10x_usart.o(.text)
    USART_SendBreak                          0x080010df   Thumb Code    10  stm32f10x_usart.o(.text)
    USART_SetGuardTime                       0x080010e9   Thumb Code    16  stm32f10x_usart.o(.text)
    USART_SetPrescaler                       0x080010f9   Thumb Code    16  stm32f10x_usart.o(.text)
    USART_SmartCardCmd                       0x08001109   Thumb Code    24  stm32f10x_usart.o(.text)
    USART_SmartCardNACKCmd                   0x08001121   Thumb Code    24  stm32f10x_usart.o(.text)
    USART_HalfDuplexCmd                      0x08001139   Thumb Code    24  stm32f10x_usart.o(.text)
    USART_OverSampling8Cmd                   0x08001151   Thumb Code    22  stm32f10x_usart.o(.text)
    USART_OneBitMethodCmd                    0x08001167   Thumb Code    24  stm32f10x_usart.o(.text)
    USART_IrDAConfig                         0x0800117f   Thumb Code    18  stm32f10x_usart.o(.text)
    USART_IrDACmd                            0x08001191   Thumb Code    24  stm32f10x_usart.o(.text)
    USART_GetFlagStatus                      0x080011a9   Thumb Code    26  stm32f10x_usart.o(.text)
    USART_ClearFlag                          0x080011c3   Thumb Code    18  stm32f10x_usart.o(.text)
    USART_GetITStatus                        0x080011d5   Thumb Code    84  stm32f10x_usart.o(.text)
    USART_ClearITPendingBit                  0x08001229   Thumb Code    52  stm32f10x_usart.o(.text)
    NVIC_PriorityGroupConfig                 0x0800125d   Thumb Code    10  misc.o(.text)
    NVIC_Init                                0x08001267   Thumb Code   100  misc.o(.text)
    NVIC_SetVectorTable                      0x080012cb   Thumb Code    14  misc.o(.text)
    NVIC_SystemLPConfig                      0x080012d9   Thumb Code    34  misc.o(.text)
    SysTick_CLKSourceConfig                  0x080012fb   Thumb Code    40  misc.o(.text)
    TIM_DeInit                               0x08001339   Thumb Code   424  stm32f10x_tim.o(.text)
    TIM_TimeBaseInit                         0x080014e1   Thumb Code   122  stm32f10x_tim.o(.text)
    TIM_OC1Init                              0x0800155b   Thumb Code   132  stm32f10x_tim.o(.text)
    TIM_OC2Init                              0x080015df   Thumb Code   154  stm32f10x_tim.o(.text)
    TIM_OC3Init                              0x08001679   Thumb Code   150  stm32f10x_tim.o(.text)
    TIM_OC4Init                              0x0800170f   Thumb Code   182  stm32f10x_tim.o(.text)
    TIM_SetIC4Prescaler                      0x080017c5   Thumb Code    26  stm32f10x_tim.o(.text)
    TIM_SetIC3Prescaler                      0x08001861   Thumb Code    18  stm32f10x_tim.o(.text)
    TIM_SetIC2Prescaler                      0x080018ed   Thumb Code    26  stm32f10x_tim.o(.text)
    TIM_SetIC1Prescaler                      0x08001989   Thumb Code    18  stm32f10x_tim.o(.text)
    TIM_ICInit                               0x08001a07   Thumb Code   150  stm32f10x_tim.o(.text)
    TIM_PWMIConfig                           0x08001a9d   Thumb Code   124  stm32f10x_tim.o(.text)
    TIM_BDTRConfig                           0x08001b19   Thumb Code    32  stm32f10x_tim.o(.text)
    TIM_TimeBaseStructInit                   0x08001b39   Thumb Code    18  stm32f10x_tim.o(.text)
    TIM_OCStructInit                         0x08001b4b   Thumb Code    20  stm32f10x_tim.o(.text)
    TIM_ICStructInit                         0x08001b5f   Thumb Code    18  stm32f10x_tim.o(.text)
    TIM_BDTRStructInit                       0x08001b71   Thumb Code    40  stm32f10x_tim.o(.text)
    TIM_Cmd                                  0x08001b99   Thumb Code    24  stm32f10x_tim.o(.text)
    TIM_CtrlPWMOutputs                       0x08001bb1   Thumb Code    30  stm32f10x_tim.o(.text)
    TIM_ITConfig                             0x08001bcf   Thumb Code    18  stm32f10x_tim.o(.text)
    TIM_GenerateEvent                        0x08001be1   Thumb Code     4  stm32f10x_tim.o(.text)
    TIM_DMAConfig                            0x08001be5   Thumb Code    10  stm32f10x_tim.o(.text)
    TIM_DMACmd                               0x08001bef   Thumb Code    18  stm32f10x_tim.o(.text)
    TIM_InternalClockConfig                  0x08001c01   Thumb Code    12  stm32f10x_tim.o(.text)
    TIM_SelectInputTrigger                   0x08001c0d   Thumb Code    18  stm32f10x_tim.o(.text)
    TIM_ITRxExternalClockConfig              0x08001c1f   Thumb Code    24  stm32f10x_tim.o(.text)
    TIM_TIxExternalClockConfig               0x08001c37   Thumb Code    62  stm32f10x_tim.o(.text)
    TIM_ETRConfig                            0x08001c75   Thumb Code    28  stm32f10x_tim.o(.text)
    TIM_ETRClockMode1Config                  0x08001c91   Thumb Code    54  stm32f10x_tim.o(.text)
    TIM_ETRClockMode2Config                  0x08001cc7   Thumb Code    32  stm32f10x_tim.o(.text)
    TIM_PrescalerConfig                      0x08001ce7   Thumb Code     6  stm32f10x_tim.o(.text)
    TIM_CounterModeConfig                    0x08001ced   Thumb Code    18  stm32f10x_tim.o(.text)
    TIM_EncoderInterfaceConfig               0x08001cff   Thumb Code    66  stm32f10x_tim.o(.text)
    TIM_ForcedOC1Config                      0x08001d41   Thumb Code    18  stm32f10x_tim.o(.text)
    TIM_ForcedOC2Config                      0x08001d53   Thumb Code    26  stm32f10x_tim.o(.text)
    TIM_ForcedOC3Config                      0x08001d6d   Thumb Code    18  stm32f10x_tim.o(.text)
    TIM_ForcedOC4Config                      0x08001d7f   Thumb Code    26  stm32f10x_tim.o(.text)
    TIM_ARRPreloadConfig                     0x08001d99   Thumb Code    24  stm32f10x_tim.o(.text)
    TIM_SelectCOM                            0x08001db1   Thumb Code    24  stm32f10x_tim.o(.text)
    TIM_SelectCCDMA                          0x08001dc9   Thumb Code    24  stm32f10x_tim.o(.text)
    TIM_CCPreloadControl                     0x08001de1   Thumb Code    24  stm32f10x_tim.o(.text)
    TIM_OC1PreloadConfig                     0x08001df9   Thumb Code    18  stm32f10x_tim.o(.text)
    TIM_OC2PreloadConfig                     0x08001e0b   Thumb Code    26  stm32f10x_tim.o(.text)
    TIM_OC3PreloadConfig                     0x08001e25   Thumb Code    18  stm32f10x_tim.o(.text)
    TIM_OC4PreloadConfig                     0x08001e37   Thumb Code    26  stm32f10x_tim.o(.text)
    TIM_OC1FastConfig                        0x08001e51   Thumb Code    18  stm32f10x_tim.o(.text)
    TIM_OC2FastConfig                        0x08001e63   Thumb Code    26  stm32f10x_tim.o(.text)
    TIM_OC3FastConfig                        0x08001e7d   Thumb Code    18  stm32f10x_tim.o(.text)
    TIM_OC4FastConfig                        0x08001e8f   Thumb Code    26  stm32f10x_tim.o(.text)
    TIM_ClearOC1Ref                          0x08001ea9   Thumb Code    18  stm32f10x_tim.o(.text)
    TIM_ClearOC2Ref                          0x08001ebb   Thumb Code    24  stm32f10x_tim.o(.text)
    TIM_ClearOC3Ref                          0x08001ed3   Thumb Code    18  stm32f10x_tim.o(.text)
    TIM_ClearOC4Ref                          0x08001ee5   Thumb Code    24  stm32f10x_tim.o(.text)
    TIM_OC1PolarityConfig                    0x08001efd   Thumb Code    18  stm32f10x_tim.o(.text)
    TIM_OC1NPolarityConfig                   0x08001f0f   Thumb Code    18  stm32f10x_tim.o(.text)
    TIM_OC2PolarityConfig                    0x08001f21   Thumb Code    26  stm32f10x_tim.o(.text)
    TIM_OC2NPolarityConfig                   0x08001f3b   Thumb Code    26  stm32f10x_tim.o(.text)
    TIM_OC3PolarityConfig                    0x08001f55   Thumb Code    26  stm32f10x_tim.o(.text)
    TIM_OC3NPolarityConfig                   0x08001f6f   Thumb Code    26  stm32f10x_tim.o(.text)
    TIM_OC4PolarityConfig                    0x08001f89   Thumb Code    26  stm32f10x_tim.o(.text)
    TIM_CCxCmd                               0x08001fa3   Thumb Code    30  stm32f10x_tim.o(.text)
    TIM_CCxNCmd                              0x08001fc1   Thumb Code    30  stm32f10x_tim.o(.text)
    TIM_SelectOCxM                           0x08001fdf   Thumb Code    82  stm32f10x_tim.o(.text)
    TIM_UpdateDisableConfig                  0x08002031   Thumb Code    24  stm32f10x_tim.o(.text)
    TIM_UpdateRequestConfig                  0x08002049   Thumb Code    24  stm32f10x_tim.o(.text)
    TIM_SelectHallSensor                     0x08002061   Thumb Code    24  stm32f10x_tim.o(.text)
    TIM_SelectOnePulseMode                   0x08002079   Thumb Code    18  stm32f10x_tim.o(.text)
    TIM_SelectOutputTrigger                  0x0800208b   Thumb Code    18  stm32f10x_tim.o(.text)
    TIM_SelectSlaveMode                      0x0800209d   Thumb Code    18  stm32f10x_tim.o(.text)
    TIM_SelectMasterSlaveMode                0x080020af   Thumb Code    18  stm32f10x_tim.o(.text)
    TIM_SetCounter                           0x080020c1   Thumb Code     4  stm32f10x_tim.o(.text)
    TIM_SetAutoreload                        0x080020c5   Thumb Code     4  stm32f10x_tim.o(.text)
    TIM_SetCompare1                          0x080020c9   Thumb Code     4  stm32f10x_tim.o(.text)
    TIM_SetCompare2                          0x080020cd   Thumb Code     4  stm32f10x_tim.o(.text)
    TIM_SetCompare3                          0x080020d1   Thumb Code     4  stm32f10x_tim.o(.text)
    TIM_SetCompare4                          0x080020d5   Thumb Code     6  stm32f10x_tim.o(.text)
    TIM_SetClockDivision                     0x080020db   Thumb Code    18  stm32f10x_tim.o(.text)
    TIM_GetCapture1                          0x080020ed   Thumb Code     6  stm32f10x_tim.o(.text)
    TIM_GetCapture2                          0x080020f3   Thumb Code     6  stm32f10x_tim.o(.text)
    TIM_GetCapture3                          0x080020f9   Thumb Code     6  stm32f10x_tim.o(.text)
    TIM_GetCapture4                          0x080020ff   Thumb Code     8  stm32f10x_tim.o(.text)
    TIM_GetCounter                           0x08002107   Thumb Code     6  stm32f10x_tim.o(.text)
    TIM_GetPrescaler                         0x0800210d   Thumb Code     6  stm32f10x_tim.o(.text)
    TIM_GetFlagStatus                        0x08002113   Thumb Code    18  stm32f10x_tim.o(.text)
    TIM_ClearFlag                            0x08002125   Thumb Code     6  stm32f10x_tim.o(.text)
    TIM_GetITStatus                          0x0800212b   Thumb Code    34  stm32f10x_tim.o(.text)
    TIM_ClearITPendingBit                    0x0800214d   Thumb Code     6  stm32f10x_tim.o(.text)
    Delay_LCD                                0x08002155   Thumb Code    30  lcd.o(.text)
    LCD_WriteReg                             0x08002173   Thumb Code    68  lcd.o(.text)
    REG_8230_Init                            0x080021b7   Thumb Code   288  lcd.o(.text)
    REG_932X_Init                            0x080022d7   Thumb Code   514  lcd.o(.text)
    LCD_BusOut                               0x080024d9   Thumb Code    32  lcd.o(.text)
    LCD_BusIn                                0x080024f9   Thumb Code    32  lcd.o(.text)
    LCD_ReadReg                              0x08002519   Thumb Code    92  lcd.o(.text)
    LCD_CtrlLinesConfig                      0x08002575   Thumb Code    68  lcd.o(.text)
    STM3210B_LCD_Init                        0x080025b9   Thumb Code    50  lcd.o(.text)
    LCD_SetTextColor                         0x080025eb   Thumb Code    12  lcd.o(.text)
    LCD_SetBackColor                         0x080025f7   Thumb Code    12  lcd.o(.text)
    LCD_SetCursor                            0x08002603   Thumb Code    24  lcd.o(.text)
    LCD_WriteRAM                             0x0800261b   Thumb Code    54  lcd.o(.text)
    LCD_WriteRAM_Prepare                     0x08002651   Thumb Code    58  lcd.o(.text)
    LCD_DrawChar                             0x0800268b   Thumb Code   100  lcd.o(.text)
    LCD_DisplayChar                          0x080026ef   Thumb Code    34  lcd.o(.text)
    LCD_DisplayStringLine                    0x08002711   Thumb Code    44  lcd.o(.text)
    LCD_ClearLine                            0x0800273d   Thumb Code    14  lcd.o(.text)
    LCD_Clear                                0x0800274b   Thumb Code    38  lcd.o(.text)
    LCD_SetDisplayWindow                     0x08002771   Thumb Code    88  lcd.o(.text)
    LCD_WindowModeDisable                    0x080027c9   Thumb Code    28  lcd.o(.text)
    LCD_DrawLine                             0x080027e5   Thumb Code    86  lcd.o(.text)
    LCD_DrawRect                             0x0800283b   Thumb Code    66  lcd.o(.text)
    LCD_DrawCircle                           0x0800287d   Thumb Code   300  lcd.o(.text)
    LCD_DrawMonoPict                         0x080029a9   Thumb Code    76  lcd.o(.text)
    LCD_WriteBMP                             0x080029f5   Thumb Code    74  lcd.o(.text)
    LCD_ReadRAM                              0x08002a3f   Thumb Code    82  lcd.o(.text)
    LCD_PowerOn                              0x08002a91   Thumb Code   118  lcd.o(.text)
    LCD_DisplayOn                            0x08002b07   Thumb Code    14  lcd.o(.text)
    LCD_DisplayOff                           0x08002b15   Thumb Code    12  lcd.o(.text)
    LCD_DrawPicture                          0x08002b21   Thumb Code    48  lcd.o(.text)
    Led_Control                              0x08002b61   Thumb Code    64  main.o(.text)
    Data_Analysis                            0x08002ba1   Thumb Code    62  main.o(.text)
    receiveData                              0x08002bdf   Thumb Code    96  main.o(.text)
    Write_Data                               0x08002c3f   Thumb Code    46  main.o(.text)
    Save_data                                0x08002c6d   Thumb Code    36  main.o(.text)
    Control_Multi_Sub                        0x08002c91   Thumb Code    58  main.o(.text)
    Control_Multi_Add                        0x08002ccb   Thumb Code    58  main.o(.text)
    Key_Control                              0x08002d05   Thumb Code   130  main.o(.text)
    Show_Gui                                 0x08002d87   Thumb Code    84  main.o(.text)
    main                                     0x08002ddb   Thumb Code   176  main.o(.text)
    Read_Data                                0x08002e8b   Thumb Code    60  main.o(.text)
    Init_Data                                0x08002ec7   Thumb Code    24  main.o(.text)
    NMI_Handler                              0x08002f55   Thumb Code     2  stm32f10x_it.o(.text)
    HardFault_Handler                        0x08002f57   Thumb Code     4  stm32f10x_it.o(.text)
    MemManage_Handler                        0x08002f5b   Thumb Code     4  stm32f10x_it.o(.text)
    BusFault_Handler                         0x08002f5f   Thumb Code     4  stm32f10x_it.o(.text)
    UsageFault_Handler                       0x08002f63   Thumb Code     4  stm32f10x_it.o(.text)
    DebugMon_Handler                         0x08002f67   Thumb Code     2  stm32f10x_it.o(.text)
    SVC_Handler                              0x08002f69   Thumb Code     2  stm32f10x_it.o(.text)
    PendSV_Handler                           0x08002f6b   Thumb Code     2  stm32f10x_it.o(.text)
    SysTick_Handler                          0x08002f6d   Thumb Code    12  stm32f10x_it.o(.text)
    ADC_Config                               0x08002f7d   Thumb Code   136  adc.o(.text)
    Get_Adc                                  0x08003005   Thumb Code    58  adc.o(.text)
    KEY_Init                                 0x08003051   Thumb Code    62  key.o(.text)
    KEY_Scan                                 0x0800308f   Thumb Code    82  key.o(.text)
    LED_Init                                 0x080030e9   Thumb Code    62  led.o(.text)
    LED_Control                              0x08003127   Thumb Code    60  led.o(.text)
    USART_Config                             0x0800316d   Thumb Code   116  usart.o(.text)
    USART_SendString                         0x080031e1   Thumb Code    44  usart.o(.text)
    NVIC_Configuration                       0x0800320d   Thumb Code    42  usart.o(.text)
    USART2_IRQHandler                        0x08003237   Thumb Code    90  usart.o(.text)
    Delay_Ms                                 0x080032a5   Thumb Code    16  delay.o(.text)
    TIM2_Init                                0x080032b9   Thumb Code     2  tim.o(.text)
    TIM3_Init                                0x080032bb   Thumb Code     2  tim.o(.text)
    TIM3_IRQHandler                          0x080032bd   Thumb Code   220  tim.o(.text)
    SDA_Input_Mode                           0x080033b5   Thumb Code    30  iic.o(.text)
    SDA_Output_Mode                          0x080033d3   Thumb Code    30  iic.o(.text)
    SDA_Output                               0x080033f1   Thumb Code    26  iic.o(.text)
    SCL_Output                               0x0800340b   Thumb Code    26  iic.o(.text)
    SDA_Input                                0x08003425   Thumb Code    12  iic.o(.text)
    delay1                                   0x08003431   Thumb Code    12  iic.o(.text)
    I2CStart                                 0x0800343d   Thumb Code    60  iic.o(.text)
    I2CStop                                  0x08003479   Thumb Code    60  iic.o(.text)
    I2CWaitAck                               0x080034b5   Thumb Code    88  iic.o(.text)
    I2CSendAck                               0x0800350d   Thumb Code    54  iic.o(.text)
    I2CSendNotAck                            0x08003543   Thumb Code    46  iic.o(.text)
    I2CSendByte                              0x08003571   Thumb Code    88  iic.o(.text)
    I2CReceiveByte                           0x080035c9   Thumb Code    88  iic.o(.text)
    i2c_init                                 0x08003621   Thumb Code    38  iic.o(.text)
    __aeabi_dmul                             0x0800364d   Thumb Code   228  dmul.o(.text)
    __aeabi_ddiv                             0x08003731   Thumb Code   222  ddiv.o(.text)
    __aeabi_i2f                              0x0800380f   Thumb Code    18  fflti.o(.text)
    __aeabi_ui2f                             0x08003821   Thumb Code    10  ffltui.o(.text)
    __aeabi_ui2d                             0x0800382b   Thumb Code    26  dfltui.o(.text)
    __aeabi_uidiv                            0x08003845   Thumb Code     0  uidiv.o(.text)
    __aeabi_uidivmod                         0x08003845   Thumb Code    44  uidiv.o(.text)
    __I$use$fp                               0x08003871   Thumb Code     0  iusefp.o(.text)
    _float_round                             0x08003871   Thumb Code    18  fepilogue.o(.text)
    _float_epilogue                          0x08003883   Thumb Code    92  fepilogue.o(.text)
    _double_round                            0x080038df   Thumb Code    30  depilogue.o(.text)
    _double_epilogue                         0x080038fd   Thumb Code   156  depilogue.o(.text)
    __scatterload                            0x08003999   Thumb Code    28  init.o(.text)
    __scatterload_rt2                        0x08003999   Thumb Code     0  init.o(.text)
    __aeabi_llsl                             0x080039bd   Thumb Code    30  llshl.o(.text)
    _ll_shift_l                              0x080039bd   Thumb Code     0  llshl.o(.text)
    __aeabi_llsr                             0x080039db   Thumb Code    32  llushr.o(.text)
    _ll_ushift_r                             0x080039db   Thumb Code     0  llushr.o(.text)
    __0sprintf$6                             0x080039fd   Thumb Code    34  printf6.o(i.__0sprintf$6)
    __1sprintf$6                             0x080039fd   Thumb Code     0  printf6.o(i.__0sprintf$6)
    __2sprintf                               0x080039fd   Thumb Code     0  printf6.o(i.__0sprintf$6)
    __scatterload_copy                       0x08003a25   Thumb Code    14  handlers.o(i.__scatterload_copy)
    __scatterload_null                       0x08003a33   Thumb Code     2  handlers.o(i.__scatterload_null)
    __scatterload_zeroinit                   0x08003a35   Thumb Code    14  handlers.o(i.__scatterload_zeroinit)
    ASCII_Table                              0x08003d90   Data        4560  lcd.o(.constdata)
    Region$$Table$$Base                      0x08004f60   Number         0  anon$$obj.o(Region$$Table)
    Region$$Table$$Limit                     0x08004f80   Number         0  anon$$obj.o(Region$$Table)
    SystemCoreClock                          0x20000000   Data           4  system_stm32f10x.o(.data)
    AHBPrescTable                            0x20000004   Data          16  system_stm32f10x.o(.data)
    dummy                                    0x2000002c   Data           2  lcd.o(.data)
    PA1_Frep                                 0x20000030   Data           4  main.o(.data)
    PA2_Frep                                 0x20000034   Data           4  main.o(.data)
    PA6_Multiple                             0x20000038   Data           4  main.o(.data)
    PA7_Multiple                             0x2000003c   Data           4  main.o(.data)
    setting_flag                             0x20000040   Data           4  main.o(.data)
    current_channel                          0x20000044   Data           4  main.o(.data)
    TimingDelay                              0x20000048   Data           4  main.o(.data)
    RXOVER                                   0x2000004c   Data           1  usart.o(.data)
    RXCUNT                                   0x2000004d   Data           1  usart.o(.data)
    PA1_SETTING_Frep                         0x20000050   Data           4  tim.o(.data)
    PA1_PWM_SET                              0x20000054   Data           4  tim.o(.data)
    PA2_PWM_SET                              0x20000058   Data           4  tim.o(.data)
    PA1_DutyCycle                            0x2000005c   Data           4  tim.o(.data)
    PA1_Frequency                            0x20000060   Data           4  tim.o(.data)
    PA2_DutyCycle                            0x20000064   Data           4  tim.o(.data)
    PA2_Frequency                            0x20000068   Data           4  tim.o(.data)
    PA1Value                                 0x2000006c   Data           2  tim.o(.data)
    PA2Value                                 0x2000006e   Data           2  tim.o(.data)
    disp                                     0x20000070   Data          20  main.o(.bss)
    USART_RXBUF                              0x20000084   Data          30  usart.o(.bss)
    __initial_sp                             0x200004a8   Data           0  startup_stm32f10x_md.o(STACK)



==============================================================================

Memory Map of the image

  Image Entry point : 0x080000ed

  Load Region LR_IROM1 (Base: 0x08000000, Size: 0x00004ff0, Max: 0x00020000, ABSOLUTE)

    Execution Region ER_IROM1 (Base: 0x08000000, Size: 0x00004f80, Max: 0x00020000, ABSOLUTE)

    Base Addr    Size         Type   Attr      Idx    E Section Name        Object

    0x08000000   0x000000ec   Data   RO            3    RESET               startup_stm32f10x_md.o
    0x080000ec   0x00000000   Code   RO          616  * .ARM.Collect$$$$00000000  mc_w.l(entry.o)
    0x080000ec   0x00000004   Code   RO          890    .ARM.Collect$$$$00000001  mc_w.l(entry2.o)
    0x080000f0   0x00000004   Code   RO          893    .ARM.Collect$$$$00000004  mc_w.l(entry5.o)
    0x080000f4   0x00000000   Code   RO          895    .ARM.Collect$$$$00000008  mc_w.l(entry7b.o)
    0x080000f4   0x00000000   Code   RO          897    .ARM.Collect$$$$0000000A  mc_w.l(entry8b.o)
    0x080000f4   0x00000008   Code   RO          898    .ARM.Collect$$$$0000000B  mc_w.l(entry9a.o)
    0x080000fc   0x00000000   Code   RO          900    .ARM.Collect$$$$0000000D  mc_w.l(entry10a.o)
    0x080000fc   0x00000000   Code   RO          902    .ARM.Collect$$$$0000000F  mc_w.l(entry11a.o)
    0x080000fc   0x00000004   Code   RO          891    .ARM.Collect$$$$00002712  mc_w.l(entry2.o)
    0x08000100   0x00000024   Code   RO            4    .text               startup_stm32f10x_md.o
    0x08000124   0x000001e0   Code   RO           12    .text               system_stm32f10x.o
    0x08000304   0x0000035c   Code   RO          137    .text               stm32f10x_gpio.o
    0x08000660   0x000003a4   Code   RO          161    .text               stm32f10x_rcc.o
    0x08000a04   0x0000044e   Code   RO          183    .text               stm32f10x_adc.o
    0x08000e52   0x00000002   PAD
    0x08000e54   0x00000408   Code   RO          203    .text               stm32f10x_usart.o
    0x0800125c   0x000000dc   Code   RO          223    .text               misc.o
    0x08001338   0x00000e1a   Code   RO          243    .text               stm32f10x_tim.o
    0x08002152   0x00000002   PAD
    0x08002154   0x00000a0c   Code   RO          263    .text               lcd.o
    0x08002b60   0x000003f4   Code   RO          293    .text               main.o
    0x08002f54   0x00000028   Code   RO          344    .text               stm32f10x_it.o
    0x08002f7c   0x000000d4   Code   RO          368    .text               adc.o
    0x08003050   0x00000098   Code   RO          474    .text               key.o
    0x080030e8   0x00000084   Code   RO          501    .text               led.o
    0x0800316c   0x00000138   Code   RO          524    .text               usart.o
    0x080032a4   0x00000014   Code   RO          548    .text               delay.o
    0x080032b8   0x000000fc   Code   RO          569    .text               tim.o
    0x080033b4   0x00000298   Code   RO          592    .text               iic.o
    0x0800364c   0x000000e4   Code   RO          880    .text               mf_w.l(dmul.o)
    0x08003730   0x000000de   Code   RO          882    .text               mf_w.l(ddiv.o)
    0x0800380e   0x00000012   Code   RO          884    .text               mf_w.l(fflti.o)
    0x08003820   0x0000000a   Code   RO          886    .text               mf_w.l(ffltui.o)
    0x0800382a   0x0000001a   Code   RO          888    .text               mf_w.l(dfltui.o)
    0x08003844   0x0000002c   Code   RO          907    .text               mc_w.l(uidiv.o)
    0x08003870   0x00000000   Code   RO          911    .text               mc_w.l(iusefp.o)
    0x08003870   0x0000006e   Code   RO          912    .text               mf_w.l(fepilogue.o)
    0x080038de   0x000000ba   Code   RO          914    .text               mf_w.l(depilogue.o)
    0x08003998   0x00000024   Code   RO          922    .text               mc_w.l(init.o)
    0x080039bc   0x0000001e   Code   RO          925    .text               mc_w.l(llshl.o)
    0x080039da   0x00000020   Code   RO          927    .text               mc_w.l(llushr.o)
    0x080039fa   0x00000002   PAD
    0x080039fc   0x00000028   Code   RO          776    i.__0sprintf$6      mc_w.l(printf6.o)
    0x08003a24   0x0000000e   Code   RO          934    i.__scatterload_copy  mc_w.l(handlers.o)
    0x08003a32   0x00000002   Code   RO          935    i.__scatterload_null  mc_w.l(handlers.o)
    0x08003a34   0x0000000e   Code   RO          936    i.__scatterload_zeroinit  mc_w.l(handlers.o)
    0x08003a42   0x00000002   PAD
    0x08003a44   0x000002f0   Code   RO          781    i._printf_core      mc_w.l(printf6.o)
    0x08003d34   0x00000024   Code   RO          782    i._printf_post_padding  mc_w.l(printf6.o)
    0x08003d58   0x0000002e   Code   RO          783    i._printf_pre_padding  mc_w.l(printf6.o)
    0x08003d86   0x0000000a   Code   RO          785    i._sputc            mc_w.l(printf6.o)
    0x08003d90   0x000011d0   Data   RO          264    .constdata          lcd.o
    0x08004f60   0x00000020   Data   RO          932    Region$$Table       anon$$obj.o


    Execution Region RW_IRAM1 (Base: 0x20000000, Size: 0x000004a8, Max: 0x00005000, ABSOLUTE)

    Base Addr    Size         Type   Attr      Idx    E Section Name        Object

    0x20000000   0x00000014   Data   RW           13    .data               system_stm32f10x.o
    0x20000014   0x00000014   Data   RW          162    .data               stm32f10x_rcc.o
    0x20000028   0x00000006   Data   RW          265    .data               lcd.o
    0x2000002e   0x00000002   PAD
    0x20000030   0x0000001c   Data   RW          295    .data               main.o
    0x2000004c   0x00000002   Data   RW          526    .data               usart.o
    0x2000004e   0x00000002   PAD
    0x20000050   0x00000020   Data   RW          570    .data               tim.o
    0x20000070   0x00000014   Zero   RW          294    .bss                main.o
    0x20000084   0x0000001e   Zero   RW          525    .bss                usart.o
    0x200000a2   0x00000006   PAD
    0x200000a8   0x00000400   Zero   RW            1    STACK               startup_stm32f10x_md.o


==============================================================================

Image component sizes


      Code (inc. data)   RO Data    RW Data    ZI Data      Debug   Object Name

       212         18          0          0          0     220197   adc.o
        20          4          0          0          0        439   delay.o
       664          6          0          0          0       2837   iic.o
       152          8          0          0          0        676   key.o
      2572         74       4560          6          0       8708   lcd.o
       132         10          0          0          0        715   led.o
      1012        118          0         28         20      26275   main.o
       220         22          0          0          0       1913   misc.o
        36          8        236          0       1024        928   startup_stm32f10x_md.o
      1102         26          0          0          0      11153   stm32f10x_adc.o
       860         38          0          0          0       5845   stm32f10x_gpio.o
        40          4          0          0          0       1266   stm32f10x_it.o
       932         36          0         20          0       9044   stm32f10x_rcc.o
      3610         88          0          0          0      22956   stm32f10x_tim.o
      1032         22          0          0          0       8568   stm32f10x_usart.o
       480         38          0         20          0     263163   system_stm32f10x.o
       252         28          0         32          0       1315   tim.o
       312         20          0          2         30       1757   usart.o

    ----------------------------------------------------------------------
     13644        568       4828        112       1080     587755   Object Totals
         0          0         32          0          0          0   (incl. Generated)
         4          0          0          4          6          0   (incl. Padding)

    ----------------------------------------------------------------------

      Code (inc. data)   RO Data    RW Data    ZI Data      Debug   Library Member Name

         0          0          0          0          0          0   entry.o
         0          0          0          0          0          0   entry10a.o
         0          0          0          0          0          0   entry11a.o
         8          4          0          0          0          0   entry2.o
         4          0          0          0          0          0   entry5.o
         0          0          0          0          0          0   entry7b.o
         0          0          0          0          0          0   entry8b.o
         8          4          0          0          0          0   entry9a.o
        30          0          0          0          0          0   handlers.o
        36          8          0          0          0         68   init.o
         0          0          0          0          0          0   iusefp.o
        30          0          0          0          0         68   llshl.o
        32          0          0          0          0         68   llushr.o
       884         10          0          0          0        420   printf6.o
        44          0          0          0          0         80   uidiv.o
       222          0          0          0          0        100   ddiv.o
       186          0          0          0          0        176   depilogue.o
        26          0          0          0          0         76   dfltui.o
       228          0          0          0          0         96   dmul.o
       110          0          0          0          0        168   fepilogue.o
        18          0          0          0          0         68   fflti.o
        10          0          0          0          0         68   ffltui.o

    ----------------------------------------------------------------------
      1880         26          0          0          0       1456   Library Totals
         4          0          0          0          0          0   (incl. Padding)

    ----------------------------------------------------------------------

      Code (inc. data)   RO Data    RW Data    ZI Data      Debug   Library Name

      1076         26          0          0          0        704   mc_w.l
       800          0          0          0          0        752   mf_w.l

    ----------------------------------------------------------------------
      1880         26          0          0          0       1456   Library Totals

    ----------------------------------------------------------------------

==============================================================================


      Code (inc. data)   RO Data    RW Data    ZI Data      Debug   

     15524        594       4828        112       1080     587023   Grand Totals
     15524        594       4828        112       1080     587023   ELF Image Totals
     15524        594       4828        112          0          0   ROM Totals

==============================================================================

    Total RO  Size (Code + RO Data)                20352 (  19.88kB)
    Total RW  Size (RW Data + ZI Data)              1192 (   1.16kB)
    Total ROM Size (Code + RO Data + RW Data)      20464 (  19.98kB)

==============================================================================

