Component: ARM Compiler 5.06 update 2 (build 183) Tool: armlink [4d35b7]

==============================================================================

Section Cross References

    startup_stm32f10x_md.o(STACK) refers (Special) to heapauxi.o(.text) for __use_two_region_memory
    startup_stm32f10x_md.o(HEAP) refers (Special) to heapauxi.o(.text) for __use_two_region_memory
    startup_stm32f10x_md.o(RESET) refers (Special) to heapauxi.o(.text) for __use_two_region_memory
    startup_stm32f10x_md.o(RESET) refers to startup_stm32f10x_md.o(STACK) for __initial_sp
    startup_stm32f10x_md.o(RESET) refers to startup_stm32f10x_md.o(.text) for Reset_Handler
    startup_stm32f10x_md.o(RESET) refers to stm32f10x_it.o(.text) for NMI_Handler
    startup_stm32f10x_md.o(RESET) refers to usart.o(.text) for USART2_IRQHandler
    startup_stm32f10x_md.o(.text) refers (Special) to heapauxi.o(.text) for __use_two_region_memory
    startup_stm32f10x_md.o(.text) refers to system_stm32f10x.o(.text) for SystemInit
    startup_stm32f10x_md.o(.text) refers to __main.o(!!!main) for __main
    startup_stm32f10x_md.o(.text) refers to startup_stm32f10x_md.o(HEAP) for Heap_Mem
    startup_stm32f10x_md.o(.text) refers to startup_stm32f10x_md.o(STACK) for Stack_Mem
    system_stm32f10x.o(.text) refers to system_stm32f10x.o(.data) for SystemCoreClock
    stm32f10x_rcc.o(.text) refers to stm32f10x_rcc.o(.data) for APBAHBPrescTable
    stm32f10x_gpio.o(.text) refers to stm32f10x_rcc.o(.text) for RCC_APB2PeriphResetCmd
    stm32f10x_usart.o(.text) refers to stm32f10x_rcc.o(.text) for RCC_APB2PeriphResetCmd
    stm32f10x_tim.o(.text) refers to stm32f10x_rcc.o(.text) for RCC_APB2PeriphResetCmd
    main.o(.text) refers to _printf_percent.o(.ARM.Collect$$_printf_percent$$00000000) for _printf_percent
==============================================================================

Removing Unused input sections from the image.

    Removing core_cm3.o(.emb_text), (32 bytes).
    Removing system_stm32f10x.o(.rev16_text), (4 bytes).
    Removing system_stm32f10x.o(.revsh_text), (4 bytes).
    Removing stm32f10x_rcc.o(.rev16_text), (4 bytes).
    Removing stm32f10x_rcc.o(.revsh_text), (4 bytes).
    Removing stm32f10x_gpio.o(.rev16_text), (4 bytes).
    Removing stm32f10x_gpio.o(.revsh_text), (4 bytes).
    Removing misc.o(.rev16_text), (4 bytes).
    Removing misc.o(.revsh_text), (4 bytes).
    Removing stm32f10x_usart.o(.rev16_text), (4 bytes).
    Removing stm32f10x_usart.o(.revsh_text), (4 bytes).
    Removing stm32f10x_tim.o(.rev16_text), (4 bytes).
    Removing stm32f10x_tim.o(.revsh_text), (4 bytes).
    Removing main.o(.rev16_text), (4 bytes).
    Removing main.o(.revsh_text), (4 bytes).
    Removing stm32f10x_it.o(.rev16_text), (4 bytes).
    Removing stm32f10x_it.o(.revsh_text), (4 bytes).
    Removing lcd.o(.rev16_text), (4 bytes).
==============================================================================

Image Symbol Table

    Local Symbols

    Symbol Name                              Value     Ov Type        Size  Object(Section)

    ../clib/angel/boardlib.s                 0x00000000   Number         0  boardinit1.o ABSOLUTE
    ../clib/angel/boardlib.s                 0x00000000   Number         0  boardinit3.o ABSOLUTE
    ../clib/angel/boardlib.s                 0x00000000   Number         0  boardinit2.o ABSOLUTE
    ../clib/angel/boardlib.s                 0x00000000   Number         0  boardshut.o ABSOLUTE
    ../clib/angel/handlers.s                 0x00000000   Number         0  __scatter_zi.o ABSOLUTE
    ../clib/angel/handlers.s                 0x00000000   Number         0  __scatter_copy.o ABSOLUTE
    ../clib/angel/kernel.s                   0x00000000   Number         0  rtexit.o ABSOLUTE
    ../clib/angel/kernel.s                   0x00000000   Number         0  __rtentry4.o ABSOLUTE
    ../clib/angel/kernel.s                   0x00000000   Number         0  __rtentry2.o ABSOLUTE
    ../clib/angel/kernel.s                   0x00000000   Number         0  rtexit2.o ABSOLUTE
    ../clib/angel/kernel.s                   0x00000000   Number         0  __rtentry.o ABSOLUTE
    ../clib/angel/rt.s                       0x00000000   Number         0  rt_raise.o ABSOLUTE
    ../clib/angel/rt.s                       0x00000000   Number         0  rt_errno_addr.o ABSOLUTE
    ../clib/angel/rt.s                       0x00000000   Number         0  rt_locale.o ABSOLUTE
    ../clib/angel/rt.s                       0x00000000   Number         0  rt_locale_intlibspace.o ABSOLUTE
    ../clib/angel/rt.s                       0x00000000   Number         0  rt_ctype_table.o ABSOLUTE
    ../clib/angel/rt.s                       0x00000000   Number         0  rt_errno_addr_intlibspace.o ABSOLUTE
    ../clib/angel/scatter.s                  0x00000000   Number         0  __scatter.o ABSOLUTE
    ../clib/angel/startup.s                  0x00000000   Number         0  __main.o ABSOLUTE
    ../clib/angel/sys.s                      0x00000000   Number         0  use_no_semi.o ABSOLUTE
    ../clib/angel/sys.s                      0x00000000   Number         0  indicate_semi.o ABSOLUTE
    ../clib/angel/sys.s                      0x00000000   Number         0  libspace.o ABSOLUTE
    ../clib/angel/sys.s                      0x00000000   Number         0  sys_stackheap_outer.o ABSOLUTE
    ../clib/angel/sysapp.c                   0x00000000   Number         0  sys_wrch.o ABSOLUTE
    ../clib/angel/sysapp.c                   0x00000000   Number         0  sys_command.o ABSOLUTE
    ../clib/angel/sysapp.c                   0x00000000   Number         0  sys_exit.o ABSOLUTE
    ../clib/armsys.c                         0x00000000   Number         0  argv_veneer.o ABSOLUTE
    ../clib/armsys.c                         0x00000000   Number         0  argv_veneer.o ABSOLUTE
    ../clib/armsys.c                         0x00000000   Number         0  no_argv.o ABSOLUTE
    ../clib/armsys.c                         0x00000000   Number         0  _get_argv_nomalloc.o ABSOLUTE
    ../clib/bigflt.c                         0x00000000   Number         0  bigflt0.o ABSOLUTE
    ../clib/btod.s                           0x00000000   Number         0  btod.o ABSOLUTE
    ../clib/heapalloc.c                      0x00000000   Number         0  hrguard.o ABSOLUTE
    ../clib/heapaux.c                        0x00000000   Number         0  heapauxi.o ABSOLUTE
    ../clib/libinit.s                        0x00000000   Number         0  libinit2.o ABSOLUTE
    ../clib/libinit.s                        0x00000000   Number         0  libshutdown2.o ABSOLUTE
    ../clib/libinit.s                        0x00000000   Number         0  libshutdown.o ABSOLUTE
    ../clib/libinit.s                        0x00000000   Number         0  libinit.o ABSOLUTE
    ../clib/locale.s                         0x00000000   Number         0  lc_ctype_c.o ABSOLUTE
    ../clib/locale.s                         0x00000000   Number         0  lc_numeric_c.o ABSOLUTE
    ../clib/longlong.s                       0x00000000   Number         0  lludiv10.o ABSOLUTE
    ../clib/memcpset.s                       0x00000000   Number         0  rt_memclr_w.o ABSOLUTE
    ../clib/memcpset.s                       0x00000000   Number         0  rt_memcpy_w.o ABSOLUTE
    ../clib/memcpset.s                       0x00000000   Number         0  rt_memclr.o ABSOLUTE
    ../clib/memcpset.s                       0x00000000   Number         0  strcmpv7m.o ABSOLUTE
    ../clib/misc.s                           0x00000000   Number         0  printf_stubs.o ABSOLUTE
    ../clib/printf.c                         0x00000000   Number         0  __2sprintf.o ABSOLUTE
    ../clib/printf.c                         0x00000000   Number         0  __printf.o ABSOLUTE
    ../clib/printf.c                         0x00000000   Number         0  _printf_dec.o ABSOLUTE
    ../clib/printf.c                         0x00000000   Number         0  __printf_nopercent.o ABSOLUTE
    ../clib/printf.c                         0x00000000   Number         0  _printf_intcommon.o ABSOLUTE
    ../clib/printf.c                         0x00000000   Number         0  __printf_flags_ss_wp.o ABSOLUTE
    ../clib/printf.c                         0x00000000   Number         0  _printf_fp_dec.o ABSOLUTE
    ../clib/printf.c                         0x00000000   Number         0  noretval__2sprintf.o ABSOLUTE
    ../clib/printf.c                         0x00000000   Number         0  _printf_char_common.o ABSOLUTE
    ../clib/printf.c                         0x00000000   Number         0  __printf_ss_wp.o ABSOLUTE
    ../clib/printf.c                         0x00000000   Number         0  _sputc.o ABSOLUTE
    ../clib/printf.c                         0x00000000   Number         0  __printf_flags_wp.o ABSOLUTE
    ../clib/printf.c                         0x00000000   Number         0  _printf_str.o ABSOLUTE
    ../clib/printf.c                         0x00000000   Number         0  _printf_fp_infnan.o ABSOLUTE
    ../clib/printf.c                         0x00000000   Number         0  _printf_char.o ABSOLUTE
    ../clib/printf.c                         0x00000000   Number         0  __printf_wp.o ABSOLUTE
    ../clib/printf.c                         0x00000000   Number         0  __printf_flags_ss.o ABSOLUTE
    ../clib/printf.c                         0x00000000   Number         0  __printf_ss.o ABSOLUTE
    ../clib/printf.c                         0x00000000   Number         0  __printf_flags.o ABSOLUTE
    ../clib/printf_percent.s                 0x00000000   Number         0  _printf_percent.o ABSOLUTE
    ../clib/printf_percent.s                 0x00000000   Number         0  _printf_d.o ABSOLUTE
    ../clib/printf_percent.s                 0x00000000   Number         0  _printf_f.o ABSOLUTE
    ../clib/printf_percent.s                 0x00000000   Number         0  _printf_percent_end.o ABSOLUTE
    ../clib/printf_percent.s                 0x00000000   Number         0  _printf_s.o ABSOLUTE
    ../clib/scanf.c                          0x00000000   Number         0  _chval.o ABSOLUTE
    ../clib/scanf.c                          0x00000000   Number         0  _strtoul.o ABSOLUTE
    ../clib/scanf.c                          0x00000000   Number         0  strtol.o ABSOLUTE
    ../clib/scanf.c                          0x00000000   Number         0  atoi.o ABSOLUTE
    ../clib/signal.c                         0x00000000   Number         0  defsig_segv_inner.o ABSOLUTE
    ../clib/signal.c                         0x00000000   Number         0  defsig_exit.o ABSOLUTE
    ../clib/signal.c                         0x00000000   Number         0  defsig_other.o ABSOLUTE
    ../clib/signal.c                         0x00000000   Number         0  defsig_general.o ABSOLUTE
    ../clib/signal.c                         0x00000000   Number         0  defsig_pvfn_inner.o ABSOLUTE
    ../clib/signal.c                         0x00000000   Number         0  defsig_stak_inner.o ABSOLUTE
    ../clib/signal.c                         0x00000000   Number         0  defsig_rtred_inner.o ABSOLUTE
    ../clib/signal.c                         0x00000000   Number         0  defsig_cppl_inner.o ABSOLUTE
    ../clib/signal.c                         0x00000000   Number         0  defsig_abrt_inner.o ABSOLUTE
    ../clib/signal.c                         0x00000000   Number         0  defsig_rtmem_formal.o ABSOLUTE
    ../clib/signal.c                         0x00000000   Number         0  defsig_rtmem_outer.o ABSOLUTE
    ../clib/signal.c                         0x00000000   Number         0  defsig_fpe_inner.o ABSOLUTE
    ../clib/signal.c                         0x00000000   Number         0  defsig_rtmem_inner.o ABSOLUTE
    ../clib/signal.c                         0x00000000   Number         0  __raise.o ABSOLUTE
    ../clib/signal.s                         0x00000000   Number         0  defsig.o ABSOLUTE
    ../clib/stdlib.c                         0x00000000   Number         0  exit.o ABSOLUTE
    ../clib/string.c                         0x00000000   Number         0  strcpy.o ABSOLUTE
    ../fplib/d2f.s                           0x00000000   Number         0  d2f.o ABSOLUTE
    ../fplib/daddsub.s                       0x00000000   Number         0  daddsub_clz.o ABSOLUTE
    ../fplib/dcmpi.s                         0x00000000   Number         0  dcmpi.o ABSOLUTE
    ../fplib/deqf.s                          0x00000000   Number         0  deqf.o ABSOLUTE
    ../fplib/dleqf.s                         0x00000000   Number         0  dleqf.o ABSOLUTE
    ../fplib/dmul.s                          0x00000000   Number         0  dmul.o ABSOLUTE
    ../fplib/dnaninf.s                       0x00000000   Number         0  dnaninf.o ABSOLUTE
    ../fplib/dretinf.s                       0x00000000   Number         0  dretinf.o ABSOLUTE
    ../fplib/drleqf.s                        0x00000000   Number         0  drleqf.o ABSOLUTE
    ../fplib/f2d.s                           0x00000000   Number         0  f2d.o ABSOLUTE
    ../fplib/fflt.s                          0x00000000   Number         0  fflt_clz.o ABSOLUTE
    ../fplib/fnaninf.s                       0x00000000   Number         0  fnaninf.o ABSOLUTE
    ../fplib/fpinit.s                        0x00000000   Number         0  fpinit.o ABSOLUTE
    ../fplib/fretinf.s                       0x00000000   Number         0  fretinf.o ABSOLUTE
    ../fplib/istatus.s                       0x00000000   Number         0  istatus.o ABSOLUTE
    ../fplib/printf1.s                       0x00000000   Number         0  printf1.o ABSOLUTE
    ../fplib/usenofp.s                       0x00000000   Number         0  usenofp.o ABSOLUTE
    ../mathlib/fpclassify.c                  0x00000000   Number         0  fpclassify.o ABSOLUTE
    ..\..\Libraries\CMSIS\CM3\CoreSupport\core_cm3.c 0x00000000   Number         0  core_cm3.o ABSOLUTE
    ..\..\Libraries\CMSIS\CM3\DeviceSupport\ST\STM32F10x\startup\arm\startup_stm32f10x_md.s 0x00000000   Number         0  startup_stm32f10x_md.o ABSOLUTE
    ..\..\Libraries\CMSIS\CM3\DeviceSupport\ST\STM32F10x\system_stm32f10x.c 0x00000000   Number         0  system_stm32f10x.o ABSOLUTE
    ..\..\Libraries\STM32F10x_StdPeriph_Driver\src\misc.c 0x00000000   Number         0  misc.o ABSOLUTE
    ..\..\Libraries\STM32F10x_StdPeriph_Driver\src\stm32f10x_gpio.c 0x00000000   Number         0  stm32f10x_gpio.o ABSOLUTE
    ..\..\Libraries\STM32F10x_StdPeriph_Driver\src\stm32f10x_rcc.c 0x00000000   Number         0  stm32f10x_rcc.o ABSOLUTE
    ..\..\Libraries\STM32F10x_StdPeriph_Driver\src\stm32f10x_tim.c 0x00000000   Number         0  stm32f10x_tim.o ABSOLUTE
    ..\..\Libraries\STM32F10x_StdPeriph_Driver\src\stm32f10x_usart.c 0x00000000   Number         0  stm32f10x_usart.o ABSOLUTE
    ..\SRE\key.c                             0x00000000   Number         0  key.o ABSOLUTE
    ..\SRE\lcd.c                             0x00000000   Number         0  lcd.o ABSOLUTE
    ..\SRE\led.c                             0x00000000   Number         0  led.o ABSOLUTE
    ..\SRE\main.c                            0x00000000   Number         0  main.o ABSOLUTE
    ..\SRE\parkControl.c                     0x00000000   Number         0  parkcontrol.o ABSOLUTE
    ..\SRE\pwm.c                             0x00000000   Number         0  pwm.o ABSOLUTE
    ..\SRE\stm32f10x_it.c                    0x00000000   Number         0  stm32f10x_it.o ABSOLUTE
    ..\SRE\tim.c                             0x00000000   Number         0  tim.o ABSOLUTE
    ..\SRE\usart.c                           0x00000000   Number         0  usart.o ABSOLUTE
    ..\\..\\Libraries\\CMSIS\\CM3\\CoreSupport\\core_cm3.c 0x00000000   Number         0  core_cm3.o ABSOLUTE
    ..\\..\\Libraries\\CMSIS\\CM3\\DeviceSupport\\ST\\STM32F10x\\system_stm32f10x.c 0x00000000   Number         0  system_stm32f10x.o ABSOLUTE
    ..\\..\\Libraries\\STM32F10x_StdPeriph_Driver\\src\\misc.c 0x00000000   Number         0  misc.o ABSOLUTE
    ..\\..\\Libraries\\STM32F10x_StdPeriph_Driver\\src\\stm32f10x_gpio.c 0x00000000   Number         0  stm32f10x_gpio.o ABSOLUTE
    ..\\..\\Libraries\\STM32F10x_StdPeriph_Driver\\src\\stm32f10x_rcc.c 0x00000000   Number         0  stm32f10x_rcc.o ABSOLUTE
    ..\\..\\Libraries\\STM32F10x_StdPeriph_Driver\\src\\stm32f10x_tim.c 0x00000000   Number         0  stm32f10x_tim.o ABSOLUTE
    ..\\..\\Libraries\\STM32F10x_StdPeriph_Driver\\src\\stm32f10x_usart.c 0x00000000   Number         0  stm32f10x_usart.o ABSOLUTE
    ..\\SRE\\key.c                           0x00000000   Number         0  key.o ABSOLUTE
    ..\\SRE\\lcd.c                           0x00000000   Number         0  lcd.o ABSOLUTE
    ..\\SRE\\led.c                           0x00000000   Number         0  led.o ABSOLUTE
    ..\\SRE\\main.c                          0x00000000   Number         0  main.o ABSOLUTE
    ..\\SRE\\parkControl.c                   0x00000000   Number         0  parkcontrol.o ABSOLUTE
    ..\\SRE\\pwm.c                           0x00000000   Number         0  pwm.o ABSOLUTE
    ..\\SRE\\stm32f10x_it.c                  0x00000000   Number         0  stm32f10x_it.o ABSOLUTE
    ..\\SRE\\tim.c                           0x00000000   Number         0  tim.o ABSOLUTE
    ..\\SRE\\usart.c                         0x00000000   Number         0  usart.o ABSOLUTE
    dc.s                                     0x00000000   Number         0  dc.o ABSOLUTE
    RESET                                    0x08000000   Section      236  startup_stm32f10x_md.o(RESET)
    !!!main                                  0x080000ec   Section        8  __main.o(!!!main)
    !!!scatter                               0x080000f4   Section       52  __scatter.o(!!!scatter)
    !!handler_copy                           0x08000128   Section       26  __scatter_copy.o(!!handler_copy)
    !!handler_zi                             0x08000144   Section       28  __scatter_zi.o(!!handler_zi)
    .ARM.Collect$$_printf_percent$$00000000  0x08000160   Section        0  _printf_percent.o(.ARM.Collect$$_printf_percent$$00000000)
    .ARM.Collect$$_printf_percent$$00000003  0x08000160   Section        6  _printf_f.o(.ARM.Collect$$_printf_percent$$00000003)
    .ARM.Collect$$_printf_percent$$00000009  0x08000166   Section        6  _printf_d.o(.ARM.Collect$$_printf_percent$$00000009)
    .ARM.Collect$$_printf_percent$$00000014  0x0800016c   Section        6  _printf_s.o(.ARM.Collect$$_printf_percent$$00000014)
    .ARM.Collect$$_printf_percent$$00000017  0x08000172   Section        4  _printf_percent_end.o(.ARM.Collect$$_printf_percent$$00000017)
    .ARM.Collect$$libinit$$00000000          0x08000176   Section        2  libinit.o(.ARM.Collect$$libinit$$00000000)
    .ARM.Collect$$libinit$$00000002          0x08000178   Section        0  libinit2.o(.ARM.Collect$$libinit$$00000002)
    .ARM.Collect$$libinit$$00000004          0x08000178   Section        0  libinit2.o(.ARM.Collect$$libinit$$00000004)
    .ARM.Collect$$libinit$$0000000A          0x08000178   Section        0  libinit2.o(.ARM.Collect$$libinit$$0000000A)
    .ARM.Collect$$libinit$$0000000C          0x08000178   Section        0  libinit2.o(.ARM.Collect$$libinit$$0000000C)
    .ARM.Collect$$libinit$$0000000E          0x08000178   Section        0  libinit2.o(.ARM.Collect$$libinit$$0000000E)
    .ARM.Collect$$libinit$$0000000F          0x08000178   Section        6  libinit2.o(.ARM.Collect$$libinit$$0000000F)
    .ARM.Collect$$libinit$$00000011          0x0800017e   Section        0  libinit2.o(.ARM.Collect$$libinit$$00000011)
    .ARM.Collect$$libinit$$00000012          0x0800017e   Section       12  libinit2.o(.ARM.Collect$$libinit$$00000012)
    .ARM.Collect$$libinit$$00000013          0x0800018a   Section        0  libinit2.o(.ARM.Collect$$libinit$$00000013)
    .ARM.Collect$$libinit$$00000015          0x0800018a   Section        0  libinit2.o(.ARM.Collect$$libinit$$00000015)
    .ARM.Collect$$libinit$$00000016          0x0800018a   Section       10  libinit2.o(.ARM.Collect$$libinit$$00000016)
    .ARM.Collect$$libinit$$00000017          0x08000194   Section        0  libinit2.o(.ARM.Collect$$libinit$$00000017)
    .ARM.Collect$$libinit$$00000019          0x08000194   Section        0  libinit2.o(.ARM.Collect$$libinit$$00000019)
    .ARM.Collect$$libinit$$0000001B          0x08000194   Section        0  libinit2.o(.ARM.Collect$$libinit$$0000001B)
    .ARM.Collect$$libinit$$0000001D          0x08000194   Section        0  libinit2.o(.ARM.Collect$$libinit$$0000001D)
    .ARM.Collect$$libinit$$0000001F          0x08000194   Section        0  libinit2.o(.ARM.Collect$$libinit$$0000001F)
    .ARM.Collect$$libinit$$00000021          0x08000194   Section        0  libinit2.o(.ARM.Collect$$libinit$$00000021)
    .ARM.Collect$$libinit$$00000023          0x08000194   Section        0  libinit2.o(.ARM.Collect$$libinit$$00000023)
    .ARM.Collect$$libinit$$00000025          0x08000194   Section        0  libinit2.o(.ARM.Collect$$libinit$$00000025)
    .ARM.Collect$$libinit$$0000002C          0x08000194   Section        0  libinit2.o(.ARM.Collect$$libinit$$0000002C)
    .ARM.Collect$$libinit$$0000002E          0x08000194   Section        0  libinit2.o(.ARM.Collect$$libinit$$0000002E)
    .ARM.Collect$$libinit$$00000030          0x08000194   Section        0  libinit2.o(.ARM.Collect$$libinit$$00000030)
    .ARM.Collect$$libinit$$00000032          0x08000194   Section        0  libinit2.o(.ARM.Collect$$libinit$$00000032)
    .ARM.Collect$$libinit$$00000033          0x08000194   Section        2  libinit2.o(.ARM.Collect$$libinit$$00000033)
    .ARM.Collect$$libshutdown$$00000000      0x08000196   Section        2  libshutdown.o(.ARM.Collect$$libshutdown$$00000000)
    .ARM.Collect$$libshutdown$$00000002      0x08000198   Section        0  libshutdown2.o(.ARM.Collect$$libshutdown$$00000002)
    .ARM.Collect$$libshutdown$$00000004      0x08000198   Section        0  libshutdown2.o(.ARM.Collect$$libshutdown$$00000004)
    .ARM.Collect$$libshutdown$$00000007      0x08000198   Section        0  libshutdown2.o(.ARM.Collect$$libshutdown$$00000007)
    .ARM.Collect$$libshutdown$$0000000A      0x08000198   Section        0  libshutdown2.o(.ARM.Collect$$libshutdown$$0000000A)
    .ARM.Collect$$libshutdown$$0000000C      0x08000198   Section        0  libshutdown2.o(.ARM.Collect$$libshutdown$$0000000C)
    .ARM.Collect$$libshutdown$$0000000F      0x08000198   Section        0  libshutdown2.o(.ARM.Collect$$libshutdown$$0000000F)
    .ARM.Collect$$libshutdown$$00000010      0x08000198   Section        2  libshutdown2.o(.ARM.Collect$$libshutdown$$00000010)
    .ARM.Collect$$rtentry$$00000000          0x0800019a   Section        0  __rtentry.o(.ARM.Collect$$rtentry$$00000000)
    .ARM.Collect$$rtentry$$00000002          0x0800019a   Section        0  __rtentry2.o(.ARM.Collect$$rtentry$$00000002)
    .ARM.Collect$$rtentry$$00000004          0x0800019a   Section        6  __rtentry4.o(.ARM.Collect$$rtentry$$00000004)
    .ARM.Collect$$rtentry$$00000009          0x080001a0   Section        0  __rtentry2.o(.ARM.Collect$$rtentry$$00000009)
    .ARM.Collect$$rtentry$$0000000A          0x080001a0   Section        4  __rtentry2.o(.ARM.Collect$$rtentry$$0000000A)
    .ARM.Collect$$rtentry$$0000000C          0x080001a4   Section        0  __rtentry2.o(.ARM.Collect$$rtentry$$0000000C)
    .ARM.Collect$$rtentry$$0000000D          0x080001a4   Section        8  __rtentry2.o(.ARM.Collect$$rtentry$$0000000D)
    .ARM.Collect$$rtexit$$00000000           0x080001ac   Section        2  rtexit.o(.ARM.Collect$$rtexit$$00000000)
    .ARM.Collect$$rtexit$$00000002           0x080001ae   Section        0  rtexit2.o(.ARM.Collect$$rtexit$$00000002)
    .ARM.Collect$$rtexit$$00000003           0x080001ae   Section        4  rtexit2.o(.ARM.Collect$$rtexit$$00000003)
    .ARM.Collect$$rtexit$$00000004           0x080001b2   Section        6  rtexit2.o(.ARM.Collect$$rtexit$$00000004)
    .text                                    0x080001b8   Section       64  startup_stm32f10x_md.o(.text)
    .text                                    0x080001f8   Section        0  system_stm32f10x.o(.text)
    SetSysClockTo72                          0x080001f9   Thumb Code   214  system_stm32f10x.o(.text)
    SetSysClock                              0x080002cf   Thumb Code     8  system_stm32f10x.o(.text)
    .text                                    0x080003d8   Section        0  stm32f10x_rcc.o(.text)
    .text                                    0x0800077c   Section        0  stm32f10x_gpio.o(.text)
    .text                                    0x08000ad8   Section        0  misc.o(.text)
    .text                                    0x08000bb4   Section        0  stm32f10x_usart.o(.text)
    .text                                    0x08000fbc   Section        0  stm32f10x_tim.o(.text)
    TI4_Config                               0x08001463   Thumb Code   130  stm32f10x_tim.o(.text)
    TI3_Config                               0x080014f7   Thumb Code   122  stm32f10x_tim.o(.text)
    TI2_Config                               0x0800158b   Thumb Code   130  stm32f10x_tim.o(.text)
    TI1_Config                               0x0800161f   Thumb Code   108  stm32f10x_tim.o(.text)
    .text                                    0x08001dd8   Section        0  main.o(.text)
    .text                                    0x0800234c   Section        0  stm32f10x_it.o(.text)
    .text                                    0x08002374   Section        0  lcd.o(.text)
    .text                                    0x08002d80   Section        0  parkcontrol.o(.text)
    .text                                    0x080033d0   Section        0  key.o(.text)
    .text                                    0x08003468   Section        0  usart.o(.text)
    .text                                    0x0800359c   Section        0  led.o(.text)
    .text                                    0x08003620   Section        0  pwm.o(.text)
    .text                                    0x080036d4   Section        0  noretval__2sprintf.o(.text)
    .text                                    0x080036fc   Section        0  _printf_str.o(.text)
    .text                                    0x08003750   Section        0  _printf_dec.o(.text)
    .text                                    0x080037c8   Section        0  __printf_wp.o(.text)
    .text                                    0x080038d6   Section        0  atoi.o(.text)
    .text                                    0x080038f0   Section        0  strcpy.o(.text)
    .text                                    0x08003938   Section      100  rt_memcpy_w.o(.text)
    .text                                    0x0800399c   Section       68  rt_memclr.o(.text)
    .text                                    0x080039e0   Section      128  strcmpv7m.o(.text)
    .text                                    0x08003a60   Section        0  heapauxi.o(.text)
    .text                                    0x08003a68   Section        8  rt_errno_addr_intlibspace.o(.text)
    .text                                    0x08003a70   Section        0  _printf_intcommon.o(.text)
    .text                                    0x08003b22   Section        0  _printf_fp_dec.o(.text)
    _fp_digits                               0x08003b25   Thumb Code   428  _printf_fp_dec.o(.text)
    .text                                    0x08003f3c   Section        0  _printf_char_common.o(.text)
    _printf_input_char                       0x08003f3d   Thumb Code    10  _printf_char_common.o(.text)
    .text                                    0x08003f6c   Section        0  _sputc.o(.text)
    .text                                    0x08003f76   Section        0  _printf_char.o(.text)
    .text                                    0x08003fa2   Section        0  strtol.o(.text)
    .text                                    0x08004012   Section       78  rt_memclr_w.o(.text)
    .text                                    0x08004060   Section        8  libspace.o(.text)
    .text                                    0x08004068   Section       16  rt_ctype_table.o(.text)
    .text                                    0x08004078   Section        8  rt_locale_intlibspace.o(.text)
    .text                                    0x08004080   Section      138  lludiv10.o(.text)
    .text                                    0x0800410c   Section        0  _printf_fp_infnan.o(.text)
    .text                                    0x0800418c   Section        0  _strtoul.o(.text)
    .text                                    0x0800422c   Section        0  bigflt0.o(.text)
    .text                                    0x08004308   Section       74  sys_stackheap_outer.o(.text)
    .text                                    0x08004352   Section        0  _chval.o(.text)
    .text                                    0x0800436e   Section        0  exit.o(.text)
    .text                                    0x08004380   Section        0  sys_exit.o(.text)
    .text                                    0x0800438c   Section        2  use_no_semi.o(.text)
    .text                                    0x0800438e   Section        0  indicate_semi.o(.text)
    CL$$btod_d2e                             0x0800438e   Section       62  btod.o(CL$$btod_d2e)
    CL$$btod_d2e_denorm_low                  0x080043cc   Section       70  btod.o(CL$$btod_d2e_denorm_low)
    CL$$btod_d2e_norm_op1                    0x08004412   Section       96  btod.o(CL$$btod_d2e_norm_op1)
    CL$$btod_div_common                      0x08004472   Section      824  btod.o(CL$$btod_div_common)
    CL$$btod_e2e                             0x080047aa   Section      198  btod.o(CL$$btod_e2e)
    CL$$btod_ediv                            0x08004870   Section       40  btod.o(CL$$btod_ediv)
    CL$$btod_emul                            0x08004898   Section       40  btod.o(CL$$btod_emul)
    CL$$btod_mult_common                     0x080048c0   Section      580  btod.o(CL$$btod_mult_common)
    i.__ARM_fpclassify                       0x08004b04   Section        0  fpclassify.o(i.__ARM_fpclassify)
    i._is_digit                              0x08004b2c   Section        0  __printf_wp.o(i._is_digit)
    locale$$code                             0x08004b3c   Section       44  lc_numeric_c.o(locale$$code)
    locale$$code                             0x08004b68   Section       44  lc_ctype_c.o(locale$$code)
    x$fpl$d2f                                0x08004b94   Section       98  d2f.o(x$fpl$d2f)
    x$fpl$dadd                               0x08004bf8   Section      336  daddsub_clz.o(x$fpl$dadd)
    _dadd1                                   0x08004c09   Thumb Code     0  daddsub_clz.o(x$fpl$dadd)
    x$fpl$dcmpinf                            0x08004d48   Section       24  dcmpi.o(x$fpl$dcmpinf)
    x$fpl$deqf                               0x08004d60   Section      120  deqf.o(x$fpl$deqf)
    x$fpl$dleqf                              0x08004dd8   Section      120  dleqf.o(x$fpl$dleqf)
    x$fpl$dmul                               0x08004e50   Section      340  dmul.o(x$fpl$dmul)
    x$fpl$dnaninf                            0x08004fa4   Section      156  dnaninf.o(x$fpl$dnaninf)
    x$fpl$dretinf                            0x08005040   Section       12  dretinf.o(x$fpl$dretinf)
    x$fpl$drleqf                             0x0800504c   Section      108  drleqf.o(x$fpl$drleqf)
    x$fpl$dsub                               0x080050b8   Section      468  daddsub_clz.o(x$fpl$dsub)
    _dsub1                                   0x080050c9   Thumb Code     0  daddsub_clz.o(x$fpl$dsub)
    x$fpl$f2d                                0x0800528c   Section       86  f2d.o(x$fpl$f2d)
    x$fpl$fflt                               0x080052e4   Section       48  fflt_clz.o(x$fpl$fflt)
    x$fpl$fnaninf                            0x08005314   Section      140  fnaninf.o(x$fpl$fnaninf)
    x$fpl$fretinf                            0x080053a0   Section       10  fretinf.o(x$fpl$fretinf)
    x$fpl$printf1                            0x080053aa   Section        4  printf1.o(x$fpl$printf1)
    .constdata                               0x080053ae   Section     4560  lcd.o(.constdata)
    x$fpl$usenofp                            0x080053ae   Section        0  usenofp.o(x$fpl$usenofp)
    .constdata                               0x08006580   Section      148  bigflt0.o(.constdata)
    tenpwrs_x                                0x08006580   Data          60  bigflt0.o(.constdata)
    tenpwrs_i                                0x080065bc   Data          64  bigflt0.o(.constdata)
    locale$$data                             0x08006634   Section       28  lc_numeric_c.o(locale$$data)
    __lcnum_c_name                           0x08006638   Data           2  lc_numeric_c.o(locale$$data)
    __lcnum_c_start                          0x08006640   Data           0  lc_numeric_c.o(locale$$data)
    __lcnum_c_point                          0x0800664c   Data           0  lc_numeric_c.o(locale$$data)
    __lcnum_c_thousands                      0x0800664e   Data           0  lc_numeric_c.o(locale$$data)
    __lcnum_c_grouping                       0x0800664f   Data           0  lc_numeric_c.o(locale$$data)
    locale$$data                             0x08006650   Section      272  lc_ctype_c.o(locale$$data)
    __lcnum_c_end                            0x08006650   Data           0  lc_numeric_c.o(locale$$data)
    __lcctype_c_name                         0x08006654   Data           2  lc_ctype_c.o(locale$$data)
    __lcctype_c_start                        0x0800665c   Data           0  lc_ctype_c.o(locale$$data)
    __lcctype_c_end                          0x08006760   Data           0  lc_ctype_c.o(locale$$data)
    .data                                    0x20000000   Section       20  system_stm32f10x.o(.data)
    .data                                    0x20000014   Section       20  stm32f10x_rcc.o(.data)
    APBAHBPrescTable                         0x20000014   Data          16  stm32f10x_rcc.o(.data)
    ADCPrescTable                            0x20000024   Data           4  stm32f10x_rcc.o(.data)
    .data                                    0x20000028   Section       16  main.o(.data)
    .data                                    0x20000038   Section        6  lcd.o(.data)
    TextColor                                0x20000038   Data           2  lcd.o(.data)
    BackColor                                0x2000003a   Data           2  lcd.o(.data)
    .data                                    0x20000040   Section       72  parkcontrol.o(.data)
    .data                                    0x20000088   Section        2  usart.o(.data)
    .bss                                     0x2000008c   Section      584  main.o(.bss)
    .bss                                     0x200002d4   Section       28  usart.o(.bss)
    .bss                                     0x200002f0   Section       96  libspace.o(.bss)
    HEAP                                     0x20000350   Section      512  startup_stm32f10x_md.o(HEAP)
    Heap_Mem                                 0x20000350   Data         512  startup_stm32f10x_md.o(HEAP)
    STACK                                    0x20000550   Section     1024  startup_stm32f10x_md.o(STACK)
    Stack_Mem                                0x20000550   Data        1024  startup_stm32f10x_md.o(STACK)
    __initial_sp                             0x20000950   Data           0  startup_stm32f10x_md.o(STACK)

    Global Symbols

    Symbol Name                              Value     Ov Type        Size  Object(Section)

    BuildAttributes$$THM_ISAv4$P$D$K$B$S$PE$A:L22UL41UL21$X:L11$S22US41US21$IEEE1$IW$USESV6$~STKCKD$USESV7$~SHL$OTIME$ROPI$IEEEJ$EBA8$UX$STANDARDLIB$REQ8$PRES8$EABIv2 0x00000000   Number         0  anon$$obj.o ABSOLUTE
    __ARM_use_no_argv                        0x00000000   Number         0  main.o ABSOLUTE
    _printf_flags                            0x00000000   Number         0  printf_stubs.o ABSOLUTE
    _printf_return_value                     0x00000000   Number         0  printf_stubs.o ABSOLUTE
    _printf_sizespec                         0x00000000   Number         0  printf_stubs.o ABSOLUTE
    _printf_widthprec                        0x00000000   Number         0  printf_stubs.o ABSOLUTE
    __ARM_exceptions_init                     - Undefined Weak Reference
    __alloca_initialize                       - Undefined Weak Reference
    __arm_preinit_                            - Undefined Weak Reference
    __cpp_initialize__aeabi_                  - Undefined Weak Reference
    __cxa_finalize                            - Undefined Weak Reference
    __sigvec_lookup                           - Undefined Weak Reference
    _atexit_init                              - Undefined Weak Reference
    _call_atexit_fns                          - Undefined Weak Reference
    _clock_init                               - Undefined Weak Reference
    _fp_trap_init                             - Undefined Weak Reference
    _fp_trap_shutdown                         - Undefined Weak Reference
    _get_lc_collate                           - Undefined Weak Reference
    _get_lc_monetary                          - Undefined Weak Reference
    _get_lc_time                              - Undefined Weak Reference
    _getenv_init                              - Undefined Weak Reference
    _handle_redirection                       - Undefined Weak Reference
    _init_alloc                               - Undefined Weak Reference
    _init_user_alloc                          - Undefined Weak Reference
    _initio                                   - Undefined Weak Reference
    _printf_mbtowc                            - Undefined Weak Reference
    _printf_post_padding                      - Undefined Weak Reference
    _printf_pre_padding                       - Undefined Weak Reference
    _printf_truncate_signed                   - Undefined Weak Reference
    _printf_truncate_unsigned                 - Undefined Weak Reference
    _rand_init                                - Undefined Weak Reference
    _signal_finish                            - Undefined Weak Reference
    _signal_init                              - Undefined Weak Reference
    _terminate_alloc                          - Undefined Weak Reference
    _terminate_user_alloc                     - Undefined Weak Reference
    _terminateio                              - Undefined Weak Reference
    __Vectors_Size                           0x000000ec   Number         0  startup_stm32f10x_md.o ABSOLUTE
    __Vectors                                0x08000000   Data           4  startup_stm32f10x_md.o(RESET)
    __Vectors_End                            0x080000ec   Data           0  startup_stm32f10x_md.o(RESET)
    __main                                   0x080000ed   Thumb Code     8  __main.o(!!!main)
    __scatterload                            0x080000f5   Thumb Code     0  __scatter.o(!!!scatter)
    __scatterload_rt2                        0x080000f5   Thumb Code    44  __scatter.o(!!!scatter)
    __scatterload_rt2_thumb_only             0x080000f5   Thumb Code     0  __scatter.o(!!!scatter)
    __scatterload_null                       0x08000103   Thumb Code     0  __scatter.o(!!!scatter)
    __scatterload_copy                       0x08000129   Thumb Code    26  __scatter_copy.o(!!handler_copy)
    __scatterload_zeroinit                   0x08000145   Thumb Code    28  __scatter_zi.o(!!handler_zi)
    _printf_f                                0x08000161   Thumb Code     0  _printf_f.o(.ARM.Collect$$_printf_percent$$00000003)
    _printf_percent                          0x08000161   Thumb Code     0  _printf_percent.o(.ARM.Collect$$_printf_percent$$00000000)
    _printf_d                                0x08000167   Thumb Code     0  _printf_d.o(.ARM.Collect$$_printf_percent$$00000009)
    _printf_s                                0x0800016d   Thumb Code     0  _printf_s.o(.ARM.Collect$$_printf_percent$$00000014)
    _printf_percent_end                      0x08000173   Thumb Code     0  _printf_percent_end.o(.ARM.Collect$$_printf_percent$$00000017)
    __rt_lib_init                            0x08000177   Thumb Code     0  libinit.o(.ARM.Collect$$libinit$$00000000)
    __rt_lib_init_fp_1                       0x08000179   Thumb Code     0  libinit2.o(.ARM.Collect$$libinit$$00000002)
    __rt_lib_init_heap_1                     0x08000179   Thumb Code     0  libinit2.o(.ARM.Collect$$libinit$$0000000A)
    __rt_lib_init_lc_common                  0x08000179   Thumb Code     0  libinit2.o(.ARM.Collect$$libinit$$0000000F)
    __rt_lib_init_preinit_1                  0x08000179   Thumb Code     0  libinit2.o(.ARM.Collect$$libinit$$00000004)
    __rt_lib_init_rand_1                     0x08000179   Thumb Code     0  libinit2.o(.ARM.Collect$$libinit$$0000000E)
    __rt_lib_init_user_alloc_1               0x08000179   Thumb Code     0  libinit2.o(.ARM.Collect$$libinit$$0000000C)
    __rt_lib_init_lc_collate_1               0x0800017f   Thumb Code     0  libinit2.o(.ARM.Collect$$libinit$$00000011)
    __rt_lib_init_lc_ctype_2                 0x0800017f   Thumb Code     0  libinit2.o(.ARM.Collect$$libinit$$00000012)
    __rt_lib_init_lc_ctype_1                 0x0800018b   Thumb Code     0  libinit2.o(.ARM.Collect$$libinit$$00000013)
    __rt_lib_init_lc_monetary_1              0x0800018b   Thumb Code     0  libinit2.o(.ARM.Collect$$libinit$$00000015)
    __rt_lib_init_lc_numeric_2               0x0800018b   Thumb Code     0  libinit2.o(.ARM.Collect$$libinit$$00000016)
    __rt_lib_init_alloca_1                   0x08000195   Thumb Code     0  libinit2.o(.ARM.Collect$$libinit$$0000002E)
    __rt_lib_init_argv_1                     0x08000195   Thumb Code     0  libinit2.o(.ARM.Collect$$libinit$$0000002C)
    __rt_lib_init_atexit_1                   0x08000195   Thumb Code     0  libinit2.o(.ARM.Collect$$libinit$$0000001B)
    __rt_lib_init_clock_1                    0x08000195   Thumb Code     0  libinit2.o(.ARM.Collect$$libinit$$00000021)
    __rt_lib_init_cpp_1                      0x08000195   Thumb Code     0  libinit2.o(.ARM.Collect$$libinit$$00000032)
    __rt_lib_init_exceptions_1               0x08000195   Thumb Code     0  libinit2.o(.ARM.Collect$$libinit$$00000030)
    __rt_lib_init_fp_trap_1                  0x08000195   Thumb Code     0  libinit2.o(.ARM.Collect$$libinit$$0000001F)
    __rt_lib_init_getenv_1                   0x08000195   Thumb Code     0  libinit2.o(.ARM.Collect$$libinit$$00000023)
    __rt_lib_init_lc_numeric_1               0x08000195   Thumb Code     0  libinit2.o(.ARM.Collect$$libinit$$00000017)
    __rt_lib_init_lc_time_1                  0x08000195   Thumb Code     0  libinit2.o(.ARM.Collect$$libinit$$00000019)
    __rt_lib_init_return                     0x08000195   Thumb Code     0  libinit2.o(.ARM.Collect$$libinit$$00000033)
    __rt_lib_init_signal_1                   0x08000195   Thumb Code     0  libinit2.o(.ARM.Collect$$libinit$$0000001D)
    __rt_lib_init_stdio_1                    0x08000195   Thumb Code     0  libinit2.o(.ARM.Collect$$libinit$$00000025)
    __rt_lib_shutdown                        0x08000197   Thumb Code     0  libshutdown.o(.ARM.Collect$$libshutdown$$00000000)
    __rt_lib_shutdown_cpp_1                  0x08000199   Thumb Code     0  libshutdown2.o(.ARM.Collect$$libshutdown$$00000002)
    __rt_lib_shutdown_fp_trap_1              0x08000199   Thumb Code     0  libshutdown2.o(.ARM.Collect$$libshutdown$$00000007)
    __rt_lib_shutdown_heap_1                 0x08000199   Thumb Code     0  libshutdown2.o(.ARM.Collect$$libshutdown$$0000000F)
    __rt_lib_shutdown_return                 0x08000199   Thumb Code     0  libshutdown2.o(.ARM.Collect$$libshutdown$$00000010)
    __rt_lib_shutdown_signal_1               0x08000199   Thumb Code     0  libshutdown2.o(.ARM.Collect$$libshutdown$$0000000A)
    __rt_lib_shutdown_stdio_1                0x08000199   Thumb Code     0  libshutdown2.o(.ARM.Collect$$libshutdown$$00000004)
    __rt_lib_shutdown_user_alloc_1           0x08000199   Thumb Code     0  libshutdown2.o(.ARM.Collect$$libshutdown$$0000000C)
    __rt_entry                               0x0800019b   Thumb Code     0  __rtentry.o(.ARM.Collect$$rtentry$$00000000)
    __rt_entry_presh_1                       0x0800019b   Thumb Code     0  __rtentry2.o(.ARM.Collect$$rtentry$$00000002)
    __rt_entry_sh                            0x0800019b   Thumb Code     0  __rtentry4.o(.ARM.Collect$$rtentry$$00000004)
    __rt_entry_li                            0x080001a1   Thumb Code     0  __rtentry2.o(.ARM.Collect$$rtentry$$0000000A)
    __rt_entry_postsh_1                      0x080001a1   Thumb Code     0  __rtentry2.o(.ARM.Collect$$rtentry$$00000009)
    __rt_entry_main                          0x080001a5   Thumb Code     0  __rtentry2.o(.ARM.Collect$$rtentry$$0000000D)
    __rt_entry_postli_1                      0x080001a5   Thumb Code     0  __rtentry2.o(.ARM.Collect$$rtentry$$0000000C)
    __rt_exit                                0x080001ad   Thumb Code     0  rtexit.o(.ARM.Collect$$rtexit$$00000000)
    __rt_exit_ls                             0x080001af   Thumb Code     0  rtexit2.o(.ARM.Collect$$rtexit$$00000003)
    __rt_exit_prels_1                        0x080001af   Thumb Code     0  rtexit2.o(.ARM.Collect$$rtexit$$00000002)
    __rt_exit_exit                           0x080001b3   Thumb Code     0  rtexit2.o(.ARM.Collect$$rtexit$$00000004)
    Reset_Handler                            0x080001b9   Thumb Code     8  startup_stm32f10x_md.o(.text)
    ADC1_2_IRQHandler                        0x080001d3   Thumb Code     0  startup_stm32f10x_md.o(.text)
    CAN1_RX1_IRQHandler                      0x080001d3   Thumb Code     0  startup_stm32f10x_md.o(.text)
    CAN1_SCE_IRQHandler                      0x080001d3   Thumb Code     0  startup_stm32f10x_md.o(.text)
    DMA1_Channel1_IRQHandler                 0x080001d3   Thumb Code     0  startup_stm32f10x_md.o(.text)
    DMA1_Channel2_IRQHandler                 0x080001d3   Thumb Code     0  startup_stm32f10x_md.o(.text)
    DMA1_Channel3_IRQHandler                 0x080001d3   Thumb Code     0  startup_stm32f10x_md.o(.text)
    DMA1_Channel4_IRQHandler                 0x080001d3   Thumb Code     0  startup_stm32f10x_md.o(.text)
    DMA1_Channel5_IRQHandler                 0x080001d3   Thumb Code     0  startup_stm32f10x_md.o(.text)
    DMA1_Channel6_IRQHandler                 0x080001d3   Thumb Code     0  startup_stm32f10x_md.o(.text)
    DMA1_Channel7_IRQHandler                 0x080001d3   Thumb Code     0  startup_stm32f10x_md.o(.text)
    EXTI0_IRQHandler                         0x080001d3   Thumb Code     0  startup_stm32f10x_md.o(.text)
    EXTI15_10_IRQHandler                     0x080001d3   Thumb Code     0  startup_stm32f10x_md.o(.text)
    EXTI1_IRQHandler                         0x080001d3   Thumb Code     0  startup_stm32f10x_md.o(.text)
    EXTI2_IRQHandler                         0x080001d3   Thumb Code     0  startup_stm32f10x_md.o(.text)
    EXTI3_IRQHandler                         0x080001d3   Thumb Code     0  startup_stm32f10x_md.o(.text)
    EXTI4_IRQHandler                         0x080001d3   Thumb Code     0  startup_stm32f10x_md.o(.text)
    EXTI9_5_IRQHandler                       0x080001d3   Thumb Code     0  startup_stm32f10x_md.o(.text)
    FLASH_IRQHandler                         0x080001d3   Thumb Code     0  startup_stm32f10x_md.o(.text)
    I2C1_ER_IRQHandler                       0x080001d3   Thumb Code     0  startup_stm32f10x_md.o(.text)
    I2C1_EV_IRQHandler                       0x080001d3   Thumb Code     0  startup_stm32f10x_md.o(.text)
    I2C2_ER_IRQHandler                       0x080001d3   Thumb Code     0  startup_stm32f10x_md.o(.text)
    I2C2_EV_IRQHandler                       0x080001d3   Thumb Code     0  startup_stm32f10x_md.o(.text)
    PVD_IRQHandler                           0x080001d3   Thumb Code     0  startup_stm32f10x_md.o(.text)
    RCC_IRQHandler                           0x080001d3   Thumb Code     0  startup_stm32f10x_md.o(.text)
    RTCAlarm_IRQHandler                      0x080001d3   Thumb Code     0  startup_stm32f10x_md.o(.text)
    RTC_IRQHandler                           0x080001d3   Thumb Code     0  startup_stm32f10x_md.o(.text)
    SPI1_IRQHandler                          0x080001d3   Thumb Code     0  startup_stm32f10x_md.o(.text)
    SPI2_IRQHandler                          0x080001d3   Thumb Code     0  startup_stm32f10x_md.o(.text)
    TAMPER_IRQHandler                        0x080001d3   Thumb Code     0  startup_stm32f10x_md.o(.text)
    TIM1_BRK_IRQHandler                      0x080001d3   Thumb Code     0  startup_stm32f10x_md.o(.text)
    TIM1_CC_IRQHandler                       0x080001d3   Thumb Code     0  startup_stm32f10x_md.o(.text)
    TIM1_TRG_COM_IRQHandler                  0x080001d3   Thumb Code     0  startup_stm32f10x_md.o(.text)
    TIM1_UP_IRQHandler                       0x080001d3   Thumb Code     0  startup_stm32f10x_md.o(.text)
    TIM2_IRQHandler                          0x080001d3   Thumb Code     0  startup_stm32f10x_md.o(.text)
    TIM3_IRQHandler                          0x080001d3   Thumb Code     0  startup_stm32f10x_md.o(.text)
    TIM4_IRQHandler                          0x080001d3   Thumb Code     0  startup_stm32f10x_md.o(.text)
    USART1_IRQHandler                        0x080001d3   Thumb Code     0  startup_stm32f10x_md.o(.text)
    USART3_IRQHandler                        0x080001d3   Thumb Code     0  startup_stm32f10x_md.o(.text)
    USBWakeUp_IRQHandler                     0x080001d3   Thumb Code     0  startup_stm32f10x_md.o(.text)
    USB_HP_CAN1_TX_IRQHandler                0x080001d3   Thumb Code     0  startup_stm32f10x_md.o(.text)
    USB_LP_CAN1_RX0_IRQHandler               0x080001d3   Thumb Code     0  startup_stm32f10x_md.o(.text)
    WWDG_IRQHandler                          0x080001d3   Thumb Code     0  startup_stm32f10x_md.o(.text)
    __user_initial_stackheap                 0x080001d5   Thumb Code     0  startup_stm32f10x_md.o(.text)
    SystemInit                               0x080002d7   Thumb Code    78  system_stm32f10x.o(.text)
    SystemCoreClockUpdate                    0x08000325   Thumb Code   142  system_stm32f10x.o(.text)
    RCC_DeInit                               0x080003d9   Thumb Code    64  stm32f10x_rcc.o(.text)
    RCC_HSEConfig                            0x08000419   Thumb Code    70  stm32f10x_rcc.o(.text)
    RCC_GetFlagStatus                        0x0800045f   Thumb Code    56  stm32f10x_rcc.o(.text)
    RCC_WaitForHSEStartUp                    0x08000497   Thumb Code    56  stm32f10x_rcc.o(.text)
    RCC_AdjustHSICalibrationValue            0x080004cf   Thumb Code    20  stm32f10x_rcc.o(.text)
    RCC_HSICmd                               0x080004e3   Thumb Code     6  stm32f10x_rcc.o(.text)
    RCC_PLLConfig                            0x080004e9   Thumb Code    24  stm32f10x_rcc.o(.text)
    RCC_PLLCmd                               0x08000501   Thumb Code     6  stm32f10x_rcc.o(.text)
    RCC_SYSCLKConfig                         0x08000507   Thumb Code    18  stm32f10x_rcc.o(.text)
    RCC_GetSYSCLKSource                      0x08000519   Thumb Code    10  stm32f10x_rcc.o(.text)
    RCC_HCLKConfig                           0x08000523   Thumb Code    18  stm32f10x_rcc.o(.text)
    RCC_PCLK1Config                          0x08000535   Thumb Code    18  stm32f10x_rcc.o(.text)
    RCC_PCLK2Config                          0x08000547   Thumb Code    20  stm32f10x_rcc.o(.text)
    RCC_ITConfig                             0x0800055b   Thumb Code    26  stm32f10x_rcc.o(.text)
    RCC_USBCLKConfig                         0x08000575   Thumb Code     8  stm32f10x_rcc.o(.text)
    RCC_ADCCLKConfig                         0x0800057d   Thumb Code    18  stm32f10x_rcc.o(.text)
    RCC_LSEConfig                            0x0800058f   Thumb Code    50  stm32f10x_rcc.o(.text)
    RCC_LSICmd                               0x080005c1   Thumb Code     6  stm32f10x_rcc.o(.text)
    RCC_RTCCLKConfig                         0x080005c7   Thumb Code    12  stm32f10x_rcc.o(.text)
    RCC_RTCCLKCmd                            0x080005d3   Thumb Code     8  stm32f10x_rcc.o(.text)
    RCC_GetClocksFreq                        0x080005db   Thumb Code   192  stm32f10x_rcc.o(.text)
    RCC_AHBPeriphClockCmd                    0x0800069b   Thumb Code    26  stm32f10x_rcc.o(.text)
    RCC_APB2PeriphClockCmd                   0x080006b5   Thumb Code    26  stm32f10x_rcc.o(.text)
    RCC_APB1PeriphClockCmd                   0x080006cf   Thumb Code    26  stm32f10x_rcc.o(.text)
    RCC_APB2PeriphResetCmd                   0x080006e9   Thumb Code    26  stm32f10x_rcc.o(.text)
    RCC_APB1PeriphResetCmd                   0x08000703   Thumb Code    26  stm32f10x_rcc.o(.text)
    RCC_BackupResetCmd                       0x0800071d   Thumb Code     8  stm32f10x_rcc.o(.text)
    RCC_ClockSecuritySystemCmd               0x08000725   Thumb Code     6  stm32f10x_rcc.o(.text)
    RCC_MCOConfig                            0x0800072b   Thumb Code     6  stm32f10x_rcc.o(.text)
    RCC_ClearFlag                            0x08000731   Thumb Code    14  stm32f10x_rcc.o(.text)
    RCC_GetITStatus                          0x0800073f   Thumb Code    20  stm32f10x_rcc.o(.text)
    RCC_ClearITPendingBit                    0x08000753   Thumb Code     6  stm32f10x_rcc.o(.text)
    GPIO_DeInit                              0x0800077d   Thumb Code   172  stm32f10x_gpio.o(.text)
    GPIO_AFIODeInit                          0x08000829   Thumb Code    20  stm32f10x_gpio.o(.text)
    GPIO_Init                                0x0800083d   Thumb Code   278  stm32f10x_gpio.o(.text)
    GPIO_StructInit                          0x08000953   Thumb Code    16  stm32f10x_gpio.o(.text)
    GPIO_ReadInputDataBit                    0x08000963   Thumb Code    18  stm32f10x_gpio.o(.text)
    GPIO_ReadInputData                       0x08000975   Thumb Code     8  stm32f10x_gpio.o(.text)
    GPIO_ReadOutputDataBit                   0x0800097d   Thumb Code    18  stm32f10x_gpio.o(.text)
    GPIO_ReadOutputData                      0x0800098f   Thumb Code     8  stm32f10x_gpio.o(.text)
    GPIO_SetBits                             0x08000997   Thumb Code     4  stm32f10x_gpio.o(.text)
    GPIO_ResetBits                           0x0800099b   Thumb Code     4  stm32f10x_gpio.o(.text)
    GPIO_WriteBit                            0x0800099f   Thumb Code    10  stm32f10x_gpio.o(.text)
    GPIO_Write                               0x080009a9   Thumb Code     4  stm32f10x_gpio.o(.text)
    GPIO_PinLockConfig                       0x080009ad   Thumb Code    18  stm32f10x_gpio.o(.text)
    GPIO_EventOutputConfig                   0x080009bf   Thumb Code    26  stm32f10x_gpio.o(.text)
    GPIO_EventOutputCmd                      0x080009d9   Thumb Code     6  stm32f10x_gpio.o(.text)
    GPIO_PinRemapConfig                      0x080009df   Thumb Code   138  stm32f10x_gpio.o(.text)
    GPIO_EXTILineConfig                      0x08000a69   Thumb Code    66  stm32f10x_gpio.o(.text)
    GPIO_ETH_MediaInterfaceConfig            0x08000aab   Thumb Code     8  stm32f10x_gpio.o(.text)
    NVIC_PriorityGroupConfig                 0x08000ad9   Thumb Code    10  misc.o(.text)
    NVIC_Init                                0x08000ae3   Thumb Code   100  misc.o(.text)
    NVIC_SetVectorTable                      0x08000b47   Thumb Code    14  misc.o(.text)
    NVIC_SystemLPConfig                      0x08000b55   Thumb Code    34  misc.o(.text)
    SysTick_CLKSourceConfig                  0x08000b77   Thumb Code    40  misc.o(.text)
    USART_DeInit                             0x08000bb5   Thumb Code   134  stm32f10x_usart.o(.text)
    USART_Init                               0x08000c3b   Thumb Code   210  stm32f10x_usart.o(.text)
    USART_StructInit                         0x08000d0d   Thumb Code    24  stm32f10x_usart.o(.text)
    USART_ClockInit                          0x08000d25   Thumb Code    34  stm32f10x_usart.o(.text)
    USART_ClockStructInit                    0x08000d47   Thumb Code    12  stm32f10x_usart.o(.text)
    USART_Cmd                                0x08000d53   Thumb Code    24  stm32f10x_usart.o(.text)
    USART_ITConfig                           0x08000d6b   Thumb Code    74  stm32f10x_usart.o(.text)
    USART_DMACmd                             0x08000db5   Thumb Code    18  stm32f10x_usart.o(.text)
    USART_SetAddress                         0x08000dc7   Thumb Code    18  stm32f10x_usart.o(.text)
    USART_WakeUpConfig                       0x08000dd9   Thumb Code    18  stm32f10x_usart.o(.text)
    USART_ReceiverWakeUpCmd                  0x08000deb   Thumb Code    24  stm32f10x_usart.o(.text)
    USART_LINBreakDetectLengthConfig         0x08000e03   Thumb Code    18  stm32f10x_usart.o(.text)
    USART_LINCmd                             0x08000e15   Thumb Code    24  stm32f10x_usart.o(.text)
    USART_SendData                           0x08000e2d   Thumb Code     8  stm32f10x_usart.o(.text)
    USART_ReceiveData                        0x08000e35   Thumb Code    10  stm32f10x_usart.o(.text)
    USART_SendBreak                          0x08000e3f   Thumb Code    10  stm32f10x_usart.o(.text)
    USART_SetGuardTime                       0x08000e49   Thumb Code    16  stm32f10x_usart.o(.text)
    USART_SetPrescaler                       0x08000e59   Thumb Code    16  stm32f10x_usart.o(.text)
    USART_SmartCardCmd                       0x08000e69   Thumb Code    24  stm32f10x_usart.o(.text)
    USART_SmartCardNACKCmd                   0x08000e81   Thumb Code    24  stm32f10x_usart.o(.text)
    USART_HalfDuplexCmd                      0x08000e99   Thumb Code    24  stm32f10x_usart.o(.text)
    USART_OverSampling8Cmd                   0x08000eb1   Thumb Code    22  stm32f10x_usart.o(.text)
    USART_OneBitMethodCmd                    0x08000ec7   Thumb Code    24  stm32f10x_usart.o(.text)
    USART_IrDAConfig                         0x08000edf   Thumb Code    18  stm32f10x_usart.o(.text)
    USART_IrDACmd                            0x08000ef1   Thumb Code    24  stm32f10x_usart.o(.text)
    USART_GetFlagStatus                      0x08000f09   Thumb Code    26  stm32f10x_usart.o(.text)
    USART_ClearFlag                          0x08000f23   Thumb Code    18  stm32f10x_usart.o(.text)
    USART_GetITStatus                        0x08000f35   Thumb Code    84  stm32f10x_usart.o(.text)
    USART_ClearITPendingBit                  0x08000f89   Thumb Code    52  stm32f10x_usart.o(.text)
    TIM_DeInit                               0x08000fbd   Thumb Code   424  stm32f10x_tim.o(.text)
    TIM_TimeBaseInit                         0x08001165   Thumb Code   122  stm32f10x_tim.o(.text)
    TIM_OC1Init                              0x080011df   Thumb Code   132  stm32f10x_tim.o(.text)
    TIM_OC2Init                              0x08001263   Thumb Code   154  stm32f10x_tim.o(.text)
    TIM_OC3Init                              0x080012fd   Thumb Code   150  stm32f10x_tim.o(.text)
    TIM_OC4Init                              0x08001393   Thumb Code   182  stm32f10x_tim.o(.text)
    TIM_SetIC4Prescaler                      0x08001449   Thumb Code    26  stm32f10x_tim.o(.text)
    TIM_SetIC3Prescaler                      0x080014e5   Thumb Code    18  stm32f10x_tim.o(.text)
    TIM_SetIC2Prescaler                      0x08001571   Thumb Code    26  stm32f10x_tim.o(.text)
    TIM_SetIC1Prescaler                      0x0800160d   Thumb Code    18  stm32f10x_tim.o(.text)
    TIM_ICInit                               0x0800168b   Thumb Code   150  stm32f10x_tim.o(.text)
    TIM_PWMIConfig                           0x08001721   Thumb Code   124  stm32f10x_tim.o(.text)
    TIM_BDTRConfig                           0x0800179d   Thumb Code    32  stm32f10x_tim.o(.text)
    TIM_TimeBaseStructInit                   0x080017bd   Thumb Code    18  stm32f10x_tim.o(.text)
    TIM_OCStructInit                         0x080017cf   Thumb Code    20  stm32f10x_tim.o(.text)
    TIM_ICStructInit                         0x080017e3   Thumb Code    18  stm32f10x_tim.o(.text)
    TIM_BDTRStructInit                       0x080017f5   Thumb Code    40  stm32f10x_tim.o(.text)
    TIM_Cmd                                  0x0800181d   Thumb Code    24  stm32f10x_tim.o(.text)
    TIM_CtrlPWMOutputs                       0x08001835   Thumb Code    30  stm32f10x_tim.o(.text)
    TIM_ITConfig                             0x08001853   Thumb Code    18  stm32f10x_tim.o(.text)
    TIM_GenerateEvent                        0x08001865   Thumb Code     4  stm32f10x_tim.o(.text)
    TIM_DMAConfig                            0x08001869   Thumb Code    10  stm32f10x_tim.o(.text)
    TIM_DMACmd                               0x08001873   Thumb Code    18  stm32f10x_tim.o(.text)
    TIM_InternalClockConfig                  0x08001885   Thumb Code    12  stm32f10x_tim.o(.text)
    TIM_SelectInputTrigger                   0x08001891   Thumb Code    18  stm32f10x_tim.o(.text)
    TIM_ITRxExternalClockConfig              0x080018a3   Thumb Code    24  stm32f10x_tim.o(.text)
    TIM_TIxExternalClockConfig               0x080018bb   Thumb Code    62  stm32f10x_tim.o(.text)
    TIM_ETRConfig                            0x080018f9   Thumb Code    28  stm32f10x_tim.o(.text)
    TIM_ETRClockMode1Config                  0x08001915   Thumb Code    54  stm32f10x_tim.o(.text)
    TIM_ETRClockMode2Config                  0x0800194b   Thumb Code    32  stm32f10x_tim.o(.text)
    TIM_PrescalerConfig                      0x0800196b   Thumb Code     6  stm32f10x_tim.o(.text)
    TIM_CounterModeConfig                    0x08001971   Thumb Code    18  stm32f10x_tim.o(.text)
    TIM_EncoderInterfaceConfig               0x08001983   Thumb Code    66  stm32f10x_tim.o(.text)
    TIM_ForcedOC1Config                      0x080019c5   Thumb Code    18  stm32f10x_tim.o(.text)
    TIM_ForcedOC2Config                      0x080019d7   Thumb Code    26  stm32f10x_tim.o(.text)
    TIM_ForcedOC3Config                      0x080019f1   Thumb Code    18  stm32f10x_tim.o(.text)
    TIM_ForcedOC4Config                      0x08001a03   Thumb Code    26  stm32f10x_tim.o(.text)
    TIM_ARRPreloadConfig                     0x08001a1d   Thumb Code    24  stm32f10x_tim.o(.text)
    TIM_SelectCOM                            0x08001a35   Thumb Code    24  stm32f10x_tim.o(.text)
    TIM_SelectCCDMA                          0x08001a4d   Thumb Code    24  stm32f10x_tim.o(.text)
    TIM_CCPreloadControl                     0x08001a65   Thumb Code    24  stm32f10x_tim.o(.text)
    TIM_OC1PreloadConfig                     0x08001a7d   Thumb Code    18  stm32f10x_tim.o(.text)
    TIM_OC2PreloadConfig                     0x08001a8f   Thumb Code    26  stm32f10x_tim.o(.text)
    TIM_OC3PreloadConfig                     0x08001aa9   Thumb Code    18  stm32f10x_tim.o(.text)
    TIM_OC4PreloadConfig                     0x08001abb   Thumb Code    26  stm32f10x_tim.o(.text)
    TIM_OC1FastConfig                        0x08001ad5   Thumb Code    18  stm32f10x_tim.o(.text)
    TIM_OC2FastConfig                        0x08001ae7   Thumb Code    26  stm32f10x_tim.o(.text)
    TIM_OC3FastConfig                        0x08001b01   Thumb Code    18  stm32f10x_tim.o(.text)
    TIM_OC4FastConfig                        0x08001b13   Thumb Code    26  stm32f10x_tim.o(.text)
    TIM_ClearOC1Ref                          0x08001b2d   Thumb Code    18  stm32f10x_tim.o(.text)
    TIM_ClearOC2Ref                          0x08001b3f   Thumb Code    24  stm32f10x_tim.o(.text)
    TIM_ClearOC3Ref                          0x08001b57   Thumb Code    18  stm32f10x_tim.o(.text)
    TIM_ClearOC4Ref                          0x08001b69   Thumb Code    24  stm32f10x_tim.o(.text)
    TIM_OC1PolarityConfig                    0x08001b81   Thumb Code    18  stm32f10x_tim.o(.text)
    TIM_OC1NPolarityConfig                   0x08001b93   Thumb Code    18  stm32f10x_tim.o(.text)
    TIM_OC2PolarityConfig                    0x08001ba5   Thumb Code    26  stm32f10x_tim.o(.text)
    TIM_OC2NPolarityConfig                   0x08001bbf   Thumb Code    26  stm32f10x_tim.o(.text)
    TIM_OC3PolarityConfig                    0x08001bd9   Thumb Code    26  stm32f10x_tim.o(.text)
    TIM_OC3NPolarityConfig                   0x08001bf3   Thumb Code    26  stm32f10x_tim.o(.text)
    TIM_OC4PolarityConfig                    0x08001c0d   Thumb Code    26  stm32f10x_tim.o(.text)
    TIM_CCxCmd                               0x08001c27   Thumb Code    30  stm32f10x_tim.o(.text)
    TIM_CCxNCmd                              0x08001c45   Thumb Code    30  stm32f10x_tim.o(.text)
    TIM_SelectOCxM                           0x08001c63   Thumb Code    82  stm32f10x_tim.o(.text)
    TIM_UpdateDisableConfig                  0x08001cb5   Thumb Code    24  stm32f10x_tim.o(.text)
    TIM_UpdateRequestConfig                  0x08001ccd   Thumb Code    24  stm32f10x_tim.o(.text)
    TIM_SelectHallSensor                     0x08001ce5   Thumb Code    24  stm32f10x_tim.o(.text)
    TIM_SelectOnePulseMode                   0x08001cfd   Thumb Code    18  stm32f10x_tim.o(.text)
    TIM_SelectOutputTrigger                  0x08001d0f   Thumb Code    18  stm32f10x_tim.o(.text)
    TIM_SelectSlaveMode                      0x08001d21   Thumb Code    18  stm32f10x_tim.o(.text)
    TIM_SelectMasterSlaveMode                0x08001d33   Thumb Code    18  stm32f10x_tim.o(.text)
    TIM_SetCounter                           0x08001d45   Thumb Code     4  stm32f10x_tim.o(.text)
    TIM_SetAutoreload                        0x08001d49   Thumb Code     4  stm32f10x_tim.o(.text)
    TIM_SetCompare1                          0x08001d4d   Thumb Code     4  stm32f10x_tim.o(.text)
    TIM_SetCompare2                          0x08001d51   Thumb Code     4  stm32f10x_tim.o(.text)
    TIM_SetCompare3                          0x08001d55   Thumb Code     4  stm32f10x_tim.o(.text)
    TIM_SetCompare4                          0x08001d59   Thumb Code     6  stm32f10x_tim.o(.text)
    TIM_SetClockDivision                     0x08001d5f   Thumb Code    18  stm32f10x_tim.o(.text)
    TIM_GetCapture1                          0x08001d71   Thumb Code     6  stm32f10x_tim.o(.text)
    TIM_GetCapture2                          0x08001d77   Thumb Code     6  stm32f10x_tim.o(.text)
    TIM_GetCapture3                          0x08001d7d   Thumb Code     6  stm32f10x_tim.o(.text)
    TIM_GetCapture4                          0x08001d83   Thumb Code     8  stm32f10x_tim.o(.text)
    TIM_GetCounter                           0x08001d8b   Thumb Code     6  stm32f10x_tim.o(.text)
    TIM_GetPrescaler                         0x08001d91   Thumb Code     6  stm32f10x_tim.o(.text)
    TIM_GetFlagStatus                        0x08001d97   Thumb Code    18  stm32f10x_tim.o(.text)
    TIM_ClearFlag                            0x08001da9   Thumb Code     6  stm32f10x_tim.o(.text)
    TIM_GetITStatus                          0x08001daf   Thumb Code    34  stm32f10x_tim.o(.text)
    TIM_ClearITPendingBit                    0x08001dd1   Thumb Code     6  stm32f10x_tim.o(.text)
    updateAll                                0x08001dd9   Thumb Code    96  main.o(.text)
    fflushData                               0x08001e39   Thumb Code    40  main.o(.text)
    substring                                0x08001e61   Thumb Code    32  main.o(.text)
    analysis                                 0x08001e81   Thumb Code   270  main.o(.text)
    receiveData                              0x08001f8f   Thumb Code   154  main.o(.text)
    fflushPara                               0x08002029   Thumb Code    32  main.o(.text)
    show                                     0x08002049   Thumb Code   204  main.o(.text)
    main                                     0x08002115   Thumb Code   532  main.o(.text)
    Delay_Ms                                 0x08002329   Thumb Code    16  main.o(.text)
    NMI_Handler                              0x0800234d   Thumb Code     2  stm32f10x_it.o(.text)
    HardFault_Handler                        0x0800234f   Thumb Code     4  stm32f10x_it.o(.text)
    MemManage_Handler                        0x08002353   Thumb Code     4  stm32f10x_it.o(.text)
    BusFault_Handler                         0x08002357   Thumb Code     4  stm32f10x_it.o(.text)
    UsageFault_Handler                       0x0800235b   Thumb Code     4  stm32f10x_it.o(.text)
    SVC_Handler                              0x0800235f   Thumb Code     2  stm32f10x_it.o(.text)
    DebugMon_Handler                         0x08002361   Thumb Code     2  stm32f10x_it.o(.text)
    PendSV_Handler                           0x08002363   Thumb Code     2  stm32f10x_it.o(.text)
    SysTick_Handler                          0x08002365   Thumb Code    12  stm32f10x_it.o(.text)
    Delay_LCD                                0x08002375   Thumb Code    30  lcd.o(.text)
    LCD_WriteReg                             0x08002393   Thumb Code    68  lcd.o(.text)
    REG_8230_Init                            0x080023d7   Thumb Code   288  lcd.o(.text)
    REG_932X_Init                            0x080024f7   Thumb Code   514  lcd.o(.text)
    LCD_BusOut                               0x080026f9   Thumb Code    32  lcd.o(.text)
    LCD_BusIn                                0x08002719   Thumb Code    32  lcd.o(.text)
    LCD_ReadReg                              0x08002739   Thumb Code    92  lcd.o(.text)
    LCD_CtrlLinesConfig                      0x08002795   Thumb Code    68  lcd.o(.text)
    STM3210B_LCD_Init                        0x080027d9   Thumb Code    50  lcd.o(.text)
    LCD_SetTextColor                         0x0800280b   Thumb Code    12  lcd.o(.text)
    LCD_SetBackColor                         0x08002817   Thumb Code    12  lcd.o(.text)
    LCD_SetCursor                            0x08002823   Thumb Code    24  lcd.o(.text)
    LCD_WriteRAM                             0x0800283b   Thumb Code    54  lcd.o(.text)
    LCD_WriteRAM_Prepare                     0x08002871   Thumb Code    58  lcd.o(.text)
    LCD_DrawChar                             0x080028ab   Thumb Code   100  lcd.o(.text)
    LCD_DisplayChar                          0x0800290f   Thumb Code    34  lcd.o(.text)
    LCD_DisplayStringLine                    0x08002931   Thumb Code    44  lcd.o(.text)
    LCD_ClearLine                            0x0800295d   Thumb Code    14  lcd.o(.text)
    LCD_Clear                                0x0800296b   Thumb Code    38  lcd.o(.text)
    LCD_SetDisplayWindow                     0x08002991   Thumb Code    88  lcd.o(.text)
    LCD_WindowModeDisable                    0x080029e9   Thumb Code    28  lcd.o(.text)
    LCD_DrawLine                             0x08002a05   Thumb Code    86  lcd.o(.text)
    LCD_DrawRect                             0x08002a5b   Thumb Code    66  lcd.o(.text)
    LCD_DrawCircle                           0x08002a9d   Thumb Code   300  lcd.o(.text)
    LCD_DrawMonoPict                         0x08002bc9   Thumb Code    76  lcd.o(.text)
    LCD_WriteBMP                             0x08002c15   Thumb Code    74  lcd.o(.text)
    LCD_ReadRAM                              0x08002c5f   Thumb Code    82  lcd.o(.text)
    LCD_PowerOn                              0x08002cb1   Thumb Code   118  lcd.o(.text)
    LCD_DisplayOn                            0x08002d27   Thumb Code    14  lcd.o(.text)
    LCD_DisplayOff                           0x08002d35   Thumb Code    12  lcd.o(.text)
    LCD_DrawPicture                          0x08002d41   Thumb Code    48  lcd.o(.text)
    initParking                              0x08002d81   Thumb Code   168  parkcontrol.o(.text)
    initCar                                  0x08002e29   Thumb Code    42  parkcontrol.o(.text)
    initTime                                 0x08002e53   Thumb Code    56  parkcontrol.o(.text)
    canPark                                  0x08002e8b   Thumb Code    16  parkcontrol.o(.text)
    isExist                                  0x08002e9b   Thumb Code    40  parkcontrol.o(.text)
    park                                     0x08002ec3   Thumb Code   404  parkcontrol.o(.text)
    successGoOut                             0x08003057   Thumb Code   154  parkcontrol.o(.text)
    goOut                                    0x080030f1   Thumb Code   448  parkcontrol.o(.text)
    parkControl                              0x080032b1   Thumb Code   164  parkcontrol.o(.text)
    Key_Init                                 0x080033d1   Thumb Code    62  key.o(.text)
    Key_Scan                                 0x0800340f   Thumb Code    82  key.o(.text)
    USART_Config                             0x08003469   Thumb Code   116  usart.o(.text)
    USART_SendString                         0x080034dd   Thumb Code    44  usart.o(.text)
    NVIC_Configuration                       0x08003509   Thumb Code    42  usart.o(.text)
    USART2_IRQHandler                        0x08003533   Thumb Code    86  usart.o(.text)
    LED_Init                                 0x0800359d   Thumb Code    62  led.o(.text)
    LED_Control                              0x080035db   Thumb Code    60  led.o(.text)
    PWM_IO_Config                            0x08003621   Thumb Code    38  pwm.o(.text)
    TIM_Config                               0x08003647   Thumb Code   134  pwm.o(.text)
    __2sprintf                               0x080036d5   Thumb Code    34  noretval__2sprintf.o(.text)
    _printf_str                              0x080036fd   Thumb Code    82  _printf_str.o(.text)
    _printf_int_dec                          0x08003751   Thumb Code   104  _printf_dec.o(.text)
    __printf                                 0x080037c9   Thumb Code   270  __printf_wp.o(.text)
    atoi                                     0x080038d7   Thumb Code    26  atoi.o(.text)
    strcpy                                   0x080038f1   Thumb Code    72  strcpy.o(.text)
    __aeabi_memcpy4                          0x08003939   Thumb Code     0  rt_memcpy_w.o(.text)
    __aeabi_memcpy8                          0x08003939   Thumb Code     0  rt_memcpy_w.o(.text)
    __rt_memcpy_w                            0x08003939   Thumb Code   100  rt_memcpy_w.o(.text)
    _memcpy_lastbytes_aligned                0x08003981   Thumb Code     0  rt_memcpy_w.o(.text)
    __aeabi_memclr                           0x0800399d   Thumb Code     0  rt_memclr.o(.text)
    __rt_memclr                              0x0800399d   Thumb Code    68  rt_memclr.o(.text)
    _memset                                  0x080039a1   Thumb Code     0  rt_memclr.o(.text)
    strcmp                                   0x080039e1   Thumb Code   128  strcmpv7m.o(.text)
    __use_two_region_memory                  0x08003a61   Thumb Code     2  heapauxi.o(.text)
    __rt_heap_escrow$2region                 0x08003a63   Thumb Code     2  heapauxi.o(.text)
    __rt_heap_expand$2region                 0x08003a65   Thumb Code     2  heapauxi.o(.text)
    __aeabi_errno_addr                       0x08003a69   Thumb Code     8  rt_errno_addr_intlibspace.o(.text)
    __errno$intlibspace                      0x08003a69   Thumb Code     0  rt_errno_addr_intlibspace.o(.text)
    __rt_errno_addr$intlibspace              0x08003a69   Thumb Code     0  rt_errno_addr_intlibspace.o(.text)
    _printf_int_common                       0x08003a71   Thumb Code   178  _printf_intcommon.o(.text)
    __lib_sel_fp_printf                      0x08003b23   Thumb Code     2  _printf_fp_dec.o(.text)
    _printf_fp_dec_real                      0x08003cd1   Thumb Code   620  _printf_fp_dec.o(.text)
    _printf_char_common                      0x08003f47   Thumb Code    32  _printf_char_common.o(.text)
    _sputc                                   0x08003f6d   Thumb Code    10  _sputc.o(.text)
    _printf_cs_common                        0x08003f77   Thumb Code    20  _printf_char.o(.text)
    _printf_char                             0x08003f8b   Thumb Code    16  _printf_char.o(.text)
    _printf_string                           0x08003f9b   Thumb Code     8  _printf_char.o(.text)
    strtol                                   0x08003fa3   Thumb Code   112  strtol.o(.text)
    __aeabi_memclr4                          0x08004013   Thumb Code     0  rt_memclr_w.o(.text)
    __aeabi_memclr8                          0x08004013   Thumb Code     0  rt_memclr_w.o(.text)
    __rt_memclr_w                            0x08004013   Thumb Code    78  rt_memclr_w.o(.text)
    _memset_w                                0x08004017   Thumb Code     0  rt_memclr_w.o(.text)
    __user_libspace                          0x08004061   Thumb Code     8  libspace.o(.text)
    __user_perproc_libspace                  0x08004061   Thumb Code     0  libspace.o(.text)
    __user_perthread_libspace                0x08004061   Thumb Code     0  libspace.o(.text)
    __rt_ctype_table                         0x08004069   Thumb Code    16  rt_ctype_table.o(.text)
    __rt_locale                              0x08004079   Thumb Code     8  rt_locale_intlibspace.o(.text)
    _ll_udiv10                               0x08004081   Thumb Code   138  lludiv10.o(.text)
    _printf_fp_infnan                        0x0800410d   Thumb Code   112  _printf_fp_infnan.o(.text)
    _strtoul                                 0x0800418d   Thumb Code   158  _strtoul.o(.text)
    _btod_etento                             0x0800422d   Thumb Code   216  bigflt0.o(.text)
    __user_setup_stackheap                   0x08004309   Thumb Code    74  sys_stackheap_outer.o(.text)
    _chval                                   0x08004353   Thumb Code    28  _chval.o(.text)
    exit                                     0x0800436f   Thumb Code    18  exit.o(.text)
    _sys_exit                                0x08004381   Thumb Code     8  sys_exit.o(.text)
    __I$use$semihosting                      0x0800438d   Thumb Code     0  use_no_semi.o(.text)
    __use_no_semihosting_swi                 0x0800438d   Thumb Code     2  use_no_semi.o(.text)
    __semihosting_library_function           0x0800438f   Thumb Code     0  indicate_semi.o(.text)
    _btod_d2e                                0x0800438f   Thumb Code    62  btod.o(CL$$btod_d2e)
    _d2e_denorm_low                          0x080043cd   Thumb Code    70  btod.o(CL$$btod_d2e_denorm_low)
    _d2e_norm_op1                            0x08004413   Thumb Code    96  btod.o(CL$$btod_d2e_norm_op1)
    __btod_div_common                        0x08004473   Thumb Code   696  btod.o(CL$$btod_div_common)
    _e2e                                     0x080047ab   Thumb Code   198  btod.o(CL$$btod_e2e)
    _btod_ediv                               0x08004871   Thumb Code    40  btod.o(CL$$btod_ediv)
    _btod_emul                               0x08004899   Thumb Code    40  btod.o(CL$$btod_emul)
    __btod_mult_common                       0x080048c1   Thumb Code   580  btod.o(CL$$btod_mult_common)
    __ARM_fpclassify                         0x08004b05   Thumb Code    40  fpclassify.o(i.__ARM_fpclassify)
    _is_digit                                0x08004b2d   Thumb Code    14  __printf_wp.o(i._is_digit)
    _get_lc_numeric                          0x08004b3d   Thumb Code    44  lc_numeric_c.o(locale$$code)
    _get_lc_ctype                            0x08004b69   Thumb Code    44  lc_ctype_c.o(locale$$code)
    __aeabi_d2f                              0x08004b95   Thumb Code     0  d2f.o(x$fpl$d2f)
    _d2f                                     0x08004b95   Thumb Code    98  d2f.o(x$fpl$d2f)
    __aeabi_dadd                             0x08004bf9   Thumb Code     0  daddsub_clz.o(x$fpl$dadd)
    _dadd                                    0x08004bf9   Thumb Code   332  daddsub_clz.o(x$fpl$dadd)
    __fpl_dcmp_Inf                           0x08004d49   Thumb Code    24  dcmpi.o(x$fpl$dcmpinf)
    __aeabi_cdcmpeq                          0x08004d61   Thumb Code     0  deqf.o(x$fpl$deqf)
    _dcmpeq                                  0x08004d61   Thumb Code   120  deqf.o(x$fpl$deqf)
    __aeabi_cdcmple                          0x08004dd9   Thumb Code     0  dleqf.o(x$fpl$dleqf)
    _dcmple                                  0x08004dd9   Thumb Code   120  dleqf.o(x$fpl$dleqf)
    __fpl_dcmple_InfNaN                      0x08004e3b   Thumb Code     0  dleqf.o(x$fpl$dleqf)
    __aeabi_dmul                             0x08004e51   Thumb Code     0  dmul.o(x$fpl$dmul)
    _dmul                                    0x08004e51   Thumb Code   332  dmul.o(x$fpl$dmul)
    __fpl_dnaninf                            0x08004fa5   Thumb Code   156  dnaninf.o(x$fpl$dnaninf)
    __fpl_dretinf                            0x08005041   Thumb Code    12  dretinf.o(x$fpl$dretinf)
    __aeabi_cdrcmple                         0x0800504d   Thumb Code     0  drleqf.o(x$fpl$drleqf)
    _drcmple                                 0x0800504d   Thumb Code   108  drleqf.o(x$fpl$drleqf)
    __aeabi_dsub                             0x080050b9   Thumb Code     0  daddsub_clz.o(x$fpl$dsub)
    _dsub                                    0x080050b9   Thumb Code   464  daddsub_clz.o(x$fpl$dsub)
    __aeabi_f2d                              0x0800528d   Thumb Code     0  f2d.o(x$fpl$f2d)
    _f2d                                     0x0800528d   Thumb Code    86  f2d.o(x$fpl$f2d)
    __aeabi_i2f                              0x080052e5   Thumb Code     0  fflt_clz.o(x$fpl$fflt)
    _fflt                                    0x080052e5   Thumb Code    48  fflt_clz.o(x$fpl$fflt)
    __fpl_fnaninf                            0x08005315   Thumb Code   140  fnaninf.o(x$fpl$fnaninf)
    __fpl_fretinf                            0x080053a1   Thumb Code    10  fretinf.o(x$fpl$fretinf)
    _printf_fp_dec                           0x080053ab   Thumb Code     4  printf1.o(x$fpl$printf1)
    ASCII_Table                              0x080053ae   Data        4560  lcd.o(.constdata)
    __I$use$fp                               0x080053ae   Number         0  usenofp.o(x$fpl$usenofp)
    Region$$Table$$Base                      0x08006614   Number         0  anon$$obj.o(Region$$Table)
    Region$$Table$$Limit                     0x08006634   Number         0  anon$$obj.o(Region$$Table)
    __ctype                                  0x0800665d   Data           0  lc_ctype_c.o(locale$$data)
    SystemCoreClock                          0x20000000   Data           4  system_stm32f10x.o(.data)
    AHBPrescTable                            0x20000004   Data          16  system_stm32f10x.o(.data)
    TimingDelay                              0x20000028   Data           4  main.o(.data)
    keyTemp                                  0x2000002c   Data           4  main.o(.data)
    showFlag                                 0x20000030   Data           4  main.o(.data)
    pwmFlag                                  0x20000034   Data           4  main.o(.data)
    dummy                                    0x2000003c   Data           2  lcd.o(.data)
    parkTime                                 0x20000040   Data           4  parkcontrol.o(.data)
    sum                                      0x20000048   Data           8  parkcontrol.o(.data)
    cnbrPrice                                0x20000050   Data           4  parkcontrol.o(.data)
    vnbrPrice                                0x20000054   Data           4  parkcontrol.o(.data)
    id                                       0x20000058   Data           5  parkcontrol.o(.data)
    type                                     0x2000005d   Data           5  parkcontrol.o(.data)
    year                                     0x20000064   Data           4  parkcontrol.o(.data)
    month                                    0x20000068   Data           4  parkcontrol.o(.data)
    day                                      0x2000006c   Data           4  parkcontrol.o(.data)
    hour                                     0x20000070   Data           4  parkcontrol.o(.data)
    minute                                   0x20000074   Data           4  parkcontrol.o(.data)
    second                                   0x20000078   Data           4  parkcontrol.o(.data)
    remainParkSize                           0x2000007c   Data           4  parkcontrol.o(.data)
    cnbrSize                                 0x20000080   Data           4  parkcontrol.o(.data)
    vnbrSize                                 0x20000084   Data           4  parkcontrol.o(.data)
    RXOVER                                   0x20000088   Data           1  usart.o(.data)
    RXCUNT                                   0x20000089   Data           1  usart.o(.data)
    showDetail                               0x2000008c   Data          28  main.o(.bss)
    showCNBR                                 0x200000a8   Data          28  main.o(.bss)
    showVNBR                                 0x200000c4   Data          28  main.o(.bss)
    showCNBRprice                            0x200000e0   Data          28  main.o(.bss)
    showVNBRprice                            0x200000fc   Data          28  main.o(.bss)
    showIDLE                                 0x20000118   Data          28  main.o(.bss)
    sendComputer                             0x20000134   Data          28  main.o(.bss)
    car                                      0x20000150   Data          10  main.o(.bss)
    time                                     0x2000015c   Data          24  main.o(.bss)
    parking                                  0x20000174   Data         352  main.o(.bss)
    USART_RXBUF                              0x200002d4   Data          28  usart.o(.bss)
    __libspace_start                         0x200002f0   Data          96  libspace.o(.bss)
    __temporary_stack_top$libspace           0x20000350   Data           0  libspace.o(.bss)



==============================================================================

Memory Map of the image

  Image Entry point : 0x080001b9

  Load Region LR_1 (Base: 0x08000000, Size: 0x000067ec, Max: 0xffffffff, ABSOLUTE)

    Execution Region ER_RO (Base: 0x08000000, Size: 0x00006760, Max: 0xffffffff, ABSOLUTE)

    Base Addr    Size         Type   Attr      Idx    E Section Name        Object

    0x08000000   0x000000ec   Data   RO            3    RESET               startup_stm32f10x_md.o
    0x080000ec   0x00000008   Code   RO          539  * !!!main             c_w.l(__main.o)
    0x080000f4   0x00000034   Code   RO          805    !!!scatter          c_w.l(__scatter.o)
    0x08000128   0x0000001a   Code   RO          807    !!handler_copy      c_w.l(__scatter_copy.o)
    0x08000142   0x00000002   PAD
    0x08000144   0x0000001c   Code   RO          809    !!handler_zi        c_w.l(__scatter_zi.o)
    0x08000160   0x00000000   Code   RO          526    .ARM.Collect$$_printf_percent$$00000000  c_w.l(_printf_percent.o)
    0x08000160   0x00000006   Code   RO          525    .ARM.Collect$$_printf_percent$$00000003  c_w.l(_printf_f.o)
    0x08000166   0x00000006   Code   RO          524    .ARM.Collect$$_printf_percent$$00000009  c_w.l(_printf_d.o)
    0x0800016c   0x00000006   Code   RO          523    .ARM.Collect$$_printf_percent$$00000014  c_w.l(_printf_s.o)
    0x08000172   0x00000004   Code   RO          581    .ARM.Collect$$_printf_percent$$00000017  c_w.l(_printf_percent_end.o)
    0x08000176   0x00000002   Code   RO          678    .ARM.Collect$$libinit$$00000000  c_w.l(libinit.o)
    0x08000178   0x00000000   Code   RO          680    .ARM.Collect$$libinit$$00000002  c_w.l(libinit2.o)
    0x08000178   0x00000000   Code   RO          682    .ARM.Collect$$libinit$$00000004  c_w.l(libinit2.o)
    0x08000178   0x00000000   Code   RO          685    .ARM.Collect$$libinit$$0000000A  c_w.l(libinit2.o)
    0x08000178   0x00000000   Code   RO          687    .ARM.Collect$$libinit$$0000000C  c_w.l(libinit2.o)
    0x08000178   0x00000000   Code   RO          689    .ARM.Collect$$libinit$$0000000E  c_w.l(libinit2.o)
    0x08000178   0x00000006   Code   RO          690    .ARM.Collect$$libinit$$0000000F  c_w.l(libinit2.o)
    0x0800017e   0x00000000   Code   RO          692    .ARM.Collect$$libinit$$00000011  c_w.l(libinit2.o)
    0x0800017e   0x0000000c   Code   RO          693    .ARM.Collect$$libinit$$00000012  c_w.l(libinit2.o)
    0x0800018a   0x00000000   Code   RO          694    .ARM.Collect$$libinit$$00000013  c_w.l(libinit2.o)
    0x0800018a   0x00000000   Code   RO          696    .ARM.Collect$$libinit$$00000015  c_w.l(libinit2.o)
    0x0800018a   0x0000000a   Code   RO          697    .ARM.Collect$$libinit$$00000016  c_w.l(libinit2.o)
    0x08000194   0x00000000   Code   RO          698    .ARM.Collect$$libinit$$00000017  c_w.l(libinit2.o)
    0x08000194   0x00000000   Code   RO          700    .ARM.Collect$$libinit$$00000019  c_w.l(libinit2.o)
    0x08000194   0x00000000   Code   RO          702    .ARM.Collect$$libinit$$0000001B  c_w.l(libinit2.o)
    0x08000194   0x00000000   Code   RO          704    .ARM.Collect$$libinit$$0000001D  c_w.l(libinit2.o)
    0x08000194   0x00000000   Code   RO          706    .ARM.Collect$$libinit$$0000001F  c_w.l(libinit2.o)
    0x08000194   0x00000000   Code   RO          708    .ARM.Collect$$libinit$$00000021  c_w.l(libinit2.o)
    0x08000194   0x00000000   Code   RO          710    .ARM.Collect$$libinit$$00000023  c_w.l(libinit2.o)
    0x08000194   0x00000000   Code   RO          712    .ARM.Collect$$libinit$$00000025  c_w.l(libinit2.o)
    0x08000194   0x00000000   Code   RO          716    .ARM.Collect$$libinit$$0000002C  c_w.l(libinit2.o)
    0x08000194   0x00000000   Code   RO          718    .ARM.Collect$$libinit$$0000002E  c_w.l(libinit2.o)
    0x08000194   0x00000000   Code   RO          720    .ARM.Collect$$libinit$$00000030  c_w.l(libinit2.o)
    0x08000194   0x00000000   Code   RO          722    .ARM.Collect$$libinit$$00000032  c_w.l(libinit2.o)
    0x08000194   0x00000002   Code   RO          723    .ARM.Collect$$libinit$$00000033  c_w.l(libinit2.o)
    0x08000196   0x00000002   Code   RO          753    .ARM.Collect$$libshutdown$$00000000  c_w.l(libshutdown.o)
    0x08000198   0x00000000   Code   RO          764    .ARM.Collect$$libshutdown$$00000002  c_w.l(libshutdown2.o)
    0x08000198   0x00000000   Code   RO          766    .ARM.Collect$$libshutdown$$00000004  c_w.l(libshutdown2.o)
    0x08000198   0x00000000   Code   RO          769    .ARM.Collect$$libshutdown$$00000007  c_w.l(libshutdown2.o)
    0x08000198   0x00000000   Code   RO          772    .ARM.Collect$$libshutdown$$0000000A  c_w.l(libshutdown2.o)
    0x08000198   0x00000000   Code   RO          774    .ARM.Collect$$libshutdown$$0000000C  c_w.l(libshutdown2.o)
    0x08000198   0x00000000   Code   RO          777    .ARM.Collect$$libshutdown$$0000000F  c_w.l(libshutdown2.o)
    0x08000198   0x00000002   Code   RO          778    .ARM.Collect$$libshutdown$$00000010  c_w.l(libshutdown2.o)
    0x0800019a   0x00000000   Code   RO          565    .ARM.Collect$$rtentry$$00000000  c_w.l(__rtentry.o)
    0x0800019a   0x00000000   Code   RO          603    .ARM.Collect$$rtentry$$00000002  c_w.l(__rtentry2.o)
    0x0800019a   0x00000006   Code   RO          615    .ARM.Collect$$rtentry$$00000004  c_w.l(__rtentry4.o)
    0x080001a0   0x00000000   Code   RO          605    .ARM.Collect$$rtentry$$00000009  c_w.l(__rtentry2.o)
    0x080001a0   0x00000004   Code   RO          606    .ARM.Collect$$rtentry$$0000000A  c_w.l(__rtentry2.o)
    0x080001a4   0x00000000   Code   RO          608    .ARM.Collect$$rtentry$$0000000C  c_w.l(__rtentry2.o)
    0x080001a4   0x00000008   Code   RO          609    .ARM.Collect$$rtentry$$0000000D  c_w.l(__rtentry2.o)
    0x080001ac   0x00000002   Code   RO          724    .ARM.Collect$$rtexit$$00000000  c_w.l(rtexit.o)
    0x080001ae   0x00000000   Code   RO          731    .ARM.Collect$$rtexit$$00000002  c_w.l(rtexit2.o)
    0x080001ae   0x00000004   Code   RO          732    .ARM.Collect$$rtexit$$00000003  c_w.l(rtexit2.o)
    0x080001b2   0x00000006   Code   RO          733    .ARM.Collect$$rtexit$$00000004  c_w.l(rtexit2.o)
    0x080001b8   0x00000040   Code   RO            4  * .text               startup_stm32f10x_md.o
    0x080001f8   0x000001e0   Code   RO           26    .text               system_stm32f10x.o
    0x080003d8   0x000003a4   Code   RO           86    .text               stm32f10x_rcc.o
    0x0800077c   0x0000035c   Code   RO          112    .text               stm32f10x_gpio.o
    0x08000ad8   0x000000dc   Code   RO          132    .text               misc.o
    0x08000bb4   0x00000408   Code   RO          152    .text               stm32f10x_usart.o
    0x08000fbc   0x00000e1a   Code   RO          172    .text               stm32f10x_tim.o
    0x08001dd6   0x00000002   PAD
    0x08001dd8   0x00000574   Code   RO          195    .text               main.o
    0x0800234c   0x00000028   Code   RO          280    .text               stm32f10x_it.o
    0x08002374   0x00000a0c   Code   RO          304    .text               lcd.o
    0x08002d80   0x00000650   Code   RO          334    .text               parkcontrol.o
    0x080033d0   0x00000098   Code   RO          373    .text               key.o
    0x08003468   0x00000134   Code   RO          396    .text               usart.o
    0x0800359c   0x00000084   Code   RO          450    .text               led.o
    0x08003620   0x000000b4   Code   RO          470    .text               pwm.o
    0x080036d4   0x00000028   Code   RO          495    .text               c_w.l(noretval__2sprintf.o)
    0x080036fc   0x00000052   Code   RO          499    .text               c_w.l(_printf_str.o)
    0x0800374e   0x00000002   PAD
    0x08003750   0x00000078   Code   RO          501    .text               c_w.l(_printf_dec.o)
    0x080037c8   0x0000010e   Code   RO          511    .text               c_w.l(__printf_wp.o)
    0x080038d6   0x0000001a   Code   RO          527    .text               c_w.l(atoi.o)
    0x080038f0   0x00000048   Code   RO          529    .text               c_w.l(strcpy.o)
    0x08003938   0x00000064   Code   RO          531    .text               c_w.l(rt_memcpy_w.o)
    0x0800399c   0x00000044   Code   RO          533    .text               c_w.l(rt_memclr.o)
    0x080039e0   0x00000080   Code   RO          535    .text               c_w.l(strcmpv7m.o)
    0x08003a60   0x00000006   Code   RO          537    .text               c_w.l(heapauxi.o)
    0x08003a66   0x00000002   PAD
    0x08003a68   0x00000008   Code   RO          569    .text               c_w.l(rt_errno_addr_intlibspace.o)
    0x08003a70   0x000000b2   Code   RO          571    .text               c_w.l(_printf_intcommon.o)
    0x08003b22   0x0000041a   Code   RO          573    .text               c_w.l(_printf_fp_dec.o)
    0x08003f3c   0x00000030   Code   RO          575    .text               c_w.l(_printf_char_common.o)
    0x08003f6c   0x0000000a   Code   RO          577    .text               c_w.l(_sputc.o)
    0x08003f76   0x0000002c   Code   RO          579    .text               c_w.l(_printf_char.o)
    0x08003fa2   0x00000070   Code   RO          582    .text               c_w.l(strtol.o)
    0x08004012   0x0000004e   Code   RO          584    .text               c_w.l(rt_memclr_w.o)
    0x08004060   0x00000008   Code   RO          599    .text               c_w.l(libspace.o)
    0x08004068   0x00000010   Code   RO          617    .text               c_w.l(rt_ctype_table.o)
    0x08004078   0x00000008   Code   RO          622    .text               c_w.l(rt_locale_intlibspace.o)
    0x08004080   0x0000008a   Code   RO          624    .text               c_w.l(lludiv10.o)
    0x0800410a   0x00000002   PAD
    0x0800410c   0x00000080   Code   RO          626    .text               c_w.l(_printf_fp_infnan.o)
    0x0800418c   0x0000009e   Code   RO          630    .text               c_w.l(_strtoul.o)
    0x0800422a   0x00000002   PAD
    0x0800422c   0x000000dc   Code   RO          632    .text               c_w.l(bigflt0.o)
    0x08004308   0x0000004a   Code   RO          664    .text               c_w.l(sys_stackheap_outer.o)
    0x08004352   0x0000001c   Code   RO          666    .text               c_w.l(_chval.o)
    0x0800436e   0x00000012   Code   RO          671    .text               c_w.l(exit.o)
    0x08004380   0x0000000c   Code   RO          743    .text               c_w.l(sys_exit.o)
    0x0800438c   0x00000002   Code   RO          754    .text               c_w.l(use_no_semi.o)
    0x0800438e   0x00000000   Code   RO          756    .text               c_w.l(indicate_semi.o)
    0x0800438e   0x0000003e   Code   RO          635    CL$$btod_d2e        c_w.l(btod.o)
    0x080043cc   0x00000046   Code   RO          637    CL$$btod_d2e_denorm_low  c_w.l(btod.o)
    0x08004412   0x00000060   Code   RO          636    CL$$btod_d2e_norm_op1  c_w.l(btod.o)
    0x08004472   0x00000338   Code   RO          645    CL$$btod_div_common  c_w.l(btod.o)
    0x080047aa   0x000000c6   Code   RO          642    CL$$btod_e2e        c_w.l(btod.o)
    0x08004870   0x00000028   Code   RO          639    CL$$btod_ediv       c_w.l(btod.o)
    0x08004898   0x00000028   Code   RO          638    CL$$btod_emul       c_w.l(btod.o)
    0x080048c0   0x00000244   Code   RO          644    CL$$btod_mult_common  c_w.l(btod.o)
    0x08004b04   0x00000028   Code   RO          662    i.__ARM_fpclassify  m_ws.l(fpclassify.o)
    0x08004b2c   0x0000000e   Code   RO          513    i._is_digit         c_w.l(__printf_wp.o)
    0x08004b3a   0x00000002   PAD
    0x08004b3c   0x0000002c   Code   RO          658    locale$$code        c_w.l(lc_numeric_c.o)
    0x08004b68   0x0000002c   Code   RO          669    locale$$code        c_w.l(lc_ctype_c.o)
    0x08004b94   0x00000062   Code   RO          541    x$fpl$d2f           fz_ws.l(d2f.o)
    0x08004bf6   0x00000002   PAD
    0x08004bf8   0x00000150   Code   RO          543    x$fpl$dadd          fz_ws.l(daddsub_clz.o)
    0x08004d48   0x00000018   Code   RO          586    x$fpl$dcmpinf       fz_ws.l(dcmpi.o)
    0x08004d60   0x00000078   Code   RO          549    x$fpl$deqf          fz_ws.l(deqf.o)
    0x08004dd8   0x00000078   Code   RO          588    x$fpl$dleqf         fz_ws.l(dleqf.o)
    0x08004e50   0x00000154   Code   RO          551    x$fpl$dmul          fz_ws.l(dmul.o)
    0x08004fa4   0x0000009c   Code   RO          590    x$fpl$dnaninf       fz_ws.l(dnaninf.o)
    0x08005040   0x0000000c   Code   RO          592    x$fpl$dretinf       fz_ws.l(dretinf.o)
    0x0800504c   0x0000006c   Code   RO          553    x$fpl$drleqf        fz_ws.l(drleqf.o)
    0x080050b8   0x000001d4   Code   RO          545    x$fpl$dsub          fz_ws.l(daddsub_clz.o)
    0x0800528c   0x00000056   Code   RO          555    x$fpl$f2d           fz_ws.l(f2d.o)
    0x080052e2   0x00000002   PAD
    0x080052e4   0x00000030   Code   RO          558    x$fpl$fflt          fz_ws.l(fflt_clz.o)
    0x08005314   0x0000008c   Code   RO          594    x$fpl$fnaninf       fz_ws.l(fnaninf.o)
    0x080053a0   0x0000000a   Code   RO          596    x$fpl$fretinf       fz_ws.l(fretinf.o)
    0x080053aa   0x00000004   Code   RO          563    x$fpl$printf1       fz_ws.l(printf1.o)
    0x080053ae   0x00000000   Code   RO          598    x$fpl$usenofp       fz_ws.l(usenofp.o)
    0x080053ae   0x000011d0   Data   RO          305    .constdata          lcd.o
    0x0800657e   0x00000002   PAD
    0x08006580   0x00000094   Data   RO          633    .constdata          c_w.l(bigflt0.o)
    0x08006614   0x00000020   Data   RO          803    Region$$Table       anon$$obj.o
    0x08006634   0x0000001c   Data   RO          657    locale$$data        c_w.l(lc_numeric_c.o)
    0x08006650   0x00000110   Data   RO          668    locale$$data        c_w.l(lc_ctype_c.o)


    Execution Region ER_RW (Base: 0x20000000, Size: 0x0000008c, Max: 0xffffffff, ABSOLUTE)

    Base Addr    Size         Type   Attr      Idx    E Section Name        Object

    0x20000000   0x00000014   Data   RW           27    .data               system_stm32f10x.o
    0x20000014   0x00000014   Data   RW           87    .data               stm32f10x_rcc.o
    0x20000028   0x00000010   Data   RW          197    .data               main.o
    0x20000038   0x00000006   Data   RW          306    .data               lcd.o
    0x2000003e   0x00000002   PAD
    0x20000040   0x00000048   Data   RW          335    .data               parkcontrol.o
    0x20000088   0x00000002   Data   RW          398    .data               usart.o


    Execution Region ER_ZI (Base: 0x2000008c, Size: 0x000008c4, Max: 0xffffffff, ABSOLUTE)

    Base Addr    Size         Type   Attr      Idx    E Section Name        Object

    0x2000008c   0x00000248   Zero   RW          196    .bss                main.o
    0x200002d4   0x0000001c   Zero   RW          397    .bss                usart.o
    0x200002f0   0x00000060   Zero   RW          600    .bss                c_w.l(libspace.o)
    0x20000350   0x00000200   Zero   RW            2    HEAP                startup_stm32f10x_md.o
    0x20000550   0x00000400   Zero   RW            1    STACK               startup_stm32f10x_md.o


==============================================================================

Image component sizes


      Code (inc. data)   RO Data    RW Data    ZI Data      Debug   Object Name

         0          0          0          0          0       4508   core_cm3.o
       152          8          0          0          0        692   key.o
      2572         74       4560          6          0       8756   lcd.o
       132         10          0          0          0        727   led.o
      1396        290          0         16        584     245067   main.o
       220         22          0          0          0       1949   misc.o
      1616        156          0         72          0       5312   parkcontrol.o
       180          8          0          0          0        763   pwm.o
        64         26        236          0       1536        948   startup_stm32f10x_md.o
       860         38          0          0          0       5881   stm32f10x_gpio.o
        40          4          0          0          0       1278   stm32f10x_it.o
       932         36          0         20          0       9100   stm32f10x_rcc.o
      3610         88          0          0          0      43448   stm32f10x_tim.o
      1032         22          0          0          0       8608   stm32f10x_usart.o
       480         38          0         20          0     229191   system_stm32f10x.o
       308         20          0          2         28       1825   usart.o

    ----------------------------------------------------------------------
     13596        840       4830        140       2148     568053   Object Totals
         0          0         32          0          0          0   (incl. Generated)
         2          0          2          4          0          0   (incl. Padding)

    ----------------------------------------------------------------------

      Code (inc. data)   RO Data    RW Data    ZI Data      Debug   Library Member Name

         8          0          0          0          0         68   __main.o
       284          0          0          0          0        156   __printf_wp.o
         0          0          0          0          0          0   __rtentry.o
        12          0          0          0          0          0   __rtentry2.o
         6          0          0          0          0          0   __rtentry4.o
        52          8          0          0          0          0   __scatter.o
        26          0          0          0          0          0   __scatter_copy.o
        28          0          0          0          0          0   __scatter_zi.o
        28          0          0          0          0         68   _chval.o
        44          0          0          0          0        108   _printf_char.o
        48          6          0          0          0         96   _printf_char_common.o
         6          0          0          0          0          0   _printf_d.o
       120         16          0          0          0         92   _printf_dec.o
         6          0          0          0          0          0   _printf_f.o
      1050          0          0          0          0        216   _printf_fp_dec.o
       128         16          0          0          0         84   _printf_fp_infnan.o
       178          0          0          0          0         88   _printf_intcommon.o
         0          0          0          0          0          0   _printf_percent.o
         4          0          0          0          0          0   _printf_percent_end.o
         6          0          0          0          0          0   _printf_s.o
        82          0          0          0          0         80   _printf_str.o
        10          0          0          0          0         68   _sputc.o
       158          0          0          0          0         92   _strtoul.o
        26          0          0          0          0         80   atoi.o
       220          4        148          0          0         96   bigflt0.o
      1910        128          0          0          0        672   btod.o
        18          0          0          0          0         80   exit.o
         6          0          0          0          0        152   heapauxi.o
         0          0          0          0          0          0   indicate_semi.o
        44         10        272          0          0         76   lc_ctype_c.o
        44         10         28          0          0         76   lc_numeric_c.o
         2          0          0          0          0          0   libinit.o
        30          0          0          0          0          0   libinit2.o
         2          0          0          0          0          0   libshutdown.o
         2          0          0          0          0          0   libshutdown2.o
         8          4          0          0         96         68   libspace.o
       138          0          0          0          0         80   lludiv10.o
        40          6          0          0          0         84   noretval__2sprintf.o
        16          4          0          0          0         76   rt_ctype_table.o
         8          4          0          0          0         68   rt_errno_addr_intlibspace.o
         8          4          0          0          0         68   rt_locale_intlibspace.o
        68          0          0          0          0         68   rt_memclr.o
        78          0          0          0          0         80   rt_memclr_w.o
       100          0          0          0          0         80   rt_memcpy_w.o
         2          0          0          0          0          0   rtexit.o
        10          0          0          0          0          0   rtexit2.o
       128          0          0          0          0         68   strcmpv7m.o
        72          0          0          0          0         80   strcpy.o
       112          0          0          0          0         88   strtol.o
        12          4          0          0          0         68   sys_exit.o
        74          0          0          0          0         80   sys_stackheap_outer.o
         2          0          0          0          0         68   use_no_semi.o
        98          4          0          0          0         92   d2f.o
       804         16          0          0          0        272   daddsub_clz.o
        24          0          0          0          0         68   dcmpi.o
       120          4          0          0          0         92   deqf.o
       120          4          0          0          0         92   dleqf.o
       340         12          0          0          0        104   dmul.o
       156          4          0          0          0         92   dnaninf.o
        12          0          0          0          0         68   dretinf.o
       108          0          0          0          0         80   drleqf.o
        86          4          0          0          0         84   f2d.o
        48          0          0          0          0         68   fflt_clz.o
       140          4          0          0          0         84   fnaninf.o
        10          0          0          0          0         68   fretinf.o
         4          0          0          0          0         68   printf1.o
         0          0          0          0          0          0   usenofp.o
        40          0          0          0          0         68   fpclassify.o

    ----------------------------------------------------------------------
      7590        276        448          0         96       4972   Library Totals
        16          0          0          0          0          0   (incl. Padding)

    ----------------------------------------------------------------------

      Code (inc. data)   RO Data    RW Data    ZI Data      Debug   Library Name

      5464        224        448          0         96       3572   c_w.l
      2070         52          0          0          0       1332   fz_ws.l
        40          0          0          0          0         68   m_ws.l

    ----------------------------------------------------------------------
      7590        276        448          0         96       4972   Library Totals

    ----------------------------------------------------------------------

==============================================================================


      Code (inc. data)   RO Data    RW Data    ZI Data      Debug   

     21186       1116       5278        140       2244     569017   Grand Totals
     21186       1116       5278        140       2244     569017   ELF Image Totals
     21186       1116       5278        140          0          0   ROM Totals

==============================================================================

    Total RO  Size (Code + RO Data)                26464 (  25.84kB)
    Total RW  Size (RW Data + ZI Data)              2384 (   2.33kB)
    Total ROM Size (Code + RO Data + RW Data)      26604 (  25.98kB)

==============================================================================

