Component: ARM Compiler 5.06 update 2 (build 183) Tool: armlink [4d35b7]

==============================================================================

Section Cross References

    startup_stm32f10x_md.o(RESET) refers to startup_stm32f10x_md.o(STACK) for __initial_sp
    startup_stm32f10x_md.o(RESET) refers to startup_stm32f10x_md.o(.text) for Reset_Handler
    startup_stm32f10x_md.o(RESET) refers to stm32f10x_it.o(.text) for NMI_Handler
    startup_stm32f10x_md.o(RESET) refers to timmer.o(.text) for TIM3_IRQHandler
    startup_stm32f10x_md.o(.text) refers to system_stm32f10x.o(.text) for SystemInit
    startup_stm32f10x_md.o(.text) refers to entry.o(.ARM.Collect$$$$00000000) for __main
    system_stm32f10x.o(.text) refers to system_stm32f10x.o(.data) for SystemCoreClock
    stm32f10x_gpio.o(.text) refers to stm32f10x_rcc.o(.text) for RCC_APB2PeriphResetCmd
    stm32f10x_adc.o(.text) refers to stm32f10x_rcc.o(.text) for RCC_APB2PeriphResetCmd
    stm32f10x_tim.o(.text) refers to stm32f10x_rcc.o(.text) for RCC_APB2PeriphResetCmd
    stm32f10x_rcc.o(.text) refers to stm32f10x_rcc.o(.data) for APBAHBPrescTable
    main.o(.text) refers to printfa.o(i.__0sprintf) for __2sprintf
    main.o(.text) refers to f2d.o(.text) for __aeabi_f2d
    main.o(.text) refers to lcd.o(.text) for LCD_DisplayStringLine
    main.o(.text) refers to stm32f10x_tim.o(.text) for TIM_Cmd
    main.o(.text) refers to key.o(.text) for Key_Scan
    main.o(.text) refers to timmer.o(.text) for TIM_Config
    main.o(.text) refers to adc.o(.text) for ADC_Config
==============================================================================

Removing Unused input sections from the image.

    Removing startup_stm32f10x_md.o(HEAP), (512 bytes).
    Removing core_cm3.o(.emb_text), (32 bytes).
    Removing system_stm32f10x.o(.rev16_text), (4 bytes).
    Removing system_stm32f10x.o(.revsh_text), (4 bytes).
    Removing stm32f10x_gpio.o(.rev16_text), (4 bytes).
    Removing stm32f10x_gpio.o(.revsh_text), (4 bytes).
    Removing stm32f10x_adc.o(.rev16_text), (4 bytes).
    Removing stm32f10x_adc.o(.revsh_text), (4 bytes).
    Removing misc.o(.rev16_text), (4 bytes).
    Removing misc.o(.revsh_text), (4 bytes).
    Removing stm32f10x_tim.o(.rev16_text), (4 bytes).
    Removing stm32f10x_tim.o(.revsh_text), (4 bytes).
    Removing stm32f10x_rcc.o(.rev16_text), (4 bytes).
    Removing stm32f10x_rcc.o(.revsh_text), (4 bytes).
    Removing main.o(.rev16_text), (4 bytes).
    Removing main.o(.revsh_text), (4 bytes).
    Removing stm32f10x_it.o(.rev16_text), (4 bytes).
    Removing stm32f10x_it.o(.revsh_text), (4 bytes).
==============================================================================

Image Symbol Table

    Local Symbols

    Symbol Name                              Value     Ov Type        Size  Object(Section)

    ../clib/microlib/division.c              0x00000000   Number         0  uidiv.o ABSOLUTE
    ../clib/microlib/division.c              0x00000000   Number         0  uldiv.o ABSOLUTE
    ../clib/microlib/init/entry.s            0x00000000   Number         0  entry9a.o ABSOLUTE
    ../clib/microlib/init/entry.s            0x00000000   Number         0  entry8b.o ABSOLUTE
    ../clib/microlib/init/entry.s            0x00000000   Number         0  entry9b.o ABSOLUTE
    ../clib/microlib/init/entry.s            0x00000000   Number         0  entry7b.o ABSOLUTE
    ../clib/microlib/init/entry.s            0x00000000   Number         0  entry11b.o ABSOLUTE
    ../clib/microlib/init/entry.s            0x00000000   Number         0  entry11a.o ABSOLUTE
    ../clib/microlib/init/entry.s            0x00000000   Number         0  entry8a.o ABSOLUTE
    ../clib/microlib/init/entry.s            0x00000000   Number         0  entry.o ABSOLUTE
    ../clib/microlib/init/entry.s            0x00000000   Number         0  entry7a.o ABSOLUTE
    ../clib/microlib/init/entry.s            0x00000000   Number         0  entry5.o ABSOLUTE
    ../clib/microlib/init/entry.s            0x00000000   Number         0  entry10b.o ABSOLUTE
    ../clib/microlib/init/entry.s            0x00000000   Number         0  entry10a.o ABSOLUTE
    ../clib/microlib/init/entry.s            0x00000000   Number         0  entry2.o ABSOLUTE
    ../clib/microlib/longlong.c              0x00000000   Number         0  llsshr.o ABSOLUTE
    ../clib/microlib/longlong.c              0x00000000   Number         0  llushr.o ABSOLUTE
    ../clib/microlib/longlong.c              0x00000000   Number         0  llshl.o ABSOLUTE
    ../clib/microlib/printf/printf.c         0x00000000   Number         0  printf0.o ABSOLUTE
    ../clib/microlib/printf/printf.c         0x00000000   Number         0  printf5.o ABSOLUTE
    ../clib/microlib/printf/printf.c         0x00000000   Number         0  printfb.o ABSOLUTE
    ../clib/microlib/printf/printf.c         0x00000000   Number         0  printf2.o ABSOLUTE
    ../clib/microlib/printf/printf.c         0x00000000   Number         0  printf6.o ABSOLUTE
    ../clib/microlib/printf/printf.c         0x00000000   Number         0  printf4.o ABSOLUTE
    ../clib/microlib/printf/printf.c         0x00000000   Number         0  printf3.o ABSOLUTE
    ../clib/microlib/printf/printf.c         0x00000000   Number         0  printf8.o ABSOLUTE
    ../clib/microlib/printf/printf.c         0x00000000   Number         0  printfa.o ABSOLUTE
    ../clib/microlib/printf/printf.c         0x00000000   Number         0  printf1.o ABSOLUTE
    ../clib/microlib/printf/printf.c         0x00000000   Number         0  printf7.o ABSOLUTE
    ../clib/microlib/printf/stubs.s          0x00000000   Number         0  stubs.o ABSOLUTE
    ../clib/microlib/stdio/fputc.c           0x00000000   Number         0  fputc.o ABSOLUTE
    ../clib/microlib/stdio/semi.s            0x00000000   Number         0  semi.o ABSOLUTE
    ../clib/microlib/stdio/streams.c         0x00000000   Number         0  stdout.o ABSOLUTE
    ../clib/microlib/stubs.s                 0x00000000   Number         0  iusefp.o ABSOLUTE
    ../clib/microlib/stubs.s                 0x00000000   Number         0  iusesemip.o ABSOLUTE
    ../fplib/microlib/d2f.c                  0x00000000   Number         0  d2f.o ABSOLUTE
    ../fplib/microlib/f2d.c                  0x00000000   Number         0  f2d.o ABSOLUTE
    ../fplib/microlib/fpadd.c                0x00000000   Number         0  dadd.o ABSOLUTE
    ../fplib/microlib/fpdiv.c                0x00000000   Number         0  ddiv.o ABSOLUTE
    ../fplib/microlib/fpepilogue.c           0x00000000   Number         0  depilogue.o ABSOLUTE
    ../fplib/microlib/fpepilogue.c           0x00000000   Number         0  fepilogue.o ABSOLUTE
    ../fplib/microlib/fpfix.c                0x00000000   Number         0  dfixul.o ABSOLUTE
    ../fplib/microlib/fpflt.c                0x00000000   Number         0  dfltui.o ABSOLUTE
    ../fplib/microlib/fpmul.c                0x00000000   Number         0  dmul.o ABSOLUTE
    ..\..\..\..\Libraries\STM32F10x_StdPeriph_Driver\src\stm32f10x_rcc.c 0x00000000   Number         0  stm32f10x_rcc.o ABSOLUTE
    ..\..\Libraries\CMSIS\CM3\CoreSupport\core_cm3.c 0x00000000   Number         0  core_cm3.o ABSOLUTE
    ..\..\Libraries\CMSIS\CM3\DeviceSupport\ST\STM32F10x\startup\arm\startup_stm32f10x_md.s 0x00000000   Number         0  startup_stm32f10x_md.o ABSOLUTE
    ..\..\Libraries\CMSIS\CM3\DeviceSupport\ST\STM32F10x\system_stm32f10x.c 0x00000000   Number         0  system_stm32f10x.o ABSOLUTE
    ..\..\Libraries\STM32F10x_StdPeriph_Driver\src\misc.c 0x00000000   Number         0  misc.o ABSOLUTE
    ..\..\Libraries\STM32F10x_StdPeriph_Driver\src\stm32f10x_adc.c 0x00000000   Number         0  stm32f10x_adc.o ABSOLUTE
    ..\..\Libraries\STM32F10x_StdPeriph_Driver\src\stm32f10x_gpio.c 0x00000000   Number         0  stm32f10x_gpio.o ABSOLUTE
    ..\..\Libraries\STM32F10x_StdPeriph_Driver\src\stm32f10x_tim.c 0x00000000   Number         0  stm32f10x_tim.o ABSOLUTE
    ..\SRE\adc.c                             0x00000000   Number         0  adc.o ABSOLUTE
    ..\SRE\key.c                             0x00000000   Number         0  key.o ABSOLUTE
    ..\SRE\lcd.c                             0x00000000   Number         0  lcd.o ABSOLUTE
    ..\SRE\main.c                            0x00000000   Number         0  main.o ABSOLUTE
    ..\SRE\stm32f10x_it.c                    0x00000000   Number         0  stm32f10x_it.o ABSOLUTE
    ..\SRE\timmer.c                          0x00000000   Number         0  timmer.o ABSOLUTE
    ..\\..\\..\\..\\Libraries\\STM32F10x_StdPeriph_Driver\\src\\stm32f10x_rcc.c 0x00000000   Number         0  stm32f10x_rcc.o ABSOLUTE
    ..\\..\\Libraries\\CMSIS\\CM3\\CoreSupport\\core_cm3.c 0x00000000   Number         0  core_cm3.o ABSOLUTE
    ..\\..\\Libraries\\CMSIS\\CM3\\DeviceSupport\\ST\\STM32F10x\\system_stm32f10x.c 0x00000000   Number         0  system_stm32f10x.o ABSOLUTE
    ..\\..\\Libraries\\STM32F10x_StdPeriph_Driver\\src\\misc.c 0x00000000   Number         0  misc.o ABSOLUTE
    ..\\..\\Libraries\\STM32F10x_StdPeriph_Driver\\src\\stm32f10x_adc.c 0x00000000   Number         0  stm32f10x_adc.o ABSOLUTE
    ..\\..\\Libraries\\STM32F10x_StdPeriph_Driver\\src\\stm32f10x_gpio.c 0x00000000   Number         0  stm32f10x_gpio.o ABSOLUTE
    ..\\..\\Libraries\\STM32F10x_StdPeriph_Driver\\src\\stm32f10x_tim.c 0x00000000   Number         0  stm32f10x_tim.o ABSOLUTE
    ..\\SRE\\adc.c                           0x00000000   Number         0  adc.o ABSOLUTE
    ..\\SRE\\key.c                           0x00000000   Number         0  key.o ABSOLUTE
    ..\\SRE\\lcd.c                           0x00000000   Number         0  lcd.o ABSOLUTE
    ..\\SRE\\main.c                          0x00000000   Number         0  main.o ABSOLUTE
    ..\\SRE\\stm32f10x_it.c                  0x00000000   Number         0  stm32f10x_it.o ABSOLUTE
    ..\\SRE\\timmer.c                        0x00000000   Number         0  timmer.o ABSOLUTE
    cdrcmple.s                               0x00000000   Number         0  cdrcmple.o ABSOLUTE
    dc.s                                     0x00000000   Number         0  dc.o ABSOLUTE
    handlers.s                               0x00000000   Number         0  handlers.o ABSOLUTE
    init.s                                   0x00000000   Number         0  init.o ABSOLUTE
    RESET                                    0x08000000   Section      236  startup_stm32f10x_md.o(RESET)
    .ARM.Collect$$$$00000000                 0x080000ec   Section        0  entry.o(.ARM.Collect$$$$00000000)
    .ARM.Collect$$$$00000001                 0x080000ec   Section        4  entry2.o(.ARM.Collect$$$$00000001)
    .ARM.Collect$$$$00000004                 0x080000f0   Section        4  entry5.o(.ARM.Collect$$$$00000004)
    .ARM.Collect$$$$00000008                 0x080000f4   Section        0  entry7b.o(.ARM.Collect$$$$00000008)
    .ARM.Collect$$$$0000000A                 0x080000f4   Section        0  entry8b.o(.ARM.Collect$$$$0000000A)
    .ARM.Collect$$$$0000000B                 0x080000f4   Section        8  entry9a.o(.ARM.Collect$$$$0000000B)
    .ARM.Collect$$$$0000000D                 0x080000fc   Section        0  entry10a.o(.ARM.Collect$$$$0000000D)
    .ARM.Collect$$$$0000000F                 0x080000fc   Section        0  entry11a.o(.ARM.Collect$$$$0000000F)
    .ARM.Collect$$$$00002712                 0x080000fc   Section        4  entry2.o(.ARM.Collect$$$$00002712)
    __lit__00000000                          0x080000fc   Data           4  entry2.o(.ARM.Collect$$$$00002712)
    .text                                    0x08000100   Section       36  startup_stm32f10x_md.o(.text)
    .text                                    0x08000124   Section        0  system_stm32f10x.o(.text)
    SetSysClockTo72                          0x08000125   Thumb Code   214  system_stm32f10x.o(.text)
    SetSysClock                              0x080001fb   Thumb Code     8  system_stm32f10x.o(.text)
    .text                                    0x08000304   Section        0  stm32f10x_gpio.o(.text)
    .text                                    0x08000660   Section        0  stm32f10x_adc.o(.text)
    .text                                    0x08000ab0   Section        0  misc.o(.text)
    .text                                    0x08000b8c   Section        0  stm32f10x_tim.o(.text)
    TI4_Config                               0x08001033   Thumb Code   130  stm32f10x_tim.o(.text)
    TI3_Config                               0x080010c7   Thumb Code   122  stm32f10x_tim.o(.text)
    TI2_Config                               0x0800115b   Thumb Code   130  stm32f10x_tim.o(.text)
    TI1_Config                               0x080011ef   Thumb Code   108  stm32f10x_tim.o(.text)
    .text                                    0x080019a8   Section        0  stm32f10x_rcc.o(.text)
    .text                                    0x08001d4c   Section        0  main.o(.text)
    .text                                    0x08002134   Section        0  stm32f10x_it.o(.text)
    .text                                    0x0800215c   Section        0  lcd.o(.text)
    .text                                    0x080029e4   Section        0  adc.o(.text)
    .text                                    0x08002ac0   Section        0  timmer.o(.text)
    .text                                    0x08002ba0   Section        0  key.o(.text)
    .text                                    0x08002c30   Section        0  dmul.o(.text)
    .text                                    0x08002d14   Section        0  ddiv.o(.text)
    .text                                    0x08002df2   Section        0  dfltui.o(.text)
    .text                                    0x08002e0c   Section        0  f2d.o(.text)
    .text                                    0x08002e32   Section        0  d2f.o(.text)
    .text                                    0x08002e6a   Section        0  uidiv.o(.text)
    .text                                    0x08002e96   Section        0  uldiv.o(.text)
    .text                                    0x08002ef8   Section        0  iusefp.o(.text)
    .text                                    0x08002ef8   Section        0  fepilogue.o(.text)
    .text                                    0x08002f66   Section        0  depilogue.o(.text)
    .text                                    0x08003020   Section        0  dadd.o(.text)
    .text                                    0x0800316e   Section        0  dfixul.o(.text)
    .text                                    0x080031a0   Section       48  cdrcmple.o(.text)
    .text                                    0x080031d0   Section       36  init.o(.text)
    .text                                    0x080031f4   Section        0  llshl.o(.text)
    .text                                    0x08003212   Section        0  llushr.o(.text)
    .text                                    0x08003232   Section        0  llsshr.o(.text)
    i.__0sprintf                             0x08003258   Section        0  printfa.o(i.__0sprintf)
    i.__scatterload_copy                     0x08003280   Section       14  handlers.o(i.__scatterload_copy)
    i.__scatterload_null                     0x0800328e   Section        2  handlers.o(i.__scatterload_null)
    i.__scatterload_zeroinit                 0x08003290   Section       14  handlers.o(i.__scatterload_zeroinit)
    i._fp_digits                             0x080032a0   Section        0  printfa.o(i._fp_digits)
    _fp_digits                               0x080032a1   Thumb Code   334  printfa.o(i._fp_digits)
    i._printf_core                           0x08003404   Section        0  printfa.o(i._printf_core)
    _printf_core                             0x08003405   Thumb Code  1744  printfa.o(i._printf_core)
    i._printf_post_padding                   0x08003ae0   Section        0  printfa.o(i._printf_post_padding)
    _printf_post_padding                     0x08003ae1   Thumb Code    36  printfa.o(i._printf_post_padding)
    i._printf_pre_padding                    0x08003b04   Section        0  printfa.o(i._printf_pre_padding)
    _printf_pre_padding                      0x08003b05   Thumb Code    46  printfa.o(i._printf_pre_padding)
    i._sputc                                 0x08003b32   Section        0  printfa.o(i._sputc)
    _sputc                                   0x08003b33   Thumb Code    10  printfa.o(i._sputc)
    .constdata                               0x08003b3c   Section     4560  lcd.o(.constdata)
    .data                                    0x20000000   Section       20  system_stm32f10x.o(.data)
    .data                                    0x20000014   Section       20  stm32f10x_rcc.o(.data)
    APBAHBPrescTable                         0x20000014   Data          16  stm32f10x_rcc.o(.data)
    ADCPrescTable                            0x20000024   Data           4  stm32f10x_rcc.o(.data)
    .data                                    0x20000028   Section       16  main.o(.data)
    .data                                    0x20000038   Section        4  lcd.o(.data)
    TextColor                                0x20000038   Data           2  lcd.o(.data)
    BackColor                                0x2000003a   Data           2  lcd.o(.data)
    .bss                                     0x2000003c   Section       69  main.o(.bss)
    STACK                                    0x20000088   Section     1024  startup_stm32f10x_md.o(STACK)

    Global Symbols

    Symbol Name                              Value     Ov Type        Size  Object(Section)

    BuildAttributes$$THM_ISAv4$P$D$K$B$S$PE$A:L22UL41UL21$X:L11$S22US41US21$IEEE1$IW$USESV6$~STKCKD$USESV7$~SHL$OTIME$ROPI$EBA8$MICROLIB$REQ8$PRES8$EABIv2 0x00000000   Number         0  anon$$obj.o ABSOLUTE
    __ARM_use_no_argv                        0x00000000   Number         0  main.o ABSOLUTE
    _printf_a                                0x00000000   Number         0  stubs.o ABSOLUTE
    _printf_c                                0x00000000   Number         0  stubs.o ABSOLUTE
    _printf_charcount                        0x00000000   Number         0  stubs.o ABSOLUTE
    _printf_d                                0x00000000   Number         0  stubs.o ABSOLUTE
    _printf_e                                0x00000000   Number         0  stubs.o ABSOLUTE
    _printf_f                                0x00000000   Number         0  stubs.o ABSOLUTE
    _printf_flags                            0x00000000   Number         0  stubs.o ABSOLUTE
    _printf_fp_dec                           0x00000000   Number         0  stubs.o ABSOLUTE
    _printf_fp_hex                           0x00000000   Number         0  stubs.o ABSOLUTE
    _printf_g                                0x00000000   Number         0  stubs.o ABSOLUTE
    _printf_i                                0x00000000   Number         0  stubs.o ABSOLUTE
    _printf_int_dec                          0x00000000   Number         0  stubs.o ABSOLUTE
    _printf_l                                0x00000000   Number         0  stubs.o ABSOLUTE
    _printf_lc                               0x00000000   Number         0  stubs.o ABSOLUTE
    _printf_ll                               0x00000000   Number         0  stubs.o ABSOLUTE
    _printf_lld                              0x00000000   Number         0  stubs.o ABSOLUTE
    _printf_lli                              0x00000000   Number         0  stubs.o ABSOLUTE
    _printf_llo                              0x00000000   Number         0  stubs.o ABSOLUTE
    _printf_llu                              0x00000000   Number         0  stubs.o ABSOLUTE
    _printf_llx                              0x00000000   Number         0  stubs.o ABSOLUTE
    _printf_longlong_dec                     0x00000000   Number         0  stubs.o ABSOLUTE
    _printf_longlong_hex                     0x00000000   Number         0  stubs.o ABSOLUTE
    _printf_longlong_oct                     0x00000000   Number         0  stubs.o ABSOLUTE
    _printf_ls                               0x00000000   Number         0  stubs.o ABSOLUTE
    _printf_mbtowc                           0x00000000   Number         0  stubs.o ABSOLUTE
    _printf_n                                0x00000000   Number         0  stubs.o ABSOLUTE
    _printf_o                                0x00000000   Number         0  stubs.o ABSOLUTE
    _printf_p                                0x00000000   Number         0  stubs.o ABSOLUTE
    _printf_percent                          0x00000000   Number         0  stubs.o ABSOLUTE
    _printf_pre_padding                      0x00000000   Number         0  stubs.o ABSOLUTE
    _printf_return_value                     0x00000000   Number         0  stubs.o ABSOLUTE
    _printf_s                                0x00000000   Number         0  stubs.o ABSOLUTE
    _printf_sizespec                         0x00000000   Number         0  stubs.o ABSOLUTE
    _printf_str                              0x00000000   Number         0  stubs.o ABSOLUTE
    _printf_truncate_signed                  0x00000000   Number         0  stubs.o ABSOLUTE
    _printf_truncate_unsigned                0x00000000   Number         0  stubs.o ABSOLUTE
    _printf_u                                0x00000000   Number         0  stubs.o ABSOLUTE
    _printf_wc                               0x00000000   Number         0  stubs.o ABSOLUTE
    _printf_wctomb                           0x00000000   Number         0  stubs.o ABSOLUTE
    _printf_widthprec                        0x00000000   Number         0  stubs.o ABSOLUTE
    _printf_x                                0x00000000   Number         0  stubs.o ABSOLUTE
    __cpp_initialize__aeabi_                  - Undefined Weak Reference
    __cxa_finalize                            - Undefined Weak Reference
    __decompress                              - Undefined Weak Reference
    _clock_init                               - Undefined Weak Reference
    _microlib_exit                            - Undefined Weak Reference
    __Vectors_Size                           0x000000ec   Number         0  startup_stm32f10x_md.o ABSOLUTE
    __Vectors                                0x08000000   Data           4  startup_stm32f10x_md.o(RESET)
    __Vectors_End                            0x080000ec   Data           0  startup_stm32f10x_md.o(RESET)
    __main                                   0x080000ed   Thumb Code     0  entry.o(.ARM.Collect$$$$00000000)
    _main_stk                                0x080000ed   Thumb Code     0  entry2.o(.ARM.Collect$$$$00000001)
    _main_scatterload                        0x080000f1   Thumb Code     0  entry5.o(.ARM.Collect$$$$00000004)
    __main_after_scatterload                 0x080000f5   Thumb Code     0  entry5.o(.ARM.Collect$$$$00000004)
    _main_clock                              0x080000f5   Thumb Code     0  entry7b.o(.ARM.Collect$$$$00000008)
    _main_cpp_init                           0x080000f5   Thumb Code     0  entry8b.o(.ARM.Collect$$$$0000000A)
    _main_init                               0x080000f5   Thumb Code     0  entry9a.o(.ARM.Collect$$$$0000000B)
    __rt_final_cpp                           0x080000fd   Thumb Code     0  entry10a.o(.ARM.Collect$$$$0000000D)
    __rt_final_exit                          0x080000fd   Thumb Code     0  entry11a.o(.ARM.Collect$$$$0000000F)
    Reset_Handler                            0x08000101   Thumb Code     8  startup_stm32f10x_md.o(.text)
    ADC1_2_IRQHandler                        0x0800011b   Thumb Code     0  startup_stm32f10x_md.o(.text)
    CAN1_RX1_IRQHandler                      0x0800011b   Thumb Code     0  startup_stm32f10x_md.o(.text)
    CAN1_SCE_IRQHandler                      0x0800011b   Thumb Code     0  startup_stm32f10x_md.o(.text)
    DMA1_Channel1_IRQHandler                 0x0800011b   Thumb Code     0  startup_stm32f10x_md.o(.text)
    DMA1_Channel2_IRQHandler                 0x0800011b   Thumb Code     0  startup_stm32f10x_md.o(.text)
    DMA1_Channel3_IRQHandler                 0x0800011b   Thumb Code     0  startup_stm32f10x_md.o(.text)
    DMA1_Channel4_IRQHandler                 0x0800011b   Thumb Code     0  startup_stm32f10x_md.o(.text)
    DMA1_Channel5_IRQHandler                 0x0800011b   Thumb Code     0  startup_stm32f10x_md.o(.text)
    DMA1_Channel6_IRQHandler                 0x0800011b   Thumb Code     0  startup_stm32f10x_md.o(.text)
    DMA1_Channel7_IRQHandler                 0x0800011b   Thumb Code     0  startup_stm32f10x_md.o(.text)
    EXTI0_IRQHandler                         0x0800011b   Thumb Code     0  startup_stm32f10x_md.o(.text)
    EXTI15_10_IRQHandler                     0x0800011b   Thumb Code     0  startup_stm32f10x_md.o(.text)
    EXTI1_IRQHandler                         0x0800011b   Thumb Code     0  startup_stm32f10x_md.o(.text)
    EXTI2_IRQHandler                         0x0800011b   Thumb Code     0  startup_stm32f10x_md.o(.text)
    EXTI3_IRQHandler                         0x0800011b   Thumb Code     0  startup_stm32f10x_md.o(.text)
    EXTI4_IRQHandler                         0x0800011b   Thumb Code     0  startup_stm32f10x_md.o(.text)
    EXTI9_5_IRQHandler                       0x0800011b   Thumb Code     0  startup_stm32f10x_md.o(.text)
    FLASH_IRQHandler                         0x0800011b   Thumb Code     0  startup_stm32f10x_md.o(.text)
    I2C1_ER_IRQHandler                       0x0800011b   Thumb Code     0  startup_stm32f10x_md.o(.text)
    I2C1_EV_IRQHandler                       0x0800011b   Thumb Code     0  startup_stm32f10x_md.o(.text)
    I2C2_ER_IRQHandler                       0x0800011b   Thumb Code     0  startup_stm32f10x_md.o(.text)
    I2C2_EV_IRQHandler                       0x0800011b   Thumb Code     0  startup_stm32f10x_md.o(.text)
    PVD_IRQHandler                           0x0800011b   Thumb Code     0  startup_stm32f10x_md.o(.text)
    RCC_IRQHandler                           0x0800011b   Thumb Code     0  startup_stm32f10x_md.o(.text)
    RTCAlarm_IRQHandler                      0x0800011b   Thumb Code     0  startup_stm32f10x_md.o(.text)
    RTC_IRQHandler                           0x0800011b   Thumb Code     0  startup_stm32f10x_md.o(.text)
    SPI1_IRQHandler                          0x0800011b   Thumb Code     0  startup_stm32f10x_md.o(.text)
    SPI2_IRQHandler                          0x0800011b   Thumb Code     0  startup_stm32f10x_md.o(.text)
    TAMPER_IRQHandler                        0x0800011b   Thumb Code     0  startup_stm32f10x_md.o(.text)
    TIM1_BRK_IRQHandler                      0x0800011b   Thumb Code     0  startup_stm32f10x_md.o(.text)
    TIM1_CC_IRQHandler                       0x0800011b   Thumb Code     0  startup_stm32f10x_md.o(.text)
    TIM1_TRG_COM_IRQHandler                  0x0800011b   Thumb Code     0  startup_stm32f10x_md.o(.text)
    TIM1_UP_IRQHandler                       0x0800011b   Thumb Code     0  startup_stm32f10x_md.o(.text)
    TIM2_IRQHandler                          0x0800011b   Thumb Code     0  startup_stm32f10x_md.o(.text)
    TIM4_IRQHandler                          0x0800011b   Thumb Code     0  startup_stm32f10x_md.o(.text)
    USART1_IRQHandler                        0x0800011b   Thumb Code     0  startup_stm32f10x_md.o(.text)
    USART2_IRQHandler                        0x0800011b   Thumb Code     0  startup_stm32f10x_md.o(.text)
    USART3_IRQHandler                        0x0800011b   Thumb Code     0  startup_stm32f10x_md.o(.text)
    USBWakeUp_IRQHandler                     0x0800011b   Thumb Code     0  startup_stm32f10x_md.o(.text)
    USB_HP_CAN1_TX_IRQHandler                0x0800011b   Thumb Code     0  startup_stm32f10x_md.o(.text)
    USB_LP_CAN1_RX0_IRQHandler               0x0800011b   Thumb Code     0  startup_stm32f10x_md.o(.text)
    WWDG_IRQHandler                          0x0800011b   Thumb Code     0  startup_stm32f10x_md.o(.text)
    SystemInit                               0x08000203   Thumb Code    78  system_stm32f10x.o(.text)
    SystemCoreClockUpdate                    0x08000251   Thumb Code   142  system_stm32f10x.o(.text)
    GPIO_DeInit                              0x08000305   Thumb Code   172  stm32f10x_gpio.o(.text)
    GPIO_AFIODeInit                          0x080003b1   Thumb Code    20  stm32f10x_gpio.o(.text)
    GPIO_Init                                0x080003c5   Thumb Code   278  stm32f10x_gpio.o(.text)
    GPIO_StructInit                          0x080004db   Thumb Code    16  stm32f10x_gpio.o(.text)
    GPIO_ReadInputDataBit                    0x080004eb   Thumb Code    18  stm32f10x_gpio.o(.text)
    GPIO_ReadInputData                       0x080004fd   Thumb Code     8  stm32f10x_gpio.o(.text)
    GPIO_ReadOutputDataBit                   0x08000505   Thumb Code    18  stm32f10x_gpio.o(.text)
    GPIO_ReadOutputData                      0x08000517   Thumb Code     8  stm32f10x_gpio.o(.text)
    GPIO_SetBits                             0x0800051f   Thumb Code     4  stm32f10x_gpio.o(.text)
    GPIO_ResetBits                           0x08000523   Thumb Code     4  stm32f10x_gpio.o(.text)
    GPIO_WriteBit                            0x08000527   Thumb Code    10  stm32f10x_gpio.o(.text)
    GPIO_Write                               0x08000531   Thumb Code     4  stm32f10x_gpio.o(.text)
    GPIO_PinLockConfig                       0x08000535   Thumb Code    18  stm32f10x_gpio.o(.text)
    GPIO_EventOutputConfig                   0x08000547   Thumb Code    26  stm32f10x_gpio.o(.text)
    GPIO_EventOutputCmd                      0x08000561   Thumb Code     6  stm32f10x_gpio.o(.text)
    GPIO_PinRemapConfig                      0x08000567   Thumb Code   138  stm32f10x_gpio.o(.text)
    GPIO_EXTILineConfig                      0x080005f1   Thumb Code    66  stm32f10x_gpio.o(.text)
    GPIO_ETH_MediaInterfaceConfig            0x08000633   Thumb Code     8  stm32f10x_gpio.o(.text)
    ADC_DeInit                               0x08000661   Thumb Code    78  stm32f10x_adc.o(.text)
    ADC_Init                                 0x080006af   Thumb Code    70  stm32f10x_adc.o(.text)
    ADC_StructInit                           0x080006f5   Thumb Code    18  stm32f10x_adc.o(.text)
    ADC_Cmd                                  0x08000707   Thumb Code    22  stm32f10x_adc.o(.text)
    ADC_DMACmd                               0x0800071d   Thumb Code    22  stm32f10x_adc.o(.text)
    ADC_ITConfig                             0x08000733   Thumb Code    24  stm32f10x_adc.o(.text)
    ADC_ResetCalibration                     0x0800074b   Thumb Code    10  stm32f10x_adc.o(.text)
    ADC_GetResetCalibrationStatus            0x08000755   Thumb Code    20  stm32f10x_adc.o(.text)
    ADC_StartCalibration                     0x08000769   Thumb Code    10  stm32f10x_adc.o(.text)
    ADC_GetCalibrationStatus                 0x08000773   Thumb Code    20  stm32f10x_adc.o(.text)
    ADC_SoftwareStartConvCmd                 0x08000787   Thumb Code    22  stm32f10x_adc.o(.text)
    ADC_GetSoftwareStartConvStatus           0x0800079d   Thumb Code    20  stm32f10x_adc.o(.text)
    ADC_DiscModeChannelCountConfig           0x080007b1   Thumb Code    24  stm32f10x_adc.o(.text)
    ADC_DiscModeCmd                          0x080007c9   Thumb Code    22  stm32f10x_adc.o(.text)
    ADC_RegularChannelConfig                 0x080007df   Thumb Code   184  stm32f10x_adc.o(.text)
    ADC_ExternalTrigConvCmd                  0x08000897   Thumb Code    22  stm32f10x_adc.o(.text)
    ADC_GetConversionValue                   0x080008ad   Thumb Code     8  stm32f10x_adc.o(.text)
    ADC_GetDualModeConversionValue           0x080008b5   Thumb Code     8  stm32f10x_adc.o(.text)
    ADC_AutoInjectedConvCmd                  0x080008bd   Thumb Code    22  stm32f10x_adc.o(.text)
    ADC_InjectedDiscModeCmd                  0x080008d3   Thumb Code    22  stm32f10x_adc.o(.text)
    ADC_ExternalTrigInjectedConvConfig       0x080008e9   Thumb Code    16  stm32f10x_adc.o(.text)
    ADC_ExternalTrigInjectedConvCmd          0x080008f9   Thumb Code    22  stm32f10x_adc.o(.text)
    ADC_SoftwareStartInjectedConvCmd         0x0800090f   Thumb Code    22  stm32f10x_adc.o(.text)
    ADC_GetSoftwareStartInjectedConvCmdStatus 0x08000925   Thumb Code    20  stm32f10x_adc.o(.text)
    ADC_InjectedChannelConfig                0x08000939   Thumb Code   130  stm32f10x_adc.o(.text)
    ADC_InjectedSequencerLengthConfig        0x080009bb   Thumb Code    24  stm32f10x_adc.o(.text)
    ADC_SetInjectedOffset                    0x080009d3   Thumb Code    20  stm32f10x_adc.o(.text)
    ADC_GetInjectedConversionValue           0x080009e7   Thumb Code    28  stm32f10x_adc.o(.text)
    ADC_AnalogWatchdogCmd                    0x08000a03   Thumb Code    16  stm32f10x_adc.o(.text)
    ADC_AnalogWatchdogThresholdsConfig       0x08000a13   Thumb Code     6  stm32f10x_adc.o(.text)
    ADC_AnalogWatchdogSingleChannelConfig    0x08000a19   Thumb Code    16  stm32f10x_adc.o(.text)
    ADC_TempSensorVrefintCmd                 0x08000a29   Thumb Code    64  stm32f10x_adc.o(.text)
    ADC_GetFlagStatus                        0x08000a69   Thumb Code    18  stm32f10x_adc.o(.text)
    ADC_ClearFlag                            0x08000a7b   Thumb Code     6  stm32f10x_adc.o(.text)
    ADC_GetITStatus                          0x08000a81   Thumb Code    36  stm32f10x_adc.o(.text)
    ADC_ClearITPendingBit                    0x08000aa5   Thumb Code    10  stm32f10x_adc.o(.text)
    NVIC_PriorityGroupConfig                 0x08000ab1   Thumb Code    10  misc.o(.text)
    NVIC_Init                                0x08000abb   Thumb Code   100  misc.o(.text)
    NVIC_SetVectorTable                      0x08000b1f   Thumb Code    14  misc.o(.text)
    NVIC_SystemLPConfig                      0x08000b2d   Thumb Code    34  misc.o(.text)
    SysTick_CLKSourceConfig                  0x08000b4f   Thumb Code    40  misc.o(.text)
    TIM_DeInit                               0x08000b8d   Thumb Code   424  stm32f10x_tim.o(.text)
    TIM_TimeBaseInit                         0x08000d35   Thumb Code   122  stm32f10x_tim.o(.text)
    TIM_OC1Init                              0x08000daf   Thumb Code   132  stm32f10x_tim.o(.text)
    TIM_OC2Init                              0x08000e33   Thumb Code   154  stm32f10x_tim.o(.text)
    TIM_OC3Init                              0x08000ecd   Thumb Code   150  stm32f10x_tim.o(.text)
    TIM_OC4Init                              0x08000f63   Thumb Code   182  stm32f10x_tim.o(.text)
    TIM_SetIC4Prescaler                      0x08001019   Thumb Code    26  stm32f10x_tim.o(.text)
    TIM_SetIC3Prescaler                      0x080010b5   Thumb Code    18  stm32f10x_tim.o(.text)
    TIM_SetIC2Prescaler                      0x08001141   Thumb Code    26  stm32f10x_tim.o(.text)
    TIM_SetIC1Prescaler                      0x080011dd   Thumb Code    18  stm32f10x_tim.o(.text)
    TIM_ICInit                               0x0800125b   Thumb Code   150  stm32f10x_tim.o(.text)
    TIM_PWMIConfig                           0x080012f1   Thumb Code   124  stm32f10x_tim.o(.text)
    TIM_BDTRConfig                           0x0800136d   Thumb Code    32  stm32f10x_tim.o(.text)
    TIM_TimeBaseStructInit                   0x0800138d   Thumb Code    18  stm32f10x_tim.o(.text)
    TIM_OCStructInit                         0x0800139f   Thumb Code    20  stm32f10x_tim.o(.text)
    TIM_ICStructInit                         0x080013b3   Thumb Code    18  stm32f10x_tim.o(.text)
    TIM_BDTRStructInit                       0x080013c5   Thumb Code    40  stm32f10x_tim.o(.text)
    TIM_Cmd                                  0x080013ed   Thumb Code    24  stm32f10x_tim.o(.text)
    TIM_CtrlPWMOutputs                       0x08001405   Thumb Code    30  stm32f10x_tim.o(.text)
    TIM_ITConfig                             0x08001423   Thumb Code    18  stm32f10x_tim.o(.text)
    TIM_GenerateEvent                        0x08001435   Thumb Code     4  stm32f10x_tim.o(.text)
    TIM_DMAConfig                            0x08001439   Thumb Code    10  stm32f10x_tim.o(.text)
    TIM_DMACmd                               0x08001443   Thumb Code    18  stm32f10x_tim.o(.text)
    TIM_InternalClockConfig                  0x08001455   Thumb Code    12  stm32f10x_tim.o(.text)
    TIM_SelectInputTrigger                   0x08001461   Thumb Code    18  stm32f10x_tim.o(.text)
    TIM_ITRxExternalClockConfig              0x08001473   Thumb Code    24  stm32f10x_tim.o(.text)
    TIM_TIxExternalClockConfig               0x0800148b   Thumb Code    62  stm32f10x_tim.o(.text)
    TIM_ETRConfig                            0x080014c9   Thumb Code    28  stm32f10x_tim.o(.text)
    TIM_ETRClockMode1Config                  0x080014e5   Thumb Code    54  stm32f10x_tim.o(.text)
    TIM_ETRClockMode2Config                  0x0800151b   Thumb Code    32  stm32f10x_tim.o(.text)
    TIM_PrescalerConfig                      0x0800153b   Thumb Code     6  stm32f10x_tim.o(.text)
    TIM_CounterModeConfig                    0x08001541   Thumb Code    18  stm32f10x_tim.o(.text)
    TIM_EncoderInterfaceConfig               0x08001553   Thumb Code    66  stm32f10x_tim.o(.text)
    TIM_ForcedOC1Config                      0x08001595   Thumb Code    18  stm32f10x_tim.o(.text)
    TIM_ForcedOC2Config                      0x080015a7   Thumb Code    26  stm32f10x_tim.o(.text)
    TIM_ForcedOC3Config                      0x080015c1   Thumb Code    18  stm32f10x_tim.o(.text)
    TIM_ForcedOC4Config                      0x080015d3   Thumb Code    26  stm32f10x_tim.o(.text)
    TIM_ARRPreloadConfig                     0x080015ed   Thumb Code    24  stm32f10x_tim.o(.text)
    TIM_SelectCOM                            0x08001605   Thumb Code    24  stm32f10x_tim.o(.text)
    TIM_SelectCCDMA                          0x0800161d   Thumb Code    24  stm32f10x_tim.o(.text)
    TIM_CCPreloadControl                     0x08001635   Thumb Code    24  stm32f10x_tim.o(.text)
    TIM_OC1PreloadConfig                     0x0800164d   Thumb Code    18  stm32f10x_tim.o(.text)
    TIM_OC2PreloadConfig                     0x0800165f   Thumb Code    26  stm32f10x_tim.o(.text)
    TIM_OC3PreloadConfig                     0x08001679   Thumb Code    18  stm32f10x_tim.o(.text)
    TIM_OC4PreloadConfig                     0x0800168b   Thumb Code    26  stm32f10x_tim.o(.text)
    TIM_OC1FastConfig                        0x080016a5   Thumb Code    18  stm32f10x_tim.o(.text)
    TIM_OC2FastConfig                        0x080016b7   Thumb Code    26  stm32f10x_tim.o(.text)
    TIM_OC3FastConfig                        0x080016d1   Thumb Code    18  stm32f10x_tim.o(.text)
    TIM_OC4FastConfig                        0x080016e3   Thumb Code    26  stm32f10x_tim.o(.text)
    TIM_ClearOC1Ref                          0x080016fd   Thumb Code    18  stm32f10x_tim.o(.text)
    TIM_ClearOC2Ref                          0x0800170f   Thumb Code    24  stm32f10x_tim.o(.text)
    TIM_ClearOC3Ref                          0x08001727   Thumb Code    18  stm32f10x_tim.o(.text)
    TIM_ClearOC4Ref                          0x08001739   Thumb Code    24  stm32f10x_tim.o(.text)
    TIM_OC1PolarityConfig                    0x08001751   Thumb Code    18  stm32f10x_tim.o(.text)
    TIM_OC1NPolarityConfig                   0x08001763   Thumb Code    18  stm32f10x_tim.o(.text)
    TIM_OC2PolarityConfig                    0x08001775   Thumb Code    26  stm32f10x_tim.o(.text)
    TIM_OC2NPolarityConfig                   0x0800178f   Thumb Code    26  stm32f10x_tim.o(.text)
    TIM_OC3PolarityConfig                    0x080017a9   Thumb Code    26  stm32f10x_tim.o(.text)
    TIM_OC3NPolarityConfig                   0x080017c3   Thumb Code    26  stm32f10x_tim.o(.text)
    TIM_OC4PolarityConfig                    0x080017dd   Thumb Code    26  stm32f10x_tim.o(.text)
    TIM_CCxCmd                               0x080017f7   Thumb Code    30  stm32f10x_tim.o(.text)
    TIM_CCxNCmd                              0x08001815   Thumb Code    30  stm32f10x_tim.o(.text)
    TIM_SelectOCxM                           0x08001833   Thumb Code    82  stm32f10x_tim.o(.text)
    TIM_UpdateDisableConfig                  0x08001885   Thumb Code    24  stm32f10x_tim.o(.text)
    TIM_UpdateRequestConfig                  0x0800189d   Thumb Code    24  stm32f10x_tim.o(.text)
    TIM_SelectHallSensor                     0x080018b5   Thumb Code    24  stm32f10x_tim.o(.text)
    TIM_SelectOnePulseMode                   0x080018cd   Thumb Code    18  stm32f10x_tim.o(.text)
    TIM_SelectOutputTrigger                  0x080018df   Thumb Code    18  stm32f10x_tim.o(.text)
    TIM_SelectSlaveMode                      0x080018f1   Thumb Code    18  stm32f10x_tim.o(.text)
    TIM_SelectMasterSlaveMode                0x08001903   Thumb Code    18  stm32f10x_tim.o(.text)
    TIM_SetCounter                           0x08001915   Thumb Code     4  stm32f10x_tim.o(.text)
    TIM_SetAutoreload                        0x08001919   Thumb Code     4  stm32f10x_tim.o(.text)
    TIM_SetCompare1                          0x0800191d   Thumb Code     4  stm32f10x_tim.o(.text)
    TIM_SetCompare2                          0x08001921   Thumb Code     4  stm32f10x_tim.o(.text)
    TIM_SetCompare3                          0x08001925   Thumb Code     4  stm32f10x_tim.o(.text)
    TIM_SetCompare4                          0x08001929   Thumb Code     6  stm32f10x_tim.o(.text)
    TIM_SetClockDivision                     0x0800192f   Thumb Code    18  stm32f10x_tim.o(.text)
    TIM_GetCapture1                          0x08001941   Thumb Code     6  stm32f10x_tim.o(.text)
    TIM_GetCapture2                          0x08001947   Thumb Code     6  stm32f10x_tim.o(.text)
    TIM_GetCapture3                          0x0800194d   Thumb Code     6  stm32f10x_tim.o(.text)
    TIM_GetCapture4                          0x08001953   Thumb Code     8  stm32f10x_tim.o(.text)
    TIM_GetCounter                           0x0800195b   Thumb Code     6  stm32f10x_tim.o(.text)
    TIM_GetPrescaler                         0x08001961   Thumb Code     6  stm32f10x_tim.o(.text)
    TIM_GetFlagStatus                        0x08001967   Thumb Code    18  stm32f10x_tim.o(.text)
    TIM_ClearFlag                            0x08001979   Thumb Code     6  stm32f10x_tim.o(.text)
    TIM_GetITStatus                          0x0800197f   Thumb Code    34  stm32f10x_tim.o(.text)
    TIM_ClearITPendingBit                    0x080019a1   Thumb Code     6  stm32f10x_tim.o(.text)
    RCC_DeInit                               0x080019a9   Thumb Code    64  stm32f10x_rcc.o(.text)
    RCC_HSEConfig                            0x080019e9   Thumb Code    70  stm32f10x_rcc.o(.text)
    RCC_GetFlagStatus                        0x08001a2f   Thumb Code    56  stm32f10x_rcc.o(.text)
    RCC_WaitForHSEStartUp                    0x08001a67   Thumb Code    56  stm32f10x_rcc.o(.text)
    RCC_AdjustHSICalibrationValue            0x08001a9f   Thumb Code    20  stm32f10x_rcc.o(.text)
    RCC_HSICmd                               0x08001ab3   Thumb Code     6  stm32f10x_rcc.o(.text)
    RCC_PLLConfig                            0x08001ab9   Thumb Code    24  stm32f10x_rcc.o(.text)
    RCC_PLLCmd                               0x08001ad1   Thumb Code     6  stm32f10x_rcc.o(.text)
    RCC_SYSCLKConfig                         0x08001ad7   Thumb Code    18  stm32f10x_rcc.o(.text)
    RCC_GetSYSCLKSource                      0x08001ae9   Thumb Code    10  stm32f10x_rcc.o(.text)
    RCC_HCLKConfig                           0x08001af3   Thumb Code    18  stm32f10x_rcc.o(.text)
    RCC_PCLK1Config                          0x08001b05   Thumb Code    18  stm32f10x_rcc.o(.text)
    RCC_PCLK2Config                          0x08001b17   Thumb Code    20  stm32f10x_rcc.o(.text)
    RCC_ITConfig                             0x08001b2b   Thumb Code    26  stm32f10x_rcc.o(.text)
    RCC_USBCLKConfig                         0x08001b45   Thumb Code     8  stm32f10x_rcc.o(.text)
    RCC_ADCCLKConfig                         0x08001b4d   Thumb Code    18  stm32f10x_rcc.o(.text)
    RCC_LSEConfig                            0x08001b5f   Thumb Code    50  stm32f10x_rcc.o(.text)
    RCC_LSICmd                               0x08001b91   Thumb Code     6  stm32f10x_rcc.o(.text)
    RCC_RTCCLKConfig                         0x08001b97   Thumb Code    12  stm32f10x_rcc.o(.text)
    RCC_RTCCLKCmd                            0x08001ba3   Thumb Code     8  stm32f10x_rcc.o(.text)
    RCC_GetClocksFreq                        0x08001bab   Thumb Code   192  stm32f10x_rcc.o(.text)
    RCC_AHBPeriphClockCmd                    0x08001c6b   Thumb Code    26  stm32f10x_rcc.o(.text)
    RCC_APB2PeriphClockCmd                   0x08001c85   Thumb Code    26  stm32f10x_rcc.o(.text)
    RCC_APB1PeriphClockCmd                   0x08001c9f   Thumb Code    26  stm32f10x_rcc.o(.text)
    RCC_APB2PeriphResetCmd                   0x08001cb9   Thumb Code    26  stm32f10x_rcc.o(.text)
    RCC_APB1PeriphResetCmd                   0x08001cd3   Thumb Code    26  stm32f10x_rcc.o(.text)
    RCC_BackupResetCmd                       0x08001ced   Thumb Code     8  stm32f10x_rcc.o(.text)
    RCC_ClockSecuritySystemCmd               0x08001cf5   Thumb Code     6  stm32f10x_rcc.o(.text)
    RCC_MCOConfig                            0x08001cfb   Thumb Code     6  stm32f10x_rcc.o(.text)
    RCC_ClearFlag                            0x08001d01   Thumb Code    14  stm32f10x_rcc.o(.text)
    RCC_GetITStatus                          0x08001d0f   Thumb Code    20  stm32f10x_rcc.o(.text)
    RCC_ClearITPendingBit                    0x08001d23   Thumb Code     6  stm32f10x_rcc.o(.text)
    fflush                                   0x08001d4d   Thumb Code    84  main.o(.text)
    setting                                  0x08001da1   Thumb Code   358  main.o(.text)
    LED_Control                              0x08001f07   Thumb Code    52  main.o(.text)
    main                                     0x08001f3b   Thumb Code   266  main.o(.text)
    Delay_Ms                                 0x08002045   Thumb Code    16  main.o(.text)
    LED_Init                                 0x08002055   Thumb Code    36  main.o(.text)
    NMI_Handler                              0x08002135   Thumb Code     2  stm32f10x_it.o(.text)
    HardFault_Handler                        0x08002137   Thumb Code     4  stm32f10x_it.o(.text)
    MemManage_Handler                        0x0800213b   Thumb Code     4  stm32f10x_it.o(.text)
    BusFault_Handler                         0x0800213f   Thumb Code     4  stm32f10x_it.o(.text)
    UsageFault_Handler                       0x08002143   Thumb Code     4  stm32f10x_it.o(.text)
    SVC_Handler                              0x08002147   Thumb Code     2  stm32f10x_it.o(.text)
    DebugMon_Handler                         0x08002149   Thumb Code     2  stm32f10x_it.o(.text)
    PendSV_Handler                           0x0800214b   Thumb Code     2  stm32f10x_it.o(.text)
    SysTick_Handler                          0x0800214d   Thumb Code    12  stm32f10x_it.o(.text)
    LCD_delay_ms                             0x0800215d   Thumb Code    32  lcd.o(.text)
    LCD_WR_REG                               0x0800217d   Thumb Code    30  lcd.o(.text)
    LCD_WriteRAM_Prepare                     0x0800219b   Thumb Code    10  lcd.o(.text)
    LCD_WriteReg                             0x080021a5   Thumb Code    46  lcd.o(.text)
    LCD_SetCursor                            0x080021d3   Thumb Code    24  lcd.o(.text)
    LCD_Clear                                0x080021eb   Thumb Code    64  lcd.o(.text)
    STM3210B_LCD_Init                        0x0800222b   Thumb Code   602  lcd.o(.text)
    LCD_SetTextColor                         0x08002485   Thumb Code    12  lcd.o(.text)
    LCD_SetBackColor                         0x08002491   Thumb Code    12  lcd.o(.text)
    LCD_DrawPoint                            0x0800249d   Thumb Code    60  lcd.o(.text)
    LCD_DrawChar                             0x080024d9   Thumb Code   128  lcd.o(.text)
    LCD_DisplayChar                          0x08002559   Thumb Code    56  lcd.o(.text)
    LCD_DisplayStringLine                    0x08002591   Thumb Code    42  lcd.o(.text)
    LCD_ClearLine                            0x080025bb   Thumb Code    14  lcd.o(.text)
    LCD_SetDisplayWindow                     0x080025c9   Thumb Code    88  lcd.o(.text)
    LCD_WindowModeDisable                    0x08002621   Thumb Code    28  lcd.o(.text)
    LCD_WriteRAM                             0x0800263d   Thumb Code    32  lcd.o(.text)
    LCD_DrawLine                             0x0800265d   Thumb Code    86  lcd.o(.text)
    LCD_DrawRect                             0x080026b3   Thumb Code    66  lcd.o(.text)
    LCD_DrawCircle                           0x080026f5   Thumb Code   252  lcd.o(.text)
    LCD_DrawMonoPict                         0x080027f1   Thumb Code    76  lcd.o(.text)
    LCD_WriteBMP                             0x0800283d   Thumb Code    74  lcd.o(.text)
    LCD_BusOut                               0x08002887   Thumb Code    32  lcd.o(.text)
    LCD_BusIn                                0x080028a7   Thumb Code    32  lcd.o(.text)
    LCD_ReadReg                              0x080028c7   Thumb Code    84  lcd.o(.text)
    LCD_ReadRAM                              0x0800291b   Thumb Code    86  lcd.o(.text)
    LCD_PowerOn                              0x08002971   Thumb Code     2  lcd.o(.text)
    LCD_DisplayOn                            0x08002973   Thumb Code    14  lcd.o(.text)
    LCD_DisplayOff                           0x08002981   Thumb Code    12  lcd.o(.text)
    LCD_DrawPicture                          0x0800298d   Thumb Code    88  lcd.o(.text)
    ADC_Config                               0x080029e5   Thumb Code   136  adc.o(.text)
    Read_ADC                                 0x08002a6d   Thumb Code    66  adc.o(.text)
    NVIC_Configuration                       0x08002ac1   Thumb Code    32  timmer.o(.text)
    TIM_Config                               0x08002ae1   Thumb Code    80  timmer.o(.text)
    TIM3_IRQHandler                          0x08002b31   Thumb Code    94  timmer.o(.text)
    Key_Init                                 0x08002ba1   Thumb Code    62  key.o(.text)
    Key_Scan                                 0x08002bdf   Thumb Code    74  key.o(.text)
    __aeabi_dmul                             0x08002c31   Thumb Code   228  dmul.o(.text)
    __aeabi_ddiv                             0x08002d15   Thumb Code   222  ddiv.o(.text)
    __aeabi_ui2d                             0x08002df3   Thumb Code    26  dfltui.o(.text)
    __aeabi_f2d                              0x08002e0d   Thumb Code    38  f2d.o(.text)
    __aeabi_d2f                              0x08002e33   Thumb Code    56  d2f.o(.text)
    __aeabi_uidiv                            0x08002e6b   Thumb Code     0  uidiv.o(.text)
    __aeabi_uidivmod                         0x08002e6b   Thumb Code    44  uidiv.o(.text)
    __aeabi_uldivmod                         0x08002e97   Thumb Code    98  uldiv.o(.text)
    __I$use$fp                               0x08002ef9   Thumb Code     0  iusefp.o(.text)
    _float_round                             0x08002ef9   Thumb Code    18  fepilogue.o(.text)
    _float_epilogue                          0x08002f0b   Thumb Code    92  fepilogue.o(.text)
    _double_round                            0x08002f67   Thumb Code    30  depilogue.o(.text)
    _double_epilogue                         0x08002f85   Thumb Code   156  depilogue.o(.text)
    __aeabi_dadd                             0x08003021   Thumb Code   322  dadd.o(.text)
    __aeabi_dsub                             0x08003163   Thumb Code     6  dadd.o(.text)
    __aeabi_drsub                            0x08003169   Thumb Code     6  dadd.o(.text)
    __aeabi_d2ulz                            0x0800316f   Thumb Code    48  dfixul.o(.text)
    __aeabi_cdrcmple                         0x080031a1   Thumb Code    48  cdrcmple.o(.text)
    __scatterload                            0x080031d1   Thumb Code    28  init.o(.text)
    __scatterload_rt2                        0x080031d1   Thumb Code     0  init.o(.text)
    __aeabi_llsl                             0x080031f5   Thumb Code    30  llshl.o(.text)
    _ll_shift_l                              0x080031f5   Thumb Code     0  llshl.o(.text)
    __aeabi_llsr                             0x08003213   Thumb Code    32  llushr.o(.text)
    _ll_ushift_r                             0x08003213   Thumb Code     0  llushr.o(.text)
    __aeabi_lasr                             0x08003233   Thumb Code    36  llsshr.o(.text)
    _ll_sshift_r                             0x08003233   Thumb Code     0  llsshr.o(.text)
    __0sprintf                               0x08003259   Thumb Code    34  printfa.o(i.__0sprintf)
    __1sprintf                               0x08003259   Thumb Code     0  printfa.o(i.__0sprintf)
    __2sprintf                               0x08003259   Thumb Code     0  printfa.o(i.__0sprintf)
    __c89sprintf                             0x08003259   Thumb Code     0  printfa.o(i.__0sprintf)
    sprintf                                  0x08003259   Thumb Code     0  printfa.o(i.__0sprintf)
    __scatterload_copy                       0x08003281   Thumb Code    14  handlers.o(i.__scatterload_copy)
    __scatterload_null                       0x0800328f   Thumb Code     2  handlers.o(i.__scatterload_null)
    __scatterload_zeroinit                   0x08003291   Thumb Code    14  handlers.o(i.__scatterload_zeroinit)
    ASCII_Table                              0x08003b3c   Data        4560  lcd.o(.constdata)
    Region$$Table$$Base                      0x08004d0c   Number         0  anon$$obj.o(Region$$Table)
    Region$$Table$$Limit                     0x08004d2c   Number         0  anon$$obj.o(Region$$Table)
    SystemCoreClock                          0x20000000   Data           4  system_stm32f10x.o(.data)
    AHBPrescTable                            0x20000004   Data          16  system_stm32f10x.o(.data)
    TimingDelay                              0x20000028   Data           4  main.o(.data)
    second                                   0x2000002c   Data           1  main.o(.data)
    minute                                   0x2000002d   Data           1  main.o(.data)
    hour                                     0x2000002e   Data           1  main.o(.data)
    vol                                      0x20000030   Data           4  main.o(.data)
    led                                      0x20000034   Data           4  main.o(.data)
    showADC                                  0x2000003c   Data          15  main.o(.bss)
    showK                                    0x2000004b   Data          15  main.o(.bss)
    showLED                                  0x2000005a   Data          15  main.o(.bss)
    showTime                                 0x20000069   Data          24  main.o(.bss)
    __initial_sp                             0x20000488   Data           0  startup_stm32f10x_md.o(STACK)



==============================================================================

Memory Map of the image

  Image Entry point : 0x08000101

  Load Region LR_1 (Base: 0x08000000, Size: 0x00004d68, Max: 0xffffffff, ABSOLUTE)

    Execution Region ER_RO (Base: 0x08000000, Size: 0x00004d2c, Max: 0xffffffff, ABSOLUTE)

    Base Addr    Size         Type   Attr      Idx    E Section Name        Object

    0x08000000   0x000000ec   Data   RO            3    RESET               startup_stm32f10x_md.o
    0x080000ec   0x00000000   Code   RO          369  * .ARM.Collect$$$$00000000  mc_w.l(entry.o)
    0x080000ec   0x00000004   Code   RO          643    .ARM.Collect$$$$00000001  mc_w.l(entry2.o)
    0x080000f0   0x00000004   Code   RO          646    .ARM.Collect$$$$00000004  mc_w.l(entry5.o)
    0x080000f4   0x00000000   Code   RO          648    .ARM.Collect$$$$00000008  mc_w.l(entry7b.o)
    0x080000f4   0x00000000   Code   RO          650    .ARM.Collect$$$$0000000A  mc_w.l(entry8b.o)
    0x080000f4   0x00000008   Code   RO          651    .ARM.Collect$$$$0000000B  mc_w.l(entry9a.o)
    0x080000fc   0x00000000   Code   RO          653    .ARM.Collect$$$$0000000D  mc_w.l(entry10a.o)
    0x080000fc   0x00000000   Code   RO          655    .ARM.Collect$$$$0000000F  mc_w.l(entry11a.o)
    0x080000fc   0x00000004   Code   RO          644    .ARM.Collect$$$$00002712  mc_w.l(entry2.o)
    0x08000100   0x00000024   Code   RO            4  * .text               startup_stm32f10x_md.o
    0x08000124   0x000001e0   Code   RO           26    .text               system_stm32f10x.o
    0x08000304   0x0000035c   Code   RO           74    .text               stm32f10x_gpio.o
    0x08000660   0x0000044e   Code   RO           98    .text               stm32f10x_adc.o
    0x08000aae   0x00000002   PAD
    0x08000ab0   0x000000dc   Code   RO          121    .text               misc.o
    0x08000b8c   0x00000e1a   Code   RO          144    .text               stm32f10x_tim.o
    0x080019a6   0x00000002   PAD
    0x080019a8   0x000003a4   Code   RO          167    .text               stm32f10x_rcc.o
    0x08001d4c   0x000003e8   Code   RO          209    .text               main.o
    0x08002134   0x00000028   Code   RO          255    .text               stm32f10x_it.o
    0x0800215c   0x00000888   Code   RO          279    .text               lcd.o
    0x080029e4   0x000000dc   Code   RO          306    .text               adc.o
    0x08002ac0   0x000000e0   Code   RO          327    .text               timmer.o
    0x08002ba0   0x00000090   Code   RO          348    .text               key.o
    0x08002c30   0x000000e4   Code   RO          633    .text               mf_w.l(dmul.o)
    0x08002d14   0x000000de   Code   RO          635    .text               mf_w.l(ddiv.o)
    0x08002df2   0x0000001a   Code   RO          637    .text               mf_w.l(dfltui.o)
    0x08002e0c   0x00000026   Code   RO          639    .text               mf_w.l(f2d.o)
    0x08002e32   0x00000038   Code   RO          641    .text               mf_w.l(d2f.o)
    0x08002e6a   0x0000002c   Code   RO          660    .text               mc_w.l(uidiv.o)
    0x08002e96   0x00000062   Code   RO          662    .text               mc_w.l(uldiv.o)
    0x08002ef8   0x00000000   Code   RO          664    .text               mc_w.l(iusefp.o)
    0x08002ef8   0x0000006e   Code   RO          665    .text               mf_w.l(fepilogue.o)
    0x08002f66   0x000000ba   Code   RO          667    .text               mf_w.l(depilogue.o)
    0x08003020   0x0000014e   Code   RO          669    .text               mf_w.l(dadd.o)
    0x0800316e   0x00000030   Code   RO          671    .text               mf_w.l(dfixul.o)
    0x0800319e   0x00000002   PAD
    0x080031a0   0x00000030   Code   RO          673    .text               mf_w.l(cdrcmple.o)
    0x080031d0   0x00000024   Code   RO          675    .text               mc_w.l(init.o)
    0x080031f4   0x0000001e   Code   RO          678    .text               mc_w.l(llshl.o)
    0x08003212   0x00000020   Code   RO          680    .text               mc_w.l(llushr.o)
    0x08003232   0x00000024   Code   RO          682    .text               mc_w.l(llsshr.o)
    0x08003256   0x00000002   PAD
    0x08003258   0x00000028   Code   RO          607    i.__0sprintf        mc_w.l(printfa.o)
    0x08003280   0x0000000e   Code   RO          687    i.__scatterload_copy  mc_w.l(handlers.o)
    0x0800328e   0x00000002   Code   RO          688    i.__scatterload_null  mc_w.l(handlers.o)
    0x08003290   0x0000000e   Code   RO          689    i.__scatterload_zeroinit  mc_w.l(handlers.o)
    0x0800329e   0x00000002   PAD
    0x080032a0   0x00000164   Code   RO          612    i._fp_digits        mc_w.l(printfa.o)
    0x08003404   0x000006dc   Code   RO          613    i._printf_core      mc_w.l(printfa.o)
    0x08003ae0   0x00000024   Code   RO          614    i._printf_post_padding  mc_w.l(printfa.o)
    0x08003b04   0x0000002e   Code   RO          615    i._printf_pre_padding  mc_w.l(printfa.o)
    0x08003b32   0x0000000a   Code   RO          617    i._sputc            mc_w.l(printfa.o)
    0x08003b3c   0x000011d0   Data   RO          280    .constdata          lcd.o
    0x08004d0c   0x00000020   Data   RO          685    Region$$Table       anon$$obj.o


    Execution Region ER_RW (Base: 0x20000000, Size: 0x0000003c, Max: 0xffffffff, ABSOLUTE)

    Base Addr    Size         Type   Attr      Idx    E Section Name        Object

    0x20000000   0x00000014   Data   RW           27    .data               system_stm32f10x.o
    0x20000014   0x00000014   Data   RW          168    .data               stm32f10x_rcc.o
    0x20000028   0x00000010   Data   RW          211    .data               main.o
    0x20000038   0x00000004   Data   RW          281    .data               lcd.o


    Execution Region ER_ZI (Base: 0x2000003c, Size: 0x0000044c, Max: 0xffffffff, ABSOLUTE)

    Base Addr    Size         Type   Attr      Idx    E Section Name        Object

    0x2000003c   0x00000045   Zero   RW          210    .bss                main.o
    0x20000081   0x00000007   PAD
    0x20000088   0x00000400   Zero   RW            1    STACK               startup_stm32f10x_md.o


==============================================================================

Image component sizes


      Code (inc. data)   RO Data    RW Data    ZI Data      Debug   Object Name

       220         18          0          0          0        778   adc.o
         0          0          0          0          0       4508   core_cm3.o
       144          8          0          0          0        680   key.o
      2184         62       4560          4          0       8558   lcd.o
      1000        188          0         16         69      56283   main.o
       220         22          0          0          0       3649   misc.o
        36          8        236          0       1024        940   startup_stm32f10x_md.o
      1102         26          0          0          0      20249   stm32f10x_adc.o
       860         38          0          0          0       5821   stm32f10x_gpio.o
        40          4          0          0          0       1278   stm32f10x_it.o
       932         36          0         20          0     228320   stm32f10x_rcc.o
      3610         88          0          0          0      43356   stm32f10x_tim.o
       480         38          0         20          0     212243   system_stm32f10x.o
       224         18          0          0          0        856   timmer.o

    ----------------------------------------------------------------------
     11056        554       4828         60       1100     587519   Object Totals
         0          0         32          0          0          0   (incl. Generated)
         4          0          0          0          7          0   (incl. Padding)

    ----------------------------------------------------------------------

      Code (inc. data)   RO Data    RW Data    ZI Data      Debug   Library Member Name

         0          0          0          0          0          0   entry.o
         0          0          0          0          0          0   entry10a.o
         0          0          0          0          0          0   entry11a.o
         8          4          0          0          0          0   entry2.o
         4          0          0          0          0          0   entry5.o
         0          0          0          0          0          0   entry7b.o
         0          0          0          0          0          0   entry8b.o
         8          4          0          0          0          0   entry9a.o
        30          0          0          0          0          0   handlers.o
        36          8          0          0          0         68   init.o
         0          0          0          0          0          0   iusefp.o
        30          0          0          0          0         68   llshl.o
        36          0          0          0          0         68   llsshr.o
        32          0          0          0          0         68   llushr.o
      2244         86          0          0          0        512   printfa.o
        44          0          0          0          0         80   uidiv.o
        98          0          0          0          0         92   uldiv.o
        48          0          0          0          0         68   cdrcmple.o
        56          0          0          0          0         88   d2f.o
       334          0          0          0          0        148   dadd.o
       222          0          0          0          0        100   ddiv.o
       186          0          0          0          0        176   depilogue.o
        48          0          0          0          0         68   dfixul.o
        26          0          0          0          0         76   dfltui.o
       228          0          0          0          0         96   dmul.o
        38          0          0          0          0         68   f2d.o
       110          0          0          0          0        168   fepilogue.o

    ----------------------------------------------------------------------
      3872        102          0          0          0       2012   Library Totals
         6          0          0          0          0          0   (incl. Padding)

    ----------------------------------------------------------------------

      Code (inc. data)   RO Data    RW Data    ZI Data      Debug   Library Name

      2570        102          0          0          0        956   mc_w.l
      1296          0          0          0          0       1056   mf_w.l

    ----------------------------------------------------------------------
      3872        102          0          0          0       2012   Library Totals

    ----------------------------------------------------------------------

==============================================================================


      Code (inc. data)   RO Data    RW Data    ZI Data      Debug   

     14928        656       4828         60       1100     587499   Grand Totals
     14928        656       4828         60       1100     587499   ELF Image Totals
     14928        656       4828         60          0          0   ROM Totals

==============================================================================

    Total RO  Size (Code + RO Data)                19756 (  19.29kB)
    Total RW  Size (RW Data + ZI Data)              1160 (   1.13kB)
    Total ROM Size (Code + RO Data + RW Data)      19816 (  19.35kB)

==============================================================================

