Component: ARM Compiler 5.06 update 2 (build 183) Tool: armlink [4d35b7]

==============================================================================

Section Cross References

    startup_stm32f10x_md.o(STACK) refers (Special) to heapauxi.o(.text) for __use_two_region_memory
    startup_stm32f10x_md.o(HEAP) refers (Special) to heapauxi.o(.text) for __use_two_region_memory
    startup_stm32f10x_md.o(RESET) refers (Special) to heapauxi.o(.text) for __use_two_region_memory
    startup_stm32f10x_md.o(RESET) refers to startup_stm32f10x_md.o(STACK) for __initial_sp
    startup_stm32f10x_md.o(RESET) refers to startup_stm32f10x_md.o(.text) for Reset_Handler
    startup_stm32f10x_md.o(RESET) refers to stm32f10x_it.o(.text) for NMI_Handler
    startup_stm32f10x_md.o(RESET) refers to usart.o(.text) for USART2_IRQHandler
    startup_stm32f10x_md.o(.text) refers (Special) to heapauxi.o(.text) for __use_two_region_memory
    startup_stm32f10x_md.o(.text) refers to system_stm32f10x.o(.text) for SystemInit
    startup_stm32f10x_md.o(.text) refers to __main.o(!!!main) for __main
    startup_stm32f10x_md.o(.text) refers to startup_stm32f10x_md.o(HEAP) for Heap_Mem
    startup_stm32f10x_md.o(.text) refers to startup_stm32f10x_md.o(STACK) for Stack_Mem
    system_stm32f10x.o(.text) refers to system_stm32f10x.o(.data) for SystemCoreClock
    stm32f10x_gpio.o(.text) refers to stm32f10x_rcc.o(.text) for RCC_APB2PeriphResetCmd
    stm32f10x_rcc.o(.text) refers to stm32f10x_rcc.o(.data) for APBAHBPrescTable
    stm32f10x_adc.o(.text) refers to stm32f10x_rcc.o(.text) for RCC_APB2PeriphResetCmd
    stm32f10x_tim.o(.text) refers to stm32f10x_rcc.o(.text) for RCC_APB2PeriphResetCmd
    stm32f10x_usart.o(.text) refers to stm32f10x_rcc.o(.text) for RCC_APB2PeriphResetCmd
==============================================================================

Removing Unused input sections from the image.

    Removing core_cm3.o(.emb_text), (32 bytes).
    Removing system_stm32f10x.o(.rev16_text), (4 bytes).
    Removing system_stm32f10x.o(.revsh_text), (4 bytes).
    Removing stm32f10x_gpio.o(.rev16_text), (4 bytes).
    Removing stm32f10x_gpio.o(.revsh_text), (4 bytes).
    Removing stm32f10x_rcc.o(.rev16_text), (4 bytes).
    Removing stm32f10x_rcc.o(.revsh_text), (4 bytes).
    Removing stm32f10x_adc.o(.rev16_text), (4 bytes).
    Removing stm32f10x_adc.o(.revsh_text), (4 bytes).
    Removing stm32f10x_tim.o(.rev16_text), (4 bytes).
    Removing stm32f10x_tim.o(.revsh_text), (4 bytes).
    Removing stm32f10x_tim.o(.text), (3610 bytes).
    Removing stm32f10x_usart.o(.rev16_text), (4 bytes).
    Removing stm32f10x_usart.o(.revsh_text), (4 bytes).
    Removing misc.o(.rev16_text), (4 bytes).
    Removing misc.o(.revsh_text), (4 bytes).
    Removing lcd_1.o(.rev16_text), (4 bytes).
    Removing lcd_1.o(.revsh_text), (4 bytes).
==============================================================================

Image Symbol Table

    Local Symbols

    Symbol Name                              Value     Ov Type        Size  Object(Section)

    ../clib/angel/boardlib.s                 0x00000000   Number         0  boardinit2.o ABSOLUTE
    ../clib/angel/boardlib.s                 0x00000000   Number         0  boardinit3.o ABSOLUTE
    ../clib/angel/boardlib.s                 0x00000000   Number         0  boardinit1.o ABSOLUTE
    ../clib/angel/boardlib.s                 0x00000000   Number         0  boardshut.o ABSOLUTE
    ../clib/angel/handlers.s                 0x00000000   Number         0  __scatter_zi.o ABSOLUTE
    ../clib/angel/handlers.s                 0x00000000   Number         0  __scatter_copy.o ABSOLUTE
    ../clib/angel/kernel.s                   0x00000000   Number         0  __rtentry4.o ABSOLUTE
    ../clib/angel/kernel.s                   0x00000000   Number         0  __rtentry.o ABSOLUTE
    ../clib/angel/kernel.s                   0x00000000   Number         0  __rtentry2.o ABSOLUTE
    ../clib/angel/kernel.s                   0x00000000   Number         0  rtexit.o ABSOLUTE
    ../clib/angel/kernel.s                   0x00000000   Number         0  rtexit2.o ABSOLUTE
    ../clib/angel/rt.s                       0x00000000   Number         0  rt_locale.o ABSOLUTE
    ../clib/angel/rt.s                       0x00000000   Number         0  rt_locale_intlibspace.o ABSOLUTE
    ../clib/angel/rt.s                       0x00000000   Number         0  rt_raise.o ABSOLUTE
    ../clib/angel/scatter.s                  0x00000000   Number         0  __scatter.o ABSOLUTE
    ../clib/angel/startup.s                  0x00000000   Number         0  __main.o ABSOLUTE
    ../clib/angel/sys.s                      0x00000000   Number         0  indicate_semi.o ABSOLUTE
    ../clib/angel/sys.s                      0x00000000   Number         0  libspace.o ABSOLUTE
    ../clib/angel/sys.s                      0x00000000   Number         0  sys_stackheap_outer.o ABSOLUTE
    ../clib/angel/sys.s                      0x00000000   Number         0  use_no_semi.o ABSOLUTE
    ../clib/angel/sysapp.c                   0x00000000   Number         0  sys_wrch.o ABSOLUTE
    ../clib/angel/sysapp.c                   0x00000000   Number         0  sys_exit.o ABSOLUTE
    ../clib/angel/sysapp.c                   0x00000000   Number         0  sys_command.o ABSOLUTE
    ../clib/armsys.c                         0x00000000   Number         0  argv_veneer.o ABSOLUTE
    ../clib/armsys.c                         0x00000000   Number         0  argv_veneer.o ABSOLUTE
    ../clib/armsys.c                         0x00000000   Number         0  _get_argv_nomalloc.o ABSOLUTE
    ../clib/armsys.c                         0x00000000   Number         0  no_argv.o ABSOLUTE
    ../clib/bigflt.c                         0x00000000   Number         0  bigflt0.o ABSOLUTE
    ../clib/btod.s                           0x00000000   Number         0  btod.o ABSOLUTE
    ../clib/heapalloc.c                      0x00000000   Number         0  hrguard.o ABSOLUTE
    ../clib/heapaux.c                        0x00000000   Number         0  heapauxi.o ABSOLUTE
    ../clib/libinit.s                        0x00000000   Number         0  libinit2.o ABSOLUTE
    ../clib/libinit.s                        0x00000000   Number         0  libshutdown2.o ABSOLUTE
    ../clib/libinit.s                        0x00000000   Number         0  libshutdown.o ABSOLUTE
    ../clib/libinit.s                        0x00000000   Number         0  libinit.o ABSOLUTE
    ../clib/locale.s                         0x00000000   Number         0  lc_numeric_c.o ABSOLUTE
    ../clib/longlong.s                       0x00000000   Number         0  lludiv10.o ABSOLUTE
    ../clib/memcpset.s                       0x00000000   Number         0  strcmpv7m.o ABSOLUTE
    ../clib/misc.s                           0x00000000   Number         0  printf_stubs.o ABSOLUTE
    ../clib/printf.c                         0x00000000   Number         0  __2sprintf.o ABSOLUTE
    ../clib/printf.c                         0x00000000   Number         0  _printf_dec.o ABSOLUTE
    ../clib/printf.c                         0x00000000   Number         0  __printf_flags.o ABSOLUTE
    ../clib/printf.c                         0x00000000   Number         0  __printf_flags_ss.o ABSOLUTE
    ../clib/printf.c                         0x00000000   Number         0  __printf_wp.o ABSOLUTE
    ../clib/printf.c                         0x00000000   Number         0  __printf_flags_wp.o ABSOLUTE
    ../clib/printf.c                         0x00000000   Number         0  __printf_ss_wp.o ABSOLUTE
    ../clib/printf.c                         0x00000000   Number         0  __printf_ss.o ABSOLUTE
    ../clib/printf.c                         0x00000000   Number         0  _printf_intcommon.o ABSOLUTE
    ../clib/printf.c                         0x00000000   Number         0  noretval__2sprintf.o ABSOLUTE
    ../clib/printf.c                         0x00000000   Number         0  __printf_nopercent.o ABSOLUTE
    ../clib/printf.c                         0x00000000   Number         0  _printf_fp_dec.o ABSOLUTE
    ../clib/printf.c                         0x00000000   Number         0  _printf_fp_infnan.o ABSOLUTE
    ../clib/printf.c                         0x00000000   Number         0  _printf_char_common.o ABSOLUTE
    ../clib/printf.c                         0x00000000   Number         0  _sputc.o ABSOLUTE
    ../clib/printf.c                         0x00000000   Number         0  _printf_char.o ABSOLUTE
    ../clib/printf.c                         0x00000000   Number         0  __printf_flags_ss_wp.o ABSOLUTE
    ../clib/printf.c                         0x00000000   Number         0  __printf.o ABSOLUTE
    ../clib/printf.c                         0x00000000   Number         0  _printf_str.o ABSOLUTE
    ../clib/printf_percent.s                 0x00000000   Number         0  _printf_percent_end.o ABSOLUTE
    ../clib/printf_percent.s                 0x00000000   Number         0  _printf_d.o ABSOLUTE
    ../clib/printf_percent.s                 0x00000000   Number         0  _printf_s.o ABSOLUTE
    ../clib/printf_percent.s                 0x00000000   Number         0  _printf_f.o ABSOLUTE
    ../clib/printf_percent.s                 0x00000000   Number         0  _printf_percent.o ABSOLUTE
    ../clib/signal.c                         0x00000000   Number         0  defsig_fpe_inner.o ABSOLUTE
    ../clib/signal.c                         0x00000000   Number         0  defsig_general.o ABSOLUTE
    ../clib/signal.c                         0x00000000   Number         0  defsig_abrt_inner.o ABSOLUTE
    ../clib/signal.c                         0x00000000   Number         0  __raise.o ABSOLUTE
    ../clib/signal.c                         0x00000000   Number         0  defsig_rtred_inner.o ABSOLUTE
    ../clib/signal.c                         0x00000000   Number         0  defsig_rtmem_formal.o ABSOLUTE
    ../clib/signal.c                         0x00000000   Number         0  defsig_other.o ABSOLUTE
    ../clib/signal.c                         0x00000000   Number         0  defsig_segv_inner.o ABSOLUTE
    ../clib/signal.c                         0x00000000   Number         0  defsig_cppl_inner.o ABSOLUTE
    ../clib/signal.c                         0x00000000   Number         0  defsig_pvfn_inner.o ABSOLUTE
    ../clib/signal.c                         0x00000000   Number         0  defsig_rtmem_inner.o ABSOLUTE
    ../clib/signal.c                         0x00000000   Number         0  defsig_rtmem_outer.o ABSOLUTE
    ../clib/signal.c                         0x00000000   Number         0  defsig_stak_inner.o ABSOLUTE
    ../clib/signal.c                         0x00000000   Number         0  defsig_exit.o ABSOLUTE
    ../clib/signal.s                         0x00000000   Number         0  defsig.o ABSOLUTE
    ../clib/stdlib.c                         0x00000000   Number         0  exit.o ABSOLUTE
    ../fplib/d2f.s                           0x00000000   Number         0  d2f.o ABSOLUTE
    ../fplib/ddiv.s                          0x00000000   Number         0  ddiv.o ABSOLUTE
    ../fplib/dflt.s                          0x00000000   Number         0  dflt_clz.o ABSOLUTE
    ../fplib/dmul.s                          0x00000000   Number         0  dmul.o ABSOLUTE
    ../fplib/dnaninf.s                       0x00000000   Number         0  dnaninf.o ABSOLUTE
    ../fplib/dretinf.s                       0x00000000   Number         0  dretinf.o ABSOLUTE
    ../fplib/f2d.s                           0x00000000   Number         0  f2d.o ABSOLUTE
    ../fplib/fcmpi.s                         0x00000000   Number         0  fcmpi.o ABSOLUTE
    ../fplib/fleqf.s                         0x00000000   Number         0  fleqf.o ABSOLUTE
    ../fplib/fmul.s                          0x00000000   Number         0  fmul.o ABSOLUTE
    ../fplib/fnaninf.s                       0x00000000   Number         0  fnaninf.o ABSOLUTE
    ../fplib/fpinit.s                        0x00000000   Number         0  fpinit.o ABSOLUTE
    ../fplib/fretinf.s                       0x00000000   Number         0  fretinf.o ABSOLUTE
    ../fplib/istatus.s                       0x00000000   Number         0  istatus.o ABSOLUTE
    ../fplib/printf1.s                       0x00000000   Number         0  printf1.o ABSOLUTE
    ../fplib/usenofp.s                       0x00000000   Number         0  usenofp.o ABSOLUTE
    ../mathlib/fpclassify.c                  0x00000000   Number         0  fpclassify.o ABSOLUTE
    ..\..\..\第十届省赛真题\十届真题1.1\Sre\adc.c 0x00000000   Number         0  adc.o ABSOLUTE
    ..\Libraries\CMSIS\CM3\CoreSupport\core_cm3.c 0x00000000   Number         0  core_cm3.o ABSOLUTE
    ..\Libraries\CMSIS\CM3\DeviceSupport\ST\STM32F10x\startup\arm\startup_stm32f10x_md.s 0x00000000   Number         0  startup_stm32f10x_md.o ABSOLUTE
    ..\Libraries\CMSIS\CM3\DeviceSupport\ST\STM32F10x\system_stm32f10x.c 0x00000000   Number         0  system_stm32f10x.o ABSOLUTE
    ..\Libraries\STM32F10x_StdPeriph_Driver\src\misc.c 0x00000000   Number         0  misc.o ABSOLUTE
    ..\Libraries\STM32F10x_StdPeriph_Driver\src\stm32f10x_adc.c 0x00000000   Number         0  stm32f10x_adc.o ABSOLUTE
    ..\Libraries\STM32F10x_StdPeriph_Driver\src\stm32f10x_gpio.c 0x00000000   Number         0  stm32f10x_gpio.o ABSOLUTE
    ..\Libraries\STM32F10x_StdPeriph_Driver\src\stm32f10x_rcc.c 0x00000000   Number         0  stm32f10x_rcc.o ABSOLUTE
    ..\Libraries\STM32F10x_StdPeriph_Driver\src\stm32f10x_tim.c 0x00000000   Number         0  stm32f10x_tim.o ABSOLUTE
    ..\Libraries\STM32F10x_StdPeriph_Driver\src\stm32f10x_usart.c 0x00000000   Number         0  stm32f10x_usart.o ABSOLUTE
    ..\Sre\iic.c                             0x00000000   Number         0  iic.o ABSOLUTE
    ..\Sre\key.c                             0x00000000   Number         0  key.o ABSOLUTE
    ..\Sre\lcd.c                             0x00000000   Number         0  lcd_1.o ABSOLUTE
    ..\Sre\led.c                             0x00000000   Number         0  led.o ABSOLUTE
    ..\Sre\main.c                            0x00000000   Number         0  main.o ABSOLUTE
    ..\Sre\stm32f10x_it.c                    0x00000000   Number         0  stm32f10x_it.o ABSOLUTE
    ..\Sre\usart.c                           0x00000000   Number         0  usart.o ABSOLUTE
    ..\\..\\..\\\265\332\312\256\275\354\312\241\310\374\325\346\314\342\\\312\256\275\354\325\346\314\3421.1\\Sre\\adc.c 0x00000000   Number         0  adc.o ABSOLUTE
    ..\\Libraries\\CMSIS\\CM3\\CoreSupport\\core_cm3.c 0x00000000   Number         0  core_cm3.o ABSOLUTE
    ..\\Libraries\\CMSIS\\CM3\\DeviceSupport\\ST\\STM32F10x\\system_stm32f10x.c 0x00000000   Number         0  system_stm32f10x.o ABSOLUTE
    ..\\Libraries\\STM32F10x_StdPeriph_Driver\\src\\misc.c 0x00000000   Number         0  misc.o ABSOLUTE
    ..\\Libraries\\STM32F10x_StdPeriph_Driver\\src\\stm32f10x_adc.c 0x00000000   Number         0  stm32f10x_adc.o ABSOLUTE
    ..\\Libraries\\STM32F10x_StdPeriph_Driver\\src\\stm32f10x_gpio.c 0x00000000   Number         0  stm32f10x_gpio.o ABSOLUTE
    ..\\Libraries\\STM32F10x_StdPeriph_Driver\\src\\stm32f10x_rcc.c 0x00000000   Number         0  stm32f10x_rcc.o ABSOLUTE
    ..\\Libraries\\STM32F10x_StdPeriph_Driver\\src\\stm32f10x_tim.c 0x00000000   Number         0  stm32f10x_tim.o ABSOLUTE
    ..\\Libraries\\STM32F10x_StdPeriph_Driver\\src\\stm32f10x_usart.c 0x00000000   Number         0  stm32f10x_usart.o ABSOLUTE
    ..\\Sre\\iic.c                           0x00000000   Number         0  iic.o ABSOLUTE
    ..\\Sre\\key.c                           0x00000000   Number         0  key.o ABSOLUTE
    ..\\Sre\\lcd.c                           0x00000000   Number         0  lcd_1.o ABSOLUTE
    ..\\Sre\\led.c                           0x00000000   Number         0  led.o ABSOLUTE
    ..\\Sre\\main.c                          0x00000000   Number         0  main.o ABSOLUTE
    ..\\Sre\\stm32f10x_it.c                  0x00000000   Number         0  stm32f10x_it.o ABSOLUTE
    ..\\Sre\\usart.c                         0x00000000   Number         0  usart.o ABSOLUTE
    dc.s                                     0x00000000   Number         0  dc.o ABSOLUTE
    RESET                                    0x08000000   Section      236  startup_stm32f10x_md.o(RESET)
    !!!main                                  0x080000ec   Section        8  __main.o(!!!main)
    !!!scatter                               0x080000f4   Section       52  __scatter.o(!!!scatter)
    !!handler_copy                           0x08000128   Section       26  __scatter_copy.o(!!handler_copy)
    !!handler_zi                             0x08000144   Section       28  __scatter_zi.o(!!handler_zi)
    .ARM.Collect$$_printf_percent$$00000000  0x08000160   Section        0  _printf_percent.o(.ARM.Collect$$_printf_percent$$00000000)
    .ARM.Collect$$_printf_percent$$00000003  0x08000160   Section        6  _printf_f.o(.ARM.Collect$$_printf_percent$$00000003)
    .ARM.Collect$$_printf_percent$$00000009  0x08000166   Section        6  _printf_d.o(.ARM.Collect$$_printf_percent$$00000009)
    .ARM.Collect$$_printf_percent$$00000014  0x0800016c   Section        6  _printf_s.o(.ARM.Collect$$_printf_percent$$00000014)
    .ARM.Collect$$_printf_percent$$00000017  0x08000172   Section        4  _printf_percent_end.o(.ARM.Collect$$_printf_percent$$00000017)
    .ARM.Collect$$libinit$$00000000          0x08000176   Section        2  libinit.o(.ARM.Collect$$libinit$$00000000)
    .ARM.Collect$$libinit$$00000002          0x08000178   Section        0  libinit2.o(.ARM.Collect$$libinit$$00000002)
    .ARM.Collect$$libinit$$00000004          0x08000178   Section        0  libinit2.o(.ARM.Collect$$libinit$$00000004)
    .ARM.Collect$$libinit$$0000000A          0x08000178   Section        0  libinit2.o(.ARM.Collect$$libinit$$0000000A)
    .ARM.Collect$$libinit$$0000000C          0x08000178   Section        0  libinit2.o(.ARM.Collect$$libinit$$0000000C)
    .ARM.Collect$$libinit$$0000000E          0x08000178   Section        0  libinit2.o(.ARM.Collect$$libinit$$0000000E)
    .ARM.Collect$$libinit$$0000000F          0x08000178   Section        6  libinit2.o(.ARM.Collect$$libinit$$0000000F)
    .ARM.Collect$$libinit$$00000011          0x0800017e   Section        0  libinit2.o(.ARM.Collect$$libinit$$00000011)
    .ARM.Collect$$libinit$$00000013          0x0800017e   Section        0  libinit2.o(.ARM.Collect$$libinit$$00000013)
    .ARM.Collect$$libinit$$00000015          0x0800017e   Section        0  libinit2.o(.ARM.Collect$$libinit$$00000015)
    .ARM.Collect$$libinit$$00000016          0x0800017e   Section       10  libinit2.o(.ARM.Collect$$libinit$$00000016)
    .ARM.Collect$$libinit$$00000017          0x08000188   Section        0  libinit2.o(.ARM.Collect$$libinit$$00000017)
    .ARM.Collect$$libinit$$00000019          0x08000188   Section        0  libinit2.o(.ARM.Collect$$libinit$$00000019)
    .ARM.Collect$$libinit$$0000001B          0x08000188   Section        0  libinit2.o(.ARM.Collect$$libinit$$0000001B)
    .ARM.Collect$$libinit$$0000001D          0x08000188   Section        0  libinit2.o(.ARM.Collect$$libinit$$0000001D)
    .ARM.Collect$$libinit$$0000001F          0x08000188   Section        0  libinit2.o(.ARM.Collect$$libinit$$0000001F)
    .ARM.Collect$$libinit$$00000021          0x08000188   Section        0  libinit2.o(.ARM.Collect$$libinit$$00000021)
    .ARM.Collect$$libinit$$00000023          0x08000188   Section        0  libinit2.o(.ARM.Collect$$libinit$$00000023)
    .ARM.Collect$$libinit$$00000025          0x08000188   Section        0  libinit2.o(.ARM.Collect$$libinit$$00000025)
    .ARM.Collect$$libinit$$0000002C          0x08000188   Section        0  libinit2.o(.ARM.Collect$$libinit$$0000002C)
    .ARM.Collect$$libinit$$0000002E          0x08000188   Section        0  libinit2.o(.ARM.Collect$$libinit$$0000002E)
    .ARM.Collect$$libinit$$00000030          0x08000188   Section        0  libinit2.o(.ARM.Collect$$libinit$$00000030)
    .ARM.Collect$$libinit$$00000032          0x08000188   Section        0  libinit2.o(.ARM.Collect$$libinit$$00000032)
    .ARM.Collect$$libinit$$00000033          0x08000188   Section        2  libinit2.o(.ARM.Collect$$libinit$$00000033)
    .ARM.Collect$$libshutdown$$00000000      0x0800018a   Section        2  libshutdown.o(.ARM.Collect$$libshutdown$$00000000)
    .ARM.Collect$$libshutdown$$00000002      0x0800018c   Section        0  libshutdown2.o(.ARM.Collect$$libshutdown$$00000002)
    .ARM.Collect$$libshutdown$$00000004      0x0800018c   Section        0  libshutdown2.o(.ARM.Collect$$libshutdown$$00000004)
    .ARM.Collect$$libshutdown$$00000007      0x0800018c   Section        0  libshutdown2.o(.ARM.Collect$$libshutdown$$00000007)
    .ARM.Collect$$libshutdown$$0000000A      0x0800018c   Section        0  libshutdown2.o(.ARM.Collect$$libshutdown$$0000000A)
    .ARM.Collect$$libshutdown$$0000000C      0x0800018c   Section        0  libshutdown2.o(.ARM.Collect$$libshutdown$$0000000C)
    .ARM.Collect$$libshutdown$$0000000F      0x0800018c   Section        0  libshutdown2.o(.ARM.Collect$$libshutdown$$0000000F)
    .ARM.Collect$$libshutdown$$00000010      0x0800018c   Section        2  libshutdown2.o(.ARM.Collect$$libshutdown$$00000010)
    .ARM.Collect$$rtentry$$00000000          0x0800018e   Section        0  __rtentry.o(.ARM.Collect$$rtentry$$00000000)
    .ARM.Collect$$rtentry$$00000002          0x0800018e   Section        0  __rtentry2.o(.ARM.Collect$$rtentry$$00000002)
    .ARM.Collect$$rtentry$$00000004          0x0800018e   Section        6  __rtentry4.o(.ARM.Collect$$rtentry$$00000004)
    .ARM.Collect$$rtentry$$00000009          0x08000194   Section        0  __rtentry2.o(.ARM.Collect$$rtentry$$00000009)
    .ARM.Collect$$rtentry$$0000000A          0x08000194   Section        4  __rtentry2.o(.ARM.Collect$$rtentry$$0000000A)
    .ARM.Collect$$rtentry$$0000000C          0x08000198   Section        0  __rtentry2.o(.ARM.Collect$$rtentry$$0000000C)
    .ARM.Collect$$rtentry$$0000000D          0x08000198   Section        8  __rtentry2.o(.ARM.Collect$$rtentry$$0000000D)
    .ARM.Collect$$rtexit$$00000000           0x080001a0   Section        2  rtexit.o(.ARM.Collect$$rtexit$$00000000)
    .ARM.Collect$$rtexit$$00000002           0x080001a2   Section        0  rtexit2.o(.ARM.Collect$$rtexit$$00000002)
    .ARM.Collect$$rtexit$$00000003           0x080001a2   Section        4  rtexit2.o(.ARM.Collect$$rtexit$$00000003)
    .ARM.Collect$$rtexit$$00000004           0x080001a6   Section        6  rtexit2.o(.ARM.Collect$$rtexit$$00000004)
    .text                                    0x080001ac   Section       64  startup_stm32f10x_md.o(.text)
    .text                                    0x080001ec   Section        0  system_stm32f10x.o(.text)
    SetSysClockTo72                          0x080001ed   Thumb Code   214  system_stm32f10x.o(.text)
    SetSysClock                              0x080002c3   Thumb Code     8  system_stm32f10x.o(.text)
    .text                                    0x080003cc   Section        0  stm32f10x_gpio.o(.text)
    .text                                    0x08000728   Section        0  stm32f10x_rcc.o(.text)
    .text                                    0x08000acc   Section        0  stm32f10x_adc.o(.text)
    .text                                    0x08000f1c   Section        0  stm32f10x_usart.o(.text)
    .text                                    0x08001324   Section        0  misc.o(.text)
    .text                                    0x08001400   Section        0  lcd_1.o(.text)
    .text                                    0x08001e0c   Section        0  main.o(.text)
    .text                                    0x080023a4   Section        0  stm32f10x_it.o(.text)
    .text                                    0x08002428   Section        0  iic.o(.text)
    .text                                    0x080026c0   Section        0  led.o(.text)
    .text                                    0x08002744   Section        0  key.o(.text)
    .text                                    0x080027f0   Section        0  adc.o(.text)
    .text                                    0x080028c4   Section        0  usart.o(.text)
    .text                                    0x080029f4   Section        0  noretval__2sprintf.o(.text)
    .text                                    0x08002a1c   Section        0  _printf_str.o(.text)
    .text                                    0x08002a70   Section        0  _printf_dec.o(.text)
    .text                                    0x08002ae8   Section        0  __printf_flags_wp.o(.text)
    .text                                    0x08002c20   Section        0  heapauxi.o(.text)
    .text                                    0x08002c26   Section        0  _printf_intcommon.o(.text)
    .text                                    0x08002cd8   Section        0  _printf_fp_dec.o(.text)
    _fp_digits                               0x08002cdb   Thumb Code   428  _printf_fp_dec.o(.text)
    .text                                    0x080030f4   Section        0  _printf_char_common.o(.text)
    _printf_input_char                       0x080030f5   Thumb Code    10  _printf_char_common.o(.text)
    .text                                    0x08003124   Section        0  _sputc.o(.text)
    .text                                    0x0800312e   Section        0  _printf_char.o(.text)
    .text                                    0x0800315c   Section        8  rt_locale_intlibspace.o(.text)
    .text                                    0x08003164   Section      138  lludiv10.o(.text)
    .text                                    0x080031f0   Section        0  _printf_fp_infnan.o(.text)
    .text                                    0x08003270   Section        0  bigflt0.o(.text)
    .text                                    0x0800334c   Section        8  libspace.o(.text)
    .text                                    0x08003354   Section       74  sys_stackheap_outer.o(.text)
    .text                                    0x0800339e   Section        0  exit.o(.text)
    .text                                    0x080033b0   Section      128  strcmpv7m.o(.text)
    .text                                    0x08003430   Section        0  sys_exit.o(.text)
    .text                                    0x0800343c   Section        2  use_no_semi.o(.text)
    .text                                    0x0800343e   Section        0  indicate_semi.o(.text)
    CL$$btod_d2e                             0x0800343e   Section       62  btod.o(CL$$btod_d2e)
    CL$$btod_d2e_denorm_low                  0x0800347c   Section       70  btod.o(CL$$btod_d2e_denorm_low)
    CL$$btod_d2e_norm_op1                    0x080034c2   Section       96  btod.o(CL$$btod_d2e_norm_op1)
    CL$$btod_div_common                      0x08003522   Section      824  btod.o(CL$$btod_div_common)
    CL$$btod_e2e                             0x0800385a   Section      198  btod.o(CL$$btod_e2e)
    CL$$btod_ediv                            0x08003920   Section       40  btod.o(CL$$btod_ediv)
    CL$$btod_emul                            0x08003948   Section       40  btod.o(CL$$btod_emul)
    CL$$btod_mult_common                     0x08003970   Section      580  btod.o(CL$$btod_mult_common)
    i.__ARM_fpclassify                       0x08003bb4   Section        0  fpclassify.o(i.__ARM_fpclassify)
    i._is_digit                              0x08003bdc   Section        0  __printf_wp.o(i._is_digit)
    locale$$code                             0x08003bec   Section       44  lc_numeric_c.o(locale$$code)
    x$fpl$d2f                                0x08003c18   Section       98  d2f.o(x$fpl$d2f)
    x$fpl$ddiv                               0x08003c7c   Section      688  ddiv.o(x$fpl$ddiv)
    ddiv_entry                               0x08003c83   Thumb Code     0  ddiv.o(x$fpl$ddiv)
    x$fpl$dflt                               0x08003f2c   Section       46  dflt_clz.o(x$fpl$dflt)
    x$fpl$dfltu                              0x08003f5a   Section       38  dflt_clz.o(x$fpl$dfltu)
    x$fpl$dmul                               0x08003f80   Section      340  dmul.o(x$fpl$dmul)
    x$fpl$dnaninf                            0x080040d4   Section      156  dnaninf.o(x$fpl$dnaninf)
    x$fpl$dretinf                            0x08004170   Section       12  dretinf.o(x$fpl$dretinf)
    x$fpl$f2d                                0x0800417c   Section       86  f2d.o(x$fpl$f2d)
    x$fpl$fcmpinf                            0x080041d2   Section       24  fcmpi.o(x$fpl$fcmpinf)
    x$fpl$fleqf                              0x080041ec   Section      104  fleqf.o(x$fpl$fleqf)
    x$fpl$fmul                               0x08004254   Section      258  fmul.o(x$fpl$fmul)
    x$fpl$fnaninf                            0x08004356   Section      140  fnaninf.o(x$fpl$fnaninf)
    x$fpl$fretinf                            0x080043e2   Section       10  fretinf.o(x$fpl$fretinf)
    x$fpl$printf1                            0x080043ec   Section        4  printf1.o(x$fpl$printf1)
    .constdata                               0x080043f0   Section     4560  lcd_1.o(.constdata)
    x$fpl$usenofp                            0x080043f0   Section        0  usenofp.o(x$fpl$usenofp)
    .constdata                               0x080055c0   Section       17  __printf_flags_wp.o(.constdata)
    maptable                                 0x080055c0   Data          17  __printf_flags_wp.o(.constdata)
    .constdata                               0x080055d4   Section      148  bigflt0.o(.constdata)
    tenpwrs_x                                0x080055d4   Data          60  bigflt0.o(.constdata)
    tenpwrs_i                                0x08005610   Data          64  bigflt0.o(.constdata)
    .conststring                             0x08005668   Section        7  main.o(.conststring)
    locale$$data                             0x08005690   Section       28  lc_numeric_c.o(locale$$data)
    __lcnum_c_name                           0x08005694   Data           2  lc_numeric_c.o(locale$$data)
    __lcnum_c_start                          0x0800569c   Data           0  lc_numeric_c.o(locale$$data)
    __lcnum_c_point                          0x080056a8   Data           0  lc_numeric_c.o(locale$$data)
    __lcnum_c_thousands                      0x080056aa   Data           0  lc_numeric_c.o(locale$$data)
    __lcnum_c_grouping                       0x080056ab   Data           0  lc_numeric_c.o(locale$$data)
    __lcnum_c_end                            0x080056ac   Data           0  lc_numeric_c.o(locale$$data)
    .data                                    0x20000000   Section       20  system_stm32f10x.o(.data)
    .data                                    0x20000014   Section       20  stm32f10x_rcc.o(.data)
    APBAHBPrescTable                         0x20000014   Data          16  stm32f10x_rcc.o(.data)
    ADCPrescTable                            0x20000024   Data           4  stm32f10x_rcc.o(.data)
    .data                                    0x20000028   Section        6  lcd_1.o(.data)
    TextColor                                0x20000028   Data           2  lcd_1.o(.data)
    BackColor                                0x2000002a   Data           2  lcd_1.o(.data)
    .data                                    0x20000030   Section       73  main.o(.data)
    .data                                    0x20000079   Section        2  usart.o(.data)
    .bss                                     0x2000007c   Section       20  main.o(.bss)
    .bss                                     0x20000090   Section       28  usart.o(.bss)
    .bss                                     0x200000ac   Section       96  libspace.o(.bss)
    HEAP                                     0x20000110   Section      512  startup_stm32f10x_md.o(HEAP)
    Heap_Mem                                 0x20000110   Data         512  startup_stm32f10x_md.o(HEAP)
    STACK                                    0x20000310   Section     1024  startup_stm32f10x_md.o(STACK)
    Stack_Mem                                0x20000310   Data        1024  startup_stm32f10x_md.o(STACK)
    __initial_sp                             0x20000710   Data           0  startup_stm32f10x_md.o(STACK)

    Global Symbols

    Symbol Name                              Value     Ov Type        Size  Object(Section)

    BuildAttributes$$THM_ISAv4$P$D$K$B$S$PE$A:L22UL41UL21$X:L11$S22US41US21$IEEE1$IW$USESV6$~STKCKD$USESV7$~SHL$OTIME$ROPI$IEEEJ$EBA8$UX$STANDARDLIB$REQ8$PRES8$EABIv2 0x00000000   Number         0  anon$$obj.o ABSOLUTE
    __ARM_use_no_argv                        0x00000000   Number         0  main.o ABSOLUTE
    _printf_flags                            0x00000000   Number         0  printf_stubs.o ABSOLUTE
    _printf_return_value                     0x00000000   Number         0  printf_stubs.o ABSOLUTE
    _printf_sizespec                         0x00000000   Number         0  printf_stubs.o ABSOLUTE
    _printf_widthprec                        0x00000000   Number         0  printf_stubs.o ABSOLUTE
    __ARM_exceptions_init                     - Undefined Weak Reference
    __alloca_initialize                       - Undefined Weak Reference
    __arm_preinit_                            - Undefined Weak Reference
    __cpp_initialize__aeabi_                  - Undefined Weak Reference
    __cxa_finalize                            - Undefined Weak Reference
    __sigvec_lookup                           - Undefined Weak Reference
    _atexit_init                              - Undefined Weak Reference
    _call_atexit_fns                          - Undefined Weak Reference
    _clock_init                               - Undefined Weak Reference
    _fp_trap_init                             - Undefined Weak Reference
    _fp_trap_shutdown                         - Undefined Weak Reference
    _get_lc_collate                           - Undefined Weak Reference
    _get_lc_ctype                             - Undefined Weak Reference
    _get_lc_monetary                          - Undefined Weak Reference
    _get_lc_time                              - Undefined Weak Reference
    _getenv_init                              - Undefined Weak Reference
    _handle_redirection                       - Undefined Weak Reference
    _init_alloc                               - Undefined Weak Reference
    _init_user_alloc                          - Undefined Weak Reference
    _initio                                   - Undefined Weak Reference
    _printf_mbtowc                            - Undefined Weak Reference
    _printf_post_padding                      - Undefined Weak Reference
    _printf_pre_padding                       - Undefined Weak Reference
    _printf_truncate_signed                   - Undefined Weak Reference
    _printf_truncate_unsigned                 - Undefined Weak Reference
    _rand_init                                - Undefined Weak Reference
    _signal_finish                            - Undefined Weak Reference
    _signal_init                              - Undefined Weak Reference
    _terminate_alloc                          - Undefined Weak Reference
    _terminate_user_alloc                     - Undefined Weak Reference
    _terminateio                              - Undefined Weak Reference
    __Vectors_Size                           0x000000ec   Number         0  startup_stm32f10x_md.o ABSOLUTE
    __Vectors                                0x08000000   Data           4  startup_stm32f10x_md.o(RESET)
    __Vectors_End                            0x080000ec   Data           0  startup_stm32f10x_md.o(RESET)
    __main                                   0x080000ed   Thumb Code     8  __main.o(!!!main)
    __scatterload                            0x080000f5   Thumb Code     0  __scatter.o(!!!scatter)
    __scatterload_rt2                        0x080000f5   Thumb Code    44  __scatter.o(!!!scatter)
    __scatterload_rt2_thumb_only             0x080000f5   Thumb Code     0  __scatter.o(!!!scatter)
    __scatterload_null                       0x08000103   Thumb Code     0  __scatter.o(!!!scatter)
    __scatterload_copy                       0x08000129   Thumb Code    26  __scatter_copy.o(!!handler_copy)
    __scatterload_zeroinit                   0x08000145   Thumb Code    28  __scatter_zi.o(!!handler_zi)
    _printf_f                                0x08000161   Thumb Code     0  _printf_f.o(.ARM.Collect$$_printf_percent$$00000003)
    _printf_percent                          0x08000161   Thumb Code     0  _printf_percent.o(.ARM.Collect$$_printf_percent$$00000000)
    _printf_d                                0x08000167   Thumb Code     0  _printf_d.o(.ARM.Collect$$_printf_percent$$00000009)
    _printf_s                                0x0800016d   Thumb Code     0  _printf_s.o(.ARM.Collect$$_printf_percent$$00000014)
    _printf_percent_end                      0x08000173   Thumb Code     0  _printf_percent_end.o(.ARM.Collect$$_printf_percent$$00000017)
    __rt_lib_init                            0x08000177   Thumb Code     0  libinit.o(.ARM.Collect$$libinit$$00000000)
    __rt_lib_init_fp_1                       0x08000179   Thumb Code     0  libinit2.o(.ARM.Collect$$libinit$$00000002)
    __rt_lib_init_heap_1                     0x08000179   Thumb Code     0  libinit2.o(.ARM.Collect$$libinit$$0000000A)
    __rt_lib_init_lc_common                  0x08000179   Thumb Code     0  libinit2.o(.ARM.Collect$$libinit$$0000000F)
    __rt_lib_init_preinit_1                  0x08000179   Thumb Code     0  libinit2.o(.ARM.Collect$$libinit$$00000004)
    __rt_lib_init_rand_1                     0x08000179   Thumb Code     0  libinit2.o(.ARM.Collect$$libinit$$0000000E)
    __rt_lib_init_user_alloc_1               0x08000179   Thumb Code     0  libinit2.o(.ARM.Collect$$libinit$$0000000C)
    __rt_lib_init_lc_collate_1               0x0800017f   Thumb Code     0  libinit2.o(.ARM.Collect$$libinit$$00000011)
    __rt_lib_init_lc_ctype_1                 0x0800017f   Thumb Code     0  libinit2.o(.ARM.Collect$$libinit$$00000013)
    __rt_lib_init_lc_monetary_1              0x0800017f   Thumb Code     0  libinit2.o(.ARM.Collect$$libinit$$00000015)
    __rt_lib_init_lc_numeric_2               0x0800017f   Thumb Code     0  libinit2.o(.ARM.Collect$$libinit$$00000016)
    __rt_lib_init_alloca_1                   0x08000189   Thumb Code     0  libinit2.o(.ARM.Collect$$libinit$$0000002E)
    __rt_lib_init_argv_1                     0x08000189   Thumb Code     0  libinit2.o(.ARM.Collect$$libinit$$0000002C)
    __rt_lib_init_atexit_1                   0x08000189   Thumb Code     0  libinit2.o(.ARM.Collect$$libinit$$0000001B)
    __rt_lib_init_clock_1                    0x08000189   Thumb Code     0  libinit2.o(.ARM.Collect$$libinit$$00000021)
    __rt_lib_init_cpp_1                      0x08000189   Thumb Code     0  libinit2.o(.ARM.Collect$$libinit$$00000032)
    __rt_lib_init_exceptions_1               0x08000189   Thumb Code     0  libinit2.o(.ARM.Collect$$libinit$$00000030)
    __rt_lib_init_fp_trap_1                  0x08000189   Thumb Code     0  libinit2.o(.ARM.Collect$$libinit$$0000001F)
    __rt_lib_init_getenv_1                   0x08000189   Thumb Code     0  libinit2.o(.ARM.Collect$$libinit$$00000023)
    __rt_lib_init_lc_numeric_1               0x08000189   Thumb Code     0  libinit2.o(.ARM.Collect$$libinit$$00000017)
    __rt_lib_init_lc_time_1                  0x08000189   Thumb Code     0  libinit2.o(.ARM.Collect$$libinit$$00000019)
    __rt_lib_init_return                     0x08000189   Thumb Code     0  libinit2.o(.ARM.Collect$$libinit$$00000033)
    __rt_lib_init_signal_1                   0x08000189   Thumb Code     0  libinit2.o(.ARM.Collect$$libinit$$0000001D)
    __rt_lib_init_stdio_1                    0x08000189   Thumb Code     0  libinit2.o(.ARM.Collect$$libinit$$00000025)
    __rt_lib_shutdown                        0x0800018b   Thumb Code     0  libshutdown.o(.ARM.Collect$$libshutdown$$00000000)
    __rt_lib_shutdown_cpp_1                  0x0800018d   Thumb Code     0  libshutdown2.o(.ARM.Collect$$libshutdown$$00000002)
    __rt_lib_shutdown_fp_trap_1              0x0800018d   Thumb Code     0  libshutdown2.o(.ARM.Collect$$libshutdown$$00000007)
    __rt_lib_shutdown_heap_1                 0x0800018d   Thumb Code     0  libshutdown2.o(.ARM.Collect$$libshutdown$$0000000F)
    __rt_lib_shutdown_return                 0x0800018d   Thumb Code     0  libshutdown2.o(.ARM.Collect$$libshutdown$$00000010)
    __rt_lib_shutdown_signal_1               0x0800018d   Thumb Code     0  libshutdown2.o(.ARM.Collect$$libshutdown$$0000000A)
    __rt_lib_shutdown_stdio_1                0x0800018d   Thumb Code     0  libshutdown2.o(.ARM.Collect$$libshutdown$$00000004)
    __rt_lib_shutdown_user_alloc_1           0x0800018d   Thumb Code     0  libshutdown2.o(.ARM.Collect$$libshutdown$$0000000C)
    __rt_entry                               0x0800018f   Thumb Code     0  __rtentry.o(.ARM.Collect$$rtentry$$00000000)
    __rt_entry_presh_1                       0x0800018f   Thumb Code     0  __rtentry2.o(.ARM.Collect$$rtentry$$00000002)
    __rt_entry_sh                            0x0800018f   Thumb Code     0  __rtentry4.o(.ARM.Collect$$rtentry$$00000004)
    __rt_entry_li                            0x08000195   Thumb Code     0  __rtentry2.o(.ARM.Collect$$rtentry$$0000000A)
    __rt_entry_postsh_1                      0x08000195   Thumb Code     0  __rtentry2.o(.ARM.Collect$$rtentry$$00000009)
    __rt_entry_main                          0x08000199   Thumb Code     0  __rtentry2.o(.ARM.Collect$$rtentry$$0000000D)
    __rt_entry_postli_1                      0x08000199   Thumb Code     0  __rtentry2.o(.ARM.Collect$$rtentry$$0000000C)
    __rt_exit                                0x080001a1   Thumb Code     0  rtexit.o(.ARM.Collect$$rtexit$$00000000)
    __rt_exit_ls                             0x080001a3   Thumb Code     0  rtexit2.o(.ARM.Collect$$rtexit$$00000003)
    __rt_exit_prels_1                        0x080001a3   Thumb Code     0  rtexit2.o(.ARM.Collect$$rtexit$$00000002)
    __rt_exit_exit                           0x080001a7   Thumb Code     0  rtexit2.o(.ARM.Collect$$rtexit$$00000004)
    Reset_Handler                            0x080001ad   Thumb Code     8  startup_stm32f10x_md.o(.text)
    ADC1_2_IRQHandler                        0x080001c7   Thumb Code     0  startup_stm32f10x_md.o(.text)
    CAN1_RX1_IRQHandler                      0x080001c7   Thumb Code     0  startup_stm32f10x_md.o(.text)
    CAN1_SCE_IRQHandler                      0x080001c7   Thumb Code     0  startup_stm32f10x_md.o(.text)
    DMA1_Channel1_IRQHandler                 0x080001c7   Thumb Code     0  startup_stm32f10x_md.o(.text)
    DMA1_Channel2_IRQHandler                 0x080001c7   Thumb Code     0  startup_stm32f10x_md.o(.text)
    DMA1_Channel3_IRQHandler                 0x080001c7   Thumb Code     0  startup_stm32f10x_md.o(.text)
    DMA1_Channel4_IRQHandler                 0x080001c7   Thumb Code     0  startup_stm32f10x_md.o(.text)
    DMA1_Channel5_IRQHandler                 0x080001c7   Thumb Code     0  startup_stm32f10x_md.o(.text)
    DMA1_Channel6_IRQHandler                 0x080001c7   Thumb Code     0  startup_stm32f10x_md.o(.text)
    DMA1_Channel7_IRQHandler                 0x080001c7   Thumb Code     0  startup_stm32f10x_md.o(.text)
    EXTI0_IRQHandler                         0x080001c7   Thumb Code     0  startup_stm32f10x_md.o(.text)
    EXTI15_10_IRQHandler                     0x080001c7   Thumb Code     0  startup_stm32f10x_md.o(.text)
    EXTI1_IRQHandler                         0x080001c7   Thumb Code     0  startup_stm32f10x_md.o(.text)
    EXTI2_IRQHandler                         0x080001c7   Thumb Code     0  startup_stm32f10x_md.o(.text)
    EXTI3_IRQHandler                         0x080001c7   Thumb Code     0  startup_stm32f10x_md.o(.text)
    EXTI4_IRQHandler                         0x080001c7   Thumb Code     0  startup_stm32f10x_md.o(.text)
    EXTI9_5_IRQHandler                       0x080001c7   Thumb Code     0  startup_stm32f10x_md.o(.text)
    FLASH_IRQHandler                         0x080001c7   Thumb Code     0  startup_stm32f10x_md.o(.text)
    I2C1_ER_IRQHandler                       0x080001c7   Thumb Code     0  startup_stm32f10x_md.o(.text)
    I2C1_EV_IRQHandler                       0x080001c7   Thumb Code     0  startup_stm32f10x_md.o(.text)
    I2C2_ER_IRQHandler                       0x080001c7   Thumb Code     0  startup_stm32f10x_md.o(.text)
    I2C2_EV_IRQHandler                       0x080001c7   Thumb Code     0  startup_stm32f10x_md.o(.text)
    PVD_IRQHandler                           0x080001c7   Thumb Code     0  startup_stm32f10x_md.o(.text)
    RCC_IRQHandler                           0x080001c7   Thumb Code     0  startup_stm32f10x_md.o(.text)
    RTCAlarm_IRQHandler                      0x080001c7   Thumb Code     0  startup_stm32f10x_md.o(.text)
    RTC_IRQHandler                           0x080001c7   Thumb Code     0  startup_stm32f10x_md.o(.text)
    SPI1_IRQHandler                          0x080001c7   Thumb Code     0  startup_stm32f10x_md.o(.text)
    SPI2_IRQHandler                          0x080001c7   Thumb Code     0  startup_stm32f10x_md.o(.text)
    TAMPER_IRQHandler                        0x080001c7   Thumb Code     0  startup_stm32f10x_md.o(.text)
    TIM1_BRK_IRQHandler                      0x080001c7   Thumb Code     0  startup_stm32f10x_md.o(.text)
    TIM1_CC_IRQHandler                       0x080001c7   Thumb Code     0  startup_stm32f10x_md.o(.text)
    TIM1_TRG_COM_IRQHandler                  0x080001c7   Thumb Code     0  startup_stm32f10x_md.o(.text)
    TIM1_UP_IRQHandler                       0x080001c7   Thumb Code     0  startup_stm32f10x_md.o(.text)
    TIM2_IRQHandler                          0x080001c7   Thumb Code     0  startup_stm32f10x_md.o(.text)
    TIM3_IRQHandler                          0x080001c7   Thumb Code     0  startup_stm32f10x_md.o(.text)
    TIM4_IRQHandler                          0x080001c7   Thumb Code     0  startup_stm32f10x_md.o(.text)
    USART1_IRQHandler                        0x080001c7   Thumb Code     0  startup_stm32f10x_md.o(.text)
    USART3_IRQHandler                        0x080001c7   Thumb Code     0  startup_stm32f10x_md.o(.text)
    USBWakeUp_IRQHandler                     0x080001c7   Thumb Code     0  startup_stm32f10x_md.o(.text)
    USB_HP_CAN1_TX_IRQHandler                0x080001c7   Thumb Code     0  startup_stm32f10x_md.o(.text)
    USB_LP_CAN1_RX0_IRQHandler               0x080001c7   Thumb Code     0  startup_stm32f10x_md.o(.text)
    WWDG_IRQHandler                          0x080001c7   Thumb Code     0  startup_stm32f10x_md.o(.text)
    __user_initial_stackheap                 0x080001c9   Thumb Code     0  startup_stm32f10x_md.o(.text)
    SystemInit                               0x080002cb   Thumb Code    78  system_stm32f10x.o(.text)
    SystemCoreClockUpdate                    0x08000319   Thumb Code   142  system_stm32f10x.o(.text)
    GPIO_DeInit                              0x080003cd   Thumb Code   172  stm32f10x_gpio.o(.text)
    GPIO_AFIODeInit                          0x08000479   Thumb Code    20  stm32f10x_gpio.o(.text)
    GPIO_Init                                0x0800048d   Thumb Code   278  stm32f10x_gpio.o(.text)
    GPIO_StructInit                          0x080005a3   Thumb Code    16  stm32f10x_gpio.o(.text)
    GPIO_ReadInputDataBit                    0x080005b3   Thumb Code    18  stm32f10x_gpio.o(.text)
    GPIO_ReadInputData                       0x080005c5   Thumb Code     8  stm32f10x_gpio.o(.text)
    GPIO_ReadOutputDataBit                   0x080005cd   Thumb Code    18  stm32f10x_gpio.o(.text)
    GPIO_ReadOutputData                      0x080005df   Thumb Code     8  stm32f10x_gpio.o(.text)
    GPIO_SetBits                             0x080005e7   Thumb Code     4  stm32f10x_gpio.o(.text)
    GPIO_ResetBits                           0x080005eb   Thumb Code     4  stm32f10x_gpio.o(.text)
    GPIO_WriteBit                            0x080005ef   Thumb Code    10  stm32f10x_gpio.o(.text)
    GPIO_Write                               0x080005f9   Thumb Code     4  stm32f10x_gpio.o(.text)
    GPIO_PinLockConfig                       0x080005fd   Thumb Code    18  stm32f10x_gpio.o(.text)
    GPIO_EventOutputConfig                   0x0800060f   Thumb Code    26  stm32f10x_gpio.o(.text)
    GPIO_EventOutputCmd                      0x08000629   Thumb Code     6  stm32f10x_gpio.o(.text)
    GPIO_PinRemapConfig                      0x0800062f   Thumb Code   138  stm32f10x_gpio.o(.text)
    GPIO_EXTILineConfig                      0x080006b9   Thumb Code    66  stm32f10x_gpio.o(.text)
    GPIO_ETH_MediaInterfaceConfig            0x080006fb   Thumb Code     8  stm32f10x_gpio.o(.text)
    RCC_DeInit                               0x08000729   Thumb Code    64  stm32f10x_rcc.o(.text)
    RCC_HSEConfig                            0x08000769   Thumb Code    70  stm32f10x_rcc.o(.text)
    RCC_GetFlagStatus                        0x080007af   Thumb Code    56  stm32f10x_rcc.o(.text)
    RCC_WaitForHSEStartUp                    0x080007e7   Thumb Code    56  stm32f10x_rcc.o(.text)
    RCC_AdjustHSICalibrationValue            0x0800081f   Thumb Code    20  stm32f10x_rcc.o(.text)
    RCC_HSICmd                               0x08000833   Thumb Code     6  stm32f10x_rcc.o(.text)
    RCC_PLLConfig                            0x08000839   Thumb Code    24  stm32f10x_rcc.o(.text)
    RCC_PLLCmd                               0x08000851   Thumb Code     6  stm32f10x_rcc.o(.text)
    RCC_SYSCLKConfig                         0x08000857   Thumb Code    18  stm32f10x_rcc.o(.text)
    RCC_GetSYSCLKSource                      0x08000869   Thumb Code    10  stm32f10x_rcc.o(.text)
    RCC_HCLKConfig                           0x08000873   Thumb Code    18  stm32f10x_rcc.o(.text)
    RCC_PCLK1Config                          0x08000885   Thumb Code    18  stm32f10x_rcc.o(.text)
    RCC_PCLK2Config                          0x08000897   Thumb Code    20  stm32f10x_rcc.o(.text)
    RCC_ITConfig                             0x080008ab   Thumb Code    26  stm32f10x_rcc.o(.text)
    RCC_USBCLKConfig                         0x080008c5   Thumb Code     8  stm32f10x_rcc.o(.text)
    RCC_ADCCLKConfig                         0x080008cd   Thumb Code    18  stm32f10x_rcc.o(.text)
    RCC_LSEConfig                            0x080008df   Thumb Code    50  stm32f10x_rcc.o(.text)
    RCC_LSICmd                               0x08000911   Thumb Code     6  stm32f10x_rcc.o(.text)
    RCC_RTCCLKConfig                         0x08000917   Thumb Code    12  stm32f10x_rcc.o(.text)
    RCC_RTCCLKCmd                            0x08000923   Thumb Code     8  stm32f10x_rcc.o(.text)
    RCC_GetClocksFreq                        0x0800092b   Thumb Code   192  stm32f10x_rcc.o(.text)
    RCC_AHBPeriphClockCmd                    0x080009eb   Thumb Code    26  stm32f10x_rcc.o(.text)
    RCC_APB2PeriphClockCmd                   0x08000a05   Thumb Code    26  stm32f10x_rcc.o(.text)
    RCC_APB1PeriphClockCmd                   0x08000a1f   Thumb Code    26  stm32f10x_rcc.o(.text)
    RCC_APB2PeriphResetCmd                   0x08000a39   Thumb Code    26  stm32f10x_rcc.o(.text)
    RCC_APB1PeriphResetCmd                   0x08000a53   Thumb Code    26  stm32f10x_rcc.o(.text)
    RCC_BackupResetCmd                       0x08000a6d   Thumb Code     8  stm32f10x_rcc.o(.text)
    RCC_ClockSecuritySystemCmd               0x08000a75   Thumb Code     6  stm32f10x_rcc.o(.text)
    RCC_MCOConfig                            0x08000a7b   Thumb Code     6  stm32f10x_rcc.o(.text)
    RCC_ClearFlag                            0x08000a81   Thumb Code    14  stm32f10x_rcc.o(.text)
    RCC_GetITStatus                          0x08000a8f   Thumb Code    20  stm32f10x_rcc.o(.text)
    RCC_ClearITPendingBit                    0x08000aa3   Thumb Code     6  stm32f10x_rcc.o(.text)
    ADC_DeInit                               0x08000acd   Thumb Code    78  stm32f10x_adc.o(.text)
    ADC_Init                                 0x08000b1b   Thumb Code    70  stm32f10x_adc.o(.text)
    ADC_StructInit                           0x08000b61   Thumb Code    18  stm32f10x_adc.o(.text)
    ADC_Cmd                                  0x08000b73   Thumb Code    22  stm32f10x_adc.o(.text)
    ADC_DMACmd                               0x08000b89   Thumb Code    22  stm32f10x_adc.o(.text)
    ADC_ITConfig                             0x08000b9f   Thumb Code    24  stm32f10x_adc.o(.text)
    ADC_ResetCalibration                     0x08000bb7   Thumb Code    10  stm32f10x_adc.o(.text)
    ADC_GetResetCalibrationStatus            0x08000bc1   Thumb Code    20  stm32f10x_adc.o(.text)
    ADC_StartCalibration                     0x08000bd5   Thumb Code    10  stm32f10x_adc.o(.text)
    ADC_GetCalibrationStatus                 0x08000bdf   Thumb Code    20  stm32f10x_adc.o(.text)
    ADC_SoftwareStartConvCmd                 0x08000bf3   Thumb Code    22  stm32f10x_adc.o(.text)
    ADC_GetSoftwareStartConvStatus           0x08000c09   Thumb Code    20  stm32f10x_adc.o(.text)
    ADC_DiscModeChannelCountConfig           0x08000c1d   Thumb Code    24  stm32f10x_adc.o(.text)
    ADC_DiscModeCmd                          0x08000c35   Thumb Code    22  stm32f10x_adc.o(.text)
    ADC_RegularChannelConfig                 0x08000c4b   Thumb Code   184  stm32f10x_adc.o(.text)
    ADC_ExternalTrigConvCmd                  0x08000d03   Thumb Code    22  stm32f10x_adc.o(.text)
    ADC_GetConversionValue                   0x08000d19   Thumb Code     8  stm32f10x_adc.o(.text)
    ADC_GetDualModeConversionValue           0x08000d21   Thumb Code     8  stm32f10x_adc.o(.text)
    ADC_AutoInjectedConvCmd                  0x08000d29   Thumb Code    22  stm32f10x_adc.o(.text)
    ADC_InjectedDiscModeCmd                  0x08000d3f   Thumb Code    22  stm32f10x_adc.o(.text)
    ADC_ExternalTrigInjectedConvConfig       0x08000d55   Thumb Code    16  stm32f10x_adc.o(.text)
    ADC_ExternalTrigInjectedConvCmd          0x08000d65   Thumb Code    22  stm32f10x_adc.o(.text)
    ADC_SoftwareStartInjectedConvCmd         0x08000d7b   Thumb Code    22  stm32f10x_adc.o(.text)
    ADC_GetSoftwareStartInjectedConvCmdStatus 0x08000d91   Thumb Code    20  stm32f10x_adc.o(.text)
    ADC_InjectedChannelConfig                0x08000da5   Thumb Code   130  stm32f10x_adc.o(.text)
    ADC_InjectedSequencerLengthConfig        0x08000e27   Thumb Code    24  stm32f10x_adc.o(.text)
    ADC_SetInjectedOffset                    0x08000e3f   Thumb Code    20  stm32f10x_adc.o(.text)
    ADC_GetInjectedConversionValue           0x08000e53   Thumb Code    28  stm32f10x_adc.o(.text)
    ADC_AnalogWatchdogCmd                    0x08000e6f   Thumb Code    16  stm32f10x_adc.o(.text)
    ADC_AnalogWatchdogThresholdsConfig       0x08000e7f   Thumb Code     6  stm32f10x_adc.o(.text)
    ADC_AnalogWatchdogSingleChannelConfig    0x08000e85   Thumb Code    16  stm32f10x_adc.o(.text)
    ADC_TempSensorVrefintCmd                 0x08000e95   Thumb Code    64  stm32f10x_adc.o(.text)
    ADC_GetFlagStatus                        0x08000ed5   Thumb Code    18  stm32f10x_adc.o(.text)
    ADC_ClearFlag                            0x08000ee7   Thumb Code     6  stm32f10x_adc.o(.text)
    ADC_GetITStatus                          0x08000eed   Thumb Code    36  stm32f10x_adc.o(.text)
    ADC_ClearITPendingBit                    0x08000f11   Thumb Code    10  stm32f10x_adc.o(.text)
    USART_DeInit                             0x08000f1d   Thumb Code   134  stm32f10x_usart.o(.text)
    USART_Init                               0x08000fa3   Thumb Code   210  stm32f10x_usart.o(.text)
    USART_StructInit                         0x08001075   Thumb Code    24  stm32f10x_usart.o(.text)
    USART_ClockInit                          0x0800108d   Thumb Code    34  stm32f10x_usart.o(.text)
    USART_ClockStructInit                    0x080010af   Thumb Code    12  stm32f10x_usart.o(.text)
    USART_Cmd                                0x080010bb   Thumb Code    24  stm32f10x_usart.o(.text)
    USART_ITConfig                           0x080010d3   Thumb Code    74  stm32f10x_usart.o(.text)
    USART_DMACmd                             0x0800111d   Thumb Code    18  stm32f10x_usart.o(.text)
    USART_SetAddress                         0x0800112f   Thumb Code    18  stm32f10x_usart.o(.text)
    USART_WakeUpConfig                       0x08001141   Thumb Code    18  stm32f10x_usart.o(.text)
    USART_ReceiverWakeUpCmd                  0x08001153   Thumb Code    24  stm32f10x_usart.o(.text)
    USART_LINBreakDetectLengthConfig         0x0800116b   Thumb Code    18  stm32f10x_usart.o(.text)
    USART_LINCmd                             0x0800117d   Thumb Code    24  stm32f10x_usart.o(.text)
    USART_SendData                           0x08001195   Thumb Code     8  stm32f10x_usart.o(.text)
    USART_ReceiveData                        0x0800119d   Thumb Code    10  stm32f10x_usart.o(.text)
    USART_SendBreak                          0x080011a7   Thumb Code    10  stm32f10x_usart.o(.text)
    USART_SetGuardTime                       0x080011b1   Thumb Code    16  stm32f10x_usart.o(.text)
    USART_SetPrescaler                       0x080011c1   Thumb Code    16  stm32f10x_usart.o(.text)
    USART_SmartCardCmd                       0x080011d1   Thumb Code    24  stm32f10x_usart.o(.text)
    USART_SmartCardNACKCmd                   0x080011e9   Thumb Code    24  stm32f10x_usart.o(.text)
    USART_HalfDuplexCmd                      0x08001201   Thumb Code    24  stm32f10x_usart.o(.text)
    USART_OverSampling8Cmd                   0x08001219   Thumb Code    22  stm32f10x_usart.o(.text)
    USART_OneBitMethodCmd                    0x0800122f   Thumb Code    24  stm32f10x_usart.o(.text)
    USART_IrDAConfig                         0x08001247   Thumb Code    18  stm32f10x_usart.o(.text)
    USART_IrDACmd                            0x08001259   Thumb Code    24  stm32f10x_usart.o(.text)
    USART_GetFlagStatus                      0x08001271   Thumb Code    26  stm32f10x_usart.o(.text)
    USART_ClearFlag                          0x0800128b   Thumb Code    18  stm32f10x_usart.o(.text)
    USART_GetITStatus                        0x0800129d   Thumb Code    84  stm32f10x_usart.o(.text)
    USART_ClearITPendingBit                  0x080012f1   Thumb Code    52  stm32f10x_usart.o(.text)
    NVIC_PriorityGroupConfig                 0x08001325   Thumb Code    10  misc.o(.text)
    NVIC_Init                                0x0800132f   Thumb Code   100  misc.o(.text)
    NVIC_SetVectorTable                      0x08001393   Thumb Code    14  misc.o(.text)
    NVIC_SystemLPConfig                      0x080013a1   Thumb Code    34  misc.o(.text)
    SysTick_CLKSourceConfig                  0x080013c3   Thumb Code    40  misc.o(.text)
    Delay_LCD                                0x08001401   Thumb Code    30  lcd_1.o(.text)
    LCD_WriteReg                             0x0800141f   Thumb Code    68  lcd_1.o(.text)
    REG_8230_Init                            0x08001463   Thumb Code   288  lcd_1.o(.text)
    REG_932X_Init                            0x08001583   Thumb Code   514  lcd_1.o(.text)
    LCD_BusOut                               0x08001785   Thumb Code    32  lcd_1.o(.text)
    LCD_BusIn                                0x080017a5   Thumb Code    32  lcd_1.o(.text)
    LCD_ReadReg                              0x080017c5   Thumb Code    92  lcd_1.o(.text)
    LCD_CtrlLinesConfig                      0x08001821   Thumb Code    68  lcd_1.o(.text)
    STM3210B_LCD_Init                        0x08001865   Thumb Code    50  lcd_1.o(.text)
    LCD_SetTextColor                         0x08001897   Thumb Code    12  lcd_1.o(.text)
    LCD_SetBackColor                         0x080018a3   Thumb Code    12  lcd_1.o(.text)
    LCD_SetCursor                            0x080018af   Thumb Code    24  lcd_1.o(.text)
    LCD_WriteRAM                             0x080018c7   Thumb Code    54  lcd_1.o(.text)
    LCD_WriteRAM_Prepare                     0x080018fd   Thumb Code    58  lcd_1.o(.text)
    LCD_DrawChar                             0x08001937   Thumb Code   100  lcd_1.o(.text)
    LCD_DisplayChar                          0x0800199b   Thumb Code    34  lcd_1.o(.text)
    LCD_DisplayStringLine                    0x080019bd   Thumb Code    44  lcd_1.o(.text)
    LCD_ClearLine                            0x080019e9   Thumb Code    14  lcd_1.o(.text)
    LCD_Clear                                0x080019f7   Thumb Code    38  lcd_1.o(.text)
    LCD_SetDisplayWindow                     0x08001a1d   Thumb Code    88  lcd_1.o(.text)
    LCD_WindowModeDisable                    0x08001a75   Thumb Code    28  lcd_1.o(.text)
    LCD_DrawLine                             0x08001a91   Thumb Code    86  lcd_1.o(.text)
    LCD_DrawRect                             0x08001ae7   Thumb Code    66  lcd_1.o(.text)
    LCD_DrawCircle                           0x08001b29   Thumb Code   300  lcd_1.o(.text)
    LCD_DrawMonoPict                         0x08001c55   Thumb Code    76  lcd_1.o(.text)
    LCD_WriteBMP                             0x08001ca1   Thumb Code    74  lcd_1.o(.text)
    LCD_ReadRAM                              0x08001ceb   Thumb Code    82  lcd_1.o(.text)
    LCD_PowerOn                              0x08001d3d   Thumb Code   118  lcd_1.o(.text)
    LCD_DisplayOn                            0x08001db3   Thumb Code    14  lcd_1.o(.text)
    LCD_DisplayOff                           0x08001dc1   Thumb Code    12  lcd_1.o(.text)
    LCD_DrawPicture                          0x08001dcd   Thumb Code    48  lcd_1.o(.text)
    Send_Data                                0x08001e0d   Thumb Code   114  main.o(.text)
    Write_Data                               0x08001e7f   Thumb Code    46  main.o(.text)
    Receive_Data                             0x08001ead   Thumb Code   112  main.o(.text)
    Usart_Control                            0x08001f1d   Thumb Code    12  main.o(.text)
    Current_Time_Rule                        0x08001f29   Thumb Code    64  main.o(.text)
    Set_Time_Rule                            0x08001f69   Thumb Code    44  main.o(.text)
    Time_Logic                               0x08001f95   Thumb Code    12  main.o(.text)
    Alarm_Control                            0x08001fa1   Thumb Code    74  main.o(.text)
    Setting_Gui                              0x08001feb   Thumb Code    42  main.o(.text)
    Default_Gui                              0x08002015   Thumb Code   120  main.o(.text)
    Choose_Gui                               0x0800208d   Thumb Code    24  main.o(.text)
    Change_Time                              0x080020a5   Thumb Code    74  main.o(.text)
    Change_Time_Flag                         0x080020ef   Thumb Code    36  main.o(.text)
    Key_Control                              0x08002113   Thumb Code    86  main.o(.text)
    Read_Data                                0x08002169   Thumb Code    60  main.o(.text)
    Delay_Ms                                 0x080021a5   Thumb Code    16  main.o(.text)
    main                                     0x080021b5   Thumb Code   466  main.o(.text)
    NMI_Handler                              0x080023a5   Thumb Code     2  stm32f10x_it.o(.text)
    HardFault_Handler                        0x080023a7   Thumb Code     4  stm32f10x_it.o(.text)
    MemManage_Handler                        0x080023ab   Thumb Code     4  stm32f10x_it.o(.text)
    BusFault_Handler                         0x080023af   Thumb Code     4  stm32f10x_it.o(.text)
    UsageFault_Handler                       0x080023b3   Thumb Code     4  stm32f10x_it.o(.text)
    DebugMon_Handler                         0x080023b7   Thumb Code     2  stm32f10x_it.o(.text)
    SVC_Handler                              0x080023b9   Thumb Code     2  stm32f10x_it.o(.text)
    PendSV_Handler                           0x080023bb   Thumb Code     2  stm32f10x_it.o(.text)
    SysTick_Handler                          0x080023bd   Thumb Code    88  stm32f10x_it.o(.text)
    SDA_Input_Mode                           0x08002429   Thumb Code    30  iic.o(.text)
    SDA_Output_Mode                          0x08002447   Thumb Code    30  iic.o(.text)
    SDA_Output                               0x08002465   Thumb Code    26  iic.o(.text)
    SCL_Output                               0x0800247f   Thumb Code    26  iic.o(.text)
    SDA_Input                                0x08002499   Thumb Code    12  iic.o(.text)
    delay1                                   0x080024a5   Thumb Code    12  iic.o(.text)
    I2CStart                                 0x080024b1   Thumb Code    60  iic.o(.text)
    I2CStop                                  0x080024ed   Thumb Code    60  iic.o(.text)
    I2CWaitAck                               0x08002529   Thumb Code    88  iic.o(.text)
    I2CSendAck                               0x08002581   Thumb Code    54  iic.o(.text)
    I2CSendNotAck                            0x080025b7   Thumb Code    46  iic.o(.text)
    I2CSendByte                              0x080025e5   Thumb Code    88  iic.o(.text)
    I2CReceiveByte                           0x0800263d   Thumb Code    88  iic.o(.text)
    i2c_init                                 0x08002695   Thumb Code    38  iic.o(.text)
    LED_Init                                 0x080026c1   Thumb Code    62  led.o(.text)
    LED_Control                              0x080026ff   Thumb Code    60  led.o(.text)
    Delay_Ms1                                0x08002745   Thumb Code    16  key.o(.text)
    KEY_Init                                 0x08002755   Thumb Code    62  key.o(.text)
    KEY_Scan                                 0x08002793   Thumb Code    82  key.o(.text)
    ADC_Config                               0x080027f1   Thumb Code   136  adc.o(.text)
    Get_Adc                                  0x08002879   Thumb Code    58  adc.o(.text)
    USART_Config                             0x080028c5   Thumb Code   116  usart.o(.text)
    USART_SendString                         0x08002939   Thumb Code    44  usart.o(.text)
    NVIC_Configuration                       0x08002965   Thumb Code    42  usart.o(.text)
    USART2_IRQHandler                        0x0800298f   Thumb Code    82  usart.o(.text)
    __2sprintf                               0x080029f5   Thumb Code    34  noretval__2sprintf.o(.text)
    _printf_str                              0x08002a1d   Thumb Code    82  _printf_str.o(.text)
    _printf_int_dec                          0x08002a71   Thumb Code   104  _printf_dec.o(.text)
    __printf                                 0x08002ae9   Thumb Code   308  __printf_flags_wp.o(.text)
    __use_two_region_memory                  0x08002c21   Thumb Code     2  heapauxi.o(.text)
    __rt_heap_escrow$2region                 0x08002c23   Thumb Code     2  heapauxi.o(.text)
    __rt_heap_expand$2region                 0x08002c25   Thumb Code     2  heapauxi.o(.text)
    _printf_int_common                       0x08002c27   Thumb Code   178  _printf_intcommon.o(.text)
    __lib_sel_fp_printf                      0x08002cd9   Thumb Code     2  _printf_fp_dec.o(.text)
    _printf_fp_dec_real                      0x08002e87   Thumb Code   620  _printf_fp_dec.o(.text)
    _printf_char_common                      0x080030ff   Thumb Code    32  _printf_char_common.o(.text)
    _sputc                                   0x08003125   Thumb Code    10  _sputc.o(.text)
    _printf_cs_common                        0x0800312f   Thumb Code    20  _printf_char.o(.text)
    _printf_char                             0x08003143   Thumb Code    16  _printf_char.o(.text)
    _printf_string                           0x08003153   Thumb Code     8  _printf_char.o(.text)
    __rt_locale                              0x0800315d   Thumb Code     8  rt_locale_intlibspace.o(.text)
    _ll_udiv10                               0x08003165   Thumb Code   138  lludiv10.o(.text)
    _printf_fp_infnan                        0x080031f1   Thumb Code   112  _printf_fp_infnan.o(.text)
    _btod_etento                             0x08003271   Thumb Code   216  bigflt0.o(.text)
    __user_libspace                          0x0800334d   Thumb Code     8  libspace.o(.text)
    __user_perproc_libspace                  0x0800334d   Thumb Code     0  libspace.o(.text)
    __user_perthread_libspace                0x0800334d   Thumb Code     0  libspace.o(.text)
    __user_setup_stackheap                   0x08003355   Thumb Code    74  sys_stackheap_outer.o(.text)
    exit                                     0x0800339f   Thumb Code    18  exit.o(.text)
    strcmp                                   0x080033b1   Thumb Code   128  strcmpv7m.o(.text)
    _sys_exit                                0x08003431   Thumb Code     8  sys_exit.o(.text)
    __I$use$semihosting                      0x0800343d   Thumb Code     0  use_no_semi.o(.text)
    __use_no_semihosting_swi                 0x0800343d   Thumb Code     2  use_no_semi.o(.text)
    __semihosting_library_function           0x0800343f   Thumb Code     0  indicate_semi.o(.text)
    _btod_d2e                                0x0800343f   Thumb Code    62  btod.o(CL$$btod_d2e)
    _d2e_denorm_low                          0x0800347d   Thumb Code    70  btod.o(CL$$btod_d2e_denorm_low)
    _d2e_norm_op1                            0x080034c3   Thumb Code    96  btod.o(CL$$btod_d2e_norm_op1)
    __btod_div_common                        0x08003523   Thumb Code   696  btod.o(CL$$btod_div_common)
    _e2e                                     0x0800385b   Thumb Code   198  btod.o(CL$$btod_e2e)
    _btod_ediv                               0x08003921   Thumb Code    40  btod.o(CL$$btod_ediv)
    _btod_emul                               0x08003949   Thumb Code    40  btod.o(CL$$btod_emul)
    __btod_mult_common                       0x08003971   Thumb Code   580  btod.o(CL$$btod_mult_common)
    __ARM_fpclassify                         0x08003bb5   Thumb Code    40  fpclassify.o(i.__ARM_fpclassify)
    _is_digit                                0x08003bdd   Thumb Code    14  __printf_wp.o(i._is_digit)
    _get_lc_numeric                          0x08003bed   Thumb Code    44  lc_numeric_c.o(locale$$code)
    __aeabi_d2f                              0x08003c19   Thumb Code     0  d2f.o(x$fpl$d2f)
    _d2f                                     0x08003c19   Thumb Code    98  d2f.o(x$fpl$d2f)
    __aeabi_ddiv                             0x08003c7d   Thumb Code     0  ddiv.o(x$fpl$ddiv)
    _ddiv                                    0x08003c7d   Thumb Code   552  ddiv.o(x$fpl$ddiv)
    __aeabi_i2d                              0x08003f2d   Thumb Code     0  dflt_clz.o(x$fpl$dflt)
    _dflt                                    0x08003f2d   Thumb Code    46  dflt_clz.o(x$fpl$dflt)
    __aeabi_ui2d                             0x08003f5b   Thumb Code     0  dflt_clz.o(x$fpl$dfltu)
    _dfltu                                   0x08003f5b   Thumb Code    38  dflt_clz.o(x$fpl$dfltu)
    __aeabi_dmul                             0x08003f81   Thumb Code     0  dmul.o(x$fpl$dmul)
    _dmul                                    0x08003f81   Thumb Code   332  dmul.o(x$fpl$dmul)
    __fpl_dnaninf                            0x080040d5   Thumb Code   156  dnaninf.o(x$fpl$dnaninf)
    __fpl_dretinf                            0x08004171   Thumb Code    12  dretinf.o(x$fpl$dretinf)
    __aeabi_f2d                              0x0800417d   Thumb Code     0  f2d.o(x$fpl$f2d)
    _f2d                                     0x0800417d   Thumb Code    86  f2d.o(x$fpl$f2d)
    __fpl_fcmp_Inf                           0x080041d3   Thumb Code    24  fcmpi.o(x$fpl$fcmpinf)
    __aeabi_cfcmple                          0x080041ed   Thumb Code     0  fleqf.o(x$fpl$fleqf)
    _fcmple                                  0x080041ed   Thumb Code   104  fleqf.o(x$fpl$fleqf)
    __fpl_fcmple_InfNaN                      0x0800423f   Thumb Code     0  fleqf.o(x$fpl$fleqf)
    __aeabi_fmul                             0x08004255   Thumb Code     0  fmul.o(x$fpl$fmul)
    _fmul                                    0x08004255   Thumb Code   258  fmul.o(x$fpl$fmul)
    __fpl_fnaninf                            0x08004357   Thumb Code   140  fnaninf.o(x$fpl$fnaninf)
    __fpl_fretinf                            0x080043e3   Thumb Code    10  fretinf.o(x$fpl$fretinf)
    _printf_fp_dec                           0x080043ed   Thumb Code     4  printf1.o(x$fpl$printf1)
    ASCII_Table                              0x080043f0   Data        4560  lcd_1.o(.constdata)
    __I$use$fp                               0x080043f0   Number         0  usenofp.o(x$fpl$usenofp)
    Region$$Table$$Base                      0x08005670   Number         0  anon$$obj.o(Region$$Table)
    Region$$Table$$Limit                     0x08005690   Number         0  anon$$obj.o(Region$$Table)
    SystemCoreClock                          0x20000000   Data           4  system_stm32f10x.o(.data)
    AHBPrescTable                            0x20000004   Data          16  system_stm32f10x.o(.data)
    dummy                                    0x2000002c   Data           2  lcd_1.o(.data)
    TimingDelay                              0x20000030   Data           4  main.o(.data)
    vol                                      0x20000034   Data           4  main.o(.data)
    vdd                                      0x20000038   Data           4  main.o(.data)
    k                                        0x2000003c   Data           4  main.o(.data)
    led_status                               0x20000040   Data           8  main.o(.data)
    led_flag                                 0x20000048   Data           4  main.o(.data)
    led_1_flag                               0x2000004c   Data           4  main.o(.data)
    choose_flag                              0x20000050   Data           4  main.o(.data)
    change_time_flag                         0x20000054   Data           4  main.o(.data)
    led_time_it_delay                        0x20000058   Data           4  main.o(.data)
    second_time_it_delay                     0x2000005c   Data           4  main.o(.data)
    hour                                     0x20000060   Data           4  main.o(.data)
    minute                                   0x20000064   Data           4  main.o(.data)
    second                                   0x20000068   Data           4  main.o(.data)
    set_hour                                 0x2000006c   Data           4  main.o(.data)
    set_minute                               0x20000070   Data           4  main.o(.data)
    set_second                               0x20000074   Data           4  main.o(.data)
    address                                  0x20000078   Data           1  main.o(.data)
    RXOVER                                   0x20000079   Data           1  usart.o(.data)
    RXCUNT                                   0x2000007a   Data           1  usart.o(.data)
    disp                                     0x2000007c   Data          20  main.o(.bss)
    USART_RXBUF                              0x20000090   Data          28  usart.o(.bss)
    __libspace_start                         0x200000ac   Data          96  libspace.o(.bss)
    __temporary_stack_top$libspace           0x2000010c   Data           0  libspace.o(.bss)



==============================================================================

Memory Map of the image

  Image Entry point : 0x080000ed

  Load Region LR_IROM1 (Base: 0x08000000, Size: 0x00005728, Max: 0x00020000, ABSOLUTE)

    Execution Region ER_IROM1 (Base: 0x08000000, Size: 0x000056ac, Max: 0x00020000, ABSOLUTE)

    Base Addr    Size         Type   Attr      Idx    E Section Name        Object

    0x08000000   0x000000ec   Data   RO            3    RESET               startup_stm32f10x_md.o
    0x080000ec   0x00000008   Code   RO          602  * !!!main             c_w.l(__main.o)
    0x080000f4   0x00000034   Code   RO          848    !!!scatter          c_w.l(__scatter.o)
    0x08000128   0x0000001a   Code   RO          850    !!handler_copy      c_w.l(__scatter_copy.o)
    0x08000142   0x00000002   PAD
    0x08000144   0x0000001c   Code   RO          852    !!handler_zi        c_w.l(__scatter_zi.o)
    0x08000160   0x00000000   Code   RO          599    .ARM.Collect$$_printf_percent$$00000000  c_w.l(_printf_percent.o)
    0x08000160   0x00000006   Code   RO          598    .ARM.Collect$$_printf_percent$$00000003  c_w.l(_printf_f.o)
    0x08000166   0x00000006   Code   RO          597    .ARM.Collect$$_printf_percent$$00000009  c_w.l(_printf_d.o)
    0x0800016c   0x00000006   Code   RO          596    .ARM.Collect$$_printf_percent$$00000014  c_w.l(_printf_s.o)
    0x08000172   0x00000004   Code   RO          637    .ARM.Collect$$_printf_percent$$00000017  c_w.l(_printf_percent_end.o)
    0x08000176   0x00000002   Code   RO          721    .ARM.Collect$$libinit$$00000000  c_w.l(libinit.o)
    0x08000178   0x00000000   Code   RO          723    .ARM.Collect$$libinit$$00000002  c_w.l(libinit2.o)
    0x08000178   0x00000000   Code   RO          725    .ARM.Collect$$libinit$$00000004  c_w.l(libinit2.o)
    0x08000178   0x00000000   Code   RO          728    .ARM.Collect$$libinit$$0000000A  c_w.l(libinit2.o)
    0x08000178   0x00000000   Code   RO          730    .ARM.Collect$$libinit$$0000000C  c_w.l(libinit2.o)
    0x08000178   0x00000000   Code   RO          732    .ARM.Collect$$libinit$$0000000E  c_w.l(libinit2.o)
    0x08000178   0x00000006   Code   RO          733    .ARM.Collect$$libinit$$0000000F  c_w.l(libinit2.o)
    0x0800017e   0x00000000   Code   RO          735    .ARM.Collect$$libinit$$00000011  c_w.l(libinit2.o)
    0x0800017e   0x00000000   Code   RO          737    .ARM.Collect$$libinit$$00000013  c_w.l(libinit2.o)
    0x0800017e   0x00000000   Code   RO          739    .ARM.Collect$$libinit$$00000015  c_w.l(libinit2.o)
    0x0800017e   0x0000000a   Code   RO          740    .ARM.Collect$$libinit$$00000016  c_w.l(libinit2.o)
    0x08000188   0x00000000   Code   RO          741    .ARM.Collect$$libinit$$00000017  c_w.l(libinit2.o)
    0x08000188   0x00000000   Code   RO          743    .ARM.Collect$$libinit$$00000019  c_w.l(libinit2.o)
    0x08000188   0x00000000   Code   RO          745    .ARM.Collect$$libinit$$0000001B  c_w.l(libinit2.o)
    0x08000188   0x00000000   Code   RO          747    .ARM.Collect$$libinit$$0000001D  c_w.l(libinit2.o)
    0x08000188   0x00000000   Code   RO          749    .ARM.Collect$$libinit$$0000001F  c_w.l(libinit2.o)
    0x08000188   0x00000000   Code   RO          751    .ARM.Collect$$libinit$$00000021  c_w.l(libinit2.o)
    0x08000188   0x00000000   Code   RO          753    .ARM.Collect$$libinit$$00000023  c_w.l(libinit2.o)
    0x08000188   0x00000000   Code   RO          755    .ARM.Collect$$libinit$$00000025  c_w.l(libinit2.o)
    0x08000188   0x00000000   Code   RO          759    .ARM.Collect$$libinit$$0000002C  c_w.l(libinit2.o)
    0x08000188   0x00000000   Code   RO          761    .ARM.Collect$$libinit$$0000002E  c_w.l(libinit2.o)
    0x08000188   0x00000000   Code   RO          763    .ARM.Collect$$libinit$$00000030  c_w.l(libinit2.o)
    0x08000188   0x00000000   Code   RO          765    .ARM.Collect$$libinit$$00000032  c_w.l(libinit2.o)
    0x08000188   0x00000002   Code   RO          766    .ARM.Collect$$libinit$$00000033  c_w.l(libinit2.o)
    0x0800018a   0x00000002   Code   RO          796    .ARM.Collect$$libshutdown$$00000000  c_w.l(libshutdown.o)
    0x0800018c   0x00000000   Code   RO          807    .ARM.Collect$$libshutdown$$00000002  c_w.l(libshutdown2.o)
    0x0800018c   0x00000000   Code   RO          809    .ARM.Collect$$libshutdown$$00000004  c_w.l(libshutdown2.o)
    0x0800018c   0x00000000   Code   RO          812    .ARM.Collect$$libshutdown$$00000007  c_w.l(libshutdown2.o)
    0x0800018c   0x00000000   Code   RO          815    .ARM.Collect$$libshutdown$$0000000A  c_w.l(libshutdown2.o)
    0x0800018c   0x00000000   Code   RO          817    .ARM.Collect$$libshutdown$$0000000C  c_w.l(libshutdown2.o)
    0x0800018c   0x00000000   Code   RO          820    .ARM.Collect$$libshutdown$$0000000F  c_w.l(libshutdown2.o)
    0x0800018c   0x00000002   Code   RO          821    .ARM.Collect$$libshutdown$$00000010  c_w.l(libshutdown2.o)
    0x0800018e   0x00000000   Code   RO          626    .ARM.Collect$$rtentry$$00000000  c_w.l(__rtentry.o)
    0x0800018e   0x00000000   Code   RO          650    .ARM.Collect$$rtentry$$00000002  c_w.l(__rtentry2.o)
    0x0800018e   0x00000006   Code   RO          662    .ARM.Collect$$rtentry$$00000004  c_w.l(__rtentry4.o)
    0x08000194   0x00000000   Code   RO          652    .ARM.Collect$$rtentry$$00000009  c_w.l(__rtentry2.o)
    0x08000194   0x00000004   Code   RO          653    .ARM.Collect$$rtentry$$0000000A  c_w.l(__rtentry2.o)
    0x08000198   0x00000000   Code   RO          655    .ARM.Collect$$rtentry$$0000000C  c_w.l(__rtentry2.o)
    0x08000198   0x00000008   Code   RO          656    .ARM.Collect$$rtentry$$0000000D  c_w.l(__rtentry2.o)
    0x080001a0   0x00000002   Code   RO          767    .ARM.Collect$$rtexit$$00000000  c_w.l(rtexit.o)
    0x080001a2   0x00000000   Code   RO          774    .ARM.Collect$$rtexit$$00000002  c_w.l(rtexit2.o)
    0x080001a2   0x00000004   Code   RO          775    .ARM.Collect$$rtexit$$00000003  c_w.l(rtexit2.o)
    0x080001a6   0x00000006   Code   RO          776    .ARM.Collect$$rtexit$$00000004  c_w.l(rtexit2.o)
    0x080001ac   0x00000040   Code   RO            4    .text               startup_stm32f10x_md.o
    0x080001ec   0x000001e0   Code   RO           26    .text               system_stm32f10x.o
    0x080003cc   0x0000035c   Code   RO          137    .text               stm32f10x_gpio.o
    0x08000728   0x000003a4   Code   RO          161    .text               stm32f10x_rcc.o
    0x08000acc   0x0000044e   Code   RO          183    .text               stm32f10x_adc.o
    0x08000f1a   0x00000002   PAD
    0x08000f1c   0x00000408   Code   RO          223    .text               stm32f10x_usart.o
    0x08001324   0x000000dc   Code   RO          243    .text               misc.o
    0x08001400   0x00000a0c   Code   RO          263    .text               lcd_1.o
    0x08001e0c   0x00000598   Code   RO          376    .text               main.o
    0x080023a4   0x00000084   Code   RO          425    .text               stm32f10x_it.o
    0x08002428   0x00000298   Code   RO          452    .text               iic.o
    0x080026c0   0x00000084   Code   RO          472    .text               led.o
    0x08002744   0x000000ac   Code   RO          495    .text               key.o
    0x080027f0   0x000000d4   Code   RO          519    .text               adc.o
    0x080028c4   0x00000130   Code   RO          542    .text               usart.o
    0x080029f4   0x00000028   Code   RO          568    .text               c_w.l(noretval__2sprintf.o)
    0x08002a1c   0x00000052   Code   RO          572    .text               c_w.l(_printf_str.o)
    0x08002a6e   0x00000002   PAD
    0x08002a70   0x00000078   Code   RO          574    .text               c_w.l(_printf_dec.o)
    0x08002ae8   0x00000138   Code   RO          588    .text               c_w.l(__printf_flags_wp.o)
    0x08002c20   0x00000006   Code   RO          600    .text               c_w.l(heapauxi.o)
    0x08002c26   0x000000b2   Code   RO          627    .text               c_w.l(_printf_intcommon.o)
    0x08002cd8   0x0000041a   Code   RO          629    .text               c_w.l(_printf_fp_dec.o)
    0x080030f2   0x00000002   PAD
    0x080030f4   0x00000030   Code   RO          631    .text               c_w.l(_printf_char_common.o)
    0x08003124   0x0000000a   Code   RO          633    .text               c_w.l(_sputc.o)
    0x0800312e   0x0000002c   Code   RO          635    .text               c_w.l(_printf_char.o)
    0x0800315a   0x00000002   PAD
    0x0800315c   0x00000008   Code   RO          667    .text               c_w.l(rt_locale_intlibspace.o)
    0x08003164   0x0000008a   Code   RO          669    .text               c_w.l(lludiv10.o)
    0x080031ee   0x00000002   PAD
    0x080031f0   0x00000080   Code   RO          671    .text               c_w.l(_printf_fp_infnan.o)
    0x08003270   0x000000dc   Code   RO          675    .text               c_w.l(bigflt0.o)
    0x0800334c   0x00000008   Code   RO          707    .text               c_w.l(libspace.o)
    0x08003354   0x0000004a   Code   RO          710    .text               c_w.l(sys_stackheap_outer.o)
    0x0800339e   0x00000012   Code   RO          712    .text               c_w.l(exit.o)
    0x080033b0   0x00000080   Code   RO          714    .text               c_w.l(strcmpv7m.o)
    0x08003430   0x0000000c   Code   RO          786    .text               c_w.l(sys_exit.o)
    0x0800343c   0x00000002   Code   RO          797    .text               c_w.l(use_no_semi.o)
    0x0800343e   0x00000000   Code   RO          799    .text               c_w.l(indicate_semi.o)
    0x0800343e   0x0000003e   Code   RO          678    CL$$btod_d2e        c_w.l(btod.o)
    0x0800347c   0x00000046   Code   RO          680    CL$$btod_d2e_denorm_low  c_w.l(btod.o)
    0x080034c2   0x00000060   Code   RO          679    CL$$btod_d2e_norm_op1  c_w.l(btod.o)
    0x08003522   0x00000338   Code   RO          688    CL$$btod_div_common  c_w.l(btod.o)
    0x0800385a   0x000000c6   Code   RO          685    CL$$btod_e2e        c_w.l(btod.o)
    0x08003920   0x00000028   Code   RO          682    CL$$btod_ediv       c_w.l(btod.o)
    0x08003948   0x00000028   Code   RO          681    CL$$btod_emul       c_w.l(btod.o)
    0x08003970   0x00000244   Code   RO          687    CL$$btod_mult_common  c_w.l(btod.o)
    0x08003bb4   0x00000028   Code   RO          705    i.__ARM_fpclassify  m_ws.l(fpclassify.o)
    0x08003bdc   0x0000000e   Code   RO          586    i._is_digit         c_w.l(__printf_wp.o)
    0x08003bea   0x00000002   PAD
    0x08003bec   0x0000002c   Code   RO          701    locale$$code        c_w.l(lc_numeric_c.o)
    0x08003c18   0x00000062   Code   RO          604    x$fpl$d2f           fz_ws.l(d2f.o)
    0x08003c7a   0x00000002   PAD
    0x08003c7c   0x000002b0   Code   RO          607    x$fpl$ddiv          fz_ws.l(ddiv.o)
    0x08003f2c   0x0000002e   Code   RO          611    x$fpl$dflt          fz_ws.l(dflt_clz.o)
    0x08003f5a   0x00000026   Code   RO          610    x$fpl$dfltu         fz_ws.l(dflt_clz.o)
    0x08003f80   0x00000154   Code   RO          616    x$fpl$dmul          fz_ws.l(dmul.o)
    0x080040d4   0x0000009c   Code   RO          638    x$fpl$dnaninf       fz_ws.l(dnaninf.o)
    0x08004170   0x0000000c   Code   RO          640    x$fpl$dretinf       fz_ws.l(dretinf.o)
    0x0800417c   0x00000056   Code   RO          618    x$fpl$f2d           fz_ws.l(f2d.o)
    0x080041d2   0x00000018   Code   RO          642    x$fpl$fcmpinf       fz_ws.l(fcmpi.o)
    0x080041ea   0x00000002   PAD
    0x080041ec   0x00000068   Code   RO          620    x$fpl$fleqf         fz_ws.l(fleqf.o)
    0x08004254   0x00000102   Code   RO          622    x$fpl$fmul          fz_ws.l(fmul.o)
    0x08004356   0x0000008c   Code   RO          644    x$fpl$fnaninf       fz_ws.l(fnaninf.o)
    0x080043e2   0x0000000a   Code   RO          646    x$fpl$fretinf       fz_ws.l(fretinf.o)
    0x080043ec   0x00000004   Code   RO          624    x$fpl$printf1       fz_ws.l(printf1.o)
    0x080043f0   0x00000000   Code   RO          648    x$fpl$usenofp       fz_ws.l(usenofp.o)
    0x080043f0   0x000011d0   Data   RO          264    .constdata          lcd_1.o
    0x080055c0   0x00000011   Data   RO          589    .constdata          c_w.l(__printf_flags_wp.o)
    0x080055d1   0x00000003   PAD
    0x080055d4   0x00000094   Data   RO          676    .constdata          c_w.l(bigflt0.o)
    0x08005668   0x00000007   Data   RO          378    .conststring        main.o
    0x0800566f   0x00000001   PAD
    0x08005670   0x00000020   Data   RO          846    Region$$Table       anon$$obj.o
    0x08005690   0x0000001c   Data   RO          700    locale$$data        c_w.l(lc_numeric_c.o)


    Execution Region RW_IRAM1 (Base: 0x20000000, Size: 0x00000710, Max: 0x00005000, ABSOLUTE)

    Base Addr    Size         Type   Attr      Idx    E Section Name        Object

    0x20000000   0x00000014   Data   RW           27    .data               system_stm32f10x.o
    0x20000014   0x00000014   Data   RW          162    .data               stm32f10x_rcc.o
    0x20000028   0x00000006   Data   RW          265    .data               lcd_1.o
    0x2000002e   0x00000002   PAD
    0x20000030   0x00000049   Data   RW          379    .data               main.o
    0x20000079   0x00000002   Data   RW          544    .data               usart.o
    0x2000007b   0x00000001   PAD
    0x2000007c   0x00000014   Zero   RW          377    .bss                main.o
    0x20000090   0x0000001c   Zero   RW          543    .bss                usart.o
    0x200000ac   0x00000060   Zero   RW          708    .bss                c_w.l(libspace.o)
    0x2000010c   0x00000004   PAD
    0x20000110   0x00000200   Zero   RW            2    HEAP                startup_stm32f10x_md.o
    0x20000310   0x00000400   Zero   RW            1    STACK               startup_stm32f10x_md.o


==============================================================================

Image component sizes


      Code (inc. data)   RO Data    RW Data    ZI Data      Debug   Object Name

       212         18          0          0          0        877   adc.o
         0          0          0          0          0       4508   core_cm3.o
       664          6          0          0          0       2857   iic.o
       172         12          0          0          0        878   key.o
      2572         74       4560          6          0     228280   lcd_1.o
       132         10          0          0          0        735   led.o
      1432        262          7         73         20      26777   main.o
       220         22          0          0          0       1937   misc.o
        64         26        236          0       1536        944   startup_stm32f10x_md.o
      1102         26          0          0          0      11181   stm32f10x_adc.o
       860         38          0          0          0       5873   stm32f10x_gpio.o
       132         20          0          0          0       1318   stm32f10x_it.o
       932         36          0         20          0       9092   stm32f10x_rcc.o
      1032         22          0          0          0       8596   stm32f10x_usart.o
       480         38          0         20          0     238335   system_stm32f10x.o
       304         20          0          2         28       1793   usart.o

    ----------------------------------------------------------------------
     10312        630       4836        124       1584     543981   Object Totals
         0          0         32          0          0          0   (incl. Generated)
         2          0          1          3          0          0   (incl. Padding)

    ----------------------------------------------------------------------

      Code (inc. data)   RO Data    RW Data    ZI Data      Debug   Library Member Name

         8          0          0          0          0         68   __main.o
       312          4         17          0          0         92   __printf_flags_wp.o
        14          0          0          0          0         68   __printf_wp.o
         0          0          0          0          0          0   __rtentry.o
        12          0          0          0          0          0   __rtentry2.o
         6          0          0          0          0          0   __rtentry4.o
        52          8          0          0          0          0   __scatter.o
        26          0          0          0          0          0   __scatter_copy.o
        28          0          0          0          0          0   __scatter_zi.o
        44          0          0          0          0        108   _printf_char.o
        48          6          0          0          0         96   _printf_char_common.o
         6          0          0          0          0          0   _printf_d.o
       120         16          0          0          0         92   _printf_dec.o
         6          0          0          0          0          0   _printf_f.o
      1050          0          0          0          0        216   _printf_fp_dec.o
       128         16          0          0          0         84   _printf_fp_infnan.o
       178          0          0          0          0         88   _printf_intcommon.o
         0          0          0          0          0          0   _printf_percent.o
         4          0          0          0          0          0   _printf_percent_end.o
         6          0          0          0          0          0   _printf_s.o
        82          0          0          0          0         80   _printf_str.o
        10          0          0          0          0         68   _sputc.o
       220          4        148          0          0         96   bigflt0.o
      1910        128          0          0          0        672   btod.o
        18          0          0          0          0         80   exit.o
         6          0          0          0          0        152   heapauxi.o
         0          0          0          0          0          0   indicate_semi.o
        44         10         28          0          0         76   lc_numeric_c.o
         2          0          0          0          0          0   libinit.o
        18          0          0          0          0          0   libinit2.o
         2          0          0          0          0          0   libshutdown.o
         2          0          0          0          0          0   libshutdown2.o
         8          4          0          0         96         68   libspace.o
       138          0          0          0          0         80   lludiv10.o
        40          6          0          0          0         84   noretval__2sprintf.o
         8          4          0          0          0         68   rt_locale_intlibspace.o
         2          0          0          0          0          0   rtexit.o
        10          0          0          0          0          0   rtexit2.o
       128          0          0          0          0         68   strcmpv7m.o
        12          4          0          0          0         68   sys_exit.o
        74          0          0          0          0         80   sys_stackheap_outer.o
         2          0          0          0          0         68   use_no_semi.o
        98          4          0          0          0         92   d2f.o
       688        140          0          0          0        208   ddiv.o
        84          0          0          0          0        136   dflt_clz.o
       340         12          0          0          0        104   dmul.o
       156          4          0          0          0         92   dnaninf.o
        12          0          0          0          0         68   dretinf.o
        86          4          0          0          0         84   f2d.o
        24          0          0          0          0         68   fcmpi.o
       104          4          0          0          0         84   fleqf.o
       258          4          0          0          0         84   fmul.o
       140          4          0          0          0         84   fnaninf.o
        10          0          0          0          0         68   fretinf.o
         4          0          0          0          0         68   printf1.o
         0          0          0          0          0          0   usenofp.o
        40          0          0          0          0         68   fpclassify.o

    ----------------------------------------------------------------------
      6844        386        196          0        100       4028   Library Totals
        16          0          3          0          4          0   (incl. Padding)

    ----------------------------------------------------------------------

      Code (inc. data)   RO Data    RW Data    ZI Data      Debug   Library Name

      4784        210        193          0         96       2720   c_w.l
      2004        176          0          0          0       1240   fz_ws.l
        40          0          0          0          0         68   m_ws.l

    ----------------------------------------------------------------------
      6844        386        196          0        100       4028   Library Totals

    ----------------------------------------------------------------------

==============================================================================


      Code (inc. data)   RO Data    RW Data    ZI Data      Debug   

     17156       1016       5032        124       1684     544469   Grand Totals
     17156       1016       5032        124       1684     544469   ELF Image Totals
     17156       1016       5032        124          0          0   ROM Totals

==============================================================================

    Total RO  Size (Code + RO Data)                22188 (  21.67kB)
    Total RW  Size (RW Data + ZI Data)              1808 (   1.77kB)
    Total ROM Size (Code + RO Data + RW Data)      22312 (  21.79kB)

==============================================================================

