Component: ARM Compiler 5.06 update 2 (build 183) Tool: armlink [4d35b7]

==============================================================================

Section Cross References

    startup_stm32f10x_md.o(STACK) refers (Special) to heapauxi.o(.text) for __use_two_region_memory
    startup_stm32f10x_md.o(HEAP) refers (Special) to heapauxi.o(.text) for __use_two_region_memory
    startup_stm32f10x_md.o(RESET) refers (Special) to heapauxi.o(.text) for __use_two_region_memory
    startup_stm32f10x_md.o(RESET) refers to startup_stm32f10x_md.o(STACK) for __initial_sp
    startup_stm32f10x_md.o(RESET) refers to startup_stm32f10x_md.o(.text) for Reset_Handler
    startup_stm32f10x_md.o(RESET) refers to stm32f10x_it.o(.text) for NMI_Handler
    startup_stm32f10x_md.o(RESET) refers to usart.o(.text) for USART2_IRQHandler
    startup_stm32f10x_md.o(.text) refers (Special) to heapauxi.o(.text) for __use_two_region_memory
    startup_stm32f10x_md.o(.text) refers to system_stm32f10x.o(.text) for SystemInit
    startup_stm32f10x_md.o(.text) refers to __main.o(!!!main) for __main
    startup_stm32f10x_md.o(.text) refers to startup_stm32f10x_md.o(HEAP) for Heap_Mem
    startup_stm32f10x_md.o(.text) refers to startup_stm32f10x_md.o(STACK) for Stack_Mem
    system_stm32f10x.o(.text) refers to system_stm32f10x.o(.data) for SystemCoreClock
    stm32f10x_gpio.o(.text) refers to stm32f10x_rcc.o(.text) for RCC_APB2PeriphResetCmd
    stm32f10x_rcc.o(.text) refers to stm32f10x_rcc.o(.data) for APBAHBPrescTable
    stm32f10x_tim.o(.text) refers to stm32f10x_rcc.o(.text) for RCC_APB2PeriphResetCmd
    stm32f10x_usart.o(.text) refers to stm32f10x_rcc.o(.text) for RCC_APB2PeriphResetCmd
    stm32f10x_i2c.o(.text) refers to stm32f10x_rcc.o(.text) for RCC_APB1PeriphResetCmd
==============================================================================

Removing Unused input sections from the image.

    Removing core_cm3.o(.emb_text), (32 bytes).
    Removing system_stm32f10x.o(.rev16_text), (4 bytes).
    Removing system_stm32f10x.o(.revsh_text), (4 bytes).
    Removing stm32f10x_gpio.o(.rev16_text), (4 bytes).
    Removing stm32f10x_gpio.o(.revsh_text), (4 bytes).
    Removing stm32f10x_rcc.o(.rev16_text), (4 bytes).
    Removing stm32f10x_rcc.o(.revsh_text), (4 bytes).
    Removing stm32f10x_tim.o(.rev16_text), (4 bytes).
    Removing stm32f10x_tim.o(.revsh_text), (4 bytes).
    Removing stm32f10x_usart.o(.rev16_text), (4 bytes).
    Removing stm32f10x_usart.o(.revsh_text), (4 bytes).
    Removing stm32f10x_i2c.o(.rev16_text), (4 bytes).
    Removing stm32f10x_i2c.o(.revsh_text), (4 bytes).
    Removing stm32f10x_i2c.o(.text), (1028 bytes).
    Removing misc.o(.rev16_text), (4 bytes).
    Removing misc.o(.revsh_text), (4 bytes).
    Removing lcd.o(.rev16_text), (4 bytes).
    Removing lcd.o(.revsh_text), (4 bytes).
==============================================================================

Image Symbol Table

    Local Symbols

    Symbol Name                              Value     Ov Type        Size  Object(Section)

    ../clib/angel/boardlib.s                 0x00000000   Number         0  boardshut.o ABSOLUTE
    ../clib/angel/boardlib.s                 0x00000000   Number         0  boardinit1.o ABSOLUTE
    ../clib/angel/boardlib.s                 0x00000000   Number         0  boardinit2.o ABSOLUTE
    ../clib/angel/boardlib.s                 0x00000000   Number         0  boardinit3.o ABSOLUTE
    ../clib/angel/handlers.s                 0x00000000   Number         0  __scatter_zi.o ABSOLUTE
    ../clib/angel/handlers.s                 0x00000000   Number         0  __scatter_copy.o ABSOLUTE
    ../clib/angel/kernel.s                   0x00000000   Number         0  rtexit.o ABSOLUTE
    ../clib/angel/kernel.s                   0x00000000   Number         0  rtexit2.o ABSOLUTE
    ../clib/angel/kernel.s                   0x00000000   Number         0  __rtentry.o ABSOLUTE
    ../clib/angel/kernel.s                   0x00000000   Number         0  __rtentry4.o ABSOLUTE
    ../clib/angel/kernel.s                   0x00000000   Number         0  __rtentry2.o ABSOLUTE
    ../clib/angel/rt.s                       0x00000000   Number         0  rt_locale_intlibspace.o ABSOLUTE
    ../clib/angel/rt.s                       0x00000000   Number         0  rt_locale.o ABSOLUTE
    ../clib/angel/rt.s                       0x00000000   Number         0  rt_raise.o ABSOLUTE
    ../clib/angel/scatter.s                  0x00000000   Number         0  __scatter.o ABSOLUTE
    ../clib/angel/startup.s                  0x00000000   Number         0  __main.o ABSOLUTE
    ../clib/angel/sys.s                      0x00000000   Number         0  use_no_semi.o ABSOLUTE
    ../clib/angel/sys.s                      0x00000000   Number         0  indicate_semi.o ABSOLUTE
    ../clib/angel/sys.s                      0x00000000   Number         0  libspace.o ABSOLUTE
    ../clib/angel/sys.s                      0x00000000   Number         0  sys_stackheap_outer.o ABSOLUTE
    ../clib/angel/sysapp.c                   0x00000000   Number         0  sys_wrch.o ABSOLUTE
    ../clib/angel/sysapp.c                   0x00000000   Number         0  sys_exit.o ABSOLUTE
    ../clib/angel/sysapp.c                   0x00000000   Number         0  sys_command.o ABSOLUTE
    ../clib/armsys.c                         0x00000000   Number         0  argv_veneer.o ABSOLUTE
    ../clib/armsys.c                         0x00000000   Number         0  argv_veneer.o ABSOLUTE
    ../clib/armsys.c                         0x00000000   Number         0  _get_argv_nomalloc.o ABSOLUTE
    ../clib/armsys.c                         0x00000000   Number         0  no_argv.o ABSOLUTE
    ../clib/bigflt.c                         0x00000000   Number         0  bigflt0.o ABSOLUTE
    ../clib/btod.s                           0x00000000   Number         0  btod.o ABSOLUTE
    ../clib/heapalloc.c                      0x00000000   Number         0  hrguard.o ABSOLUTE
    ../clib/heapaux.c                        0x00000000   Number         0  heapauxi.o ABSOLUTE
    ../clib/libinit.s                        0x00000000   Number         0  libshutdown.o ABSOLUTE
    ../clib/libinit.s                        0x00000000   Number         0  libshutdown2.o ABSOLUTE
    ../clib/libinit.s                        0x00000000   Number         0  libinit.o ABSOLUTE
    ../clib/libinit.s                        0x00000000   Number         0  libinit2.o ABSOLUTE
    ../clib/locale.s                         0x00000000   Number         0  lc_numeric_c.o ABSOLUTE
    ../clib/longlong.s                       0x00000000   Number         0  lludiv10.o ABSOLUTE
    ../clib/memcpset.s                       0x00000000   Number         0  strcmpv7m.o ABSOLUTE
    ../clib/misc.s                           0x00000000   Number         0  printf_stubs.o ABSOLUTE
    ../clib/printf.c                         0x00000000   Number         0  _printf_intcommon.o ABSOLUTE
    ../clib/printf.c                         0x00000000   Number         0  __2sprintf.o ABSOLUTE
    ../clib/printf.c                         0x00000000   Number         0  noretval__2sprintf.o ABSOLUTE
    ../clib/printf.c                         0x00000000   Number         0  __printf.o ABSOLUTE
    ../clib/printf.c                         0x00000000   Number         0  _printf_pad.o ABSOLUTE
    ../clib/printf.c                         0x00000000   Number         0  _printf_str.o ABSOLUTE
    ../clib/printf.c                         0x00000000   Number         0  _printf_dec.o ABSOLUTE
    ../clib/printf.c                         0x00000000   Number         0  __printf_flags.o ABSOLUTE
    ../clib/printf.c                         0x00000000   Number         0  __printf_ss.o ABSOLUTE
    ../clib/printf.c                         0x00000000   Number         0  __printf_flags_ss.o ABSOLUTE
    ../clib/printf.c                         0x00000000   Number         0  __printf_nopercent.o ABSOLUTE
    ../clib/printf.c                         0x00000000   Number         0  __printf_flags_wp.o ABSOLUTE
    ../clib/printf.c                         0x00000000   Number         0  __printf_ss_wp.o ABSOLUTE
    ../clib/printf.c                         0x00000000   Number         0  _printf_fp_dec.o ABSOLUTE
    ../clib/printf.c                         0x00000000   Number         0  _printf_fp_infnan.o ABSOLUTE
    ../clib/printf.c                         0x00000000   Number         0  __printf_flags_ss_wp.o ABSOLUTE
    ../clib/printf.c                         0x00000000   Number         0  _printf_char_common.o ABSOLUTE
    ../clib/printf.c                         0x00000000   Number         0  _sputc.o ABSOLUTE
    ../clib/printf.c                         0x00000000   Number         0  __printf_wp.o ABSOLUTE
    ../clib/printf.c                         0x00000000   Number         0  _printf_char.o ABSOLUTE
    ../clib/printf_percent.s                 0x00000000   Number         0  _printf_percent.o ABSOLUTE
    ../clib/printf_percent.s                 0x00000000   Number         0  _printf_f.o ABSOLUTE
    ../clib/printf_percent.s                 0x00000000   Number         0  _printf_d.o ABSOLUTE
    ../clib/printf_percent.s                 0x00000000   Number         0  _printf_s.o ABSOLUTE
    ../clib/printf_percent.s                 0x00000000   Number         0  _printf_percent_end.o ABSOLUTE
    ../clib/signal.c                         0x00000000   Number         0  defsig_abrt_inner.o ABSOLUTE
    ../clib/signal.c                         0x00000000   Number         0  defsig_other.o ABSOLUTE
    ../clib/signal.c                         0x00000000   Number         0  defsig_segv_inner.o ABSOLUTE
    ../clib/signal.c                         0x00000000   Number         0  defsig_rtmem_inner.o ABSOLUTE
    ../clib/signal.c                         0x00000000   Number         0  defsig_fpe_inner.o ABSOLUTE
    ../clib/signal.c                         0x00000000   Number         0  defsig_exit.o ABSOLUTE
    ../clib/signal.c                         0x00000000   Number         0  defsig_cppl_inner.o ABSOLUTE
    ../clib/signal.c                         0x00000000   Number         0  defsig_rtred_inner.o ABSOLUTE
    ../clib/signal.c                         0x00000000   Number         0  defsig_stak_inner.o ABSOLUTE
    ../clib/signal.c                         0x00000000   Number         0  defsig_rtmem_outer.o ABSOLUTE
    ../clib/signal.c                         0x00000000   Number         0  __raise.o ABSOLUTE
    ../clib/signal.c                         0x00000000   Number         0  defsig_general.o ABSOLUTE
    ../clib/signal.c                         0x00000000   Number         0  defsig_rtmem_formal.o ABSOLUTE
    ../clib/signal.c                         0x00000000   Number         0  defsig_pvfn_inner.o ABSOLUTE
    ../clib/signal.s                         0x00000000   Number         0  defsig.o ABSOLUTE
    ../clib/stdlib.c                         0x00000000   Number         0  exit.o ABSOLUTE
    ../fplib/daddsub.s                       0x00000000   Number         0  daddsub_clz.o ABSOLUTE
    ../fplib/dcmpi.s                         0x00000000   Number         0  dcmpi.o ABSOLUTE
    ../fplib/dfix.s                          0x00000000   Number         0  dfix.o ABSOLUTE
    ../fplib/dfixu.s                         0x00000000   Number         0  dfixu.o ABSOLUTE
    ../fplib/dflt.s                          0x00000000   Number         0  dflt_clz.o ABSOLUTE
    ../fplib/dleqf.s                         0x00000000   Number         0  dleqf.o ABSOLUTE
    ../fplib/dmul.s                          0x00000000   Number         0  dmul.o ABSOLUTE
    ../fplib/dnaninf.s                       0x00000000   Number         0  dnaninf.o ABSOLUTE
    ../fplib/dretinf.s                       0x00000000   Number         0  dretinf.o ABSOLUTE
    ../fplib/drleqf.s                        0x00000000   Number         0  drleqf.o ABSOLUTE
    ../fplib/fpinit.s                        0x00000000   Number         0  fpinit.o ABSOLUTE
    ../fplib/istatus.s                       0x00000000   Number         0  istatus.o ABSOLUTE
    ../fplib/printf1.s                       0x00000000   Number         0  printf1.o ABSOLUTE
    ../fplib/usenofp.s                       0x00000000   Number         0  usenofp.o ABSOLUTE
    ../mathlib/fpclassify.c                  0x00000000   Number         0  fpclassify.o ABSOLUTE
    ..\Libraries\CMSIS\CM3\CoreSupport\core_cm3.c 0x00000000   Number         0  core_cm3.o ABSOLUTE
    ..\Libraries\CMSIS\CM3\DeviceSupport\ST\STM32F10x\startup\arm\startup_stm32f10x_md.s 0x00000000   Number         0  startup_stm32f10x_md.o ABSOLUTE
    ..\Libraries\CMSIS\CM3\DeviceSupport\ST\STM32F10x\system_stm32f10x.c 0x00000000   Number         0  system_stm32f10x.o ABSOLUTE
    ..\Libraries\STM32F10x_StdPeriph_Driver\src\misc.c 0x00000000   Number         0  misc.o ABSOLUTE
    ..\Libraries\STM32F10x_StdPeriph_Driver\src\stm32f10x_gpio.c 0x00000000   Number         0  stm32f10x_gpio.o ABSOLUTE
    ..\Libraries\STM32F10x_StdPeriph_Driver\src\stm32f10x_i2c.c 0x00000000   Number         0  stm32f10x_i2c.o ABSOLUTE
    ..\Libraries\STM32F10x_StdPeriph_Driver\src\stm32f10x_rcc.c 0x00000000   Number         0  stm32f10x_rcc.o ABSOLUTE
    ..\Libraries\STM32F10x_StdPeriph_Driver\src\stm32f10x_tim.c 0x00000000   Number         0  stm32f10x_tim.o ABSOLUTE
    ..\Libraries\STM32F10x_StdPeriph_Driver\src\stm32f10x_usart.c 0x00000000   Number         0  stm32f10x_usart.o ABSOLUTE
    ..\Sre\iic.c                             0x00000000   Number         0  iic.o ABSOLUTE
    ..\Sre\key.c                             0x00000000   Number         0  key.o ABSOLUTE
    ..\Sre\lcd.c                             0x00000000   Number         0  lcd.o ABSOLUTE
    ..\Sre\led.c                             0x00000000   Number         0  led.o ABSOLUTE
    ..\Sre\main.c                            0x00000000   Number         0  main.o ABSOLUTE
    ..\Sre\pwm.c                             0x00000000   Number         0  pwm.o ABSOLUTE
    ..\Sre\stm32f10x_it.c                    0x00000000   Number         0  stm32f10x_it.o ABSOLUTE
    ..\Sre\usart.c                           0x00000000   Number         0  usart.o ABSOLUTE
    ..\\Libraries\\CMSIS\\CM3\\CoreSupport\\core_cm3.c 0x00000000   Number         0  core_cm3.o ABSOLUTE
    ..\\Libraries\\CMSIS\\CM3\\DeviceSupport\\ST\\STM32F10x\\system_stm32f10x.c 0x00000000   Number         0  system_stm32f10x.o ABSOLUTE
    ..\\Libraries\\STM32F10x_StdPeriph_Driver\\src\\misc.c 0x00000000   Number         0  misc.o ABSOLUTE
    ..\\Libraries\\STM32F10x_StdPeriph_Driver\\src\\stm32f10x_gpio.c 0x00000000   Number         0  stm32f10x_gpio.o ABSOLUTE
    ..\\Libraries\\STM32F10x_StdPeriph_Driver\\src\\stm32f10x_i2c.c 0x00000000   Number         0  stm32f10x_i2c.o ABSOLUTE
    ..\\Libraries\\STM32F10x_StdPeriph_Driver\\src\\stm32f10x_rcc.c 0x00000000   Number         0  stm32f10x_rcc.o ABSOLUTE
    ..\\Libraries\\STM32F10x_StdPeriph_Driver\\src\\stm32f10x_tim.c 0x00000000   Number         0  stm32f10x_tim.o ABSOLUTE
    ..\\Libraries\\STM32F10x_StdPeriph_Driver\\src\\stm32f10x_usart.c 0x00000000   Number         0  stm32f10x_usart.o ABSOLUTE
    ..\\Sre\\iic.c                           0x00000000   Number         0  iic.o ABSOLUTE
    ..\\Sre\\key.c                           0x00000000   Number         0  key.o ABSOLUTE
    ..\\Sre\\lcd.c                           0x00000000   Number         0  lcd.o ABSOLUTE
    ..\\Sre\\led.c                           0x00000000   Number         0  led.o ABSOLUTE
    ..\\Sre\\main.c                          0x00000000   Number         0  main.o ABSOLUTE
    ..\\Sre\\pwm.c                           0x00000000   Number         0  pwm.o ABSOLUTE
    ..\\Sre\\stm32f10x_it.c                  0x00000000   Number         0  stm32f10x_it.o ABSOLUTE
    ..\\Sre\\usart.c                         0x00000000   Number         0  usart.o ABSOLUTE
    dc.s                                     0x00000000   Number         0  dc.o ABSOLUTE
    RESET                                    0x08000000   Section      236  startup_stm32f10x_md.o(RESET)
    !!!main                                  0x080000ec   Section        8  __main.o(!!!main)
    !!!scatter                               0x080000f4   Section       52  __scatter.o(!!!scatter)
    !!handler_copy                           0x08000128   Section       26  __scatter_copy.o(!!handler_copy)
    !!handler_zi                             0x08000144   Section       28  __scatter_zi.o(!!handler_zi)
    .ARM.Collect$$_printf_percent$$00000000  0x08000160   Section        0  _printf_percent.o(.ARM.Collect$$_printf_percent$$00000000)
    .ARM.Collect$$_printf_percent$$00000003  0x08000160   Section        6  _printf_f.o(.ARM.Collect$$_printf_percent$$00000003)
    .ARM.Collect$$_printf_percent$$00000009  0x08000166   Section        6  _printf_d.o(.ARM.Collect$$_printf_percent$$00000009)
    .ARM.Collect$$_printf_percent$$00000014  0x0800016c   Section        6  _printf_s.o(.ARM.Collect$$_printf_percent$$00000014)
    .ARM.Collect$$_printf_percent$$00000017  0x08000172   Section        4  _printf_percent_end.o(.ARM.Collect$$_printf_percent$$00000017)
    .ARM.Collect$$libinit$$00000000          0x08000176   Section        2  libinit.o(.ARM.Collect$$libinit$$00000000)
    .ARM.Collect$$libinit$$00000002          0x08000178   Section        0  libinit2.o(.ARM.Collect$$libinit$$00000002)
    .ARM.Collect$$libinit$$00000004          0x08000178   Section        0  libinit2.o(.ARM.Collect$$libinit$$00000004)
    .ARM.Collect$$libinit$$0000000A          0x08000178   Section        0  libinit2.o(.ARM.Collect$$libinit$$0000000A)
    .ARM.Collect$$libinit$$0000000C          0x08000178   Section        0  libinit2.o(.ARM.Collect$$libinit$$0000000C)
    .ARM.Collect$$libinit$$0000000E          0x08000178   Section        0  libinit2.o(.ARM.Collect$$libinit$$0000000E)
    .ARM.Collect$$libinit$$0000000F          0x08000178   Section        6  libinit2.o(.ARM.Collect$$libinit$$0000000F)
    .ARM.Collect$$libinit$$00000011          0x0800017e   Section        0  libinit2.o(.ARM.Collect$$libinit$$00000011)
    .ARM.Collect$$libinit$$00000013          0x0800017e   Section        0  libinit2.o(.ARM.Collect$$libinit$$00000013)
    .ARM.Collect$$libinit$$00000015          0x0800017e   Section        0  libinit2.o(.ARM.Collect$$libinit$$00000015)
    .ARM.Collect$$libinit$$00000016          0x0800017e   Section       10  libinit2.o(.ARM.Collect$$libinit$$00000016)
    .ARM.Collect$$libinit$$00000017          0x08000188   Section        0  libinit2.o(.ARM.Collect$$libinit$$00000017)
    .ARM.Collect$$libinit$$00000019          0x08000188   Section        0  libinit2.o(.ARM.Collect$$libinit$$00000019)
    .ARM.Collect$$libinit$$0000001B          0x08000188   Section        0  libinit2.o(.ARM.Collect$$libinit$$0000001B)
    .ARM.Collect$$libinit$$0000001D          0x08000188   Section        0  libinit2.o(.ARM.Collect$$libinit$$0000001D)
    .ARM.Collect$$libinit$$0000001F          0x08000188   Section        0  libinit2.o(.ARM.Collect$$libinit$$0000001F)
    .ARM.Collect$$libinit$$00000021          0x08000188   Section        0  libinit2.o(.ARM.Collect$$libinit$$00000021)
    .ARM.Collect$$libinit$$00000023          0x08000188   Section        0  libinit2.o(.ARM.Collect$$libinit$$00000023)
    .ARM.Collect$$libinit$$00000025          0x08000188   Section        0  libinit2.o(.ARM.Collect$$libinit$$00000025)
    .ARM.Collect$$libinit$$0000002C          0x08000188   Section        0  libinit2.o(.ARM.Collect$$libinit$$0000002C)
    .ARM.Collect$$libinit$$0000002E          0x08000188   Section        0  libinit2.o(.ARM.Collect$$libinit$$0000002E)
    .ARM.Collect$$libinit$$00000030          0x08000188   Section        0  libinit2.o(.ARM.Collect$$libinit$$00000030)
    .ARM.Collect$$libinit$$00000032          0x08000188   Section        0  libinit2.o(.ARM.Collect$$libinit$$00000032)
    .ARM.Collect$$libinit$$00000033          0x08000188   Section        2  libinit2.o(.ARM.Collect$$libinit$$00000033)
    .ARM.Collect$$libshutdown$$00000000      0x0800018a   Section        2  libshutdown.o(.ARM.Collect$$libshutdown$$00000000)
    .ARM.Collect$$libshutdown$$00000002      0x0800018c   Section        0  libshutdown2.o(.ARM.Collect$$libshutdown$$00000002)
    .ARM.Collect$$libshutdown$$00000004      0x0800018c   Section        0  libshutdown2.o(.ARM.Collect$$libshutdown$$00000004)
    .ARM.Collect$$libshutdown$$00000007      0x0800018c   Section        0  libshutdown2.o(.ARM.Collect$$libshutdown$$00000007)
    .ARM.Collect$$libshutdown$$0000000A      0x0800018c   Section        0  libshutdown2.o(.ARM.Collect$$libshutdown$$0000000A)
    .ARM.Collect$$libshutdown$$0000000C      0x0800018c   Section        0  libshutdown2.o(.ARM.Collect$$libshutdown$$0000000C)
    .ARM.Collect$$libshutdown$$0000000F      0x0800018c   Section        0  libshutdown2.o(.ARM.Collect$$libshutdown$$0000000F)
    .ARM.Collect$$libshutdown$$00000010      0x0800018c   Section        2  libshutdown2.o(.ARM.Collect$$libshutdown$$00000010)
    .ARM.Collect$$rtentry$$00000000          0x0800018e   Section        0  __rtentry.o(.ARM.Collect$$rtentry$$00000000)
    .ARM.Collect$$rtentry$$00000002          0x0800018e   Section        0  __rtentry2.o(.ARM.Collect$$rtentry$$00000002)
    .ARM.Collect$$rtentry$$00000004          0x0800018e   Section        6  __rtentry4.o(.ARM.Collect$$rtentry$$00000004)
    .ARM.Collect$$rtentry$$00000009          0x08000194   Section        0  __rtentry2.o(.ARM.Collect$$rtentry$$00000009)
    .ARM.Collect$$rtentry$$0000000A          0x08000194   Section        4  __rtentry2.o(.ARM.Collect$$rtentry$$0000000A)
    .ARM.Collect$$rtentry$$0000000C          0x08000198   Section        0  __rtentry2.o(.ARM.Collect$$rtentry$$0000000C)
    .ARM.Collect$$rtentry$$0000000D          0x08000198   Section        8  __rtentry2.o(.ARM.Collect$$rtentry$$0000000D)
    .ARM.Collect$$rtexit$$00000000           0x080001a0   Section        2  rtexit.o(.ARM.Collect$$rtexit$$00000000)
    .ARM.Collect$$rtexit$$00000002           0x080001a2   Section        0  rtexit2.o(.ARM.Collect$$rtexit$$00000002)
    .ARM.Collect$$rtexit$$00000003           0x080001a2   Section        4  rtexit2.o(.ARM.Collect$$rtexit$$00000003)
    .ARM.Collect$$rtexit$$00000004           0x080001a6   Section        6  rtexit2.o(.ARM.Collect$$rtexit$$00000004)
    .text                                    0x080001ac   Section       64  startup_stm32f10x_md.o(.text)
    .text                                    0x080001ec   Section        0  system_stm32f10x.o(.text)
    SetSysClockTo72                          0x080001ed   Thumb Code   214  system_stm32f10x.o(.text)
    SetSysClock                              0x080002c3   Thumb Code     8  system_stm32f10x.o(.text)
    .text                                    0x080003cc   Section        0  stm32f10x_gpio.o(.text)
    .text                                    0x08000728   Section        0  stm32f10x_rcc.o(.text)
    .text                                    0x08000acc   Section        0  stm32f10x_tim.o(.text)
    TI4_Config                               0x08000f73   Thumb Code   130  stm32f10x_tim.o(.text)
    TI3_Config                               0x08001007   Thumb Code   122  stm32f10x_tim.o(.text)
    TI2_Config                               0x0800109b   Thumb Code   130  stm32f10x_tim.o(.text)
    TI1_Config                               0x0800112f   Thumb Code   108  stm32f10x_tim.o(.text)
    .text                                    0x080018e8   Section        0  stm32f10x_usart.o(.text)
    .text                                    0x08001cf0   Section        0  misc.o(.text)
    .text                                    0x08001dcc   Section        0  lcd.o(.text)
    .text                                    0x080027d8   Section        0  main.o(.text)
    .text                                    0x08002db4   Section        0  stm32f10x_it.o(.text)
    .text                                    0x08002e4c   Section        0  key.o(.text)
    .text                                    0x08002ee4   Section        0  led.o(.text)
    .text                                    0x08002f68   Section        0  pwm.o(.text)
    .text                                    0x08003030   Section        0  usart.o(.text)
    .text                                    0x0800314c   Section        0  iic.o(.text)
    .text                                    0x080033e4   Section        0  noretval__2sprintf.o(.text)
    .text                                    0x0800340c   Section        0  _printf_pad.o(.text)
    .text                                    0x0800345a   Section        0  _printf_str.o(.text)
    .text                                    0x080034ac   Section        0  _printf_dec.o(.text)
    .text                                    0x08003524   Section        0  __printf_ss_wp.o(.text)
    .text                                    0x08003684   Section        0  heapauxi.o(.text)
    .text                                    0x0800368a   Section        0  _printf_intcommon.o(.text)
    .text                                    0x0800373c   Section        0  _printf_fp_dec.o(.text)
    _fp_digits                               0x0800373f   Thumb Code   428  _printf_fp_dec.o(.text)
    .text                                    0x08003b58   Section        0  _printf_char_common.o(.text)
    _printf_input_char                       0x08003b59   Thumb Code    10  _printf_char_common.o(.text)
    .text                                    0x08003b88   Section        0  _sputc.o(.text)
    .text                                    0x08003b92   Section        0  _printf_char.o(.text)
    .text                                    0x08003bc0   Section        8  rt_locale_intlibspace.o(.text)
    .text                                    0x08003bc8   Section      138  lludiv10.o(.text)
    .text                                    0x08003c54   Section        0  _printf_fp_infnan.o(.text)
    .text                                    0x08003cd4   Section        0  bigflt0.o(.text)
    .text                                    0x08003db0   Section        8  libspace.o(.text)
    .text                                    0x08003db8   Section       74  sys_stackheap_outer.o(.text)
    .text                                    0x08003e02   Section        0  exit.o(.text)
    .text                                    0x08003e14   Section      128  strcmpv7m.o(.text)
    .text                                    0x08003e94   Section        0  sys_exit.o(.text)
    .text                                    0x08003ea0   Section        2  use_no_semi.o(.text)
    .text                                    0x08003ea2   Section        0  indicate_semi.o(.text)
    CL$$btod_d2e                             0x08003ea2   Section       62  btod.o(CL$$btod_d2e)
    CL$$btod_d2e_denorm_low                  0x08003ee0   Section       70  btod.o(CL$$btod_d2e_denorm_low)
    CL$$btod_d2e_norm_op1                    0x08003f26   Section       96  btod.o(CL$$btod_d2e_norm_op1)
    CL$$btod_div_common                      0x08003f86   Section      824  btod.o(CL$$btod_div_common)
    CL$$btod_e2e                             0x080042be   Section      198  btod.o(CL$$btod_e2e)
    CL$$btod_ediv                            0x08004384   Section       40  btod.o(CL$$btod_ediv)
    CL$$btod_emul                            0x080043ac   Section       40  btod.o(CL$$btod_emul)
    CL$$btod_mult_common                     0x080043d4   Section      580  btod.o(CL$$btod_mult_common)
    i.__ARM_fpclassify                       0x08004618   Section        0  fpclassify.o(i.__ARM_fpclassify)
    i._is_digit                              0x08004640   Section        0  __printf_wp.o(i._is_digit)
    locale$$code                             0x08004650   Section       44  lc_numeric_c.o(locale$$code)
    x$fpl$dadd                               0x0800467c   Section      336  daddsub_clz.o(x$fpl$dadd)
    _dadd1                                   0x0800468d   Thumb Code     0  daddsub_clz.o(x$fpl$dadd)
    x$fpl$dcmpinf                            0x080047cc   Section       24  dcmpi.o(x$fpl$dcmpinf)
    x$fpl$dfix                               0x080047e4   Section       94  dfix.o(x$fpl$dfix)
    x$fpl$dfixu                              0x08004844   Section       90  dfixu.o(x$fpl$dfixu)
    x$fpl$dfltu                              0x0800489e   Section       38  dflt_clz.o(x$fpl$dfltu)
    x$fpl$dleqf                              0x080048c4   Section      120  dleqf.o(x$fpl$dleqf)
    x$fpl$dmul                               0x0800493c   Section      340  dmul.o(x$fpl$dmul)
    x$fpl$dnaninf                            0x08004a90   Section      156  dnaninf.o(x$fpl$dnaninf)
    x$fpl$dretinf                            0x08004b2c   Section       12  dretinf.o(x$fpl$dretinf)
    x$fpl$drleqf                             0x08004b38   Section      108  drleqf.o(x$fpl$drleqf)
    x$fpl$dsub                               0x08004ba4   Section      468  daddsub_clz.o(x$fpl$dsub)
    _dsub1                                   0x08004bb5   Thumb Code     0  daddsub_clz.o(x$fpl$dsub)
    x$fpl$printf1                            0x08004d78   Section        4  printf1.o(x$fpl$printf1)
    .constdata                               0x08004d7c   Section     4560  lcd.o(.constdata)
    x$fpl$usenofp                            0x08004d7c   Section        0  usenofp.o(x$fpl$usenofp)
    .constdata                               0x08005f4c   Section      148  bigflt0.o(.constdata)
    tenpwrs_x                                0x08005f4c   Data          60  bigflt0.o(.constdata)
    tenpwrs_i                                0x08005f88   Data          64  bigflt0.o(.constdata)
    locale$$data                             0x08006000   Section       28  lc_numeric_c.o(locale$$data)
    __lcnum_c_name                           0x08006004   Data           2  lc_numeric_c.o(locale$$data)
    __lcnum_c_start                          0x0800600c   Data           0  lc_numeric_c.o(locale$$data)
    __lcnum_c_point                          0x08006018   Data           0  lc_numeric_c.o(locale$$data)
    __lcnum_c_thousands                      0x0800601a   Data           0  lc_numeric_c.o(locale$$data)
    __lcnum_c_grouping                       0x0800601b   Data           0  lc_numeric_c.o(locale$$data)
    __lcnum_c_end                            0x0800601c   Data           0  lc_numeric_c.o(locale$$data)
    .data                                    0x20000000   Section       20  system_stm32f10x.o(.data)
    .data                                    0x20000014   Section       20  stm32f10x_rcc.o(.data)
    APBAHBPrescTable                         0x20000014   Data          16  stm32f10x_rcc.o(.data)
    ADCPrescTable                            0x20000024   Data           4  stm32f10x_rcc.o(.data)
    .data                                    0x20000028   Section        6  lcd.o(.data)
    TextColor                                0x20000028   Data           2  lcd.o(.data)
    BackColor                                0x2000002a   Data           2  lcd.o(.data)
    .data                                    0x20000030   Section      100  main.o(.data)
    .data                                    0x20000094   Section        8  stm32f10x_it.o(.data)
    .data                                    0x2000009c   Section        2  usart.o(.data)
    .bss                                     0x200000a0   Section      100  main.o(.bss)
    .bss                                     0x20000104   Section       28  usart.o(.bss)
    .bss                                     0x20000120   Section       96  libspace.o(.bss)
    HEAP                                     0x20000180   Section      512  startup_stm32f10x_md.o(HEAP)
    Heap_Mem                                 0x20000180   Data         512  startup_stm32f10x_md.o(HEAP)
    STACK                                    0x20000380   Section     1024  startup_stm32f10x_md.o(STACK)
    Stack_Mem                                0x20000380   Data        1024  startup_stm32f10x_md.o(STACK)
    __initial_sp                             0x20000780   Data           0  startup_stm32f10x_md.o(STACK)

    Global Symbols

    Symbol Name                              Value     Ov Type        Size  Object(Section)

    BuildAttributes$$THM_ISAv4$P$D$K$B$S$PE$A:L22UL41UL21$X:L11$S22US41US21$IEEE1$IW$USESV6$~STKCKD$USESV7$~SHL$OTIME$ROPI$IEEEJ$EBA8$UX$STANDARDLIB$REQ8$PRES8$EABIv2 0x00000000   Number         0  anon$$obj.o ABSOLUTE
    __ARM_use_no_argv                        0x00000000   Number         0  main.o ABSOLUTE
    _printf_flags                            0x00000000   Number         0  printf_stubs.o ABSOLUTE
    _printf_return_value                     0x00000000   Number         0  printf_stubs.o ABSOLUTE
    _printf_sizespec                         0x00000000   Number         0  printf_stubs.o ABSOLUTE
    _printf_widthprec                        0x00000000   Number         0  printf_stubs.o ABSOLUTE
    __ARM_exceptions_init                     - Undefined Weak Reference
    __alloca_initialize                       - Undefined Weak Reference
    __arm_preinit_                            - Undefined Weak Reference
    __cpp_initialize__aeabi_                  - Undefined Weak Reference
    __cxa_finalize                            - Undefined Weak Reference
    __sigvec_lookup                           - Undefined Weak Reference
    _atexit_init                              - Undefined Weak Reference
    _call_atexit_fns                          - Undefined Weak Reference
    _clock_init                               - Undefined Weak Reference
    _fp_trap_init                             - Undefined Weak Reference
    _fp_trap_shutdown                         - Undefined Weak Reference
    _get_lc_collate                           - Undefined Weak Reference
    _get_lc_ctype                             - Undefined Weak Reference
    _get_lc_monetary                          - Undefined Weak Reference
    _get_lc_time                              - Undefined Weak Reference
    _getenv_init                              - Undefined Weak Reference
    _handle_redirection                       - Undefined Weak Reference
    _init_alloc                               - Undefined Weak Reference
    _init_user_alloc                          - Undefined Weak Reference
    _initio                                   - Undefined Weak Reference
    _printf_mbtowc                            - Undefined Weak Reference
    _printf_truncate_signed                   - Undefined Weak Reference
    _printf_truncate_unsigned                 - Undefined Weak Reference
    _rand_init                                - Undefined Weak Reference
    _signal_finish                            - Undefined Weak Reference
    _signal_init                              - Undefined Weak Reference
    _terminate_alloc                          - Undefined Weak Reference
    _terminate_user_alloc                     - Undefined Weak Reference
    _terminateio                              - Undefined Weak Reference
    __Vectors_Size                           0x000000ec   Number         0  startup_stm32f10x_md.o ABSOLUTE
    __Vectors                                0x08000000   Data           4  startup_stm32f10x_md.o(RESET)
    __Vectors_End                            0x080000ec   Data           0  startup_stm32f10x_md.o(RESET)
    __main                                   0x080000ed   Thumb Code     8  __main.o(!!!main)
    __scatterload                            0x080000f5   Thumb Code     0  __scatter.o(!!!scatter)
    __scatterload_rt2                        0x080000f5   Thumb Code    44  __scatter.o(!!!scatter)
    __scatterload_rt2_thumb_only             0x080000f5   Thumb Code     0  __scatter.o(!!!scatter)
    __scatterload_null                       0x08000103   Thumb Code     0  __scatter.o(!!!scatter)
    __scatterload_copy                       0x08000129   Thumb Code    26  __scatter_copy.o(!!handler_copy)
    __scatterload_zeroinit                   0x08000145   Thumb Code    28  __scatter_zi.o(!!handler_zi)
    _printf_f                                0x08000161   Thumb Code     0  _printf_f.o(.ARM.Collect$$_printf_percent$$00000003)
    _printf_percent                          0x08000161   Thumb Code     0  _printf_percent.o(.ARM.Collect$$_printf_percent$$00000000)
    _printf_d                                0x08000167   Thumb Code     0  _printf_d.o(.ARM.Collect$$_printf_percent$$00000009)
    _printf_s                                0x0800016d   Thumb Code     0  _printf_s.o(.ARM.Collect$$_printf_percent$$00000014)
    _printf_percent_end                      0x08000173   Thumb Code     0  _printf_percent_end.o(.ARM.Collect$$_printf_percent$$00000017)
    __rt_lib_init                            0x08000177   Thumb Code     0  libinit.o(.ARM.Collect$$libinit$$00000000)
    __rt_lib_init_fp_1                       0x08000179   Thumb Code     0  libinit2.o(.ARM.Collect$$libinit$$00000002)
    __rt_lib_init_heap_1                     0x08000179   Thumb Code     0  libinit2.o(.ARM.Collect$$libinit$$0000000A)
    __rt_lib_init_lc_common                  0x08000179   Thumb Code     0  libinit2.o(.ARM.Collect$$libinit$$0000000F)
    __rt_lib_init_preinit_1                  0x08000179   Thumb Code     0  libinit2.o(.ARM.Collect$$libinit$$00000004)
    __rt_lib_init_rand_1                     0x08000179   Thumb Code     0  libinit2.o(.ARM.Collect$$libinit$$0000000E)
    __rt_lib_init_user_alloc_1               0x08000179   Thumb Code     0  libinit2.o(.ARM.Collect$$libinit$$0000000C)
    __rt_lib_init_lc_collate_1               0x0800017f   Thumb Code     0  libinit2.o(.ARM.Collect$$libinit$$00000011)
    __rt_lib_init_lc_ctype_1                 0x0800017f   Thumb Code     0  libinit2.o(.ARM.Collect$$libinit$$00000013)
    __rt_lib_init_lc_monetary_1              0x0800017f   Thumb Code     0  libinit2.o(.ARM.Collect$$libinit$$00000015)
    __rt_lib_init_lc_numeric_2               0x0800017f   Thumb Code     0  libinit2.o(.ARM.Collect$$libinit$$00000016)
    __rt_lib_init_alloca_1                   0x08000189   Thumb Code     0  libinit2.o(.ARM.Collect$$libinit$$0000002E)
    __rt_lib_init_argv_1                     0x08000189   Thumb Code     0  libinit2.o(.ARM.Collect$$libinit$$0000002C)
    __rt_lib_init_atexit_1                   0x08000189   Thumb Code     0  libinit2.o(.ARM.Collect$$libinit$$0000001B)
    __rt_lib_init_clock_1                    0x08000189   Thumb Code     0  libinit2.o(.ARM.Collect$$libinit$$00000021)
    __rt_lib_init_cpp_1                      0x08000189   Thumb Code     0  libinit2.o(.ARM.Collect$$libinit$$00000032)
    __rt_lib_init_exceptions_1               0x08000189   Thumb Code     0  libinit2.o(.ARM.Collect$$libinit$$00000030)
    __rt_lib_init_fp_trap_1                  0x08000189   Thumb Code     0  libinit2.o(.ARM.Collect$$libinit$$0000001F)
    __rt_lib_init_getenv_1                   0x08000189   Thumb Code     0  libinit2.o(.ARM.Collect$$libinit$$00000023)
    __rt_lib_init_lc_numeric_1               0x08000189   Thumb Code     0  libinit2.o(.ARM.Collect$$libinit$$00000017)
    __rt_lib_init_lc_time_1                  0x08000189   Thumb Code     0  libinit2.o(.ARM.Collect$$libinit$$00000019)
    __rt_lib_init_return                     0x08000189   Thumb Code     0  libinit2.o(.ARM.Collect$$libinit$$00000033)
    __rt_lib_init_signal_1                   0x08000189   Thumb Code     0  libinit2.o(.ARM.Collect$$libinit$$0000001D)
    __rt_lib_init_stdio_1                    0x08000189   Thumb Code     0  libinit2.o(.ARM.Collect$$libinit$$00000025)
    __rt_lib_shutdown                        0x0800018b   Thumb Code     0  libshutdown.o(.ARM.Collect$$libshutdown$$00000000)
    __rt_lib_shutdown_cpp_1                  0x0800018d   Thumb Code     0  libshutdown2.o(.ARM.Collect$$libshutdown$$00000002)
    __rt_lib_shutdown_fp_trap_1              0x0800018d   Thumb Code     0  libshutdown2.o(.ARM.Collect$$libshutdown$$00000007)
    __rt_lib_shutdown_heap_1                 0x0800018d   Thumb Code     0  libshutdown2.o(.ARM.Collect$$libshutdown$$0000000F)
    __rt_lib_shutdown_return                 0x0800018d   Thumb Code     0  libshutdown2.o(.ARM.Collect$$libshutdown$$00000010)
    __rt_lib_shutdown_signal_1               0x0800018d   Thumb Code     0  libshutdown2.o(.ARM.Collect$$libshutdown$$0000000A)
    __rt_lib_shutdown_stdio_1                0x0800018d   Thumb Code     0  libshutdown2.o(.ARM.Collect$$libshutdown$$00000004)
    __rt_lib_shutdown_user_alloc_1           0x0800018d   Thumb Code     0  libshutdown2.o(.ARM.Collect$$libshutdown$$0000000C)
    __rt_entry                               0x0800018f   Thumb Code     0  __rtentry.o(.ARM.Collect$$rtentry$$00000000)
    __rt_entry_presh_1                       0x0800018f   Thumb Code     0  __rtentry2.o(.ARM.Collect$$rtentry$$00000002)
    __rt_entry_sh                            0x0800018f   Thumb Code     0  __rtentry4.o(.ARM.Collect$$rtentry$$00000004)
    __rt_entry_li                            0x08000195   Thumb Code     0  __rtentry2.o(.ARM.Collect$$rtentry$$0000000A)
    __rt_entry_postsh_1                      0x08000195   Thumb Code     0  __rtentry2.o(.ARM.Collect$$rtentry$$00000009)
    __rt_entry_main                          0x08000199   Thumb Code     0  __rtentry2.o(.ARM.Collect$$rtentry$$0000000D)
    __rt_entry_postli_1                      0x08000199   Thumb Code     0  __rtentry2.o(.ARM.Collect$$rtentry$$0000000C)
    __rt_exit                                0x080001a1   Thumb Code     0  rtexit.o(.ARM.Collect$$rtexit$$00000000)
    __rt_exit_ls                             0x080001a3   Thumb Code     0  rtexit2.o(.ARM.Collect$$rtexit$$00000003)
    __rt_exit_prels_1                        0x080001a3   Thumb Code     0  rtexit2.o(.ARM.Collect$$rtexit$$00000002)
    __rt_exit_exit                           0x080001a7   Thumb Code     0  rtexit2.o(.ARM.Collect$$rtexit$$00000004)
    Reset_Handler                            0x080001ad   Thumb Code     8  startup_stm32f10x_md.o(.text)
    ADC1_2_IRQHandler                        0x080001c7   Thumb Code     0  startup_stm32f10x_md.o(.text)
    CAN1_RX1_IRQHandler                      0x080001c7   Thumb Code     0  startup_stm32f10x_md.o(.text)
    CAN1_SCE_IRQHandler                      0x080001c7   Thumb Code     0  startup_stm32f10x_md.o(.text)
    DMA1_Channel1_IRQHandler                 0x080001c7   Thumb Code     0  startup_stm32f10x_md.o(.text)
    DMA1_Channel2_IRQHandler                 0x080001c7   Thumb Code     0  startup_stm32f10x_md.o(.text)
    DMA1_Channel3_IRQHandler                 0x080001c7   Thumb Code     0  startup_stm32f10x_md.o(.text)
    DMA1_Channel4_IRQHandler                 0x080001c7   Thumb Code     0  startup_stm32f10x_md.o(.text)
    DMA1_Channel5_IRQHandler                 0x080001c7   Thumb Code     0  startup_stm32f10x_md.o(.text)
    DMA1_Channel6_IRQHandler                 0x080001c7   Thumb Code     0  startup_stm32f10x_md.o(.text)
    DMA1_Channel7_IRQHandler                 0x080001c7   Thumb Code     0  startup_stm32f10x_md.o(.text)
    EXTI0_IRQHandler                         0x080001c7   Thumb Code     0  startup_stm32f10x_md.o(.text)
    EXTI15_10_IRQHandler                     0x080001c7   Thumb Code     0  startup_stm32f10x_md.o(.text)
    EXTI1_IRQHandler                         0x080001c7   Thumb Code     0  startup_stm32f10x_md.o(.text)
    EXTI2_IRQHandler                         0x080001c7   Thumb Code     0  startup_stm32f10x_md.o(.text)
    EXTI3_IRQHandler                         0x080001c7   Thumb Code     0  startup_stm32f10x_md.o(.text)
    EXTI4_IRQHandler                         0x080001c7   Thumb Code     0  startup_stm32f10x_md.o(.text)
    EXTI9_5_IRQHandler                       0x080001c7   Thumb Code     0  startup_stm32f10x_md.o(.text)
    FLASH_IRQHandler                         0x080001c7   Thumb Code     0  startup_stm32f10x_md.o(.text)
    I2C1_ER_IRQHandler                       0x080001c7   Thumb Code     0  startup_stm32f10x_md.o(.text)
    I2C1_EV_IRQHandler                       0x080001c7   Thumb Code     0  startup_stm32f10x_md.o(.text)
    I2C2_ER_IRQHandler                       0x080001c7   Thumb Code     0  startup_stm32f10x_md.o(.text)
    I2C2_EV_IRQHandler                       0x080001c7   Thumb Code     0  startup_stm32f10x_md.o(.text)
    PVD_IRQHandler                           0x080001c7   Thumb Code     0  startup_stm32f10x_md.o(.text)
    RCC_IRQHandler                           0x080001c7   Thumb Code     0  startup_stm32f10x_md.o(.text)
    RTCAlarm_IRQHandler                      0x080001c7   Thumb Code     0  startup_stm32f10x_md.o(.text)
    RTC_IRQHandler                           0x080001c7   Thumb Code     0  startup_stm32f10x_md.o(.text)
    SPI1_IRQHandler                          0x080001c7   Thumb Code     0  startup_stm32f10x_md.o(.text)
    SPI2_IRQHandler                          0x080001c7   Thumb Code     0  startup_stm32f10x_md.o(.text)
    TAMPER_IRQHandler                        0x080001c7   Thumb Code     0  startup_stm32f10x_md.o(.text)
    TIM1_BRK_IRQHandler                      0x080001c7   Thumb Code     0  startup_stm32f10x_md.o(.text)
    TIM1_CC_IRQHandler                       0x080001c7   Thumb Code     0  startup_stm32f10x_md.o(.text)
    TIM1_TRG_COM_IRQHandler                  0x080001c7   Thumb Code     0  startup_stm32f10x_md.o(.text)
    TIM1_UP_IRQHandler                       0x080001c7   Thumb Code     0  startup_stm32f10x_md.o(.text)
    TIM2_IRQHandler                          0x080001c7   Thumb Code     0  startup_stm32f10x_md.o(.text)
    TIM3_IRQHandler                          0x080001c7   Thumb Code     0  startup_stm32f10x_md.o(.text)
    TIM4_IRQHandler                          0x080001c7   Thumb Code     0  startup_stm32f10x_md.o(.text)
    USART1_IRQHandler                        0x080001c7   Thumb Code     0  startup_stm32f10x_md.o(.text)
    USART3_IRQHandler                        0x080001c7   Thumb Code     0  startup_stm32f10x_md.o(.text)
    USBWakeUp_IRQHandler                     0x080001c7   Thumb Code     0  startup_stm32f10x_md.o(.text)
    USB_HP_CAN1_TX_IRQHandler                0x080001c7   Thumb Code     0  startup_stm32f10x_md.o(.text)
    USB_LP_CAN1_RX0_IRQHandler               0x080001c7   Thumb Code     0  startup_stm32f10x_md.o(.text)
    WWDG_IRQHandler                          0x080001c7   Thumb Code     0  startup_stm32f10x_md.o(.text)
    __user_initial_stackheap                 0x080001c9   Thumb Code     0  startup_stm32f10x_md.o(.text)
    SystemInit                               0x080002cb   Thumb Code    78  system_stm32f10x.o(.text)
    SystemCoreClockUpdate                    0x08000319   Thumb Code   142  system_stm32f10x.o(.text)
    GPIO_DeInit                              0x080003cd   Thumb Code   172  stm32f10x_gpio.o(.text)
    GPIO_AFIODeInit                          0x08000479   Thumb Code    20  stm32f10x_gpio.o(.text)
    GPIO_Init                                0x0800048d   Thumb Code   278  stm32f10x_gpio.o(.text)
    GPIO_StructInit                          0x080005a3   Thumb Code    16  stm32f10x_gpio.o(.text)
    GPIO_ReadInputDataBit                    0x080005b3   Thumb Code    18  stm32f10x_gpio.o(.text)
    GPIO_ReadInputData                       0x080005c5   Thumb Code     8  stm32f10x_gpio.o(.text)
    GPIO_ReadOutputDataBit                   0x080005cd   Thumb Code    18  stm32f10x_gpio.o(.text)
    GPIO_ReadOutputData                      0x080005df   Thumb Code     8  stm32f10x_gpio.o(.text)
    GPIO_SetBits                             0x080005e7   Thumb Code     4  stm32f10x_gpio.o(.text)
    GPIO_ResetBits                           0x080005eb   Thumb Code     4  stm32f10x_gpio.o(.text)
    GPIO_WriteBit                            0x080005ef   Thumb Code    10  stm32f10x_gpio.o(.text)
    GPIO_Write                               0x080005f9   Thumb Code     4  stm32f10x_gpio.o(.text)
    GPIO_PinLockConfig                       0x080005fd   Thumb Code    18  stm32f10x_gpio.o(.text)
    GPIO_EventOutputConfig                   0x0800060f   Thumb Code    26  stm32f10x_gpio.o(.text)
    GPIO_EventOutputCmd                      0x08000629   Thumb Code     6  stm32f10x_gpio.o(.text)
    GPIO_PinRemapConfig                      0x0800062f   Thumb Code   138  stm32f10x_gpio.o(.text)
    GPIO_EXTILineConfig                      0x080006b9   Thumb Code    66  stm32f10x_gpio.o(.text)
    GPIO_ETH_MediaInterfaceConfig            0x080006fb   Thumb Code     8  stm32f10x_gpio.o(.text)
    RCC_DeInit                               0x08000729   Thumb Code    64  stm32f10x_rcc.o(.text)
    RCC_HSEConfig                            0x08000769   Thumb Code    70  stm32f10x_rcc.o(.text)
    RCC_GetFlagStatus                        0x080007af   Thumb Code    56  stm32f10x_rcc.o(.text)
    RCC_WaitForHSEStartUp                    0x080007e7   Thumb Code    56  stm32f10x_rcc.o(.text)
    RCC_AdjustHSICalibrationValue            0x0800081f   Thumb Code    20  stm32f10x_rcc.o(.text)
    RCC_HSICmd                               0x08000833   Thumb Code     6  stm32f10x_rcc.o(.text)
    RCC_PLLConfig                            0x08000839   Thumb Code    24  stm32f10x_rcc.o(.text)
    RCC_PLLCmd                               0x08000851   Thumb Code     6  stm32f10x_rcc.o(.text)
    RCC_SYSCLKConfig                         0x08000857   Thumb Code    18  stm32f10x_rcc.o(.text)
    RCC_GetSYSCLKSource                      0x08000869   Thumb Code    10  stm32f10x_rcc.o(.text)
    RCC_HCLKConfig                           0x08000873   Thumb Code    18  stm32f10x_rcc.o(.text)
    RCC_PCLK1Config                          0x08000885   Thumb Code    18  stm32f10x_rcc.o(.text)
    RCC_PCLK2Config                          0x08000897   Thumb Code    20  stm32f10x_rcc.o(.text)
    RCC_ITConfig                             0x080008ab   Thumb Code    26  stm32f10x_rcc.o(.text)
    RCC_USBCLKConfig                         0x080008c5   Thumb Code     8  stm32f10x_rcc.o(.text)
    RCC_ADCCLKConfig                         0x080008cd   Thumb Code    18  stm32f10x_rcc.o(.text)
    RCC_LSEConfig                            0x080008df   Thumb Code    50  stm32f10x_rcc.o(.text)
    RCC_LSICmd                               0x08000911   Thumb Code     6  stm32f10x_rcc.o(.text)
    RCC_RTCCLKConfig                         0x08000917   Thumb Code    12  stm32f10x_rcc.o(.text)
    RCC_RTCCLKCmd                            0x08000923   Thumb Code     8  stm32f10x_rcc.o(.text)
    RCC_GetClocksFreq                        0x0800092b   Thumb Code   192  stm32f10x_rcc.o(.text)
    RCC_AHBPeriphClockCmd                    0x080009eb   Thumb Code    26  stm32f10x_rcc.o(.text)
    RCC_APB2PeriphClockCmd                   0x08000a05   Thumb Code    26  stm32f10x_rcc.o(.text)
    RCC_APB1PeriphClockCmd                   0x08000a1f   Thumb Code    26  stm32f10x_rcc.o(.text)
    RCC_APB2PeriphResetCmd                   0x08000a39   Thumb Code    26  stm32f10x_rcc.o(.text)
    RCC_APB1PeriphResetCmd                   0x08000a53   Thumb Code    26  stm32f10x_rcc.o(.text)
    RCC_BackupResetCmd                       0x08000a6d   Thumb Code     8  stm32f10x_rcc.o(.text)
    RCC_ClockSecuritySystemCmd               0x08000a75   Thumb Code     6  stm32f10x_rcc.o(.text)
    RCC_MCOConfig                            0x08000a7b   Thumb Code     6  stm32f10x_rcc.o(.text)
    RCC_ClearFlag                            0x08000a81   Thumb Code    14  stm32f10x_rcc.o(.text)
    RCC_GetITStatus                          0x08000a8f   Thumb Code    20  stm32f10x_rcc.o(.text)
    RCC_ClearITPendingBit                    0x08000aa3   Thumb Code     6  stm32f10x_rcc.o(.text)
    TIM_DeInit                               0x08000acd   Thumb Code   424  stm32f10x_tim.o(.text)
    TIM_TimeBaseInit                         0x08000c75   Thumb Code   122  stm32f10x_tim.o(.text)
    TIM_OC1Init                              0x08000cef   Thumb Code   132  stm32f10x_tim.o(.text)
    TIM_OC2Init                              0x08000d73   Thumb Code   154  stm32f10x_tim.o(.text)
    TIM_OC3Init                              0x08000e0d   Thumb Code   150  stm32f10x_tim.o(.text)
    TIM_OC4Init                              0x08000ea3   Thumb Code   182  stm32f10x_tim.o(.text)
    TIM_SetIC4Prescaler                      0x08000f59   Thumb Code    26  stm32f10x_tim.o(.text)
    TIM_SetIC3Prescaler                      0x08000ff5   Thumb Code    18  stm32f10x_tim.o(.text)
    TIM_SetIC2Prescaler                      0x08001081   Thumb Code    26  stm32f10x_tim.o(.text)
    TIM_SetIC1Prescaler                      0x0800111d   Thumb Code    18  stm32f10x_tim.o(.text)
    TIM_ICInit                               0x0800119b   Thumb Code   150  stm32f10x_tim.o(.text)
    TIM_PWMIConfig                           0x08001231   Thumb Code   124  stm32f10x_tim.o(.text)
    TIM_BDTRConfig                           0x080012ad   Thumb Code    32  stm32f10x_tim.o(.text)
    TIM_TimeBaseStructInit                   0x080012cd   Thumb Code    18  stm32f10x_tim.o(.text)
    TIM_OCStructInit                         0x080012df   Thumb Code    20  stm32f10x_tim.o(.text)
    TIM_ICStructInit                         0x080012f3   Thumb Code    18  stm32f10x_tim.o(.text)
    TIM_BDTRStructInit                       0x08001305   Thumb Code    40  stm32f10x_tim.o(.text)
    TIM_Cmd                                  0x0800132d   Thumb Code    24  stm32f10x_tim.o(.text)
    TIM_CtrlPWMOutputs                       0x08001345   Thumb Code    30  stm32f10x_tim.o(.text)
    TIM_ITConfig                             0x08001363   Thumb Code    18  stm32f10x_tim.o(.text)
    TIM_GenerateEvent                        0x08001375   Thumb Code     4  stm32f10x_tim.o(.text)
    TIM_DMAConfig                            0x08001379   Thumb Code    10  stm32f10x_tim.o(.text)
    TIM_DMACmd                               0x08001383   Thumb Code    18  stm32f10x_tim.o(.text)
    TIM_InternalClockConfig                  0x08001395   Thumb Code    12  stm32f10x_tim.o(.text)
    TIM_SelectInputTrigger                   0x080013a1   Thumb Code    18  stm32f10x_tim.o(.text)
    TIM_ITRxExternalClockConfig              0x080013b3   Thumb Code    24  stm32f10x_tim.o(.text)
    TIM_TIxExternalClockConfig               0x080013cb   Thumb Code    62  stm32f10x_tim.o(.text)
    TIM_ETRConfig                            0x08001409   Thumb Code    28  stm32f10x_tim.o(.text)
    TIM_ETRClockMode1Config                  0x08001425   Thumb Code    54  stm32f10x_tim.o(.text)
    TIM_ETRClockMode2Config                  0x0800145b   Thumb Code    32  stm32f10x_tim.o(.text)
    TIM_PrescalerConfig                      0x0800147b   Thumb Code     6  stm32f10x_tim.o(.text)
    TIM_CounterModeConfig                    0x08001481   Thumb Code    18  stm32f10x_tim.o(.text)
    TIM_EncoderInterfaceConfig               0x08001493   Thumb Code    66  stm32f10x_tim.o(.text)
    TIM_ForcedOC1Config                      0x080014d5   Thumb Code    18  stm32f10x_tim.o(.text)
    TIM_ForcedOC2Config                      0x080014e7   Thumb Code    26  stm32f10x_tim.o(.text)
    TIM_ForcedOC3Config                      0x08001501   Thumb Code    18  stm32f10x_tim.o(.text)
    TIM_ForcedOC4Config                      0x08001513   Thumb Code    26  stm32f10x_tim.o(.text)
    TIM_ARRPreloadConfig                     0x0800152d   Thumb Code    24  stm32f10x_tim.o(.text)
    TIM_SelectCOM                            0x08001545   Thumb Code    24  stm32f10x_tim.o(.text)
    TIM_SelectCCDMA                          0x0800155d   Thumb Code    24  stm32f10x_tim.o(.text)
    TIM_CCPreloadControl                     0x08001575   Thumb Code    24  stm32f10x_tim.o(.text)
    TIM_OC1PreloadConfig                     0x0800158d   Thumb Code    18  stm32f10x_tim.o(.text)
    TIM_OC2PreloadConfig                     0x0800159f   Thumb Code    26  stm32f10x_tim.o(.text)
    TIM_OC3PreloadConfig                     0x080015b9   Thumb Code    18  stm32f10x_tim.o(.text)
    TIM_OC4PreloadConfig                     0x080015cb   Thumb Code    26  stm32f10x_tim.o(.text)
    TIM_OC1FastConfig                        0x080015e5   Thumb Code    18  stm32f10x_tim.o(.text)
    TIM_OC2FastConfig                        0x080015f7   Thumb Code    26  stm32f10x_tim.o(.text)
    TIM_OC3FastConfig                        0x08001611   Thumb Code    18  stm32f10x_tim.o(.text)
    TIM_OC4FastConfig                        0x08001623   Thumb Code    26  stm32f10x_tim.o(.text)
    TIM_ClearOC1Ref                          0x0800163d   Thumb Code    18  stm32f10x_tim.o(.text)
    TIM_ClearOC2Ref                          0x0800164f   Thumb Code    24  stm32f10x_tim.o(.text)
    TIM_ClearOC3Ref                          0x08001667   Thumb Code    18  stm32f10x_tim.o(.text)
    TIM_ClearOC4Ref                          0x08001679   Thumb Code    24  stm32f10x_tim.o(.text)
    TIM_OC1PolarityConfig                    0x08001691   Thumb Code    18  stm32f10x_tim.o(.text)
    TIM_OC1NPolarityConfig                   0x080016a3   Thumb Code    18  stm32f10x_tim.o(.text)
    TIM_OC2PolarityConfig                    0x080016b5   Thumb Code    26  stm32f10x_tim.o(.text)
    TIM_OC2NPolarityConfig                   0x080016cf   Thumb Code    26  stm32f10x_tim.o(.text)
    TIM_OC3PolarityConfig                    0x080016e9   Thumb Code    26  stm32f10x_tim.o(.text)
    TIM_OC3NPolarityConfig                   0x08001703   Thumb Code    26  stm32f10x_tim.o(.text)
    TIM_OC4PolarityConfig                    0x0800171d   Thumb Code    26  stm32f10x_tim.o(.text)
    TIM_CCxCmd                               0x08001737   Thumb Code    30  stm32f10x_tim.o(.text)
    TIM_CCxNCmd                              0x08001755   Thumb Code    30  stm32f10x_tim.o(.text)
    TIM_SelectOCxM                           0x08001773   Thumb Code    82  stm32f10x_tim.o(.text)
    TIM_UpdateDisableConfig                  0x080017c5   Thumb Code    24  stm32f10x_tim.o(.text)
    TIM_UpdateRequestConfig                  0x080017dd   Thumb Code    24  stm32f10x_tim.o(.text)
    TIM_SelectHallSensor                     0x080017f5   Thumb Code    24  stm32f10x_tim.o(.text)
    TIM_SelectOnePulseMode                   0x0800180d   Thumb Code    18  stm32f10x_tim.o(.text)
    TIM_SelectOutputTrigger                  0x0800181f   Thumb Code    18  stm32f10x_tim.o(.text)
    TIM_SelectSlaveMode                      0x08001831   Thumb Code    18  stm32f10x_tim.o(.text)
    TIM_SelectMasterSlaveMode                0x08001843   Thumb Code    18  stm32f10x_tim.o(.text)
    TIM_SetCounter                           0x08001855   Thumb Code     4  stm32f10x_tim.o(.text)
    TIM_SetAutoreload                        0x08001859   Thumb Code     4  stm32f10x_tim.o(.text)
    TIM_SetCompare1                          0x0800185d   Thumb Code     4  stm32f10x_tim.o(.text)
    TIM_SetCompare2                          0x08001861   Thumb Code     4  stm32f10x_tim.o(.text)
    TIM_SetCompare3                          0x08001865   Thumb Code     4  stm32f10x_tim.o(.text)
    TIM_SetCompare4                          0x08001869   Thumb Code     6  stm32f10x_tim.o(.text)
    TIM_SetClockDivision                     0x0800186f   Thumb Code    18  stm32f10x_tim.o(.text)
    TIM_GetCapture1                          0x08001881   Thumb Code     6  stm32f10x_tim.o(.text)
    TIM_GetCapture2                          0x08001887   Thumb Code     6  stm32f10x_tim.o(.text)
    TIM_GetCapture3                          0x0800188d   Thumb Code     6  stm32f10x_tim.o(.text)
    TIM_GetCapture4                          0x08001893   Thumb Code     8  stm32f10x_tim.o(.text)
    TIM_GetCounter                           0x0800189b   Thumb Code     6  stm32f10x_tim.o(.text)
    TIM_GetPrescaler                         0x080018a1   Thumb Code     6  stm32f10x_tim.o(.text)
    TIM_GetFlagStatus                        0x080018a7   Thumb Code    18  stm32f10x_tim.o(.text)
    TIM_ClearFlag                            0x080018b9   Thumb Code     6  stm32f10x_tim.o(.text)
    TIM_GetITStatus                          0x080018bf   Thumb Code    34  stm32f10x_tim.o(.text)
    TIM_ClearITPendingBit                    0x080018e1   Thumb Code     6  stm32f10x_tim.o(.text)
    USART_DeInit                             0x080018e9   Thumb Code   134  stm32f10x_usart.o(.text)
    USART_Init                               0x0800196f   Thumb Code   210  stm32f10x_usart.o(.text)
    USART_StructInit                         0x08001a41   Thumb Code    24  stm32f10x_usart.o(.text)
    USART_ClockInit                          0x08001a59   Thumb Code    34  stm32f10x_usart.o(.text)
    USART_ClockStructInit                    0x08001a7b   Thumb Code    12  stm32f10x_usart.o(.text)
    USART_Cmd                                0x08001a87   Thumb Code    24  stm32f10x_usart.o(.text)
    USART_ITConfig                           0x08001a9f   Thumb Code    74  stm32f10x_usart.o(.text)
    USART_DMACmd                             0x08001ae9   Thumb Code    18  stm32f10x_usart.o(.text)
    USART_SetAddress                         0x08001afb   Thumb Code    18  stm32f10x_usart.o(.text)
    USART_WakeUpConfig                       0x08001b0d   Thumb Code    18  stm32f10x_usart.o(.text)
    USART_ReceiverWakeUpCmd                  0x08001b1f   Thumb Code    24  stm32f10x_usart.o(.text)
    USART_LINBreakDetectLengthConfig         0x08001b37   Thumb Code    18  stm32f10x_usart.o(.text)
    USART_LINCmd                             0x08001b49   Thumb Code    24  stm32f10x_usart.o(.text)
    USART_SendData                           0x08001b61   Thumb Code     8  stm32f10x_usart.o(.text)
    USART_ReceiveData                        0x08001b69   Thumb Code    10  stm32f10x_usart.o(.text)
    USART_SendBreak                          0x08001b73   Thumb Code    10  stm32f10x_usart.o(.text)
    USART_SetGuardTime                       0x08001b7d   Thumb Code    16  stm32f10x_usart.o(.text)
    USART_SetPrescaler                       0x08001b8d   Thumb Code    16  stm32f10x_usart.o(.text)
    USART_SmartCardCmd                       0x08001b9d   Thumb Code    24  stm32f10x_usart.o(.text)
    USART_SmartCardNACKCmd                   0x08001bb5   Thumb Code    24  stm32f10x_usart.o(.text)
    USART_HalfDuplexCmd                      0x08001bcd   Thumb Code    24  stm32f10x_usart.o(.text)
    USART_OverSampling8Cmd                   0x08001be5   Thumb Code    22  stm32f10x_usart.o(.text)
    USART_OneBitMethodCmd                    0x08001bfb   Thumb Code    24  stm32f10x_usart.o(.text)
    USART_IrDAConfig                         0x08001c13   Thumb Code    18  stm32f10x_usart.o(.text)
    USART_IrDACmd                            0x08001c25   Thumb Code    24  stm32f10x_usart.o(.text)
    USART_GetFlagStatus                      0x08001c3d   Thumb Code    26  stm32f10x_usart.o(.text)
    USART_ClearFlag                          0x08001c57   Thumb Code    18  stm32f10x_usart.o(.text)
    USART_GetITStatus                        0x08001c69   Thumb Code    84  stm32f10x_usart.o(.text)
    USART_ClearITPendingBit                  0x08001cbd   Thumb Code    52  stm32f10x_usart.o(.text)
    NVIC_PriorityGroupConfig                 0x08001cf1   Thumb Code    10  misc.o(.text)
    NVIC_Init                                0x08001cfb   Thumb Code   100  misc.o(.text)
    NVIC_SetVectorTable                      0x08001d5f   Thumb Code    14  misc.o(.text)
    NVIC_SystemLPConfig                      0x08001d6d   Thumb Code    34  misc.o(.text)
    SysTick_CLKSourceConfig                  0x08001d8f   Thumb Code    40  misc.o(.text)
    Delay_LCD                                0x08001dcd   Thumb Code    30  lcd.o(.text)
    LCD_WriteReg                             0x08001deb   Thumb Code    68  lcd.o(.text)
    REG_8230_Init                            0x08001e2f   Thumb Code   288  lcd.o(.text)
    REG_932X_Init                            0x08001f4f   Thumb Code   514  lcd.o(.text)
    LCD_BusOut                               0x08002151   Thumb Code    32  lcd.o(.text)
    LCD_BusIn                                0x08002171   Thumb Code    32  lcd.o(.text)
    LCD_ReadReg                              0x08002191   Thumb Code    92  lcd.o(.text)
    LCD_CtrlLinesConfig                      0x080021ed   Thumb Code    68  lcd.o(.text)
    STM3210B_LCD_Init                        0x08002231   Thumb Code    50  lcd.o(.text)
    LCD_SetTextColor                         0x08002263   Thumb Code    12  lcd.o(.text)
    LCD_SetBackColor                         0x0800226f   Thumb Code    12  lcd.o(.text)
    LCD_SetCursor                            0x0800227b   Thumb Code    24  lcd.o(.text)
    LCD_WriteRAM                             0x08002293   Thumb Code    54  lcd.o(.text)
    LCD_WriteRAM_Prepare                     0x080022c9   Thumb Code    58  lcd.o(.text)
    LCD_DrawChar                             0x08002303   Thumb Code   100  lcd.o(.text)
    LCD_DisplayChar                          0x08002367   Thumb Code    34  lcd.o(.text)
    LCD_DisplayStringLine                    0x08002389   Thumb Code    44  lcd.o(.text)
    LCD_ClearLine                            0x080023b5   Thumb Code    14  lcd.o(.text)
    LCD_Clear                                0x080023c3   Thumb Code    38  lcd.o(.text)
    LCD_SetDisplayWindow                     0x080023e9   Thumb Code    88  lcd.o(.text)
    LCD_WindowModeDisable                    0x08002441   Thumb Code    28  lcd.o(.text)
    LCD_DrawLine                             0x0800245d   Thumb Code    86  lcd.o(.text)
    LCD_DrawRect                             0x080024b3   Thumb Code    66  lcd.o(.text)
    LCD_DrawCircle                           0x080024f5   Thumb Code   300  lcd.o(.text)
    LCD_DrawMonoPict                         0x08002621   Thumb Code    76  lcd.o(.text)
    LCD_WriteBMP                             0x0800266d   Thumb Code    74  lcd.o(.text)
    LCD_ReadRAM                              0x080026b7   Thumb Code    82  lcd.o(.text)
    LCD_PowerOn                              0x08002709   Thumb Code   118  lcd.o(.text)
    LCD_DisplayOn                            0x0800277f   Thumb Code    14  lcd.o(.text)
    LCD_DisplayOff                           0x0800278d   Thumb Code    12  lcd.o(.text)
    LCD_DrawPicture                          0x08002799   Thumb Code    48  lcd.o(.text)
    Analog_PA2_PWM                           0x080027d9   Thumb Code    32  main.o(.text)
    Usart_Control                            0x080027f9   Thumb Code    18  main.o(.text)
    PWM_Usart                                0x0800280b   Thumb Code     2  main.o(.text)
    Delay_Ms                                 0x0800280d   Thumb Code    16  main.o(.text)
    Write_Data                               0x0800281d   Thumb Code    46  main.o(.text)
    Save_Data                                0x0800284b   Thumb Code    84  main.o(.text)
    PWM_Control                              0x0800289f   Thumb Code   200  main.o(.text)
    Mode_Control                             0x08002967   Thumb Code   128  main.o(.text)
    Setting                                  0x080029e7   Thumb Code   162  main.o(.text)
    Time_Control                             0x08002a89   Thumb Code    64  main.o(.text)
    LCD_Show                                 0x08002ac9   Thumb Code   126  main.o(.text)
    Read_Data                                0x08002b47   Thumb Code    60  main.o(.text)
    Init_Data                                0x08002b83   Thumb Code   314  main.o(.text)
    main                                     0x08002cbd   Thumb Code   220  main.o(.text)
    NMI_Handler                              0x08002db5   Thumb Code     2  stm32f10x_it.o(.text)
    HardFault_Handler                        0x08002db7   Thumb Code     4  stm32f10x_it.o(.text)
    MemManage_Handler                        0x08002dbb   Thumb Code     4  stm32f10x_it.o(.text)
    BusFault_Handler                         0x08002dbf   Thumb Code     4  stm32f10x_it.o(.text)
    UsageFault_Handler                       0x08002dc3   Thumb Code     4  stm32f10x_it.o(.text)
    DebugMon_Handler                         0x08002dc7   Thumb Code     2  stm32f10x_it.o(.text)
    SVC_Handler                              0x08002dc9   Thumb Code     2  stm32f10x_it.o(.text)
    PendSV_Handler                           0x08002dcb   Thumb Code     2  stm32f10x_it.o(.text)
    SysTick_Handler                          0x08002dcd   Thumb Code   102  stm32f10x_it.o(.text)
    Key_Init                                 0x08002e4d   Thumb Code    62  key.o(.text)
    Key_Scan                                 0x08002e8b   Thumb Code    82  key.o(.text)
    LED_Init                                 0x08002ee5   Thumb Code    62  led.o(.text)
    LED_Control                              0x08002f23   Thumb Code    60  led.o(.text)
    PWM_IO_Config                            0x08002f69   Thumb Code    64  pwm.o(.text)
    TIM_Config                               0x08002fa9   Thumb Code   132  pwm.o(.text)
    USART_Config                             0x08003031   Thumb Code    90  usart.o(.text)
    USART_SendString                         0x0800308b   Thumb Code    44  usart.o(.text)
    NVIC_Configuration                       0x080030b7   Thumb Code    42  usart.o(.text)
    USART2_IRQHandler                        0x080030e1   Thumb Code    86  usart.o(.text)
    SDA_Input_Mode                           0x0800314d   Thumb Code    30  iic.o(.text)
    SDA_Output_Mode                          0x0800316b   Thumb Code    30  iic.o(.text)
    SDA_Output                               0x08003189   Thumb Code    26  iic.o(.text)
    SCL_Output                               0x080031a3   Thumb Code    26  iic.o(.text)
    SDA_Input                                0x080031bd   Thumb Code    12  iic.o(.text)
    delay1                                   0x080031c9   Thumb Code    12  iic.o(.text)
    I2CStart                                 0x080031d5   Thumb Code    60  iic.o(.text)
    I2CStop                                  0x08003211   Thumb Code    60  iic.o(.text)
    I2CWaitAck                               0x0800324d   Thumb Code    88  iic.o(.text)
    I2CSendAck                               0x080032a5   Thumb Code    54  iic.o(.text)
    I2CSendNotAck                            0x080032db   Thumb Code    46  iic.o(.text)
    I2CSendByte                              0x08003309   Thumb Code    88  iic.o(.text)
    I2CReceiveByte                           0x08003361   Thumb Code    88  iic.o(.text)
    i2c_init                                 0x080033b9   Thumb Code    38  iic.o(.text)
    __2sprintf                               0x080033e5   Thumb Code    34  noretval__2sprintf.o(.text)
    _printf_pre_padding                      0x0800340d   Thumb Code    44  _printf_pad.o(.text)
    _printf_post_padding                     0x08003439   Thumb Code    34  _printf_pad.o(.text)
    _printf_str                              0x0800345b   Thumb Code    82  _printf_str.o(.text)
    _printf_int_dec                          0x080034ad   Thumb Code   104  _printf_dec.o(.text)
    __printf                                 0x08003525   Thumb Code   352  __printf_ss_wp.o(.text)
    __use_two_region_memory                  0x08003685   Thumb Code     2  heapauxi.o(.text)
    __rt_heap_escrow$2region                 0x08003687   Thumb Code     2  heapauxi.o(.text)
    __rt_heap_expand$2region                 0x08003689   Thumb Code     2  heapauxi.o(.text)
    _printf_int_common                       0x0800368b   Thumb Code   178  _printf_intcommon.o(.text)
    __lib_sel_fp_printf                      0x0800373d   Thumb Code     2  _printf_fp_dec.o(.text)
    _printf_fp_dec_real                      0x080038eb   Thumb Code   620  _printf_fp_dec.o(.text)
    _printf_char_common                      0x08003b63   Thumb Code    32  _printf_char_common.o(.text)
    _sputc                                   0x08003b89   Thumb Code    10  _sputc.o(.text)
    _printf_cs_common                        0x08003b93   Thumb Code    20  _printf_char.o(.text)
    _printf_char                             0x08003ba7   Thumb Code    16  _printf_char.o(.text)
    _printf_string                           0x08003bb7   Thumb Code     8  _printf_char.o(.text)
    __rt_locale                              0x08003bc1   Thumb Code     8  rt_locale_intlibspace.o(.text)
    _ll_udiv10                               0x08003bc9   Thumb Code   138  lludiv10.o(.text)
    _printf_fp_infnan                        0x08003c55   Thumb Code   112  _printf_fp_infnan.o(.text)
    _btod_etento                             0x08003cd5   Thumb Code   216  bigflt0.o(.text)
    __user_libspace                          0x08003db1   Thumb Code     8  libspace.o(.text)
    __user_perproc_libspace                  0x08003db1   Thumb Code     0  libspace.o(.text)
    __user_perthread_libspace                0x08003db1   Thumb Code     0  libspace.o(.text)
    __user_setup_stackheap                   0x08003db9   Thumb Code    74  sys_stackheap_outer.o(.text)
    exit                                     0x08003e03   Thumb Code    18  exit.o(.text)
    strcmp                                   0x08003e15   Thumb Code   128  strcmpv7m.o(.text)
    _sys_exit                                0x08003e95   Thumb Code     8  sys_exit.o(.text)
    __I$use$semihosting                      0x08003ea1   Thumb Code     0  use_no_semi.o(.text)
    __use_no_semihosting_swi                 0x08003ea1   Thumb Code     2  use_no_semi.o(.text)
    __semihosting_library_function           0x08003ea3   Thumb Code     0  indicate_semi.o(.text)
    _btod_d2e                                0x08003ea3   Thumb Code    62  btod.o(CL$$btod_d2e)
    _d2e_denorm_low                          0x08003ee1   Thumb Code    70  btod.o(CL$$btod_d2e_denorm_low)
    _d2e_norm_op1                            0x08003f27   Thumb Code    96  btod.o(CL$$btod_d2e_norm_op1)
    __btod_div_common                        0x08003f87   Thumb Code   696  btod.o(CL$$btod_div_common)
    _e2e                                     0x080042bf   Thumb Code   198  btod.o(CL$$btod_e2e)
    _btod_ediv                               0x08004385   Thumb Code    40  btod.o(CL$$btod_ediv)
    _btod_emul                               0x080043ad   Thumb Code    40  btod.o(CL$$btod_emul)
    __btod_mult_common                       0x080043d5   Thumb Code   580  btod.o(CL$$btod_mult_common)
    __ARM_fpclassify                         0x08004619   Thumb Code    40  fpclassify.o(i.__ARM_fpclassify)
    _is_digit                                0x08004641   Thumb Code    14  __printf_wp.o(i._is_digit)
    _get_lc_numeric                          0x08004651   Thumb Code    44  lc_numeric_c.o(locale$$code)
    __aeabi_dadd                             0x0800467d   Thumb Code     0  daddsub_clz.o(x$fpl$dadd)
    _dadd                                    0x0800467d   Thumb Code   332  daddsub_clz.o(x$fpl$dadd)
    __fpl_dcmp_Inf                           0x080047cd   Thumb Code    24  dcmpi.o(x$fpl$dcmpinf)
    __aeabi_d2iz                             0x080047e5   Thumb Code     0  dfix.o(x$fpl$dfix)
    _dfix                                    0x080047e5   Thumb Code    94  dfix.o(x$fpl$dfix)
    __aeabi_d2uiz                            0x08004845   Thumb Code     0  dfixu.o(x$fpl$dfixu)
    _dfixu                                   0x08004845   Thumb Code    90  dfixu.o(x$fpl$dfixu)
    __aeabi_ui2d                             0x0800489f   Thumb Code     0  dflt_clz.o(x$fpl$dfltu)
    _dfltu                                   0x0800489f   Thumb Code    38  dflt_clz.o(x$fpl$dfltu)
    __aeabi_cdcmple                          0x080048c5   Thumb Code     0  dleqf.o(x$fpl$dleqf)
    _dcmple                                  0x080048c5   Thumb Code   120  dleqf.o(x$fpl$dleqf)
    __fpl_dcmple_InfNaN                      0x08004927   Thumb Code     0  dleqf.o(x$fpl$dleqf)
    __aeabi_dmul                             0x0800493d   Thumb Code     0  dmul.o(x$fpl$dmul)
    _dmul                                    0x0800493d   Thumb Code   332  dmul.o(x$fpl$dmul)
    __fpl_dnaninf                            0x08004a91   Thumb Code   156  dnaninf.o(x$fpl$dnaninf)
    __fpl_dretinf                            0x08004b2d   Thumb Code    12  dretinf.o(x$fpl$dretinf)
    __aeabi_cdrcmple                         0x08004b39   Thumb Code     0  drleqf.o(x$fpl$drleqf)
    _drcmple                                 0x08004b39   Thumb Code   108  drleqf.o(x$fpl$drleqf)
    __aeabi_dsub                             0x08004ba5   Thumb Code     0  daddsub_clz.o(x$fpl$dsub)
    _dsub                                    0x08004ba5   Thumb Code   464  daddsub_clz.o(x$fpl$dsub)
    _printf_fp_dec                           0x08004d79   Thumb Code     4  printf1.o(x$fpl$printf1)
    ASCII_Table                              0x08004d7c   Data        4560  lcd.o(.constdata)
    __I$use$fp                               0x08004d7c   Number         0  usenofp.o(x$fpl$usenofp)
    Region$$Table$$Base                      0x08005fe0   Number         0  anon$$obj.o(Region$$Table)
    Region$$Table$$Limit                     0x08006000   Number         0  anon$$obj.o(Region$$Table)
    SystemCoreClock                          0x20000000   Data           4  system_stm32f10x.o(.data)
    AHBPrescTable                            0x20000004   Data          16  system_stm32f10x.o(.data)
    dummy                                    0x2000002c   Data           2  lcd.o(.data)
    TimingDelay                              0x20000030   Data           4  main.o(.data)
    PA1_Duty_Cycle                           0x20000038   Data           8  main.o(.data)
    PA2_Duty_Cycle                           0x20000040   Data           8  main.o(.data)
    Channel                                  0x20000048   Data           4  main.o(.data)
    PA1_Compare                              0x2000004c   Data           4  main.o(.data)
    PA2_Compare                              0x20000050   Data           4  main.o(.data)
    PA1_Mode                                 0x20000054   Data           4  main.o(.data)
    PA2_Mode                                 0x20000058   Data           4  main.o(.data)
    Command_Flag                             0x2000005c   Data           4  main.o(.data)
    PWM_Usart_Flag                           0x20000060   Data           4  main.o(.data)
    hour                                     0x20000064   Data           4  main.o(.data)
    minute                                   0x20000068   Data           4  main.o(.data)
    second                                   0x2000006c   Data           4  main.o(.data)
    Setting_Hour                             0x20000070   Data           4  main.o(.data)
    Setting_Minute                           0x20000074   Data           4  main.o(.data)
    Setting_Second                           0x20000078   Data           4  main.o(.data)
    Setting_Channel                          0x2000007c   Data           4  main.o(.data)
    Setting_Low                              0x20000080   Data           4  main.o(.data)
    time                                     0x20000084   Data           4  main.o(.data)
    key                                      0x20000088   Data           1  main.o(.data)
    flag1                                    0x2000008c   Data           4  main.o(.data)
    flag2                                    0x20000090   Data           4  main.o(.data)
    Time_Flag                                0x20000094   Data           4  stm32f10x_it.o(.data)
    Change                                   0x20000098   Data           4  stm32f10x_it.o(.data)
    RXOVER                                   0x2000009c   Data           1  usart.o(.data)
    RXCUNT                                   0x2000009d   Data           1  usart.o(.data)
    PA1_Show                                 0x200000a0   Data          20  main.o(.bss)
    PA2_Show                                 0x200000b4   Data          20  main.o(.bss)
    Time_Show                                0x200000c8   Data          20  main.o(.bss)
    Channel_Show                             0x200000dc   Data          20  main.o(.bss)
    Command_Show                             0x200000f0   Data          20  main.o(.bss)
    USART_RXBUF                              0x20000104   Data          28  usart.o(.bss)
    __libspace_start                         0x20000120   Data          96  libspace.o(.bss)
    __temporary_stack_top$libspace           0x20000180   Data           0  libspace.o(.bss)



==============================================================================

Memory Map of the image

  Image Entry point : 0x080000ed

  Load Region LR_IROM1 (Base: 0x08000000, Size: 0x000060bc, Max: 0x00020000, ABSOLUTE)

    Execution Region ER_IROM1 (Base: 0x08000000, Size: 0x0000601c, Max: 0x00020000, ABSOLUTE)

    Base Addr    Size         Type   Attr      Idx    E Section Name        Object

    0x08000000   0x000000ec   Data   RO            3    RESET               startup_stm32f10x_md.o
    0x080000ec   0x00000008   Code   RO          599  * !!!main             c_w.l(__main.o)
    0x080000f4   0x00000034   Code   RO          847    !!!scatter          c_w.l(__scatter.o)
    0x08000128   0x0000001a   Code   RO          849    !!handler_copy      c_w.l(__scatter_copy.o)
    0x08000142   0x00000002   PAD
    0x08000144   0x0000001c   Code   RO          851    !!handler_zi        c_w.l(__scatter_zi.o)
    0x08000160   0x00000000   Code   RO          596    .ARM.Collect$$_printf_percent$$00000000  c_w.l(_printf_percent.o)
    0x08000160   0x00000006   Code   RO          595    .ARM.Collect$$_printf_percent$$00000003  c_w.l(_printf_f.o)
    0x08000166   0x00000006   Code   RO          594    .ARM.Collect$$_printf_percent$$00000009  c_w.l(_printf_d.o)
    0x0800016c   0x00000006   Code   RO          593    .ARM.Collect$$_printf_percent$$00000014  c_w.l(_printf_s.o)
    0x08000172   0x00000004   Code   RO          638    .ARM.Collect$$_printf_percent$$00000017  c_w.l(_printf_percent_end.o)
    0x08000176   0x00000002   Code   RO          720    .ARM.Collect$$libinit$$00000000  c_w.l(libinit.o)
    0x08000178   0x00000000   Code   RO          722    .ARM.Collect$$libinit$$00000002  c_w.l(libinit2.o)
    0x08000178   0x00000000   Code   RO          724    .ARM.Collect$$libinit$$00000004  c_w.l(libinit2.o)
    0x08000178   0x00000000   Code   RO          727    .ARM.Collect$$libinit$$0000000A  c_w.l(libinit2.o)
    0x08000178   0x00000000   Code   RO          729    .ARM.Collect$$libinit$$0000000C  c_w.l(libinit2.o)
    0x08000178   0x00000000   Code   RO          731    .ARM.Collect$$libinit$$0000000E  c_w.l(libinit2.o)
    0x08000178   0x00000006   Code   RO          732    .ARM.Collect$$libinit$$0000000F  c_w.l(libinit2.o)
    0x0800017e   0x00000000   Code   RO          734    .ARM.Collect$$libinit$$00000011  c_w.l(libinit2.o)
    0x0800017e   0x00000000   Code   RO          736    .ARM.Collect$$libinit$$00000013  c_w.l(libinit2.o)
    0x0800017e   0x00000000   Code   RO          738    .ARM.Collect$$libinit$$00000015  c_w.l(libinit2.o)
    0x0800017e   0x0000000a   Code   RO          739    .ARM.Collect$$libinit$$00000016  c_w.l(libinit2.o)
    0x08000188   0x00000000   Code   RO          740    .ARM.Collect$$libinit$$00000017  c_w.l(libinit2.o)
    0x08000188   0x00000000   Code   RO          742    .ARM.Collect$$libinit$$00000019  c_w.l(libinit2.o)
    0x08000188   0x00000000   Code   RO          744    .ARM.Collect$$libinit$$0000001B  c_w.l(libinit2.o)
    0x08000188   0x00000000   Code   RO          746    .ARM.Collect$$libinit$$0000001D  c_w.l(libinit2.o)
    0x08000188   0x00000000   Code   RO          748    .ARM.Collect$$libinit$$0000001F  c_w.l(libinit2.o)
    0x08000188   0x00000000   Code   RO          750    .ARM.Collect$$libinit$$00000021  c_w.l(libinit2.o)
    0x08000188   0x00000000   Code   RO          752    .ARM.Collect$$libinit$$00000023  c_w.l(libinit2.o)
    0x08000188   0x00000000   Code   RO          754    .ARM.Collect$$libinit$$00000025  c_w.l(libinit2.o)
    0x08000188   0x00000000   Code   RO          758    .ARM.Collect$$libinit$$0000002C  c_w.l(libinit2.o)
    0x08000188   0x00000000   Code   RO          760    .ARM.Collect$$libinit$$0000002E  c_w.l(libinit2.o)
    0x08000188   0x00000000   Code   RO          762    .ARM.Collect$$libinit$$00000030  c_w.l(libinit2.o)
    0x08000188   0x00000000   Code   RO          764    .ARM.Collect$$libinit$$00000032  c_w.l(libinit2.o)
    0x08000188   0x00000002   Code   RO          765    .ARM.Collect$$libinit$$00000033  c_w.l(libinit2.o)
    0x0800018a   0x00000002   Code   RO          795    .ARM.Collect$$libshutdown$$00000000  c_w.l(libshutdown.o)
    0x0800018c   0x00000000   Code   RO          806    .ARM.Collect$$libshutdown$$00000002  c_w.l(libshutdown2.o)
    0x0800018c   0x00000000   Code   RO          808    .ARM.Collect$$libshutdown$$00000004  c_w.l(libshutdown2.o)
    0x0800018c   0x00000000   Code   RO          811    .ARM.Collect$$libshutdown$$00000007  c_w.l(libshutdown2.o)
    0x0800018c   0x00000000   Code   RO          814    .ARM.Collect$$libshutdown$$0000000A  c_w.l(libshutdown2.o)
    0x0800018c   0x00000000   Code   RO          816    .ARM.Collect$$libshutdown$$0000000C  c_w.l(libshutdown2.o)
    0x0800018c   0x00000000   Code   RO          819    .ARM.Collect$$libshutdown$$0000000F  c_w.l(libshutdown2.o)
    0x0800018c   0x00000002   Code   RO          820    .ARM.Collect$$libshutdown$$00000010  c_w.l(libshutdown2.o)
    0x0800018e   0x00000000   Code   RO          627    .ARM.Collect$$rtentry$$00000000  c_w.l(__rtentry.o)
    0x0800018e   0x00000000   Code   RO          647    .ARM.Collect$$rtentry$$00000002  c_w.l(__rtentry2.o)
    0x0800018e   0x00000006   Code   RO          659    .ARM.Collect$$rtentry$$00000004  c_w.l(__rtentry4.o)
    0x08000194   0x00000000   Code   RO          649    .ARM.Collect$$rtentry$$00000009  c_w.l(__rtentry2.o)
    0x08000194   0x00000004   Code   RO          650    .ARM.Collect$$rtentry$$0000000A  c_w.l(__rtentry2.o)
    0x08000198   0x00000000   Code   RO          652    .ARM.Collect$$rtentry$$0000000C  c_w.l(__rtentry2.o)
    0x08000198   0x00000008   Code   RO          653    .ARM.Collect$$rtentry$$0000000D  c_w.l(__rtentry2.o)
    0x080001a0   0x00000002   Code   RO          766    .ARM.Collect$$rtexit$$00000000  c_w.l(rtexit.o)
    0x080001a2   0x00000000   Code   RO          773    .ARM.Collect$$rtexit$$00000002  c_w.l(rtexit2.o)
    0x080001a2   0x00000004   Code   RO          774    .ARM.Collect$$rtexit$$00000003  c_w.l(rtexit2.o)
    0x080001a6   0x00000006   Code   RO          775    .ARM.Collect$$rtexit$$00000004  c_w.l(rtexit2.o)
    0x080001ac   0x00000040   Code   RO            4    .text               startup_stm32f10x_md.o
    0x080001ec   0x000001e0   Code   RO           26    .text               system_stm32f10x.o
    0x080003cc   0x0000035c   Code   RO          137    .text               stm32f10x_gpio.o
    0x08000728   0x000003a4   Code   RO          161    .text               stm32f10x_rcc.o
    0x08000acc   0x00000e1a   Code   RO          183    .text               stm32f10x_tim.o
    0x080018e6   0x00000002   PAD
    0x080018e8   0x00000408   Code   RO          203    .text               stm32f10x_usart.o
    0x08001cf0   0x000000dc   Code   RO          243    .text               misc.o
    0x08001dcc   0x00000a0c   Code   RO          263    .text               lcd.o
    0x080027d8   0x000005dc   Code   RO          293    .text               main.o
    0x08002db4   0x00000098   Code   RO          420    .text               stm32f10x_it.o
    0x08002e4c   0x00000098   Code   RO          451    .text               key.o
    0x08002ee4   0x00000084   Code   RO          474    .text               led.o
    0x08002f68   0x000000c8   Code   RO          497    .text               pwm.o
    0x08003030   0x0000011c   Code   RO          517    .text               usart.o
    0x0800314c   0x00000298   Code   RO          541    .text               iic.o
    0x080033e4   0x00000028   Code   RO          563    .text               c_w.l(noretval__2sprintf.o)
    0x0800340c   0x0000004e   Code   RO          567    .text               c_w.l(_printf_pad.o)
    0x0800345a   0x00000052   Code   RO          569    .text               c_w.l(_printf_str.o)
    0x080034ac   0x00000078   Code   RO          571    .text               c_w.l(_printf_dec.o)
    0x08003524   0x00000160   Code   RO          588    .text               c_w.l(__printf_ss_wp.o)
    0x08003684   0x00000006   Code   RO          597    .text               c_w.l(heapauxi.o)
    0x0800368a   0x000000b2   Code   RO          628    .text               c_w.l(_printf_intcommon.o)
    0x0800373c   0x0000041a   Code   RO          630    .text               c_w.l(_printf_fp_dec.o)
    0x08003b56   0x00000002   PAD
    0x08003b58   0x00000030   Code   RO          632    .text               c_w.l(_printf_char_common.o)
    0x08003b88   0x0000000a   Code   RO          634    .text               c_w.l(_sputc.o)
    0x08003b92   0x0000002c   Code   RO          636    .text               c_w.l(_printf_char.o)
    0x08003bbe   0x00000002   PAD
    0x08003bc0   0x00000008   Code   RO          664    .text               c_w.l(rt_locale_intlibspace.o)
    0x08003bc8   0x0000008a   Code   RO          666    .text               c_w.l(lludiv10.o)
    0x08003c52   0x00000002   PAD
    0x08003c54   0x00000080   Code   RO          668    .text               c_w.l(_printf_fp_infnan.o)
    0x08003cd4   0x000000dc   Code   RO          672    .text               c_w.l(bigflt0.o)
    0x08003db0   0x00000008   Code   RO          706    .text               c_w.l(libspace.o)
    0x08003db8   0x0000004a   Code   RO          709    .text               c_w.l(sys_stackheap_outer.o)
    0x08003e02   0x00000012   Code   RO          711    .text               c_w.l(exit.o)
    0x08003e14   0x00000080   Code   RO          713    .text               c_w.l(strcmpv7m.o)
    0x08003e94   0x0000000c   Code   RO          785    .text               c_w.l(sys_exit.o)
    0x08003ea0   0x00000002   Code   RO          796    .text               c_w.l(use_no_semi.o)
    0x08003ea2   0x00000000   Code   RO          798    .text               c_w.l(indicate_semi.o)
    0x08003ea2   0x0000003e   Code   RO          675    CL$$btod_d2e        c_w.l(btod.o)
    0x08003ee0   0x00000046   Code   RO          677    CL$$btod_d2e_denorm_low  c_w.l(btod.o)
    0x08003f26   0x00000060   Code   RO          676    CL$$btod_d2e_norm_op1  c_w.l(btod.o)
    0x08003f86   0x00000338   Code   RO          685    CL$$btod_div_common  c_w.l(btod.o)
    0x080042be   0x000000c6   Code   RO          682    CL$$btod_e2e        c_w.l(btod.o)
    0x08004384   0x00000028   Code   RO          679    CL$$btod_ediv       c_w.l(btod.o)
    0x080043ac   0x00000028   Code   RO          678    CL$$btod_emul       c_w.l(btod.o)
    0x080043d4   0x00000244   Code   RO          684    CL$$btod_mult_common  c_w.l(btod.o)
    0x08004618   0x00000028   Code   RO          704    i.__ARM_fpclassify  m_ws.l(fpclassify.o)
    0x08004640   0x0000000e   Code   RO          583    i._is_digit         c_w.l(__printf_wp.o)
    0x0800464e   0x00000002   PAD
    0x08004650   0x0000002c   Code   RO          698    locale$$code        c_w.l(lc_numeric_c.o)
    0x0800467c   0x00000150   Code   RO          601    x$fpl$dadd          fz_ws.l(daddsub_clz.o)
    0x080047cc   0x00000018   Code   RO          700    x$fpl$dcmpinf       fz_ws.l(dcmpi.o)
    0x080047e4   0x0000005e   Code   RO          607    x$fpl$dfix          fz_ws.l(dfix.o)
    0x08004842   0x00000002   PAD
    0x08004844   0x0000005a   Code   RO          611    x$fpl$dfixu         fz_ws.l(dfixu.o)
    0x0800489e   0x00000026   Code   RO          615    x$fpl$dfltu         fz_ws.l(dflt_clz.o)
    0x080048c4   0x00000078   Code   RO          639    x$fpl$dleqf         fz_ws.l(dleqf.o)
    0x0800493c   0x00000154   Code   RO          621    x$fpl$dmul          fz_ws.l(dmul.o)
    0x08004a90   0x0000009c   Code   RO          641    x$fpl$dnaninf       fz_ws.l(dnaninf.o)
    0x08004b2c   0x0000000c   Code   RO          643    x$fpl$dretinf       fz_ws.l(dretinf.o)
    0x08004b38   0x0000006c   Code   RO          623    x$fpl$drleqf        fz_ws.l(drleqf.o)
    0x08004ba4   0x000001d4   Code   RO          603    x$fpl$dsub          fz_ws.l(daddsub_clz.o)
    0x08004d78   0x00000004   Code   RO          625    x$fpl$printf1       fz_ws.l(printf1.o)
    0x08004d7c   0x00000000   Code   RO          645    x$fpl$usenofp       fz_ws.l(usenofp.o)
    0x08004d7c   0x000011d0   Data   RO          264    .constdata          lcd.o
    0x08005f4c   0x00000094   Data   RO          673    .constdata          c_w.l(bigflt0.o)
    0x08005fe0   0x00000020   Data   RO          845    Region$$Table       anon$$obj.o
    0x08006000   0x0000001c   Data   RO          697    locale$$data        c_w.l(lc_numeric_c.o)


    Execution Region RW_IRAM1 (Base: 0x20000000, Size: 0x00000780, Max: 0x00005000, ABSOLUTE)

    Base Addr    Size         Type   Attr      Idx    E Section Name        Object

    0x20000000   0x00000014   Data   RW           27    .data               system_stm32f10x.o
    0x20000014   0x00000014   Data   RW          162    .data               stm32f10x_rcc.o
    0x20000028   0x00000006   Data   RW          265    .data               lcd.o
    0x2000002e   0x00000002   PAD
    0x20000030   0x00000064   Data   RW          295    .data               main.o
    0x20000094   0x00000008   Data   RW          421    .data               stm32f10x_it.o
    0x2000009c   0x00000002   Data   RW          519    .data               usart.o
    0x2000009e   0x00000002   PAD
    0x200000a0   0x00000064   Zero   RW          294    .bss                main.o
    0x20000104   0x0000001c   Zero   RW          518    .bss                usart.o
    0x20000120   0x00000060   Zero   RW          707    .bss                c_w.l(libspace.o)
    0x20000180   0x00000200   Zero   RW            2    HEAP                startup_stm32f10x_md.o
    0x20000380   0x00000400   Zero   RW            1    STACK               startup_stm32f10x_md.o


==============================================================================

Image component sizes


      Code (inc. data)   RO Data    RW Data    ZI Data      Debug   Object Name

         0          0          0          0          0       4508   core_cm3.o
       664          6          0          0          0       2869   iic.o
       152          8          0          0          0        708   key.o
      2572         74       4560          6          0       8832   lcd.o
       132         10          0          0          0        743   led.o
      1500        262          0        100        100     265810   main.o
       220         22          0          0          0       1969   misc.o
       200          4          0          0          0        795   pwm.o
        64         26        236          0       1536        956   startup_stm32f10x_md.o
       860         38          0          0          0       5905   stm32f10x_gpio.o
       152         26          0          8          0       1649   stm32f10x_it.o
       932         36          0         20          0       9140   stm32f10x_rcc.o
      3610         88          0          0          0      23016   stm32f10x_tim.o
      1032         22          0          0          0       8628   stm32f10x_usart.o
       480         38          0         20          0     249783   system_stm32f10x.o
       284         22          0          2         28       1825   usart.o

    ----------------------------------------------------------------------
     12856        682       4828        160       1664     587136   Object Totals
         0          0         32          0          0          0   (incl. Generated)
         2          0          0          4          0          0   (incl. Padding)

    ----------------------------------------------------------------------

      Code (inc. data)   RO Data    RW Data    ZI Data      Debug   Library Member Name

         8          0          0          0          0         68   __main.o
       352          0          0          0          0         88   __printf_ss_wp.o
        14          0          0          0          0         68   __printf_wp.o
         0          0          0          0          0          0   __rtentry.o
        12          0          0          0          0          0   __rtentry2.o
         6          0          0          0          0          0   __rtentry4.o
        52          8          0          0          0          0   __scatter.o
        26          0          0          0          0          0   __scatter_copy.o
        28          0          0          0          0          0   __scatter_zi.o
        44          0          0          0          0        108   _printf_char.o
        48          6          0          0          0         96   _printf_char_common.o
         6          0          0          0          0          0   _printf_d.o
       120         16          0          0          0         92   _printf_dec.o
         6          0          0          0          0          0   _printf_f.o
      1050          0          0          0          0        216   _printf_fp_dec.o
       128         16          0          0          0         84   _printf_fp_infnan.o
       178          0          0          0          0         88   _printf_intcommon.o
        78          0          0          0          0        108   _printf_pad.o
         0          0          0          0          0          0   _printf_percent.o
         4          0          0          0          0          0   _printf_percent_end.o
         6          0          0          0          0          0   _printf_s.o
        82          0          0          0          0         80   _printf_str.o
        10          0          0          0          0         68   _sputc.o
       220          4        148          0          0         96   bigflt0.o
      1910        128          0          0          0        672   btod.o
        18          0          0          0          0         80   exit.o
         6          0          0          0          0        152   heapauxi.o
         0          0          0          0          0          0   indicate_semi.o
        44         10         28          0          0         76   lc_numeric_c.o
         2          0          0          0          0          0   libinit.o
        18          0          0          0          0          0   libinit2.o
         2          0          0          0          0          0   libshutdown.o
         2          0          0          0          0          0   libshutdown2.o
         8          4          0          0         96         68   libspace.o
       138          0          0          0          0         80   lludiv10.o
        40          6          0          0          0         84   noretval__2sprintf.o
         8          4          0          0          0         68   rt_locale_intlibspace.o
         2          0          0          0          0          0   rtexit.o
        10          0          0          0          0          0   rtexit2.o
       128          0          0          0          0         68   strcmpv7m.o
        12          4          0          0          0         68   sys_exit.o
        74          0          0          0          0         80   sys_stackheap_outer.o
         2          0          0          0          0         68   use_no_semi.o
       804         16          0          0          0        272   daddsub_clz.o
        24          0          0          0          0         68   dcmpi.o
        94          4          0          0          0         92   dfix.o
        90          4          0          0          0         92   dfixu.o
        38          0          0          0          0         68   dflt_clz.o
       120          4          0          0          0         92   dleqf.o
       340         12          0          0          0        104   dmul.o
       156          4          0          0          0         92   dnaninf.o
        12          0          0          0          0         68   dretinf.o
       108          0          0          0          0         80   drleqf.o
         4          0          0          0          0         68   printf1.o
         0          0          0          0          0          0   usenofp.o
        40          0          0          0          0         68   fpclassify.o

    ----------------------------------------------------------------------
      6744        250        176          0         96       3988   Library Totals
        12          0          0          0          0          0   (incl. Padding)

    ----------------------------------------------------------------------

      Code (inc. data)   RO Data    RW Data    ZI Data      Debug   Library Name

      4902        206        176          0         96       2824   c_w.l
      1790         44          0          0          0       1096   fz_ws.l
        40          0          0          0          0         68   m_ws.l

    ----------------------------------------------------------------------
      6744        250        176          0         96       3988   Library Totals

    ----------------------------------------------------------------------

==============================================================================


      Code (inc. data)   RO Data    RW Data    ZI Data      Debug   

     19600        932       5004        160       1760     587688   Grand Totals
     19600        932       5004        160       1760     587688   ELF Image Totals
     19600        932       5004        160          0          0   ROM Totals

==============================================================================

    Total RO  Size (Code + RO Data)                24604 (  24.03kB)
    Total RW  Size (RW Data + ZI Data)              1920 (   1.88kB)
    Total ROM Size (Code + RO Data + RW Data)      24764 (  24.18kB)

==============================================================================

