Component: ARM Compiler 5.06 update 2 (build 183) Tool: armlink [4d35b7]

==============================================================================

Section Cross References

    startup_stm32f10x_md.o(STACK) refers (Special) to heapauxi.o(.text) for __use_two_region_memory
    startup_stm32f10x_md.o(HEAP) refers (Special) to heapauxi.o(.text) for __use_two_region_memory
    startup_stm32f10x_md.o(RESET) refers (Special) to heapauxi.o(.text) for __use_two_region_memory
    startup_stm32f10x_md.o(RESET) refers to startup_stm32f10x_md.o(STACK) for __initial_sp
    startup_stm32f10x_md.o(RESET) refers to startup_stm32f10x_md.o(.text) for Reset_Handler
    startup_stm32f10x_md.o(RESET) refers to stm32f10x_it.o(.text) for NMI_Handler
    startup_stm32f10x_md.o(.text) refers (Special) to heapauxi.o(.text) for __use_two_region_memory
    startup_stm32f10x_md.o(.text) refers to system_stm32f10x.o(.text) for SystemInit
    startup_stm32f10x_md.o(.text) refers to __main.o(!!!main) for __main
    startup_stm32f10x_md.o(.text) refers to startup_stm32f10x_md.o(HEAP) for Heap_Mem
    startup_stm32f10x_md.o(.text) refers to startup_stm32f10x_md.o(STACK) for Stack_Mem
    system_stm32f10x.o(.text) refers to system_stm32f10x.o(.data) for SystemCoreClock
    stm32f10x_rcc.o(.text) refers to stm32f10x_rcc.o(.data) for APBAHBPrescTable
    stm32f10x_gpio.o(.text) refers to stm32f10x_rcc.o(.text) for RCC_APB2PeriphResetCmd
    stm32f10x_usart.o(.text) refers to stm32f10x_rcc.o(.text) for RCC_APB2PeriphResetCmd
    main.o(.text) refers to _printf_percent.o(.ARM.Collect$$_printf_percent$$00000000) for _printf_percent
    main.o(.text) refers to _printf_d.o(.ARM.Collect$$_printf_percent$$00000009) for _printf_d
    main.o(.text) refers to _printf_dec.o(.text) for _printf_int_dec
==============================================================================

Removing Unused input sections from the image.

    Removing core_cm3.o(.emb_text), (32 bytes).
    Removing system_stm32f10x.o(.rev16_text), (4 bytes).
    Removing system_stm32f10x.o(.revsh_text), (4 bytes).
    Removing stm32f10x_rcc.o(.rev16_text), (4 bytes).
    Removing stm32f10x_rcc.o(.revsh_text), (4 bytes).
    Removing stm32f10x_gpio.o(.rev16_text), (4 bytes).
    Removing stm32f10x_gpio.o(.revsh_text), (4 bytes).
    Removing misc.o(.rev16_text), (4 bytes).
    Removing misc.o(.revsh_text), (4 bytes).
    Removing stm32f10x_usart.o(.rev16_text), (4 bytes).
    Removing stm32f10x_usart.o(.revsh_text), (4 bytes).
    Removing main.o(.rev16_text), (4 bytes).
    Removing main.o(.revsh_text), (4 bytes).
    Removing stm32f10x_it.o(.rev16_text), (4 bytes).
    Removing stm32f10x_it.o(.revsh_text), (4 bytes).
    Removing lcd.o(.rev16_text), (4 bytes).
    Removing lcd.o(.revsh_text), (4 bytes).
    Removing key.o(.rev16_text), (4 bytes).
==============================================================================

Image Symbol Table

    Local Symbols

    Symbol Name                              Value     Ov Type        Size  Object(Section)

    ../clib/angel/boardlib.s                 0x00000000   Number         0  boardshut.o ABSOLUTE
    ../clib/angel/boardlib.s                 0x00000000   Number         0  boardinit3.o ABSOLUTE
    ../clib/angel/boardlib.s                 0x00000000   Number         0  boardinit2.o ABSOLUTE
    ../clib/angel/boardlib.s                 0x00000000   Number         0  boardinit1.o ABSOLUTE
    ../clib/angel/handlers.s                 0x00000000   Number         0  __scatter_zi.o ABSOLUTE
    ../clib/angel/handlers.s                 0x00000000   Number         0  __scatter_copy.o ABSOLUTE
    ../clib/angel/kernel.s                   0x00000000   Number         0  rtexit2.o ABSOLUTE
    ../clib/angel/kernel.s                   0x00000000   Number         0  rtexit.o ABSOLUTE
    ../clib/angel/kernel.s                   0x00000000   Number         0  __rtentry4.o ABSOLUTE
    ../clib/angel/kernel.s                   0x00000000   Number         0  __rtentry2.o ABSOLUTE
    ../clib/angel/kernel.s                   0x00000000   Number         0  __rtentry.o ABSOLUTE
    ../clib/angel/rt.s                       0x00000000   Number         0  rt_ctype_table.o ABSOLUTE
    ../clib/angel/rt.s                       0x00000000   Number         0  rt_locale_intlibspace.o ABSOLUTE
    ../clib/angel/rt.s                       0x00000000   Number         0  rt_locale.o ABSOLUTE
    ../clib/angel/rt.s                       0x00000000   Number         0  rt_errno_addr.o ABSOLUTE
    ../clib/angel/rt.s                       0x00000000   Number         0  rt_errno_addr_intlibspace.o ABSOLUTE
    ../clib/angel/rt.s                       0x00000000   Number         0  rt_raise.o ABSOLUTE
    ../clib/angel/scatter.s                  0x00000000   Number         0  __scatter.o ABSOLUTE
    ../clib/angel/startup.s                  0x00000000   Number         0  __main.o ABSOLUTE
    ../clib/angel/sys.s                      0x00000000   Number         0  sys_stackheap_outer.o ABSOLUTE
    ../clib/angel/sys.s                      0x00000000   Number         0  use_no_semi.o ABSOLUTE
    ../clib/angel/sys.s                      0x00000000   Number         0  libspace.o ABSOLUTE
    ../clib/angel/sys.s                      0x00000000   Number         0  indicate_semi.o ABSOLUTE
    ../clib/angel/sysapp.c                   0x00000000   Number         0  sys_command.o ABSOLUTE
    ../clib/angel/sysapp.c                   0x00000000   Number         0  sys_exit.o ABSOLUTE
    ../clib/angel/sysapp.c                   0x00000000   Number         0  sys_wrch.o ABSOLUTE
    ../clib/armsys.c                         0x00000000   Number         0  _get_argv_nomalloc.o ABSOLUTE
    ../clib/armsys.c                         0x00000000   Number         0  no_argv.o ABSOLUTE
    ../clib/armsys.c                         0x00000000   Number         0  argv_veneer.o ABSOLUTE
    ../clib/armsys.c                         0x00000000   Number         0  argv_veneer.o ABSOLUTE
    ../clib/bigflt.c                         0x00000000   Number         0  bigflt0.o ABSOLUTE
    ../clib/btod.s                           0x00000000   Number         0  btod.o ABSOLUTE
    ../clib/heapalloc.c                      0x00000000   Number         0  hrguard.o ABSOLUTE
    ../clib/heapaux.c                        0x00000000   Number         0  heapauxi.o ABSOLUTE
    ../clib/libinit.s                        0x00000000   Number         0  libshutdown2.o ABSOLUTE
    ../clib/libinit.s                        0x00000000   Number         0  libinit.o ABSOLUTE
    ../clib/libinit.s                        0x00000000   Number         0  libinit2.o ABSOLUTE
    ../clib/libinit.s                        0x00000000   Number         0  libshutdown.o ABSOLUTE
    ../clib/locale.s                         0x00000000   Number         0  lc_numeric_c.o ABSOLUTE
    ../clib/locale.s                         0x00000000   Number         0  lc_ctype_c.o ABSOLUTE
    ../clib/longlong.s                       0x00000000   Number         0  lludiv10.o ABSOLUTE
    ../clib/memcpset.s                       0x00000000   Number         0  rt_memclr_w.o ABSOLUTE
    ../clib/memcpset.s                       0x00000000   Number         0  rt_memcpy_w.o ABSOLUTE
    ../clib/memcpset.s                       0x00000000   Number         0  strcmpv7m.o ABSOLUTE
    ../clib/misc.s                           0x00000000   Number         0  printf_stubs.o ABSOLUTE
    ../clib/printf.c                         0x00000000   Number         0  __printf_ss.o ABSOLUTE
    ../clib/printf.c                         0x00000000   Number         0  __printf_flags_ss.o ABSOLUTE
    ../clib/printf.c                         0x00000000   Number         0  __printf_wp.o ABSOLUTE
    ../clib/printf.c                         0x00000000   Number         0  _printf_intcommon.o ABSOLUTE
    ../clib/printf.c                         0x00000000   Number         0  __printf_flags_wp.o ABSOLUTE
    ../clib/printf.c                         0x00000000   Number         0  __printf_ss_wp.o ABSOLUTE
    ../clib/printf.c                         0x00000000   Number         0  __printf_flags_ss_wp.o ABSOLUTE
    ../clib/printf.c                         0x00000000   Number         0  _printf_fp_dec.o ABSOLUTE
    ../clib/printf.c                         0x00000000   Number         0  _printf_char_common.o ABSOLUTE
    ../clib/printf.c                         0x00000000   Number         0  _sputc.o ABSOLUTE
    ../clib/printf.c                         0x00000000   Number         0  _printf_char.o ABSOLUTE
    ../clib/printf.c                         0x00000000   Number         0  __printf_nopercent.o ABSOLUTE
    ../clib/printf.c                         0x00000000   Number         0  _printf_fp_infnan.o ABSOLUTE
    ../clib/printf.c                         0x00000000   Number         0  __2sprintf.o ABSOLUTE
    ../clib/printf.c                         0x00000000   Number         0  noretval__2sprintf.o ABSOLUTE
    ../clib/printf.c                         0x00000000   Number         0  __printf.o ABSOLUTE
    ../clib/printf.c                         0x00000000   Number         0  _printf_str.o ABSOLUTE
    ../clib/printf.c                         0x00000000   Number         0  _printf_dec.o ABSOLUTE
    ../clib/printf.c                         0x00000000   Number         0  __printf_flags.o ABSOLUTE
    ../clib/printf_percent.s                 0x00000000   Number         0  _printf_s.o ABSOLUTE
    ../clib/printf_percent.s                 0x00000000   Number         0  _printf_d.o ABSOLUTE
    ../clib/printf_percent.s                 0x00000000   Number         0  _printf_percent_end.o ABSOLUTE
    ../clib/printf_percent.s                 0x00000000   Number         0  _printf_f.o ABSOLUTE
    ../clib/printf_percent.s                 0x00000000   Number         0  _printf_percent.o ABSOLUTE
    ../clib/scanf.c                          0x00000000   Number         0  strtol.o ABSOLUTE
    ../clib/scanf.c                          0x00000000   Number         0  _chval.o ABSOLUTE
    ../clib/scanf.c                          0x00000000   Number         0  atoi.o ABSOLUTE
    ../clib/scanf.c                          0x00000000   Number         0  _strtoul.o ABSOLUTE
    ../clib/signal.c                         0x00000000   Number         0  defsig_abrt_inner.o ABSOLUTE
    ../clib/signal.c                         0x00000000   Number         0  defsig_fpe_inner.o ABSOLUTE
    ../clib/signal.c                         0x00000000   Number         0  defsig_cppl_inner.o ABSOLUTE
    ../clib/signal.c                         0x00000000   Number         0  defsig_other.o ABSOLUTE
    ../clib/signal.c                         0x00000000   Number         0  defsig_rtred_inner.o ABSOLUTE
    ../clib/signal.c                         0x00000000   Number         0  defsig_stak_inner.o ABSOLUTE
    ../clib/signal.c                         0x00000000   Number         0  defsig_pvfn_inner.o ABSOLUTE
    ../clib/signal.c                         0x00000000   Number         0  defsig_rtmem_formal.o ABSOLUTE
    ../clib/signal.c                         0x00000000   Number         0  defsig_rtmem_outer.o ABSOLUTE
    ../clib/signal.c                         0x00000000   Number         0  defsig_exit.o ABSOLUTE
    ../clib/signal.c                         0x00000000   Number         0  defsig_rtmem_inner.o ABSOLUTE
    ../clib/signal.c                         0x00000000   Number         0  __raise.o ABSOLUTE
    ../clib/signal.c                         0x00000000   Number         0  defsig_segv_inner.o ABSOLUTE
    ../clib/signal.c                         0x00000000   Number         0  defsig_general.o ABSOLUTE
    ../clib/signal.s                         0x00000000   Number         0  defsig.o ABSOLUTE
    ../clib/stdlib.c                         0x00000000   Number         0  exit.o ABSOLUTE
    ../clib/string.c                         0x00000000   Number         0  strcpy.o ABSOLUTE
    ../fplib/d2f.s                           0x00000000   Number         0  d2f.o ABSOLUTE
    ../fplib/daddsub.s                       0x00000000   Number         0  daddsub_clz.o ABSOLUTE
    ../fplib/dcmpi.s                         0x00000000   Number         0  dcmpi.o ABSOLUTE
    ../fplib/deqf.s                          0x00000000   Number         0  deqf.o ABSOLUTE
    ../fplib/dleqf.s                         0x00000000   Number         0  dleqf.o ABSOLUTE
    ../fplib/dmul.s                          0x00000000   Number         0  dmul.o ABSOLUTE
    ../fplib/dnaninf.s                       0x00000000   Number         0  dnaninf.o ABSOLUTE
    ../fplib/dretinf.s                       0x00000000   Number         0  dretinf.o ABSOLUTE
    ../fplib/drleqf.s                        0x00000000   Number         0  drleqf.o ABSOLUTE
    ../fplib/f2d.s                           0x00000000   Number         0  f2d.o ABSOLUTE
    ../fplib/fflt.s                          0x00000000   Number         0  fflt_clz.o ABSOLUTE
    ../fplib/fnaninf.s                       0x00000000   Number         0  fnaninf.o ABSOLUTE
    ../fplib/fpinit.s                        0x00000000   Number         0  fpinit.o ABSOLUTE
    ../fplib/fretinf.s                       0x00000000   Number         0  fretinf.o ABSOLUTE
    ../fplib/istatus.s                       0x00000000   Number         0  istatus.o ABSOLUTE
    ../fplib/printf1.s                       0x00000000   Number         0  printf1.o ABSOLUTE
    ../fplib/usenofp.s                       0x00000000   Number         0  usenofp.o ABSOLUTE
    ../mathlib/fpclassify.c                  0x00000000   Number         0  fpclassify.o ABSOLUTE
    ..\..\Libraries\CMSIS\CM3\CoreSupport\core_cm3.c 0x00000000   Number         0  core_cm3.o ABSOLUTE
    ..\..\Libraries\CMSIS\CM3\DeviceSupport\ST\STM32F10x\startup\arm\startup_stm32f10x_md.s 0x00000000   Number         0  startup_stm32f10x_md.o ABSOLUTE
    ..\..\Libraries\CMSIS\CM3\DeviceSupport\ST\STM32F10x\system_stm32f10x.c 0x00000000   Number         0  system_stm32f10x.o ABSOLUTE
    ..\..\Libraries\STM32F10x_StdPeriph_Driver\src\misc.c 0x00000000   Number         0  misc.o ABSOLUTE
    ..\..\Libraries\STM32F10x_StdPeriph_Driver\src\stm32f10x_gpio.c 0x00000000   Number         0  stm32f10x_gpio.o ABSOLUTE
    ..\..\Libraries\STM32F10x_StdPeriph_Driver\src\stm32f10x_rcc.c 0x00000000   Number         0  stm32f10x_rcc.o ABSOLUTE
    ..\..\Libraries\STM32F10x_StdPeriph_Driver\src\stm32f10x_usart.c 0x00000000   Number         0  stm32f10x_usart.o ABSOLUTE
    ..\SRE\key.c                             0x00000000   Number         0  key.o ABSOLUTE
    ..\SRE\lcd.c                             0x00000000   Number         0  lcd.o ABSOLUTE
    ..\SRE\main.c                            0x00000000   Number         0  main.o ABSOLUTE
    ..\SRE\parkControl.c                     0x00000000   Number         0  parkcontrol.o ABSOLUTE
    ..\SRE\stm32f10x_it.c                    0x00000000   Number         0  stm32f10x_it.o ABSOLUTE
    ..\\..\\Libraries\\CMSIS\\CM3\\CoreSupport\\core_cm3.c 0x00000000   Number         0  core_cm3.o ABSOLUTE
    ..\\..\\Libraries\\CMSIS\\CM3\\DeviceSupport\\ST\\STM32F10x\\system_stm32f10x.c 0x00000000   Number         0  system_stm32f10x.o ABSOLUTE
    ..\\..\\Libraries\\STM32F10x_StdPeriph_Driver\\src\\misc.c 0x00000000   Number         0  misc.o ABSOLUTE
    ..\\..\\Libraries\\STM32F10x_StdPeriph_Driver\\src\\stm32f10x_gpio.c 0x00000000   Number         0  stm32f10x_gpio.o ABSOLUTE
    ..\\..\\Libraries\\STM32F10x_StdPeriph_Driver\\src\\stm32f10x_rcc.c 0x00000000   Number         0  stm32f10x_rcc.o ABSOLUTE
    ..\\..\\Libraries\\STM32F10x_StdPeriph_Driver\\src\\stm32f10x_usart.c 0x00000000   Number         0  stm32f10x_usart.o ABSOLUTE
    ..\\SRE\\key.c                           0x00000000   Number         0  key.o ABSOLUTE
    ..\\SRE\\lcd.c                           0x00000000   Number         0  lcd.o ABSOLUTE
    ..\\SRE\\main.c                          0x00000000   Number         0  main.o ABSOLUTE
    ..\\SRE\\stm32f10x_it.c                  0x00000000   Number         0  stm32f10x_it.o ABSOLUTE
    dc.s                                     0x00000000   Number         0  dc.o ABSOLUTE
    RESET                                    0x08000000   Section      236  startup_stm32f10x_md.o(RESET)
    !!!main                                  0x080000ec   Section        8  __main.o(!!!main)
    !!!scatter                               0x080000f4   Section       52  __scatter.o(!!!scatter)
    !!handler_copy                           0x08000128   Section       26  __scatter_copy.o(!!handler_copy)
    !!handler_zi                             0x08000144   Section       28  __scatter_zi.o(!!handler_zi)
    .ARM.Collect$$_printf_percent$$00000000  0x08000160   Section        0  _printf_percent.o(.ARM.Collect$$_printf_percent$$00000000)
    .ARM.Collect$$_printf_percent$$00000003  0x08000160   Section        6  _printf_f.o(.ARM.Collect$$_printf_percent$$00000003)
    .ARM.Collect$$_printf_percent$$00000009  0x08000166   Section        6  _printf_d.o(.ARM.Collect$$_printf_percent$$00000009)
    .ARM.Collect$$_printf_percent$$00000014  0x0800016c   Section        6  _printf_s.o(.ARM.Collect$$_printf_percent$$00000014)
    .ARM.Collect$$_printf_percent$$00000017  0x08000172   Section        4  _printf_percent_end.o(.ARM.Collect$$_printf_percent$$00000017)
    .ARM.Collect$$libinit$$00000000          0x08000176   Section        2  libinit.o(.ARM.Collect$$libinit$$00000000)
    .ARM.Collect$$libinit$$00000002          0x08000178   Section        0  libinit2.o(.ARM.Collect$$libinit$$00000002)
    .ARM.Collect$$libinit$$00000004          0x08000178   Section        0  libinit2.o(.ARM.Collect$$libinit$$00000004)
    .ARM.Collect$$libinit$$0000000A          0x08000178   Section        0  libinit2.o(.ARM.Collect$$libinit$$0000000A)
    .ARM.Collect$$libinit$$0000000C          0x08000178   Section        0  libinit2.o(.ARM.Collect$$libinit$$0000000C)
    .ARM.Collect$$libinit$$0000000E          0x08000178   Section        0  libinit2.o(.ARM.Collect$$libinit$$0000000E)
    .ARM.Collect$$libinit$$0000000F          0x08000178   Section        6  libinit2.o(.ARM.Collect$$libinit$$0000000F)
    .ARM.Collect$$libinit$$00000011          0x0800017e   Section        0  libinit2.o(.ARM.Collect$$libinit$$00000011)
    .ARM.Collect$$libinit$$00000012          0x0800017e   Section       12  libinit2.o(.ARM.Collect$$libinit$$00000012)
    .ARM.Collect$$libinit$$00000013          0x0800018a   Section        0  libinit2.o(.ARM.Collect$$libinit$$00000013)
    .ARM.Collect$$libinit$$00000015          0x0800018a   Section        0  libinit2.o(.ARM.Collect$$libinit$$00000015)
    .ARM.Collect$$libinit$$00000016          0x0800018a   Section       10  libinit2.o(.ARM.Collect$$libinit$$00000016)
    .ARM.Collect$$libinit$$00000017          0x08000194   Section        0  libinit2.o(.ARM.Collect$$libinit$$00000017)
    .ARM.Collect$$libinit$$00000019          0x08000194   Section        0  libinit2.o(.ARM.Collect$$libinit$$00000019)
    .ARM.Collect$$libinit$$0000001B          0x08000194   Section        0  libinit2.o(.ARM.Collect$$libinit$$0000001B)
    .ARM.Collect$$libinit$$0000001D          0x08000194   Section        0  libinit2.o(.ARM.Collect$$libinit$$0000001D)
    .ARM.Collect$$libinit$$0000001F          0x08000194   Section        0  libinit2.o(.ARM.Collect$$libinit$$0000001F)
    .ARM.Collect$$libinit$$00000021          0x08000194   Section        0  libinit2.o(.ARM.Collect$$libinit$$00000021)
    .ARM.Collect$$libinit$$00000023          0x08000194   Section        0  libinit2.o(.ARM.Collect$$libinit$$00000023)
    .ARM.Collect$$libinit$$00000025          0x08000194   Section        0  libinit2.o(.ARM.Collect$$libinit$$00000025)
    .ARM.Collect$$libinit$$0000002C          0x08000194   Section        0  libinit2.o(.ARM.Collect$$libinit$$0000002C)
    .ARM.Collect$$libinit$$0000002E          0x08000194   Section        0  libinit2.o(.ARM.Collect$$libinit$$0000002E)
    .ARM.Collect$$libinit$$00000030          0x08000194   Section        0  libinit2.o(.ARM.Collect$$libinit$$00000030)
    .ARM.Collect$$libinit$$00000032          0x08000194   Section        0  libinit2.o(.ARM.Collect$$libinit$$00000032)
    .ARM.Collect$$libinit$$00000033          0x08000194   Section        2  libinit2.o(.ARM.Collect$$libinit$$00000033)
    .ARM.Collect$$libshutdown$$00000000      0x08000196   Section        2  libshutdown.o(.ARM.Collect$$libshutdown$$00000000)
    .ARM.Collect$$libshutdown$$00000002      0x08000198   Section        0  libshutdown2.o(.ARM.Collect$$libshutdown$$00000002)
    .ARM.Collect$$libshutdown$$00000004      0x08000198   Section        0  libshutdown2.o(.ARM.Collect$$libshutdown$$00000004)
    .ARM.Collect$$libshutdown$$00000007      0x08000198   Section        0  libshutdown2.o(.ARM.Collect$$libshutdown$$00000007)
    .ARM.Collect$$libshutdown$$0000000A      0x08000198   Section        0  libshutdown2.o(.ARM.Collect$$libshutdown$$0000000A)
    .ARM.Collect$$libshutdown$$0000000C      0x08000198   Section        0  libshutdown2.o(.ARM.Collect$$libshutdown$$0000000C)
    .ARM.Collect$$libshutdown$$0000000F      0x08000198   Section        0  libshutdown2.o(.ARM.Collect$$libshutdown$$0000000F)
    .ARM.Collect$$libshutdown$$00000010      0x08000198   Section        2  libshutdown2.o(.ARM.Collect$$libshutdown$$00000010)
    .ARM.Collect$$rtentry$$00000000          0x0800019a   Section        0  __rtentry.o(.ARM.Collect$$rtentry$$00000000)
    .ARM.Collect$$rtentry$$00000002          0x0800019a   Section        0  __rtentry2.o(.ARM.Collect$$rtentry$$00000002)
    .ARM.Collect$$rtentry$$00000004          0x0800019a   Section        6  __rtentry4.o(.ARM.Collect$$rtentry$$00000004)
    .ARM.Collect$$rtentry$$00000009          0x080001a0   Section        0  __rtentry2.o(.ARM.Collect$$rtentry$$00000009)
    .ARM.Collect$$rtentry$$0000000A          0x080001a0   Section        4  __rtentry2.o(.ARM.Collect$$rtentry$$0000000A)
    .ARM.Collect$$rtentry$$0000000C          0x080001a4   Section        0  __rtentry2.o(.ARM.Collect$$rtentry$$0000000C)
    .ARM.Collect$$rtentry$$0000000D          0x080001a4   Section        8  __rtentry2.o(.ARM.Collect$$rtentry$$0000000D)
    .ARM.Collect$$rtexit$$00000000           0x080001ac   Section        2  rtexit.o(.ARM.Collect$$rtexit$$00000000)
    .ARM.Collect$$rtexit$$00000002           0x080001ae   Section        0  rtexit2.o(.ARM.Collect$$rtexit$$00000002)
    .ARM.Collect$$rtexit$$00000003           0x080001ae   Section        4  rtexit2.o(.ARM.Collect$$rtexit$$00000003)
    .ARM.Collect$$rtexit$$00000004           0x080001b2   Section        6  rtexit2.o(.ARM.Collect$$rtexit$$00000004)
    .text                                    0x080001b8   Section       64  startup_stm32f10x_md.o(.text)
    .text                                    0x080001f8   Section        0  system_stm32f10x.o(.text)
    SetSysClockTo72                          0x080001f9   Thumb Code   214  system_stm32f10x.o(.text)
    SetSysClock                              0x080002cf   Thumb Code     8  system_stm32f10x.o(.text)
    .text                                    0x080003d8   Section        0  stm32f10x_rcc.o(.text)
    .text                                    0x0800077c   Section        0  stm32f10x_gpio.o(.text)
    .text                                    0x08000ad8   Section        0  misc.o(.text)
    .text                                    0x08000bb4   Section        0  stm32f10x_usart.o(.text)
    .text                                    0x08000fbc   Section        0  main.o(.text)
    .text                                    0x08001784   Section        0  stm32f10x_it.o(.text)
    .text                                    0x08001814   Section        0  lcd.o(.text)
    .text                                    0x08002204   Section        0  parkcontrol.o(.text)
    .text                                    0x0800275c   Section        0  key.o(.text)
    .text                                    0x080027f4   Section        0  noretval__2sprintf.o(.text)
    .text                                    0x0800281c   Section        0  _printf_str.o(.text)
    .text                                    0x08002870   Section        0  _printf_dec.o(.text)
    .text                                    0x080028e8   Section        0  __printf_wp.o(.text)
    .text                                    0x080029f6   Section        0  atoi.o(.text)
    .text                                    0x08002a10   Section        0  strcpy.o(.text)
    .text                                    0x08002a58   Section      100  rt_memcpy_w.o(.text)
    .text                                    0x08002abc   Section       78  rt_memclr_w.o(.text)
    .text                                    0x08002b0c   Section      128  strcmpv7m.o(.text)
    .text                                    0x08002b8c   Section        0  heapauxi.o(.text)
    .text                                    0x08002b94   Section        8  rt_errno_addr_intlibspace.o(.text)
    .text                                    0x08002b9c   Section        0  _printf_intcommon.o(.text)
    .text                                    0x08002c4e   Section        0  _printf_fp_dec.o(.text)
    _fp_digits                               0x08002c51   Thumb Code   428  _printf_fp_dec.o(.text)
    .text                                    0x08003068   Section        0  _printf_char_common.o(.text)
    _printf_input_char                       0x08003069   Thumb Code    10  _printf_char_common.o(.text)
    .text                                    0x08003098   Section        0  _sputc.o(.text)
    .text                                    0x080030a2   Section        0  _printf_char.o(.text)
    .text                                    0x080030ce   Section        0  strtol.o(.text)
    .text                                    0x08003140   Section        8  libspace.o(.text)
    .text                                    0x08003148   Section       16  rt_ctype_table.o(.text)
    .text                                    0x08003158   Section        8  rt_locale_intlibspace.o(.text)
    .text                                    0x08003160   Section      138  lludiv10.o(.text)
    .text                                    0x080031ec   Section        0  _printf_fp_infnan.o(.text)
    .text                                    0x0800326c   Section        0  _strtoul.o(.text)
    .text                                    0x0800330c   Section        0  bigflt0.o(.text)
    .text                                    0x080033e8   Section       74  sys_stackheap_outer.o(.text)
    .text                                    0x08003432   Section        0  _chval.o(.text)
    .text                                    0x0800344e   Section        0  exit.o(.text)
    .text                                    0x08003460   Section        0  sys_exit.o(.text)
    .text                                    0x0800346c   Section        2  use_no_semi.o(.text)
    .text                                    0x0800346e   Section        0  indicate_semi.o(.text)
    CL$$btod_d2e                             0x0800346e   Section       62  btod.o(CL$$btod_d2e)
    CL$$btod_d2e_denorm_low                  0x080034ac   Section       70  btod.o(CL$$btod_d2e_denorm_low)
    CL$$btod_d2e_norm_op1                    0x080034f2   Section       96  btod.o(CL$$btod_d2e_norm_op1)
    CL$$btod_div_common                      0x08003552   Section      824  btod.o(CL$$btod_div_common)
    CL$$btod_e2e                             0x0800388a   Section      198  btod.o(CL$$btod_e2e)
    CL$$btod_ediv                            0x08003950   Section       40  btod.o(CL$$btod_ediv)
    CL$$btod_emul                            0x08003978   Section       40  btod.o(CL$$btod_emul)
    CL$$btod_mult_common                     0x080039a0   Section      580  btod.o(CL$$btod_mult_common)
    i.__ARM_fpclassify                       0x08003be4   Section        0  fpclassify.o(i.__ARM_fpclassify)
    i._is_digit                              0x08003c0c   Section        0  __printf_wp.o(i._is_digit)
    locale$$code                             0x08003c1c   Section       44  lc_numeric_c.o(locale$$code)
    locale$$code                             0x08003c48   Section       44  lc_ctype_c.o(locale$$code)
    x$fpl$d2f                                0x08003c74   Section       98  d2f.o(x$fpl$d2f)
    x$fpl$dadd                               0x08003cd8   Section      336  daddsub_clz.o(x$fpl$dadd)
    _dadd1                                   0x08003ce9   Thumb Code     0  daddsub_clz.o(x$fpl$dadd)
    x$fpl$dcmpinf                            0x08003e28   Section       24  dcmpi.o(x$fpl$dcmpinf)
    x$fpl$deqf                               0x08003e40   Section      120  deqf.o(x$fpl$deqf)
    x$fpl$dleqf                              0x08003eb8   Section      120  dleqf.o(x$fpl$dleqf)
    x$fpl$dmul                               0x08003f30   Section      340  dmul.o(x$fpl$dmul)
    x$fpl$dnaninf                            0x08004084   Section      156  dnaninf.o(x$fpl$dnaninf)
    x$fpl$dretinf                            0x08004120   Section       12  dretinf.o(x$fpl$dretinf)
    x$fpl$drleqf                             0x0800412c   Section      108  drleqf.o(x$fpl$drleqf)
    x$fpl$dsub                               0x08004198   Section      468  daddsub_clz.o(x$fpl$dsub)
    _dsub1                                   0x080041a9   Thumb Code     0  daddsub_clz.o(x$fpl$dsub)
    x$fpl$f2d                                0x0800436c   Section       86  f2d.o(x$fpl$f2d)
    x$fpl$fflt                               0x080043c4   Section       48  fflt_clz.o(x$fpl$fflt)
    x$fpl$fnaninf                            0x080043f4   Section      140  fnaninf.o(x$fpl$fnaninf)
    x$fpl$fretinf                            0x08004480   Section       10  fretinf.o(x$fpl$fretinf)
    x$fpl$printf1                            0x0800448a   Section        4  printf1.o(x$fpl$printf1)
    .constdata                               0x0800448e   Section     4560  lcd.o(.constdata)
    x$fpl$usenofp                            0x0800448e   Section        0  usenofp.o(x$fpl$usenofp)
    .constdata                               0x08005660   Section      148  bigflt0.o(.constdata)
    tenpwrs_x                                0x08005660   Data          60  bigflt0.o(.constdata)
    tenpwrs_i                                0x0800569c   Data          64  bigflt0.o(.constdata)
    locale$$data                             0x08005714   Section       28  lc_numeric_c.o(locale$$data)
    __lcnum_c_name                           0x08005718   Data           2  lc_numeric_c.o(locale$$data)
    __lcnum_c_start                          0x08005720   Data           0  lc_numeric_c.o(locale$$data)
    __lcnum_c_point                          0x0800572c   Data           0  lc_numeric_c.o(locale$$data)
    __lcnum_c_thousands                      0x0800572e   Data           0  lc_numeric_c.o(locale$$data)
    __lcnum_c_grouping                       0x0800572f   Data           0  lc_numeric_c.o(locale$$data)
    locale$$data                             0x08005730   Section      272  lc_ctype_c.o(locale$$data)
    __lcnum_c_end                            0x08005730   Data           0  lc_numeric_c.o(locale$$data)
    __lcctype_c_name                         0x08005734   Data           2  lc_ctype_c.o(locale$$data)
    __lcctype_c_start                        0x0800573c   Data           0  lc_ctype_c.o(locale$$data)
    __lcctype_c_end                          0x08005840   Data           0  lc_ctype_c.o(locale$$data)
    .data                                    0x20000000   Section       20  system_stm32f10x.o(.data)
    .data                                    0x20000014   Section       20  stm32f10x_rcc.o(.data)
    APBAHBPrescTable                         0x20000014   Data          16  stm32f10x_rcc.o(.data)
    ADCPrescTable                            0x20000024   Data           4  stm32f10x_rcc.o(.data)
    .data                                    0x20000028   Section       68  main.o(.data)
    .data                                    0x2000006c   Section        2  stm32f10x_it.o(.data)
    .data                                    0x2000006e   Section        6  lcd.o(.data)
    TextColor                                0x2000006e   Data           2  lcd.o(.data)
    BackColor                                0x20000070   Data           2  lcd.o(.data)
    .data                                    0x20000078   Section       16  parkcontrol.o(.data)
    .bss                                     0x20000088   Section      632  main.o(.bss)
    .bss                                     0x20000300   Section       96  libspace.o(.bss)
    HEAP                                     0x20000360   Section      512  startup_stm32f10x_md.o(HEAP)
    Heap_Mem                                 0x20000360   Data         512  startup_stm32f10x_md.o(HEAP)
    STACK                                    0x20000560   Section     1024  startup_stm32f10x_md.o(STACK)
    Stack_Mem                                0x20000560   Data        1024  startup_stm32f10x_md.o(STACK)
    __initial_sp                             0x20000960   Data           0  startup_stm32f10x_md.o(STACK)

    Global Symbols

    Symbol Name                              Value     Ov Type        Size  Object(Section)

    BuildAttributes$$THM_ISAv4$P$D$K$B$S$PE$A:L22UL41UL21$X:L11$S22US41US21$IEEE1$IW$USESV6$~STKCKD$USESV7$~SHL$OTIME$ROPI$IEEEJ$EBA8$UX$STANDARDLIB$REQ8$PRES8$EABIv2 0x00000000   Number         0  anon$$obj.o ABSOLUTE
    __ARM_use_no_argv                        0x00000000   Number         0  main.o ABSOLUTE
    _printf_flags                            0x00000000   Number         0  printf_stubs.o ABSOLUTE
    _printf_return_value                     0x00000000   Number         0  printf_stubs.o ABSOLUTE
    _printf_sizespec                         0x00000000   Number         0  printf_stubs.o ABSOLUTE
    _printf_widthprec                        0x00000000   Number         0  printf_stubs.o ABSOLUTE
    __ARM_exceptions_init                     - Undefined Weak Reference
    __alloca_initialize                       - Undefined Weak Reference
    __arm_preinit_                            - Undefined Weak Reference
    __cpp_initialize__aeabi_                  - Undefined Weak Reference
    __cxa_finalize                            - Undefined Weak Reference
    __sigvec_lookup                           - Undefined Weak Reference
    _atexit_init                              - Undefined Weak Reference
    _call_atexit_fns                          - Undefined Weak Reference
    _clock_init                               - Undefined Weak Reference
    _fp_trap_init                             - Undefined Weak Reference
    _fp_trap_shutdown                         - Undefined Weak Reference
    _get_lc_collate                           - Undefined Weak Reference
    _get_lc_monetary                          - Undefined Weak Reference
    _get_lc_time                              - Undefined Weak Reference
    _getenv_init                              - Undefined Weak Reference
    _handle_redirection                       - Undefined Weak Reference
    _init_alloc                               - Undefined Weak Reference
    _init_user_alloc                          - Undefined Weak Reference
    _initio                                   - Undefined Weak Reference
    _printf_mbtowc                            - Undefined Weak Reference
    _printf_post_padding                      - Undefined Weak Reference
    _printf_pre_padding                       - Undefined Weak Reference
    _printf_truncate_signed                   - Undefined Weak Reference
    _printf_truncate_unsigned                 - Undefined Weak Reference
    _rand_init                                - Undefined Weak Reference
    _signal_finish                            - Undefined Weak Reference
    _signal_init                              - Undefined Weak Reference
    _terminate_alloc                          - Undefined Weak Reference
    _terminate_user_alloc                     - Undefined Weak Reference
    _terminateio                              - Undefined Weak Reference
    __Vectors_Size                           0x000000ec   Number         0  startup_stm32f10x_md.o ABSOLUTE
    __Vectors                                0x08000000   Data           4  startup_stm32f10x_md.o(RESET)
    __Vectors_End                            0x080000ec   Data           0  startup_stm32f10x_md.o(RESET)
    __main                                   0x080000ed   Thumb Code     8  __main.o(!!!main)
    __scatterload                            0x080000f5   Thumb Code     0  __scatter.o(!!!scatter)
    __scatterload_rt2                        0x080000f5   Thumb Code    44  __scatter.o(!!!scatter)
    __scatterload_rt2_thumb_only             0x080000f5   Thumb Code     0  __scatter.o(!!!scatter)
    __scatterload_null                       0x08000103   Thumb Code     0  __scatter.o(!!!scatter)
    __scatterload_copy                       0x08000129   Thumb Code    26  __scatter_copy.o(!!handler_copy)
    __scatterload_zeroinit                   0x08000145   Thumb Code    28  __scatter_zi.o(!!handler_zi)
    _printf_f                                0x08000161   Thumb Code     0  _printf_f.o(.ARM.Collect$$_printf_percent$$00000003)
    _printf_percent                          0x08000161   Thumb Code     0  _printf_percent.o(.ARM.Collect$$_printf_percent$$00000000)
    _printf_d                                0x08000167   Thumb Code     0  _printf_d.o(.ARM.Collect$$_printf_percent$$00000009)
    _printf_s                                0x0800016d   Thumb Code     0  _printf_s.o(.ARM.Collect$$_printf_percent$$00000014)
    _printf_percent_end                      0x08000173   Thumb Code     0  _printf_percent_end.o(.ARM.Collect$$_printf_percent$$00000017)
    __rt_lib_init                            0x08000177   Thumb Code     0  libinit.o(.ARM.Collect$$libinit$$00000000)
    __rt_lib_init_fp_1                       0x08000179   Thumb Code     0  libinit2.o(.ARM.Collect$$libinit$$00000002)
    __rt_lib_init_heap_1                     0x08000179   Thumb Code     0  libinit2.o(.ARM.Collect$$libinit$$0000000A)
    __rt_lib_init_lc_common                  0x08000179   Thumb Code     0  libinit2.o(.ARM.Collect$$libinit$$0000000F)
    __rt_lib_init_preinit_1                  0x08000179   Thumb Code     0  libinit2.o(.ARM.Collect$$libinit$$00000004)
    __rt_lib_init_rand_1                     0x08000179   Thumb Code     0  libinit2.o(.ARM.Collect$$libinit$$0000000E)
    __rt_lib_init_user_alloc_1               0x08000179   Thumb Code     0  libinit2.o(.ARM.Collect$$libinit$$0000000C)
    __rt_lib_init_lc_collate_1               0x0800017f   Thumb Code     0  libinit2.o(.ARM.Collect$$libinit$$00000011)
    __rt_lib_init_lc_ctype_2                 0x0800017f   Thumb Code     0  libinit2.o(.ARM.Collect$$libinit$$00000012)
    __rt_lib_init_lc_ctype_1                 0x0800018b   Thumb Code     0  libinit2.o(.ARM.Collect$$libinit$$00000013)
    __rt_lib_init_lc_monetary_1              0x0800018b   Thumb Code     0  libinit2.o(.ARM.Collect$$libinit$$00000015)
    __rt_lib_init_lc_numeric_2               0x0800018b   Thumb Code     0  libinit2.o(.ARM.Collect$$libinit$$00000016)
    __rt_lib_init_alloca_1                   0x08000195   Thumb Code     0  libinit2.o(.ARM.Collect$$libinit$$0000002E)
    __rt_lib_init_argv_1                     0x08000195   Thumb Code     0  libinit2.o(.ARM.Collect$$libinit$$0000002C)
    __rt_lib_init_atexit_1                   0x08000195   Thumb Code     0  libinit2.o(.ARM.Collect$$libinit$$0000001B)
    __rt_lib_init_clock_1                    0x08000195   Thumb Code     0  libinit2.o(.ARM.Collect$$libinit$$00000021)
    __rt_lib_init_cpp_1                      0x08000195   Thumb Code     0  libinit2.o(.ARM.Collect$$libinit$$00000032)
    __rt_lib_init_exceptions_1               0x08000195   Thumb Code     0  libinit2.o(.ARM.Collect$$libinit$$00000030)
    __rt_lib_init_fp_trap_1                  0x08000195   Thumb Code     0  libinit2.o(.ARM.Collect$$libinit$$0000001F)
    __rt_lib_init_getenv_1                   0x08000195   Thumb Code     0  libinit2.o(.ARM.Collect$$libinit$$00000023)
    __rt_lib_init_lc_numeric_1               0x08000195   Thumb Code     0  libinit2.o(.ARM.Collect$$libinit$$00000017)
    __rt_lib_init_lc_time_1                  0x08000195   Thumb Code     0  libinit2.o(.ARM.Collect$$libinit$$00000019)
    __rt_lib_init_return                     0x08000195   Thumb Code     0  libinit2.o(.ARM.Collect$$libinit$$00000033)
    __rt_lib_init_signal_1                   0x08000195   Thumb Code     0  libinit2.o(.ARM.Collect$$libinit$$0000001D)
    __rt_lib_init_stdio_1                    0x08000195   Thumb Code     0  libinit2.o(.ARM.Collect$$libinit$$00000025)
    __rt_lib_shutdown                        0x08000197   Thumb Code     0  libshutdown.o(.ARM.Collect$$libshutdown$$00000000)
    __rt_lib_shutdown_cpp_1                  0x08000199   Thumb Code     0  libshutdown2.o(.ARM.Collect$$libshutdown$$00000002)
    __rt_lib_shutdown_fp_trap_1              0x08000199   Thumb Code     0  libshutdown2.o(.ARM.Collect$$libshutdown$$00000007)
    __rt_lib_shutdown_heap_1                 0x08000199   Thumb Code     0  libshutdown2.o(.ARM.Collect$$libshutdown$$0000000F)
    __rt_lib_shutdown_return                 0x08000199   Thumb Code     0  libshutdown2.o(.ARM.Collect$$libshutdown$$00000010)
    __rt_lib_shutdown_signal_1               0x08000199   Thumb Code     0  libshutdown2.o(.ARM.Collect$$libshutdown$$0000000A)
    __rt_lib_shutdown_stdio_1                0x08000199   Thumb Code     0  libshutdown2.o(.ARM.Collect$$libshutdown$$00000004)
    __rt_lib_shutdown_user_alloc_1           0x08000199   Thumb Code     0  libshutdown2.o(.ARM.Collect$$libshutdown$$0000000C)
    __rt_entry                               0x0800019b   Thumb Code     0  __rtentry.o(.ARM.Collect$$rtentry$$00000000)
    __rt_entry_presh_1                       0x0800019b   Thumb Code     0  __rtentry2.o(.ARM.Collect$$rtentry$$00000002)
    __rt_entry_sh                            0x0800019b   Thumb Code     0  __rtentry4.o(.ARM.Collect$$rtentry$$00000004)
    __rt_entry_li                            0x080001a1   Thumb Code     0  __rtentry2.o(.ARM.Collect$$rtentry$$0000000A)
    __rt_entry_postsh_1                      0x080001a1   Thumb Code     0  __rtentry2.o(.ARM.Collect$$rtentry$$00000009)
    __rt_entry_main                          0x080001a5   Thumb Code     0  __rtentry2.o(.ARM.Collect$$rtentry$$0000000D)
    __rt_entry_postli_1                      0x080001a5   Thumb Code     0  __rtentry2.o(.ARM.Collect$$rtentry$$0000000C)
    __rt_exit                                0x080001ad   Thumb Code     0  rtexit.o(.ARM.Collect$$rtexit$$00000000)
    __rt_exit_ls                             0x080001af   Thumb Code     0  rtexit2.o(.ARM.Collect$$rtexit$$00000003)
    __rt_exit_prels_1                        0x080001af   Thumb Code     0  rtexit2.o(.ARM.Collect$$rtexit$$00000002)
    __rt_exit_exit                           0x080001b3   Thumb Code     0  rtexit2.o(.ARM.Collect$$rtexit$$00000004)
    Reset_Handler                            0x080001b9   Thumb Code     8  startup_stm32f10x_md.o(.text)
    ADC1_2_IRQHandler                        0x080001d3   Thumb Code     0  startup_stm32f10x_md.o(.text)
    CAN1_RX1_IRQHandler                      0x080001d3   Thumb Code     0  startup_stm32f10x_md.o(.text)
    CAN1_SCE_IRQHandler                      0x080001d3   Thumb Code     0  startup_stm32f10x_md.o(.text)
    DMA1_Channel1_IRQHandler                 0x080001d3   Thumb Code     0  startup_stm32f10x_md.o(.text)
    DMA1_Channel2_IRQHandler                 0x080001d3   Thumb Code     0  startup_stm32f10x_md.o(.text)
    DMA1_Channel3_IRQHandler                 0x080001d3   Thumb Code     0  startup_stm32f10x_md.o(.text)
    DMA1_Channel4_IRQHandler                 0x080001d3   Thumb Code     0  startup_stm32f10x_md.o(.text)
    DMA1_Channel5_IRQHandler                 0x080001d3   Thumb Code     0  startup_stm32f10x_md.o(.text)
    DMA1_Channel6_IRQHandler                 0x080001d3   Thumb Code     0  startup_stm32f10x_md.o(.text)
    DMA1_Channel7_IRQHandler                 0x080001d3   Thumb Code     0  startup_stm32f10x_md.o(.text)
    EXTI0_IRQHandler                         0x080001d3   Thumb Code     0  startup_stm32f10x_md.o(.text)
    EXTI15_10_IRQHandler                     0x080001d3   Thumb Code     0  startup_stm32f10x_md.o(.text)
    EXTI1_IRQHandler                         0x080001d3   Thumb Code     0  startup_stm32f10x_md.o(.text)
    EXTI2_IRQHandler                         0x080001d3   Thumb Code     0  startup_stm32f10x_md.o(.text)
    EXTI3_IRQHandler                         0x080001d3   Thumb Code     0  startup_stm32f10x_md.o(.text)
    EXTI4_IRQHandler                         0x080001d3   Thumb Code     0  startup_stm32f10x_md.o(.text)
    EXTI9_5_IRQHandler                       0x080001d3   Thumb Code     0  startup_stm32f10x_md.o(.text)
    FLASH_IRQHandler                         0x080001d3   Thumb Code     0  startup_stm32f10x_md.o(.text)
    I2C1_ER_IRQHandler                       0x080001d3   Thumb Code     0  startup_stm32f10x_md.o(.text)
    I2C1_EV_IRQHandler                       0x080001d3   Thumb Code     0  startup_stm32f10x_md.o(.text)
    I2C2_ER_IRQHandler                       0x080001d3   Thumb Code     0  startup_stm32f10x_md.o(.text)
    I2C2_EV_IRQHandler                       0x080001d3   Thumb Code     0  startup_stm32f10x_md.o(.text)
    PVD_IRQHandler                           0x080001d3   Thumb Code     0  startup_stm32f10x_md.o(.text)
    RCC_IRQHandler                           0x080001d3   Thumb Code     0  startup_stm32f10x_md.o(.text)
    RTCAlarm_IRQHandler                      0x080001d3   Thumb Code     0  startup_stm32f10x_md.o(.text)
    RTC_IRQHandler                           0x080001d3   Thumb Code     0  startup_stm32f10x_md.o(.text)
    SPI1_IRQHandler                          0x080001d3   Thumb Code     0  startup_stm32f10x_md.o(.text)
    SPI2_IRQHandler                          0x080001d3   Thumb Code     0  startup_stm32f10x_md.o(.text)
    TAMPER_IRQHandler                        0x080001d3   Thumb Code     0  startup_stm32f10x_md.o(.text)
    TIM1_BRK_IRQHandler                      0x080001d3   Thumb Code     0  startup_stm32f10x_md.o(.text)
    TIM1_CC_IRQHandler                       0x080001d3   Thumb Code     0  startup_stm32f10x_md.o(.text)
    TIM1_TRG_COM_IRQHandler                  0x080001d3   Thumb Code     0  startup_stm32f10x_md.o(.text)
    TIM1_UP_IRQHandler                       0x080001d3   Thumb Code     0  startup_stm32f10x_md.o(.text)
    TIM2_IRQHandler                          0x080001d3   Thumb Code     0  startup_stm32f10x_md.o(.text)
    TIM3_IRQHandler                          0x080001d3   Thumb Code     0  startup_stm32f10x_md.o(.text)
    TIM4_IRQHandler                          0x080001d3   Thumb Code     0  startup_stm32f10x_md.o(.text)
    USART1_IRQHandler                        0x080001d3   Thumb Code     0  startup_stm32f10x_md.o(.text)
    USART3_IRQHandler                        0x080001d3   Thumb Code     0  startup_stm32f10x_md.o(.text)
    USBWakeUp_IRQHandler                     0x080001d3   Thumb Code     0  startup_stm32f10x_md.o(.text)
    USB_HP_CAN1_TX_IRQHandler                0x080001d3   Thumb Code     0  startup_stm32f10x_md.o(.text)
    USB_LP_CAN1_RX0_IRQHandler               0x080001d3   Thumb Code     0  startup_stm32f10x_md.o(.text)
    WWDG_IRQHandler                          0x080001d3   Thumb Code     0  startup_stm32f10x_md.o(.text)
    __user_initial_stackheap                 0x080001d5   Thumb Code     0  startup_stm32f10x_md.o(.text)
    SystemInit                               0x080002d7   Thumb Code    78  system_stm32f10x.o(.text)
    SystemCoreClockUpdate                    0x08000325   Thumb Code   142  system_stm32f10x.o(.text)
    RCC_DeInit                               0x080003d9   Thumb Code    64  stm32f10x_rcc.o(.text)
    RCC_HSEConfig                            0x08000419   Thumb Code    70  stm32f10x_rcc.o(.text)
    RCC_GetFlagStatus                        0x0800045f   Thumb Code    56  stm32f10x_rcc.o(.text)
    RCC_WaitForHSEStartUp                    0x08000497   Thumb Code    56  stm32f10x_rcc.o(.text)
    RCC_AdjustHSICalibrationValue            0x080004cf   Thumb Code    20  stm32f10x_rcc.o(.text)
    RCC_HSICmd                               0x080004e3   Thumb Code     6  stm32f10x_rcc.o(.text)
    RCC_PLLConfig                            0x080004e9   Thumb Code    24  stm32f10x_rcc.o(.text)
    RCC_PLLCmd                               0x08000501   Thumb Code     6  stm32f10x_rcc.o(.text)
    RCC_SYSCLKConfig                         0x08000507   Thumb Code    18  stm32f10x_rcc.o(.text)
    RCC_GetSYSCLKSource                      0x08000519   Thumb Code    10  stm32f10x_rcc.o(.text)
    RCC_HCLKConfig                           0x08000523   Thumb Code    18  stm32f10x_rcc.o(.text)
    RCC_PCLK1Config                          0x08000535   Thumb Code    18  stm32f10x_rcc.o(.text)
    RCC_PCLK2Config                          0x08000547   Thumb Code    20  stm32f10x_rcc.o(.text)
    RCC_ITConfig                             0x0800055b   Thumb Code    26  stm32f10x_rcc.o(.text)
    RCC_USBCLKConfig                         0x08000575   Thumb Code     8  stm32f10x_rcc.o(.text)
    RCC_ADCCLKConfig                         0x0800057d   Thumb Code    18  stm32f10x_rcc.o(.text)
    RCC_LSEConfig                            0x0800058f   Thumb Code    50  stm32f10x_rcc.o(.text)
    RCC_LSICmd                               0x080005c1   Thumb Code     6  stm32f10x_rcc.o(.text)
    RCC_RTCCLKConfig                         0x080005c7   Thumb Code    12  stm32f10x_rcc.o(.text)
    RCC_RTCCLKCmd                            0x080005d3   Thumb Code     8  stm32f10x_rcc.o(.text)
    RCC_GetClocksFreq                        0x080005db   Thumb Code   192  stm32f10x_rcc.o(.text)
    RCC_AHBPeriphClockCmd                    0x0800069b   Thumb Code    26  stm32f10x_rcc.o(.text)
    RCC_APB2PeriphClockCmd                   0x080006b5   Thumb Code    26  stm32f10x_rcc.o(.text)
    RCC_APB1PeriphClockCmd                   0x080006cf   Thumb Code    26  stm32f10x_rcc.o(.text)
    RCC_APB2PeriphResetCmd                   0x080006e9   Thumb Code    26  stm32f10x_rcc.o(.text)
    RCC_APB1PeriphResetCmd                   0x08000703   Thumb Code    26  stm32f10x_rcc.o(.text)
    RCC_BackupResetCmd                       0x0800071d   Thumb Code     8  stm32f10x_rcc.o(.text)
    RCC_ClockSecuritySystemCmd               0x08000725   Thumb Code     6  stm32f10x_rcc.o(.text)
    RCC_MCOConfig                            0x0800072b   Thumb Code     6  stm32f10x_rcc.o(.text)
    RCC_ClearFlag                            0x08000731   Thumb Code    14  stm32f10x_rcc.o(.text)
    RCC_GetITStatus                          0x0800073f   Thumb Code    20  stm32f10x_rcc.o(.text)
    RCC_ClearITPendingBit                    0x08000753   Thumb Code     6  stm32f10x_rcc.o(.text)
    GPIO_DeInit                              0x0800077d   Thumb Code   172  stm32f10x_gpio.o(.text)
    GPIO_AFIODeInit                          0x08000829   Thumb Code    20  stm32f10x_gpio.o(.text)
    GPIO_Init                                0x0800083d   Thumb Code   278  stm32f10x_gpio.o(.text)
    GPIO_StructInit                          0x08000953   Thumb Code    16  stm32f10x_gpio.o(.text)
    GPIO_ReadInputDataBit                    0x08000963   Thumb Code    18  stm32f10x_gpio.o(.text)
    GPIO_ReadInputData                       0x08000975   Thumb Code     8  stm32f10x_gpio.o(.text)
    GPIO_ReadOutputDataBit                   0x0800097d   Thumb Code    18  stm32f10x_gpio.o(.text)
    GPIO_ReadOutputData                      0x0800098f   Thumb Code     8  stm32f10x_gpio.o(.text)
    GPIO_SetBits                             0x08000997   Thumb Code     4  stm32f10x_gpio.o(.text)
    GPIO_ResetBits                           0x0800099b   Thumb Code     4  stm32f10x_gpio.o(.text)
    GPIO_WriteBit                            0x0800099f   Thumb Code    10  stm32f10x_gpio.o(.text)
    GPIO_Write                               0x080009a9   Thumb Code     4  stm32f10x_gpio.o(.text)
    GPIO_PinLockConfig                       0x080009ad   Thumb Code    18  stm32f10x_gpio.o(.text)
    GPIO_EventOutputConfig                   0x080009bf   Thumb Code    26  stm32f10x_gpio.o(.text)
    GPIO_EventOutputCmd                      0x080009d9   Thumb Code     6  stm32f10x_gpio.o(.text)
    GPIO_PinRemapConfig                      0x080009df   Thumb Code   138  stm32f10x_gpio.o(.text)
    GPIO_EXTILineConfig                      0x08000a69   Thumb Code    66  stm32f10x_gpio.o(.text)
    GPIO_ETH_MediaInterfaceConfig            0x08000aab   Thumb Code     8  stm32f10x_gpio.o(.text)
    NVIC_PriorityGroupConfig                 0x08000ad9   Thumb Code    10  misc.o(.text)
    NVIC_Init                                0x08000ae3   Thumb Code   100  misc.o(.text)
    NVIC_SetVectorTable                      0x08000b47   Thumb Code    14  misc.o(.text)
    NVIC_SystemLPConfig                      0x08000b55   Thumb Code    34  misc.o(.text)
    SysTick_CLKSourceConfig                  0x08000b77   Thumb Code    40  misc.o(.text)
    USART_DeInit                             0x08000bb5   Thumb Code   134  stm32f10x_usart.o(.text)
    USART_Init                               0x08000c3b   Thumb Code   210  stm32f10x_usart.o(.text)
    USART_StructInit                         0x08000d0d   Thumb Code    24  stm32f10x_usart.o(.text)
    USART_ClockInit                          0x08000d25   Thumb Code    34  stm32f10x_usart.o(.text)
    USART_ClockStructInit                    0x08000d47   Thumb Code    12  stm32f10x_usart.o(.text)
    USART_Cmd                                0x08000d53   Thumb Code    24  stm32f10x_usart.o(.text)
    USART_ITConfig                           0x08000d6b   Thumb Code    74  stm32f10x_usart.o(.text)
    USART_DMACmd                             0x08000db5   Thumb Code    18  stm32f10x_usart.o(.text)
    USART_SetAddress                         0x08000dc7   Thumb Code    18  stm32f10x_usart.o(.text)
    USART_WakeUpConfig                       0x08000dd9   Thumb Code    18  stm32f10x_usart.o(.text)
    USART_ReceiverWakeUpCmd                  0x08000deb   Thumb Code    24  stm32f10x_usart.o(.text)
    USART_LINBreakDetectLengthConfig         0x08000e03   Thumb Code    18  stm32f10x_usart.o(.text)
    USART_LINCmd                             0x08000e15   Thumb Code    24  stm32f10x_usart.o(.text)
    USART_SendData                           0x08000e2d   Thumb Code     8  stm32f10x_usart.o(.text)
    USART_ReceiveData                        0x08000e35   Thumb Code    10  stm32f10x_usart.o(.text)
    USART_SendBreak                          0x08000e3f   Thumb Code    10  stm32f10x_usart.o(.text)
    USART_SetGuardTime                       0x08000e49   Thumb Code    16  stm32f10x_usart.o(.text)
    USART_SetPrescaler                       0x08000e59   Thumb Code    16  stm32f10x_usart.o(.text)
    USART_SmartCardCmd                       0x08000e69   Thumb Code    24  stm32f10x_usart.o(.text)
    USART_SmartCardNACKCmd                   0x08000e81   Thumb Code    24  stm32f10x_usart.o(.text)
    USART_HalfDuplexCmd                      0x08000e99   Thumb Code    24  stm32f10x_usart.o(.text)
    USART_OverSampling8Cmd                   0x08000eb1   Thumb Code    22  stm32f10x_usart.o(.text)
    USART_OneBitMethodCmd                    0x08000ec7   Thumb Code    24  stm32f10x_usart.o(.text)
    USART_IrDAConfig                         0x08000edf   Thumb Code    18  stm32f10x_usart.o(.text)
    USART_IrDACmd                            0x08000ef1   Thumb Code    24  stm32f10x_usart.o(.text)
    USART_GetFlagStatus                      0x08000f09   Thumb Code    26  stm32f10x_usart.o(.text)
    USART_ClearFlag                          0x08000f23   Thumb Code    18  stm32f10x_usart.o(.text)
    USART_GetITStatus                        0x08000f35   Thumb Code    84  stm32f10x_usart.o(.text)
    USART_ClearITPendingBit                  0x08000f89   Thumb Code    52  stm32f10x_usart.o(.text)
    fflushAll                                0x08000fbd   Thumb Code    96  main.o(.text)
    fflushData                               0x0800101d   Thumb Code    40  main.o(.text)
    USART_SendString                         0x08001045   Thumb Code    44  main.o(.text)
    parkControl                              0x08001071   Thumb Code   164  main.o(.text)
    substring                                0x08001115   Thumb Code    32  main.o(.text)
    analysis                                 0x08001135   Thumb Code   302  main.o(.text)
    fflushPara                               0x08001263   Thumb Code    32  main.o(.text)
    show                                     0x08001283   Thumb Code   696  main.o(.text)
    NVIC_Configuration                       0x0800153b   Thumb Code    42  main.o(.text)
    USART_Config                             0x08001565   Thumb Code   116  main.o(.text)
    main                                     0x080015d9   Thumb Code   326  main.o(.text)
    Delay_Ms                                 0x0800171f   Thumb Code    16  main.o(.text)
    NMI_Handler                              0x08001785   Thumb Code     2  stm32f10x_it.o(.text)
    HardFault_Handler                        0x08001787   Thumb Code     4  stm32f10x_it.o(.text)
    MemManage_Handler                        0x0800178b   Thumb Code     4  stm32f10x_it.o(.text)
    BusFault_Handler                         0x0800178f   Thumb Code     4  stm32f10x_it.o(.text)
    UsageFault_Handler                       0x08001793   Thumb Code     4  stm32f10x_it.o(.text)
    SVC_Handler                              0x08001797   Thumb Code     2  stm32f10x_it.o(.text)
    DebugMon_Handler                         0x08001799   Thumb Code     2  stm32f10x_it.o(.text)
    PendSV_Handler                           0x0800179b   Thumb Code     2  stm32f10x_it.o(.text)
    SysTick_Handler                          0x0800179d   Thumb Code    12  stm32f10x_it.o(.text)
    USART2_IRQHandler                        0x080017a9   Thumb Code    86  stm32f10x_it.o(.text)
    Delay_LCD                                0x08001815   Thumb Code    30  lcd.o(.text)
    LCD_WriteReg                             0x08001833   Thumb Code    56  lcd.o(.text)
    REG_8230_Init                            0x0800186b   Thumb Code   288  lcd.o(.text)
    REG_932X_Init                            0x0800198b   Thumb Code   514  lcd.o(.text)
    LCD_BusOut                               0x08001b8d   Thumb Code    32  lcd.o(.text)
    LCD_BusIn                                0x08001bad   Thumb Code    32  lcd.o(.text)
    LCD_ReadReg                              0x08001bcd   Thumb Code    92  lcd.o(.text)
    LCD_CtrlLinesConfig                      0x08001c29   Thumb Code    68  lcd.o(.text)
    STM3210B_LCD_Init                        0x08001c6d   Thumb Code    50  lcd.o(.text)
    LCD_SetTextColor                         0x08001c9f   Thumb Code    12  lcd.o(.text)
    LCD_SetBackColor                         0x08001cab   Thumb Code    12  lcd.o(.text)
    LCD_SetCursor                            0x08001cb7   Thumb Code    24  lcd.o(.text)
    LCD_WriteRAM                             0x08001ccf   Thumb Code    44  lcd.o(.text)
    LCD_WriteRAM_Prepare                     0x08001cfb   Thumb Code    48  lcd.o(.text)
    LCD_DrawChar                             0x08001d2b   Thumb Code   100  lcd.o(.text)
    LCD_DisplayChar                          0x08001d8f   Thumb Code    34  lcd.o(.text)
    LCD_DisplayStringLine                    0x08001db1   Thumb Code    44  lcd.o(.text)
    LCD_ClearLine                            0x08001ddd   Thumb Code    14  lcd.o(.text)
    LCD_Clear                                0x08001deb   Thumb Code    38  lcd.o(.text)
    LCD_SetDisplayWindow                     0x08001e11   Thumb Code    88  lcd.o(.text)
    LCD_WindowModeDisable                    0x08001e69   Thumb Code    28  lcd.o(.text)
    LCD_DrawLine                             0x08001e85   Thumb Code    86  lcd.o(.text)
    LCD_DrawRect                             0x08001edb   Thumb Code    66  lcd.o(.text)
    LCD_DrawCircle                           0x08001f1d   Thumb Code   252  lcd.o(.text)
    LCD_DrawMonoPict                         0x08002019   Thumb Code   126  lcd.o(.text)
    LCD_WriteBMP                             0x08002097   Thumb Code    74  lcd.o(.text)
    LCD_ReadRAM                              0x080020e1   Thumb Code    82  lcd.o(.text)
    LCD_PowerOn                              0x08002133   Thumb Code   118  lcd.o(.text)
    LCD_DisplayOn                            0x080021a9   Thumb Code    14  lcd.o(.text)
    LCD_DisplayOff                           0x080021b7   Thumb Code    12  lcd.o(.text)
    LCD_DrawPicture                          0x080021c3   Thumb Code    48  lcd.o(.text)
    initParking                              0x08002205   Thumb Code   168  parkcontrol.o(.text)
    initCar                                  0x080022ad   Thumb Code    42  parkcontrol.o(.text)
    initTime                                 0x080022d7   Thumb Code    56  parkcontrol.o(.text)
    canPark                                  0x0800230f   Thumb Code    16  parkcontrol.o(.text)
    isExist                                  0x0800231f   Thumb Code    40  parkcontrol.o(.text)
    park                                     0x08002347   Thumb Code   312  parkcontrol.o(.text)
    goOut                                    0x0800247f   Thumb Code   722  parkcontrol.o(.text)
    Key_Init                                 0x0800275d   Thumb Code    62  key.o(.text)
    Key_Scan                                 0x0800279b   Thumb Code    82  key.o(.text)
    __2sprintf                               0x080027f5   Thumb Code    34  noretval__2sprintf.o(.text)
    _printf_str                              0x0800281d   Thumb Code    82  _printf_str.o(.text)
    _printf_int_dec                          0x08002871   Thumb Code   104  _printf_dec.o(.text)
    __printf                                 0x080028e9   Thumb Code   270  __printf_wp.o(.text)
    atoi                                     0x080029f7   Thumb Code    26  atoi.o(.text)
    strcpy                                   0x08002a11   Thumb Code    72  strcpy.o(.text)
    __aeabi_memcpy4                          0x08002a59   Thumb Code     0  rt_memcpy_w.o(.text)
    __aeabi_memcpy8                          0x08002a59   Thumb Code     0  rt_memcpy_w.o(.text)
    __rt_memcpy_w                            0x08002a59   Thumb Code   100  rt_memcpy_w.o(.text)
    _memcpy_lastbytes_aligned                0x08002aa1   Thumb Code     0  rt_memcpy_w.o(.text)
    __aeabi_memclr4                          0x08002abd   Thumb Code     0  rt_memclr_w.o(.text)
    __aeabi_memclr8                          0x08002abd   Thumb Code     0  rt_memclr_w.o(.text)
    __rt_memclr_w                            0x08002abd   Thumb Code    78  rt_memclr_w.o(.text)
    _memset_w                                0x08002ac1   Thumb Code     0  rt_memclr_w.o(.text)
    strcmp                                   0x08002b0d   Thumb Code   128  strcmpv7m.o(.text)
    __use_two_region_memory                  0x08002b8d   Thumb Code     2  heapauxi.o(.text)
    __rt_heap_escrow$2region                 0x08002b8f   Thumb Code     2  heapauxi.o(.text)
    __rt_heap_expand$2region                 0x08002b91   Thumb Code     2  heapauxi.o(.text)
    __aeabi_errno_addr                       0x08002b95   Thumb Code     8  rt_errno_addr_intlibspace.o(.text)
    __errno$intlibspace                      0x08002b95   Thumb Code     0  rt_errno_addr_intlibspace.o(.text)
    __rt_errno_addr$intlibspace              0x08002b95   Thumb Code     0  rt_errno_addr_intlibspace.o(.text)
    _printf_int_common                       0x08002b9d   Thumb Code   178  _printf_intcommon.o(.text)
    __lib_sel_fp_printf                      0x08002c4f   Thumb Code     2  _printf_fp_dec.o(.text)
    _printf_fp_dec_real                      0x08002dfd   Thumb Code   620  _printf_fp_dec.o(.text)
    _printf_char_common                      0x08003073   Thumb Code    32  _printf_char_common.o(.text)
    _sputc                                   0x08003099   Thumb Code    10  _sputc.o(.text)
    _printf_cs_common                        0x080030a3   Thumb Code    20  _printf_char.o(.text)
    _printf_char                             0x080030b7   Thumb Code    16  _printf_char.o(.text)
    _printf_string                           0x080030c7   Thumb Code     8  _printf_char.o(.text)
    strtol                                   0x080030cf   Thumb Code   112  strtol.o(.text)
    __user_libspace                          0x08003141   Thumb Code     8  libspace.o(.text)
    __user_perproc_libspace                  0x08003141   Thumb Code     0  libspace.o(.text)
    __user_perthread_libspace                0x08003141   Thumb Code     0  libspace.o(.text)
    __rt_ctype_table                         0x08003149   Thumb Code    16  rt_ctype_table.o(.text)
    __rt_locale                              0x08003159   Thumb Code     8  rt_locale_intlibspace.o(.text)
    _ll_udiv10                               0x08003161   Thumb Code   138  lludiv10.o(.text)
    _printf_fp_infnan                        0x080031ed   Thumb Code   112  _printf_fp_infnan.o(.text)
    _strtoul                                 0x0800326d   Thumb Code   158  _strtoul.o(.text)
    _btod_etento                             0x0800330d   Thumb Code   216  bigflt0.o(.text)
    __user_setup_stackheap                   0x080033e9   Thumb Code    74  sys_stackheap_outer.o(.text)
    _chval                                   0x08003433   Thumb Code    28  _chval.o(.text)
    exit                                     0x0800344f   Thumb Code    18  exit.o(.text)
    _sys_exit                                0x08003461   Thumb Code     8  sys_exit.o(.text)
    __I$use$semihosting                      0x0800346d   Thumb Code     0  use_no_semi.o(.text)
    __use_no_semihosting_swi                 0x0800346d   Thumb Code     2  use_no_semi.o(.text)
    __semihosting_library_function           0x0800346f   Thumb Code     0  indicate_semi.o(.text)
    _btod_d2e                                0x0800346f   Thumb Code    62  btod.o(CL$$btod_d2e)
    _d2e_denorm_low                          0x080034ad   Thumb Code    70  btod.o(CL$$btod_d2e_denorm_low)
    _d2e_norm_op1                            0x080034f3   Thumb Code    96  btod.o(CL$$btod_d2e_norm_op1)
    __btod_div_common                        0x08003553   Thumb Code   696  btod.o(CL$$btod_div_common)
    _e2e                                     0x0800388b   Thumb Code   198  btod.o(CL$$btod_e2e)
    _btod_ediv                               0x08003951   Thumb Code    40  btod.o(CL$$btod_ediv)
    _btod_emul                               0x08003979   Thumb Code    40  btod.o(CL$$btod_emul)
    __btod_mult_common                       0x080039a1   Thumb Code   580  btod.o(CL$$btod_mult_common)
    __ARM_fpclassify                         0x08003be5   Thumb Code    40  fpclassify.o(i.__ARM_fpclassify)
    _is_digit                                0x08003c0d   Thumb Code    14  __printf_wp.o(i._is_digit)
    _get_lc_numeric                          0x08003c1d   Thumb Code    44  lc_numeric_c.o(locale$$code)
    _get_lc_ctype                            0x08003c49   Thumb Code    44  lc_ctype_c.o(locale$$code)
    __aeabi_d2f                              0x08003c75   Thumb Code     0  d2f.o(x$fpl$d2f)
    _d2f                                     0x08003c75   Thumb Code    98  d2f.o(x$fpl$d2f)
    __aeabi_dadd                             0x08003cd9   Thumb Code     0  daddsub_clz.o(x$fpl$dadd)
    _dadd                                    0x08003cd9   Thumb Code   332  daddsub_clz.o(x$fpl$dadd)
    __fpl_dcmp_Inf                           0x08003e29   Thumb Code    24  dcmpi.o(x$fpl$dcmpinf)
    __aeabi_cdcmpeq                          0x08003e41   Thumb Code     0  deqf.o(x$fpl$deqf)
    _dcmpeq                                  0x08003e41   Thumb Code   120  deqf.o(x$fpl$deqf)
    __aeabi_cdcmple                          0x08003eb9   Thumb Code     0  dleqf.o(x$fpl$dleqf)
    _dcmple                                  0x08003eb9   Thumb Code   120  dleqf.o(x$fpl$dleqf)
    __fpl_dcmple_InfNaN                      0x08003f1b   Thumb Code     0  dleqf.o(x$fpl$dleqf)
    __aeabi_dmul                             0x08003f31   Thumb Code     0  dmul.o(x$fpl$dmul)
    _dmul                                    0x08003f31   Thumb Code   332  dmul.o(x$fpl$dmul)
    __fpl_dnaninf                            0x08004085   Thumb Code   156  dnaninf.o(x$fpl$dnaninf)
    __fpl_dretinf                            0x08004121   Thumb Code    12  dretinf.o(x$fpl$dretinf)
    __aeabi_cdrcmple                         0x0800412d   Thumb Code     0  drleqf.o(x$fpl$drleqf)
    _drcmple                                 0x0800412d   Thumb Code   108  drleqf.o(x$fpl$drleqf)
    __aeabi_dsub                             0x08004199   Thumb Code     0  daddsub_clz.o(x$fpl$dsub)
    _dsub                                    0x08004199   Thumb Code   464  daddsub_clz.o(x$fpl$dsub)
    __aeabi_f2d                              0x0800436d   Thumb Code     0  f2d.o(x$fpl$f2d)
    _f2d                                     0x0800436d   Thumb Code    86  f2d.o(x$fpl$f2d)
    __aeabi_i2f                              0x080043c5   Thumb Code     0  fflt_clz.o(x$fpl$fflt)
    _fflt                                    0x080043c5   Thumb Code    48  fflt_clz.o(x$fpl$fflt)
    __fpl_fnaninf                            0x080043f5   Thumb Code   140  fnaninf.o(x$fpl$fnaninf)
    __fpl_fretinf                            0x08004481   Thumb Code    10  fretinf.o(x$fpl$fretinf)
    _printf_fp_dec                           0x0800448b   Thumb Code     4  printf1.o(x$fpl$printf1)
    ASCII_Table                              0x0800448e   Data        4560  lcd.o(.constdata)
    __I$use$fp                               0x0800448e   Number         0  usenofp.o(x$fpl$usenofp)
    Region$$Table$$Base                      0x080056f4   Number         0  anon$$obj.o(Region$$Table)
    Region$$Table$$Limit                     0x08005714   Number         0  anon$$obj.o(Region$$Table)
    __ctype                                  0x0800573d   Data           0  lc_ctype_c.o(locale$$data)
    SystemCoreClock                          0x20000000   Data           4  system_stm32f10x.o(.data)
    AHBPrescTable                            0x20000004   Data          16  system_stm32f10x.o(.data)
    TimingDelay                              0x20000028   Data           4  main.o(.data)
    cnbrPrice                                0x2000002c   Data           4  main.o(.data)
    vnbrPrice                                0x20000030   Data           4  main.o(.data)
    id                                       0x20000034   Data           5  main.o(.data)
    type                                     0x20000039   Data           5  main.o(.data)
    year                                     0x20000040   Data           4  main.o(.data)
    month                                    0x20000044   Data           4  main.o(.data)
    day                                      0x20000048   Data           4  main.o(.data)
    hour                                     0x2000004c   Data           4  main.o(.data)
    minute                                   0x20000050   Data           4  main.o(.data)
    second                                   0x20000054   Data           4  main.o(.data)
    remainParkSize                           0x20000058   Data           4  main.o(.data)
    cnbrSize                                 0x2000005c   Data           4  main.o(.data)
    vnbrSize                                 0x20000060   Data           4  main.o(.data)
    keyTemp                                  0x20000064   Data           4  main.o(.data)
    showFlag                                 0x20000068   Data           4  main.o(.data)
    RXOVER                                   0x2000006c   Data           1  stm32f10x_it.o(.data)
    RXCUNT                                   0x2000006d   Data           1  stm32f10x_it.o(.data)
    dummy                                    0x20000072   Data           2  lcd.o(.data)
    parkTime                                 0x20000078   Data           4  parkcontrol.o(.data)
    sum                                      0x20000080   Data           8  parkcontrol.o(.data)
    USART_RXBUF                              0x20000088   Data          50  main.o(.bss)
    showDetail                               0x200000ba   Data          28  main.o(.bss)
    showCNBR                                 0x200000d6   Data          28  main.o(.bss)
    showVNBR                                 0x200000f2   Data          28  main.o(.bss)
    showCNBRprice                            0x2000010e   Data          28  main.o(.bss)
    showVNBRprice                            0x2000012a   Data          28  main.o(.bss)
    showIDLE                                 0x20000146   Data          28  main.o(.bss)
    sendComputer                             0x20000162   Data          28  main.o(.bss)
    car                                      0x2000017e   Data          10  main.o(.bss)
    time                                     0x20000188   Data          24  main.o(.bss)
    parking                                  0x200001a0   Data         352  main.o(.bss)
    __libspace_start                         0x20000300   Data          96  libspace.o(.bss)
    __temporary_stack_top$libspace           0x20000360   Data           0  libspace.o(.bss)



==============================================================================

Memory Map of the image

  Image Entry point : 0x080001b9

  Load Region LR_1 (Base: 0x08000000, Size: 0x000058c8, Max: 0xffffffff, ABSOLUTE)

    Execution Region ER_RO (Base: 0x08000000, Size: 0x00005840, Max: 0xffffffff, ABSOLUTE)

    Base Addr    Size         Type   Attr      Idx    E Section Name        Object

    0x08000000   0x000000ec   Data   RO            3    RESET               startup_stm32f10x_md.o
    0x080000ec   0x00000008   Code   RO          362  * !!!main             c_w.l(__main.o)
    0x080000f4   0x00000034   Code   RO          626    !!!scatter          c_w.l(__scatter.o)
    0x08000128   0x0000001a   Code   RO          628    !!handler_copy      c_w.l(__scatter_copy.o)
    0x08000142   0x00000002   PAD
    0x08000144   0x0000001c   Code   RO          630    !!handler_zi        c_w.l(__scatter_zi.o)
    0x08000160   0x00000000   Code   RO          349    .ARM.Collect$$_printf_percent$$00000000  c_w.l(_printf_percent.o)
    0x08000160   0x00000006   Code   RO          348    .ARM.Collect$$_printf_percent$$00000003  c_w.l(_printf_f.o)
    0x08000166   0x00000006   Code   RO          347    .ARM.Collect$$_printf_percent$$00000009  c_w.l(_printf_d.o)
    0x0800016c   0x00000006   Code   RO          346    .ARM.Collect$$_printf_percent$$00000014  c_w.l(_printf_s.o)
    0x08000172   0x00000004   Code   RO          404    .ARM.Collect$$_printf_percent$$00000017  c_w.l(_printf_percent_end.o)
    0x08000176   0x00000002   Code   RO          499    .ARM.Collect$$libinit$$00000000  c_w.l(libinit.o)
    0x08000178   0x00000000   Code   RO          501    .ARM.Collect$$libinit$$00000002  c_w.l(libinit2.o)
    0x08000178   0x00000000   Code   RO          503    .ARM.Collect$$libinit$$00000004  c_w.l(libinit2.o)
    0x08000178   0x00000000   Code   RO          506    .ARM.Collect$$libinit$$0000000A  c_w.l(libinit2.o)
    0x08000178   0x00000000   Code   RO          508    .ARM.Collect$$libinit$$0000000C  c_w.l(libinit2.o)
    0x08000178   0x00000000   Code   RO          510    .ARM.Collect$$libinit$$0000000E  c_w.l(libinit2.o)
    0x08000178   0x00000006   Code   RO          511    .ARM.Collect$$libinit$$0000000F  c_w.l(libinit2.o)
    0x0800017e   0x00000000   Code   RO          513    .ARM.Collect$$libinit$$00000011  c_w.l(libinit2.o)
    0x0800017e   0x0000000c   Code   RO          514    .ARM.Collect$$libinit$$00000012  c_w.l(libinit2.o)
    0x0800018a   0x00000000   Code   RO          515    .ARM.Collect$$libinit$$00000013  c_w.l(libinit2.o)
    0x0800018a   0x00000000   Code   RO          517    .ARM.Collect$$libinit$$00000015  c_w.l(libinit2.o)
    0x0800018a   0x0000000a   Code   RO          518    .ARM.Collect$$libinit$$00000016  c_w.l(libinit2.o)
    0x08000194   0x00000000   Code   RO          519    .ARM.Collect$$libinit$$00000017  c_w.l(libinit2.o)
    0x08000194   0x00000000   Code   RO          521    .ARM.Collect$$libinit$$00000019  c_w.l(libinit2.o)
    0x08000194   0x00000000   Code   RO          523    .ARM.Collect$$libinit$$0000001B  c_w.l(libinit2.o)
    0x08000194   0x00000000   Code   RO          525    .ARM.Collect$$libinit$$0000001D  c_w.l(libinit2.o)
    0x08000194   0x00000000   Code   RO          527    .ARM.Collect$$libinit$$0000001F  c_w.l(libinit2.o)
    0x08000194   0x00000000   Code   RO          529    .ARM.Collect$$libinit$$00000021  c_w.l(libinit2.o)
    0x08000194   0x00000000   Code   RO          531    .ARM.Collect$$libinit$$00000023  c_w.l(libinit2.o)
    0x08000194   0x00000000   Code   RO          533    .ARM.Collect$$libinit$$00000025  c_w.l(libinit2.o)
    0x08000194   0x00000000   Code   RO          537    .ARM.Collect$$libinit$$0000002C  c_w.l(libinit2.o)
    0x08000194   0x00000000   Code   RO          539    .ARM.Collect$$libinit$$0000002E  c_w.l(libinit2.o)
    0x08000194   0x00000000   Code   RO          541    .ARM.Collect$$libinit$$00000030  c_w.l(libinit2.o)
    0x08000194   0x00000000   Code   RO          543    .ARM.Collect$$libinit$$00000032  c_w.l(libinit2.o)
    0x08000194   0x00000002   Code   RO          544    .ARM.Collect$$libinit$$00000033  c_w.l(libinit2.o)
    0x08000196   0x00000002   Code   RO          574    .ARM.Collect$$libshutdown$$00000000  c_w.l(libshutdown.o)
    0x08000198   0x00000000   Code   RO          585    .ARM.Collect$$libshutdown$$00000002  c_w.l(libshutdown2.o)
    0x08000198   0x00000000   Code   RO          587    .ARM.Collect$$libshutdown$$00000004  c_w.l(libshutdown2.o)
    0x08000198   0x00000000   Code   RO          590    .ARM.Collect$$libshutdown$$00000007  c_w.l(libshutdown2.o)
    0x08000198   0x00000000   Code   RO          593    .ARM.Collect$$libshutdown$$0000000A  c_w.l(libshutdown2.o)
    0x08000198   0x00000000   Code   RO          595    .ARM.Collect$$libshutdown$$0000000C  c_w.l(libshutdown2.o)
    0x08000198   0x00000000   Code   RO          598    .ARM.Collect$$libshutdown$$0000000F  c_w.l(libshutdown2.o)
    0x08000198   0x00000002   Code   RO          599    .ARM.Collect$$libshutdown$$00000010  c_w.l(libshutdown2.o)
    0x0800019a   0x00000000   Code   RO          388    .ARM.Collect$$rtentry$$00000000  c_w.l(__rtentry.o)
    0x0800019a   0x00000000   Code   RO          424    .ARM.Collect$$rtentry$$00000002  c_w.l(__rtentry2.o)
    0x0800019a   0x00000006   Code   RO          436    .ARM.Collect$$rtentry$$00000004  c_w.l(__rtentry4.o)
    0x080001a0   0x00000000   Code   RO          426    .ARM.Collect$$rtentry$$00000009  c_w.l(__rtentry2.o)
    0x080001a0   0x00000004   Code   RO          427    .ARM.Collect$$rtentry$$0000000A  c_w.l(__rtentry2.o)
    0x080001a4   0x00000000   Code   RO          429    .ARM.Collect$$rtentry$$0000000C  c_w.l(__rtentry2.o)
    0x080001a4   0x00000008   Code   RO          430    .ARM.Collect$$rtentry$$0000000D  c_w.l(__rtentry2.o)
    0x080001ac   0x00000002   Code   RO          545    .ARM.Collect$$rtexit$$00000000  c_w.l(rtexit.o)
    0x080001ae   0x00000000   Code   RO          552    .ARM.Collect$$rtexit$$00000002  c_w.l(rtexit2.o)
    0x080001ae   0x00000004   Code   RO          553    .ARM.Collect$$rtexit$$00000003  c_w.l(rtexit2.o)
    0x080001b2   0x00000006   Code   RO          554    .ARM.Collect$$rtexit$$00000004  c_w.l(rtexit2.o)
    0x080001b8   0x00000040   Code   RO            4  * .text               startup_stm32f10x_md.o
    0x080001f8   0x000001e0   Code   RO           26    .text               system_stm32f10x.o
    0x080003d8   0x000003a4   Code   RO           86    .text               stm32f10x_rcc.o
    0x0800077c   0x0000035c   Code   RO          112    .text               stm32f10x_gpio.o
    0x08000ad8   0x000000dc   Code   RO          132    .text               misc.o
    0x08000bb4   0x00000408   Code   RO          152    .text               stm32f10x_usart.o
    0x08000fbc   0x000007c8   Code   RO          172    .text               main.o
    0x08001784   0x00000090   Code   RO          217    .text               stm32f10x_it.o
    0x08001814   0x000009f0   Code   RO          244    .text               lcd.o
    0x08002204   0x00000558   Code   RO          269    .text               parkcontrol.o
    0x0800275c   0x00000098   Code   RO          293    .text               key.o
    0x080027f4   0x00000028   Code   RO          318    .text               c_w.l(noretval__2sprintf.o)
    0x0800281c   0x00000052   Code   RO          322    .text               c_w.l(_printf_str.o)
    0x0800286e   0x00000002   PAD
    0x08002870   0x00000078   Code   RO          324    .text               c_w.l(_printf_dec.o)
    0x080028e8   0x0000010e   Code   RO          334    .text               c_w.l(__printf_wp.o)
    0x080029f6   0x0000001a   Code   RO          350    .text               c_w.l(atoi.o)
    0x08002a10   0x00000048   Code   RO          352    .text               c_w.l(strcpy.o)
    0x08002a58   0x00000064   Code   RO          354    .text               c_w.l(rt_memcpy_w.o)
    0x08002abc   0x0000004e   Code   RO          356    .text               c_w.l(rt_memclr_w.o)
    0x08002b0a   0x00000002   PAD
    0x08002b0c   0x00000080   Code   RO          358    .text               c_w.l(strcmpv7m.o)
    0x08002b8c   0x00000006   Code   RO          360    .text               c_w.l(heapauxi.o)
    0x08002b92   0x00000002   PAD
    0x08002b94   0x00000008   Code   RO          392    .text               c_w.l(rt_errno_addr_intlibspace.o)
    0x08002b9c   0x000000b2   Code   RO          394    .text               c_w.l(_printf_intcommon.o)
    0x08002c4e   0x0000041a   Code   RO          396    .text               c_w.l(_printf_fp_dec.o)
    0x08003068   0x00000030   Code   RO          398    .text               c_w.l(_printf_char_common.o)
    0x08003098   0x0000000a   Code   RO          400    .text               c_w.l(_sputc.o)
    0x080030a2   0x0000002c   Code   RO          402    .text               c_w.l(_printf_char.o)
    0x080030ce   0x00000070   Code   RO          405    .text               c_w.l(strtol.o)
    0x0800313e   0x00000002   PAD
    0x08003140   0x00000008   Code   RO          420    .text               c_w.l(libspace.o)
    0x08003148   0x00000010   Code   RO          438    .text               c_w.l(rt_ctype_table.o)
    0x08003158   0x00000008   Code   RO          443    .text               c_w.l(rt_locale_intlibspace.o)
    0x08003160   0x0000008a   Code   RO          445    .text               c_w.l(lludiv10.o)
    0x080031ea   0x00000002   PAD
    0x080031ec   0x00000080   Code   RO          447    .text               c_w.l(_printf_fp_infnan.o)
    0x0800326c   0x0000009e   Code   RO          451    .text               c_w.l(_strtoul.o)
    0x0800330a   0x00000002   PAD
    0x0800330c   0x000000dc   Code   RO          453    .text               c_w.l(bigflt0.o)
    0x080033e8   0x0000004a   Code   RO          485    .text               c_w.l(sys_stackheap_outer.o)
    0x08003432   0x0000001c   Code   RO          487    .text               c_w.l(_chval.o)
    0x0800344e   0x00000012   Code   RO          492    .text               c_w.l(exit.o)
    0x08003460   0x0000000c   Code   RO          564    .text               c_w.l(sys_exit.o)
    0x0800346c   0x00000002   Code   RO          575    .text               c_w.l(use_no_semi.o)
    0x0800346e   0x00000000   Code   RO          577    .text               c_w.l(indicate_semi.o)
    0x0800346e   0x0000003e   Code   RO          456    CL$$btod_d2e        c_w.l(btod.o)
    0x080034ac   0x00000046   Code   RO          458    CL$$btod_d2e_denorm_low  c_w.l(btod.o)
    0x080034f2   0x00000060   Code   RO          457    CL$$btod_d2e_norm_op1  c_w.l(btod.o)
    0x08003552   0x00000338   Code   RO          466    CL$$btod_div_common  c_w.l(btod.o)
    0x0800388a   0x000000c6   Code   RO          463    CL$$btod_e2e        c_w.l(btod.o)
    0x08003950   0x00000028   Code   RO          460    CL$$btod_ediv       c_w.l(btod.o)
    0x08003978   0x00000028   Code   RO          459    CL$$btod_emul       c_w.l(btod.o)
    0x080039a0   0x00000244   Code   RO          465    CL$$btod_mult_common  c_w.l(btod.o)
    0x08003be4   0x00000028   Code   RO          483    i.__ARM_fpclassify  m_ws.l(fpclassify.o)
    0x08003c0c   0x0000000e   Code   RO          336    i._is_digit         c_w.l(__printf_wp.o)
    0x08003c1a   0x00000002   PAD
    0x08003c1c   0x0000002c   Code   RO          479    locale$$code        c_w.l(lc_numeric_c.o)
    0x08003c48   0x0000002c   Code   RO          490    locale$$code        c_w.l(lc_ctype_c.o)
    0x08003c74   0x00000062   Code   RO          364    x$fpl$d2f           fz_ws.l(d2f.o)
    0x08003cd6   0x00000002   PAD
    0x08003cd8   0x00000150   Code   RO          366    x$fpl$dadd          fz_ws.l(daddsub_clz.o)
    0x08003e28   0x00000018   Code   RO          407    x$fpl$dcmpinf       fz_ws.l(dcmpi.o)
    0x08003e40   0x00000078   Code   RO          372    x$fpl$deqf          fz_ws.l(deqf.o)
    0x08003eb8   0x00000078   Code   RO          409    x$fpl$dleqf         fz_ws.l(dleqf.o)
    0x08003f30   0x00000154   Code   RO          374    x$fpl$dmul          fz_ws.l(dmul.o)
    0x08004084   0x0000009c   Code   RO          411    x$fpl$dnaninf       fz_ws.l(dnaninf.o)
    0x08004120   0x0000000c   Code   RO          413    x$fpl$dretinf       fz_ws.l(dretinf.o)
    0x0800412c   0x0000006c   Code   RO          376    x$fpl$drleqf        fz_ws.l(drleqf.o)
    0x08004198   0x000001d4   Code   RO          368    x$fpl$dsub          fz_ws.l(daddsub_clz.o)
    0x0800436c   0x00000056   Code   RO          378    x$fpl$f2d           fz_ws.l(f2d.o)
    0x080043c2   0x00000002   PAD
    0x080043c4   0x00000030   Code   RO          381    x$fpl$fflt          fz_ws.l(fflt_clz.o)
    0x080043f4   0x0000008c   Code   RO          415    x$fpl$fnaninf       fz_ws.l(fnaninf.o)
    0x08004480   0x0000000a   Code   RO          417    x$fpl$fretinf       fz_ws.l(fretinf.o)
    0x0800448a   0x00000004   Code   RO          386    x$fpl$printf1       fz_ws.l(printf1.o)
    0x0800448e   0x00000000   Code   RO          419    x$fpl$usenofp       fz_ws.l(usenofp.o)
    0x0800448e   0x000011d0   Data   RO          245    .constdata          lcd.o
    0x0800565e   0x00000002   PAD
    0x08005660   0x00000094   Data   RO          454    .constdata          c_w.l(bigflt0.o)
    0x080056f4   0x00000020   Data   RO          624    Region$$Table       anon$$obj.o
    0x08005714   0x0000001c   Data   RO          478    locale$$data        c_w.l(lc_numeric_c.o)
    0x08005730   0x00000110   Data   RO          489    locale$$data        c_w.l(lc_ctype_c.o)


    Execution Region ER_RW (Base: 0x20000000, Size: 0x00000088, Max: 0xffffffff, ABSOLUTE)

    Base Addr    Size         Type   Attr      Idx    E Section Name        Object

    0x20000000   0x00000014   Data   RW           27    .data               system_stm32f10x.o
    0x20000014   0x00000014   Data   RW           87    .data               stm32f10x_rcc.o
    0x20000028   0x00000044   Data   RW          174    .data               main.o
    0x2000006c   0x00000002   Data   RW          218    .data               stm32f10x_it.o
    0x2000006e   0x00000006   Data   RW          246    .data               lcd.o
    0x20000074   0x00000004   PAD
    0x20000078   0x00000010   Data   RW          270    .data               parkcontrol.o


    Execution Region ER_ZI (Base: 0x20000088, Size: 0x000008d8, Max: 0xffffffff, ABSOLUTE)

    Base Addr    Size         Type   Attr      Idx    E Section Name        Object

    0x20000088   0x00000278   Zero   RW          173    .bss                main.o
    0x20000300   0x00000060   Zero   RW          421    .bss                c_w.l(libspace.o)
    0x20000360   0x00000200   Zero   RW            2    HEAP                startup_stm32f10x_md.o
    0x20000560   0x00000400   Zero   RW            1    STACK               startup_stm32f10x_md.o


==============================================================================

Image component sizes


      Code (inc. data)   RO Data    RW Data    ZI Data      Debug   Object Name

         0          0          0          0          0       4508   core_cm3.o
       152          8          0          0          0        656   key.o
      2544         78       4560          6          0       8524   lcd.o
      1992        444          0         68        632      27504   main.o
       220         22          0          0          0       1881   misc.o
      1368         50          0         16          0       3720   parkcontrol.o
        64         26        236          0       1536        924   startup_stm32f10x_md.o
       860         38          0          0          0       5813   stm32f10x_gpio.o
       144         22          0          2          0       1728   stm32f10x_it.o
       932         36          0         20          0       8996   stm32f10x_rcc.o
      1032         22          0          0          0       8540   stm32f10x_usart.o
       480         38          0         20          0     228923   system_stm32f10x.o

    ----------------------------------------------------------------------
      9788        784       4830        136       2168     301717   Object Totals
         0          0         32          0          0          0   (incl. Generated)
         0          0          2          4          0          0   (incl. Padding)

    ----------------------------------------------------------------------

      Code (inc. data)   RO Data    RW Data    ZI Data      Debug   Library Member Name

         8          0          0          0          0         68   __main.o
       284          0          0          0          0        156   __printf_wp.o
         0          0          0          0          0          0   __rtentry.o
        12          0          0          0          0          0   __rtentry2.o
         6          0          0          0          0          0   __rtentry4.o
        52          8          0          0          0          0   __scatter.o
        26          0          0          0          0          0   __scatter_copy.o
        28          0          0          0          0          0   __scatter_zi.o
        28          0          0          0          0         68   _chval.o
        44          0          0          0          0        108   _printf_char.o
        48          6          0          0          0         96   _printf_char_common.o
         6          0          0          0          0          0   _printf_d.o
       120         16          0          0          0         92   _printf_dec.o
         6          0          0          0          0          0   _printf_f.o
      1050          0          0          0          0        216   _printf_fp_dec.o
       128         16          0          0          0         84   _printf_fp_infnan.o
       178          0          0          0          0         88   _printf_intcommon.o
         0          0          0          0          0          0   _printf_percent.o
         4          0          0          0          0          0   _printf_percent_end.o
         6          0          0          0          0          0   _printf_s.o
        82          0          0          0          0         80   _printf_str.o
        10          0          0          0          0         68   _sputc.o
       158          0          0          0          0         92   _strtoul.o
        26          0          0          0          0         80   atoi.o
       220          4        148          0          0         96   bigflt0.o
      1910        128          0          0          0        672   btod.o
        18          0          0          0          0         80   exit.o
         6          0          0          0          0        152   heapauxi.o
         0          0          0          0          0          0   indicate_semi.o
        44         10        272          0          0         76   lc_ctype_c.o
        44         10         28          0          0         76   lc_numeric_c.o
         2          0          0          0          0          0   libinit.o
        30          0          0          0          0          0   libinit2.o
         2          0          0          0          0          0   libshutdown.o
         2          0          0          0          0          0   libshutdown2.o
         8          4          0          0         96         68   libspace.o
       138          0          0          0          0         80   lludiv10.o
        40          6          0          0          0         84   noretval__2sprintf.o
        16          4          0          0          0         76   rt_ctype_table.o
         8          4          0          0          0         68   rt_errno_addr_intlibspace.o
         8          4          0          0          0         68   rt_locale_intlibspace.o
        78          0          0          0          0         80   rt_memclr_w.o
       100          0          0          0          0         80   rt_memcpy_w.o
         2          0          0          0          0          0   rtexit.o
        10          0          0          0          0          0   rtexit2.o
       128          0          0          0          0         68   strcmpv7m.o
        72          0          0          0          0         80   strcpy.o
       112          0          0          0          0         88   strtol.o
        12          4          0          0          0         68   sys_exit.o
        74          0          0          0          0         80   sys_stackheap_outer.o
         2          0          0          0          0         68   use_no_semi.o
        98          4          0          0          0         92   d2f.o
       804         16          0          0          0        272   daddsub_clz.o
        24          0          0          0          0         68   dcmpi.o
       120          4          0          0          0         92   deqf.o
       120          4          0          0          0         92   dleqf.o
       340         12          0          0          0        104   dmul.o
       156          4          0          0          0         92   dnaninf.o
        12          0          0          0          0         68   dretinf.o
       108          0          0          0          0         80   drleqf.o
        86          4          0          0          0         84   f2d.o
        48          0          0          0          0         68   fflt_clz.o
       140          4          0          0          0         84   fnaninf.o
        10          0          0          0          0         68   fretinf.o
         4          0          0          0          0         68   printf1.o
         0          0          0          0          0          0   usenofp.o
        40          0          0          0          0         68   fpclassify.o

    ----------------------------------------------------------------------
      7526        276        448          0         96       4904   Library Totals
        20          0          0          0          0          0   (incl. Padding)

    ----------------------------------------------------------------------

      Code (inc. data)   RO Data    RW Data    ZI Data      Debug   Library Name

      5396        224        448          0         96       3504   c_w.l
      2070         52          0          0          0       1332   fz_ws.l
        40          0          0          0          0         68   m_ws.l

    ----------------------------------------------------------------------
      7526        276        448          0         96       4904   Library Totals

    ----------------------------------------------------------------------

==============================================================================


      Code (inc. data)   RO Data    RW Data    ZI Data      Debug   

     17314       1060       5278        136       2264     302873   Grand Totals
     17314       1060       5278        136       2264     302873   ELF Image Totals
     17314       1060       5278        136          0          0   ROM Totals

==============================================================================

    Total RO  Size (Code + RO Data)                22592 (  22.06kB)
    Total RW  Size (RW Data + ZI Data)              2400 (   2.34kB)
    Total ROM Size (Code + RO Data + RW Data)      22728 (  22.20kB)

==============================================================================

