Component: ARM Compiler 5.06 update 2 (build 183) Tool: armlink [4d35b7]

==============================================================================

Section Cross References

    startup_stm32f10x_md.o(STACK) refers (Special) to heapauxi.o(.text) for __use_two_region_memory
    startup_stm32f10x_md.o(HEAP) refers (Special) to heapauxi.o(.text) for __use_two_region_memory
    startup_stm32f10x_md.o(RESET) refers (Special) to heapauxi.o(.text) for __use_two_region_memory
    startup_stm32f10x_md.o(RESET) refers to startup_stm32f10x_md.o(STACK) for __initial_sp
    startup_stm32f10x_md.o(RESET) refers to startup_stm32f10x_md.o(.text) for Reset_Handler
    startup_stm32f10x_md.o(RESET) refers to stm32f10x_it.o(.text) for NMI_Handler
    startup_stm32f10x_md.o(RESET) refers to usart.o(.text) for USART2_IRQHandler
    startup_stm32f10x_md.o(.text) refers (Special) to heapauxi.o(.text) for __use_two_region_memory
    startup_stm32f10x_md.o(.text) refers to system_stm32f10x.o(.text) for SystemInit
    startup_stm32f10x_md.o(.text) refers to __main.o(!!!main) for __main
    startup_stm32f10x_md.o(.text) refers to startup_stm32f10x_md.o(HEAP) for Heap_Mem
    startup_stm32f10x_md.o(.text) refers to startup_stm32f10x_md.o(STACK) for Stack_Mem
    system_stm32f10x.o(.text) refers to system_stm32f10x.o(.data) for SystemCoreClock
    stm32f10x_gpio.o(.text) refers to stm32f10x_rcc.o(.text) for RCC_APB2PeriphResetCmd
    stm32f10x_rcc.o(.text) refers to stm32f10x_rcc.o(.data) for APBAHBPrescTable
    stm32f10x_tim.o(.text) refers to stm32f10x_rcc.o(.text) for RCC_APB2PeriphResetCmd
    stm32f10x_usart.o(.text) refers to stm32f10x_rcc.o(.text) for RCC_APB2PeriphResetCmd
    stm32f10x_i2c.o(.text) refers to stm32f10x_rcc.o(.text) for RCC_APB1PeriphResetCmd
==============================================================================

Removing Unused input sections from the image.

    Removing core_cm3.o(.emb_text), (32 bytes).
    Removing system_stm32f10x.o(.rev16_text), (4 bytes).
    Removing system_stm32f10x.o(.revsh_text), (4 bytes).
    Removing stm32f10x_gpio.o(.rev16_text), (4 bytes).
    Removing stm32f10x_gpio.o(.revsh_text), (4 bytes).
    Removing stm32f10x_rcc.o(.rev16_text), (4 bytes).
    Removing stm32f10x_rcc.o(.revsh_text), (4 bytes).
    Removing stm32f10x_tim.o(.rev16_text), (4 bytes).
    Removing stm32f10x_tim.o(.revsh_text), (4 bytes).
    Removing stm32f10x_usart.o(.rev16_text), (4 bytes).
    Removing stm32f10x_usart.o(.revsh_text), (4 bytes).
    Removing stm32f10x_i2c.o(.rev16_text), (4 bytes).
    Removing stm32f10x_i2c.o(.revsh_text), (4 bytes).
    Removing stm32f10x_i2c.o(.text), (1028 bytes).
    Removing misc.o(.rev16_text), (4 bytes).
    Removing misc.o(.revsh_text), (4 bytes).
    Removing lcd.o(.rev16_text), (4 bytes).
    Removing lcd.o(.revsh_text), (4 bytes).
==============================================================================

Image Symbol Table

    Local Symbols

    Symbol Name                              Value     Ov Type        Size  Object(Section)

    ../clib/angel/boardlib.s                 0x00000000   Number         0  boardshut.o ABSOLUTE
    ../clib/angel/boardlib.s                 0x00000000   Number         0  boardinit1.o ABSOLUTE
    ../clib/angel/boardlib.s                 0x00000000   Number         0  boardinit2.o ABSOLUTE
    ../clib/angel/boardlib.s                 0x00000000   Number         0  boardinit3.o ABSOLUTE
    ../clib/angel/handlers.s                 0x00000000   Number         0  __scatter_zi.o ABSOLUTE
    ../clib/angel/handlers.s                 0x00000000   Number         0  __scatter_copy.o ABSOLUTE
    ../clib/angel/kernel.s                   0x00000000   Number         0  __rtentry4.o ABSOLUTE
    ../clib/angel/kernel.s                   0x00000000   Number         0  rtexit2.o ABSOLUTE
    ../clib/angel/kernel.s                   0x00000000   Number         0  __rtentry2.o ABSOLUTE
    ../clib/angel/kernel.s                   0x00000000   Number         0  rtexit.o ABSOLUTE
    ../clib/angel/kernel.s                   0x00000000   Number         0  __rtentry.o ABSOLUTE
    ../clib/angel/rt.s                       0x00000000   Number         0  rt_raise.o ABSOLUTE
    ../clib/angel/rt.s                       0x00000000   Number         0  rt_ctype_table.o ABSOLUTE
    ../clib/angel/rt.s                       0x00000000   Number         0  rt_locale_intlibspace.o ABSOLUTE
    ../clib/angel/rt.s                       0x00000000   Number         0  rt_errno_addr_intlibspace.o ABSOLUTE
    ../clib/angel/rt.s                       0x00000000   Number         0  rt_errno_addr.o ABSOLUTE
    ../clib/angel/rt.s                       0x00000000   Number         0  rt_locale.o ABSOLUTE
    ../clib/angel/scatter.s                  0x00000000   Number         0  __scatter.o ABSOLUTE
    ../clib/angel/startup.s                  0x00000000   Number         0  __main.o ABSOLUTE
    ../clib/angel/sys.s                      0x00000000   Number         0  indicate_semi.o ABSOLUTE
    ../clib/angel/sys.s                      0x00000000   Number         0  use_no_semi.o ABSOLUTE
    ../clib/angel/sys.s                      0x00000000   Number         0  libspace.o ABSOLUTE
    ../clib/angel/sys.s                      0x00000000   Number         0  sys_stackheap_outer.o ABSOLUTE
    ../clib/angel/sysapp.c                   0x00000000   Number         0  sys_wrch.o ABSOLUTE
    ../clib/angel/sysapp.c                   0x00000000   Number         0  sys_command.o ABSOLUTE
    ../clib/angel/sysapp.c                   0x00000000   Number         0  sys_exit.o ABSOLUTE
    ../clib/armsys.c                         0x00000000   Number         0  argv_veneer.o ABSOLUTE
    ../clib/armsys.c                         0x00000000   Number         0  _get_argv_nomalloc.o ABSOLUTE
    ../clib/armsys.c                         0x00000000   Number         0  no_argv.o ABSOLUTE
    ../clib/armsys.c                         0x00000000   Number         0  argv_veneer.o ABSOLUTE
    ../clib/bigflt.c                         0x00000000   Number         0  bigflt0.o ABSOLUTE
    ../clib/btod.s                           0x00000000   Number         0  btod.o ABSOLUTE
    ../clib/heapalloc.c                      0x00000000   Number         0  hrguard.o ABSOLUTE
    ../clib/heapaux.c                        0x00000000   Number         0  heapauxi.o ABSOLUTE
    ../clib/libinit.s                        0x00000000   Number         0  libinit2.o ABSOLUTE
    ../clib/libinit.s                        0x00000000   Number         0  libshutdown.o ABSOLUTE
    ../clib/libinit.s                        0x00000000   Number         0  libinit.o ABSOLUTE
    ../clib/libinit.s                        0x00000000   Number         0  libshutdown2.o ABSOLUTE
    ../clib/locale.s                         0x00000000   Number         0  lc_numeric_c.o ABSOLUTE
    ../clib/locale.s                         0x00000000   Number         0  lc_ctype_c.o ABSOLUTE
    ../clib/longlong.s                       0x00000000   Number         0  lludiv10.o ABSOLUTE
    ../clib/memcpset.s                       0x00000000   Number         0  strncpy.o ABSOLUTE
    ../clib/memcpset.s                       0x00000000   Number         0  rt_memclr.o ABSOLUTE
    ../clib/memcpset.s                       0x00000000   Number         0  rt_memclr_w.o ABSOLUTE
    ../clib/memcpset.s                       0x00000000   Number         0  strcmpv7m.o ABSOLUTE
    ../clib/misc.s                           0x00000000   Number         0  printf_stubs.o ABSOLUTE
    ../clib/printf.c                         0x00000000   Number         0  _printf_str.o ABSOLUTE
    ../clib/printf.c                         0x00000000   Number         0  __printf_flags_wp.o ABSOLUTE
    ../clib/printf.c                         0x00000000   Number         0  __printf_ss.o ABSOLUTE
    ../clib/printf.c                         0x00000000   Number         0  __printf_ss_wp.o ABSOLUTE
    ../clib/printf.c                         0x00000000   Number         0  __2sprintf.o ABSOLUTE
    ../clib/printf.c                         0x00000000   Number         0  __printf_flags_ss_wp.o ABSOLUTE
    ../clib/printf.c                         0x00000000   Number         0  noretval__2sprintf.o ABSOLUTE
    ../clib/printf.c                         0x00000000   Number         0  __printf.o ABSOLUTE
    ../clib/printf.c                         0x00000000   Number         0  _printf_pad.o ABSOLUTE
    ../clib/printf.c                         0x00000000   Number         0  __printf_flags.o ABSOLUTE
    ../clib/printf.c                         0x00000000   Number         0  __printf_wp.o ABSOLUTE
    ../clib/printf.c                         0x00000000   Number         0  _printf_dec.o ABSOLUTE
    ../clib/printf.c                         0x00000000   Number         0  __printf_flags_ss.o ABSOLUTE
    ../clib/printf.c                         0x00000000   Number         0  _printf_fp_dec.o ABSOLUTE
    ../clib/printf.c                         0x00000000   Number         0  __printf_nopercent.o ABSOLUTE
    ../clib/printf.c                         0x00000000   Number         0  _printf_char_common.o ABSOLUTE
    ../clib/printf.c                         0x00000000   Number         0  _printf_fp_infnan.o ABSOLUTE
    ../clib/printf.c                         0x00000000   Number         0  _printf_intcommon.o ABSOLUTE
    ../clib/printf.c                         0x00000000   Number         0  _sputc.o ABSOLUTE
    ../clib/printf.c                         0x00000000   Number         0  _printf_char.o ABSOLUTE
    ../clib/printf_percent.s                 0x00000000   Number         0  _printf_percent.o ABSOLUTE
    ../clib/printf_percent.s                 0x00000000   Number         0  _printf_d.o ABSOLUTE
    ../clib/printf_percent.s                 0x00000000   Number         0  _printf_f.o ABSOLUTE
    ../clib/printf_percent.s                 0x00000000   Number         0  _printf_percent_end.o ABSOLUTE
    ../clib/printf_percent.s                 0x00000000   Number         0  _printf_s.o ABSOLUTE
    ../clib/scanf.c                          0x00000000   Number         0  _chval.o ABSOLUTE
    ../clib/scanf.c                          0x00000000   Number         0  strtol.o ABSOLUTE
    ../clib/scanf.c                          0x00000000   Number         0  _strtoul.o ABSOLUTE
    ../clib/scanf.c                          0x00000000   Number         0  atoi.o ABSOLUTE
    ../clib/signal.c                         0x00000000   Number         0  defsig_pvfn_inner.o ABSOLUTE
    ../clib/signal.c                         0x00000000   Number         0  defsig_cppl_inner.o ABSOLUTE
    ../clib/signal.c                         0x00000000   Number         0  defsig_segv_inner.o ABSOLUTE
    ../clib/signal.c                         0x00000000   Number         0  defsig_other.o ABSOLUTE
    ../clib/signal.c                         0x00000000   Number         0  defsig_rtmem_formal.o ABSOLUTE
    ../clib/signal.c                         0x00000000   Number         0  defsig_general.o ABSOLUTE
    ../clib/signal.c                         0x00000000   Number         0  __raise.o ABSOLUTE
    ../clib/signal.c                         0x00000000   Number         0  defsig_rtmem_outer.o ABSOLUTE
    ../clib/signal.c                         0x00000000   Number         0  defsig_abrt_inner.o ABSOLUTE
    ../clib/signal.c                         0x00000000   Number         0  defsig_fpe_inner.o ABSOLUTE
    ../clib/signal.c                         0x00000000   Number         0  defsig_rtmem_inner.o ABSOLUTE
    ../clib/signal.c                         0x00000000   Number         0  defsig_exit.o ABSOLUTE
    ../clib/signal.c                         0x00000000   Number         0  defsig_rtred_inner.o ABSOLUTE
    ../clib/signal.c                         0x00000000   Number         0  defsig_stak_inner.o ABSOLUTE
    ../clib/signal.s                         0x00000000   Number         0  defsig.o ABSOLUTE
    ../clib/stdlib.c                         0x00000000   Number         0  exit.o ABSOLUTE
    ../fplib/daddsub.s                       0x00000000   Number         0  daddsub_clz.o ABSOLUTE
    ../fplib/dcmpi.s                         0x00000000   Number         0  dcmpi.o ABSOLUTE
    ../fplib/dfix.s                          0x00000000   Number         0  dfix.o ABSOLUTE
    ../fplib/dfixu.s                         0x00000000   Number         0  dfixu.o ABSOLUTE
    ../fplib/dflt.s                          0x00000000   Number         0  dflt_clz.o ABSOLUTE
    ../fplib/dleqf.s                         0x00000000   Number         0  dleqf.o ABSOLUTE
    ../fplib/dmul.s                          0x00000000   Number         0  dmul.o ABSOLUTE
    ../fplib/dnaninf.s                       0x00000000   Number         0  dnaninf.o ABSOLUTE
    ../fplib/dretinf.s                       0x00000000   Number         0  dretinf.o ABSOLUTE
    ../fplib/drleqf.s                        0x00000000   Number         0  drleqf.o ABSOLUTE
    ../fplib/fpinit.s                        0x00000000   Number         0  fpinit.o ABSOLUTE
    ../fplib/istatus.s                       0x00000000   Number         0  istatus.o ABSOLUTE
    ../fplib/printf1.s                       0x00000000   Number         0  printf1.o ABSOLUTE
    ../fplib/usenofp.s                       0x00000000   Number         0  usenofp.o ABSOLUTE
    ../mathlib/fpclassify.c                  0x00000000   Number         0  fpclassify.o ABSOLUTE
    ..\Libraries\CMSIS\CM3\CoreSupport\core_cm3.c 0x00000000   Number         0  core_cm3.o ABSOLUTE
    ..\Libraries\CMSIS\CM3\DeviceSupport\ST\STM32F10x\startup\arm\startup_stm32f10x_md.s 0x00000000   Number         0  startup_stm32f10x_md.o ABSOLUTE
    ..\Libraries\CMSIS\CM3\DeviceSupport\ST\STM32F10x\system_stm32f10x.c 0x00000000   Number         0  system_stm32f10x.o ABSOLUTE
    ..\Libraries\STM32F10x_StdPeriph_Driver\src\misc.c 0x00000000   Number         0  misc.o ABSOLUTE
    ..\Libraries\STM32F10x_StdPeriph_Driver\src\stm32f10x_gpio.c 0x00000000   Number         0  stm32f10x_gpio.o ABSOLUTE
    ..\Libraries\STM32F10x_StdPeriph_Driver\src\stm32f10x_i2c.c 0x00000000   Number         0  stm32f10x_i2c.o ABSOLUTE
    ..\Libraries\STM32F10x_StdPeriph_Driver\src\stm32f10x_rcc.c 0x00000000   Number         0  stm32f10x_rcc.o ABSOLUTE
    ..\Libraries\STM32F10x_StdPeriph_Driver\src\stm32f10x_tim.c 0x00000000   Number         0  stm32f10x_tim.o ABSOLUTE
    ..\Libraries\STM32F10x_StdPeriph_Driver\src\stm32f10x_usart.c 0x00000000   Number         0  stm32f10x_usart.o ABSOLUTE
    ..\Sre\iic.c                             0x00000000   Number         0  iic.o ABSOLUTE
    ..\Sre\key.c                             0x00000000   Number         0  key.o ABSOLUTE
    ..\Sre\lcd.c                             0x00000000   Number         0  lcd.o ABSOLUTE
    ..\Sre\led.c                             0x00000000   Number         0  led.o ABSOLUTE
    ..\Sre\main.c                            0x00000000   Number         0  main.o ABSOLUTE
    ..\Sre\pwm.c                             0x00000000   Number         0  pwm.o ABSOLUTE
    ..\Sre\stm32f10x_it.c                    0x00000000   Number         0  stm32f10x_it.o ABSOLUTE
    ..\Sre\usart.c                           0x00000000   Number         0  usart.o ABSOLUTE
    ..\\Libraries\\CMSIS\\CM3\\CoreSupport\\core_cm3.c 0x00000000   Number         0  core_cm3.o ABSOLUTE
    ..\\Libraries\\CMSIS\\CM3\\DeviceSupport\\ST\\STM32F10x\\system_stm32f10x.c 0x00000000   Number         0  system_stm32f10x.o ABSOLUTE
    ..\\Libraries\\STM32F10x_StdPeriph_Driver\\src\\misc.c 0x00000000   Number         0  misc.o ABSOLUTE
    ..\\Libraries\\STM32F10x_StdPeriph_Driver\\src\\stm32f10x_gpio.c 0x00000000   Number         0  stm32f10x_gpio.o ABSOLUTE
    ..\\Libraries\\STM32F10x_StdPeriph_Driver\\src\\stm32f10x_i2c.c 0x00000000   Number         0  stm32f10x_i2c.o ABSOLUTE
    ..\\Libraries\\STM32F10x_StdPeriph_Driver\\src\\stm32f10x_rcc.c 0x00000000   Number         0  stm32f10x_rcc.o ABSOLUTE
    ..\\Libraries\\STM32F10x_StdPeriph_Driver\\src\\stm32f10x_tim.c 0x00000000   Number         0  stm32f10x_tim.o ABSOLUTE
    ..\\Libraries\\STM32F10x_StdPeriph_Driver\\src\\stm32f10x_usart.c 0x00000000   Number         0  stm32f10x_usart.o ABSOLUTE
    ..\\Sre\\iic.c                           0x00000000   Number         0  iic.o ABSOLUTE
    ..\\Sre\\key.c                           0x00000000   Number         0  key.o ABSOLUTE
    ..\\Sre\\lcd.c                           0x00000000   Number         0  lcd.o ABSOLUTE
    ..\\Sre\\led.c                           0x00000000   Number         0  led.o ABSOLUTE
    ..\\Sre\\main.c                          0x00000000   Number         0  main.o ABSOLUTE
    ..\\Sre\\pwm.c                           0x00000000   Number         0  pwm.o ABSOLUTE
    ..\\Sre\\stm32f10x_it.c                  0x00000000   Number         0  stm32f10x_it.o ABSOLUTE
    ..\\Sre\\usart.c                         0x00000000   Number         0  usart.o ABSOLUTE
    dc.s                                     0x00000000   Number         0  dc.o ABSOLUTE
    RESET                                    0x08000000   Section      236  startup_stm32f10x_md.o(RESET)
    !!!main                                  0x080000ec   Section        8  __main.o(!!!main)
    !!!scatter                               0x080000f4   Section       52  __scatter.o(!!!scatter)
    !!handler_copy                           0x08000128   Section       26  __scatter_copy.o(!!handler_copy)
    !!handler_zi                             0x08000144   Section       28  __scatter_zi.o(!!handler_zi)
    .ARM.Collect$$_printf_percent$$00000000  0x08000160   Section        0  _printf_percent.o(.ARM.Collect$$_printf_percent$$00000000)
    .ARM.Collect$$_printf_percent$$00000003  0x08000160   Section        6  _printf_f.o(.ARM.Collect$$_printf_percent$$00000003)
    .ARM.Collect$$_printf_percent$$00000009  0x08000166   Section        6  _printf_d.o(.ARM.Collect$$_printf_percent$$00000009)
    .ARM.Collect$$_printf_percent$$00000014  0x0800016c   Section        6  _printf_s.o(.ARM.Collect$$_printf_percent$$00000014)
    .ARM.Collect$$_printf_percent$$00000017  0x08000172   Section        4  _printf_percent_end.o(.ARM.Collect$$_printf_percent$$00000017)
    .ARM.Collect$$libinit$$00000000          0x08000176   Section        2  libinit.o(.ARM.Collect$$libinit$$00000000)
    .ARM.Collect$$libinit$$00000002          0x08000178   Section        0  libinit2.o(.ARM.Collect$$libinit$$00000002)
    .ARM.Collect$$libinit$$00000004          0x08000178   Section        0  libinit2.o(.ARM.Collect$$libinit$$00000004)
    .ARM.Collect$$libinit$$0000000A          0x08000178   Section        0  libinit2.o(.ARM.Collect$$libinit$$0000000A)
    .ARM.Collect$$libinit$$0000000C          0x08000178   Section        0  libinit2.o(.ARM.Collect$$libinit$$0000000C)
    .ARM.Collect$$libinit$$0000000E          0x08000178   Section        0  libinit2.o(.ARM.Collect$$libinit$$0000000E)
    .ARM.Collect$$libinit$$0000000F          0x08000178   Section        6  libinit2.o(.ARM.Collect$$libinit$$0000000F)
    .ARM.Collect$$libinit$$00000011          0x0800017e   Section        0  libinit2.o(.ARM.Collect$$libinit$$00000011)
    .ARM.Collect$$libinit$$00000012          0x0800017e   Section       12  libinit2.o(.ARM.Collect$$libinit$$00000012)
    .ARM.Collect$$libinit$$00000013          0x0800018a   Section        0  libinit2.o(.ARM.Collect$$libinit$$00000013)
    .ARM.Collect$$libinit$$00000015          0x0800018a   Section        0  libinit2.o(.ARM.Collect$$libinit$$00000015)
    .ARM.Collect$$libinit$$00000016          0x0800018a   Section       10  libinit2.o(.ARM.Collect$$libinit$$00000016)
    .ARM.Collect$$libinit$$00000017          0x08000194   Section        0  libinit2.o(.ARM.Collect$$libinit$$00000017)
    .ARM.Collect$$libinit$$00000019          0x08000194   Section        0  libinit2.o(.ARM.Collect$$libinit$$00000019)
    .ARM.Collect$$libinit$$0000001B          0x08000194   Section        0  libinit2.o(.ARM.Collect$$libinit$$0000001B)
    .ARM.Collect$$libinit$$0000001D          0x08000194   Section        0  libinit2.o(.ARM.Collect$$libinit$$0000001D)
    .ARM.Collect$$libinit$$0000001F          0x08000194   Section        0  libinit2.o(.ARM.Collect$$libinit$$0000001F)
    .ARM.Collect$$libinit$$00000021          0x08000194   Section        0  libinit2.o(.ARM.Collect$$libinit$$00000021)
    .ARM.Collect$$libinit$$00000023          0x08000194   Section        0  libinit2.o(.ARM.Collect$$libinit$$00000023)
    .ARM.Collect$$libinit$$00000025          0x08000194   Section        0  libinit2.o(.ARM.Collect$$libinit$$00000025)
    .ARM.Collect$$libinit$$0000002C          0x08000194   Section        0  libinit2.o(.ARM.Collect$$libinit$$0000002C)
    .ARM.Collect$$libinit$$0000002E          0x08000194   Section        0  libinit2.o(.ARM.Collect$$libinit$$0000002E)
    .ARM.Collect$$libinit$$00000030          0x08000194   Section        0  libinit2.o(.ARM.Collect$$libinit$$00000030)
    .ARM.Collect$$libinit$$00000032          0x08000194   Section        0  libinit2.o(.ARM.Collect$$libinit$$00000032)
    .ARM.Collect$$libinit$$00000033          0x08000194   Section        2  libinit2.o(.ARM.Collect$$libinit$$00000033)
    .ARM.Collect$$libshutdown$$00000000      0x08000196   Section        2  libshutdown.o(.ARM.Collect$$libshutdown$$00000000)
    .ARM.Collect$$libshutdown$$00000002      0x08000198   Section        0  libshutdown2.o(.ARM.Collect$$libshutdown$$00000002)
    .ARM.Collect$$libshutdown$$00000004      0x08000198   Section        0  libshutdown2.o(.ARM.Collect$$libshutdown$$00000004)
    .ARM.Collect$$libshutdown$$00000007      0x08000198   Section        0  libshutdown2.o(.ARM.Collect$$libshutdown$$00000007)
    .ARM.Collect$$libshutdown$$0000000A      0x08000198   Section        0  libshutdown2.o(.ARM.Collect$$libshutdown$$0000000A)
    .ARM.Collect$$libshutdown$$0000000C      0x08000198   Section        0  libshutdown2.o(.ARM.Collect$$libshutdown$$0000000C)
    .ARM.Collect$$libshutdown$$0000000F      0x08000198   Section        0  libshutdown2.o(.ARM.Collect$$libshutdown$$0000000F)
    .ARM.Collect$$libshutdown$$00000010      0x08000198   Section        2  libshutdown2.o(.ARM.Collect$$libshutdown$$00000010)
    .ARM.Collect$$rtentry$$00000000          0x0800019a   Section        0  __rtentry.o(.ARM.Collect$$rtentry$$00000000)
    .ARM.Collect$$rtentry$$00000002          0x0800019a   Section        0  __rtentry2.o(.ARM.Collect$$rtentry$$00000002)
    .ARM.Collect$$rtentry$$00000004          0x0800019a   Section        6  __rtentry4.o(.ARM.Collect$$rtentry$$00000004)
    .ARM.Collect$$rtentry$$00000009          0x080001a0   Section        0  __rtentry2.o(.ARM.Collect$$rtentry$$00000009)
    .ARM.Collect$$rtentry$$0000000A          0x080001a0   Section        4  __rtentry2.o(.ARM.Collect$$rtentry$$0000000A)
    .ARM.Collect$$rtentry$$0000000C          0x080001a4   Section        0  __rtentry2.o(.ARM.Collect$$rtentry$$0000000C)
    .ARM.Collect$$rtentry$$0000000D          0x080001a4   Section        8  __rtentry2.o(.ARM.Collect$$rtentry$$0000000D)
    .ARM.Collect$$rtexit$$00000000           0x080001ac   Section        2  rtexit.o(.ARM.Collect$$rtexit$$00000000)
    .ARM.Collect$$rtexit$$00000002           0x080001ae   Section        0  rtexit2.o(.ARM.Collect$$rtexit$$00000002)
    .ARM.Collect$$rtexit$$00000003           0x080001ae   Section        4  rtexit2.o(.ARM.Collect$$rtexit$$00000003)
    .ARM.Collect$$rtexit$$00000004           0x080001b2   Section        6  rtexit2.o(.ARM.Collect$$rtexit$$00000004)
    .text                                    0x080001b8   Section       64  startup_stm32f10x_md.o(.text)
    .text                                    0x080001f8   Section        0  system_stm32f10x.o(.text)
    SetSysClockTo72                          0x080001f9   Thumb Code   214  system_stm32f10x.o(.text)
    SetSysClock                              0x080002cf   Thumb Code     8  system_stm32f10x.o(.text)
    .text                                    0x080003d8   Section        0  stm32f10x_gpio.o(.text)
    .text                                    0x08000734   Section        0  stm32f10x_rcc.o(.text)
    .text                                    0x08000ad8   Section        0  stm32f10x_tim.o(.text)
    TI4_Config                               0x08000f7f   Thumb Code   130  stm32f10x_tim.o(.text)
    TI3_Config                               0x08001013   Thumb Code   122  stm32f10x_tim.o(.text)
    TI2_Config                               0x080010a7   Thumb Code   130  stm32f10x_tim.o(.text)
    TI1_Config                               0x0800113b   Thumb Code   108  stm32f10x_tim.o(.text)
    .text                                    0x080018f4   Section        0  stm32f10x_usart.o(.text)
    .text                                    0x08001cfc   Section        0  misc.o(.text)
    .text                                    0x08001dd8   Section        0  lcd.o(.text)
    .text                                    0x080027e4   Section        0  main.o(.text)
    .text                                    0x08002f38   Section        0  stm32f10x_it.o(.text)
    .text                                    0x08002f88   Section        0  key.o(.text)
    .text                                    0x08003020   Section        0  led.o(.text)
    .text                                    0x080030a4   Section        0  pwm.o(.text)
    .text                                    0x0800315c   Section        0  usart.o(.text)
    .text                                    0x08003274   Section        0  iic.o(.text)
    .text                                    0x0800350c   Section        0  noretval__2sprintf.o(.text)
    .text                                    0x08003534   Section        0  _printf_pad.o(.text)
    .text                                    0x08003582   Section        0  _printf_str.o(.text)
    .text                                    0x080035d4   Section        0  _printf_dec.o(.text)
    .text                                    0x0800364c   Section        0  __printf_ss_wp.o(.text)
    .text                                    0x080037ac   Section        0  atoi.o(.text)
    .text                                    0x080037c6   Section       86  strncpy.o(.text)
    .text                                    0x0800381c   Section        0  heapauxi.o(.text)
    .text                                    0x08003824   Section        8  rt_errno_addr_intlibspace.o(.text)
    .text                                    0x0800382c   Section        0  _printf_intcommon.o(.text)
    .text                                    0x080038de   Section        0  _printf_fp_dec.o(.text)
    _fp_digits                               0x080038e1   Thumb Code   428  _printf_fp_dec.o(.text)
    .text                                    0x08003cf8   Section        0  _printf_char_common.o(.text)
    _printf_input_char                       0x08003cf9   Thumb Code    10  _printf_char_common.o(.text)
    .text                                    0x08003d28   Section        0  _sputc.o(.text)
    .text                                    0x08003d32   Section        0  _printf_char.o(.text)
    .text                                    0x08003d5e   Section        0  strtol.o(.text)
    .text                                    0x08003dce   Section       68  rt_memclr.o(.text)
    .text                                    0x08003e14   Section        8  libspace.o(.text)
    .text                                    0x08003e1c   Section       16  rt_ctype_table.o(.text)
    .text                                    0x08003e2c   Section        8  rt_locale_intlibspace.o(.text)
    .text                                    0x08003e34   Section      138  lludiv10.o(.text)
    .text                                    0x08003ec0   Section        0  _printf_fp_infnan.o(.text)
    .text                                    0x08003f40   Section        0  _strtoul.o(.text)
    .text                                    0x08003fe0   Section        0  bigflt0.o(.text)
    .text                                    0x080040bc   Section       78  rt_memclr_w.o(.text)
    .text                                    0x0800410a   Section       74  sys_stackheap_outer.o(.text)
    .text                                    0x08004154   Section        0  _chval.o(.text)
    .text                                    0x08004170   Section        0  exit.o(.text)
    .text                                    0x08004184   Section      128  strcmpv7m.o(.text)
    .text                                    0x08004204   Section        0  sys_exit.o(.text)
    .text                                    0x08004210   Section        2  use_no_semi.o(.text)
    .text                                    0x08004212   Section        0  indicate_semi.o(.text)
    CL$$btod_d2e                             0x08004212   Section       62  btod.o(CL$$btod_d2e)
    CL$$btod_d2e_denorm_low                  0x08004250   Section       70  btod.o(CL$$btod_d2e_denorm_low)
    CL$$btod_d2e_norm_op1                    0x08004296   Section       96  btod.o(CL$$btod_d2e_norm_op1)
    CL$$btod_div_common                      0x080042f6   Section      824  btod.o(CL$$btod_div_common)
    CL$$btod_e2e                             0x0800462e   Section      198  btod.o(CL$$btod_e2e)
    CL$$btod_ediv                            0x080046f4   Section       40  btod.o(CL$$btod_ediv)
    CL$$btod_emul                            0x0800471c   Section       40  btod.o(CL$$btod_emul)
    CL$$btod_mult_common                     0x08004744   Section      580  btod.o(CL$$btod_mult_common)
    i.__ARM_fpclassify                       0x08004988   Section        0  fpclassify.o(i.__ARM_fpclassify)
    i._is_digit                              0x080049b0   Section        0  __printf_wp.o(i._is_digit)
    locale$$code                             0x080049c0   Section       44  lc_numeric_c.o(locale$$code)
    locale$$code                             0x080049ec   Section       44  lc_ctype_c.o(locale$$code)
    x$fpl$dadd                               0x08004a18   Section      336  daddsub_clz.o(x$fpl$dadd)
    _dadd1                                   0x08004a29   Thumb Code     0  daddsub_clz.o(x$fpl$dadd)
    x$fpl$dcmpinf                            0x08004b68   Section       24  dcmpi.o(x$fpl$dcmpinf)
    x$fpl$dfix                               0x08004b80   Section       94  dfix.o(x$fpl$dfix)
    x$fpl$dfixu                              0x08004be0   Section       90  dfixu.o(x$fpl$dfixu)
    x$fpl$dfltu                              0x08004c3a   Section       38  dflt_clz.o(x$fpl$dfltu)
    x$fpl$dleqf                              0x08004c60   Section      120  dleqf.o(x$fpl$dleqf)
    x$fpl$dmul                               0x08004cd8   Section      340  dmul.o(x$fpl$dmul)
    x$fpl$dnaninf                            0x08004e2c   Section      156  dnaninf.o(x$fpl$dnaninf)
    x$fpl$dretinf                            0x08004ec8   Section       12  dretinf.o(x$fpl$dretinf)
    x$fpl$drleqf                             0x08004ed4   Section      108  drleqf.o(x$fpl$drleqf)
    x$fpl$dsub                               0x08004f40   Section      468  daddsub_clz.o(x$fpl$dsub)
    _dsub1                                   0x08004f51   Thumb Code     0  daddsub_clz.o(x$fpl$dsub)
    x$fpl$printf1                            0x08005114   Section        4  printf1.o(x$fpl$printf1)
    .constdata                               0x08005118   Section     4560  lcd.o(.constdata)
    x$fpl$usenofp                            0x08005118   Section        0  usenofp.o(x$fpl$usenofp)
    .constdata                               0x080062e8   Section      148  bigflt0.o(.constdata)
    tenpwrs_x                                0x080062e8   Data          60  bigflt0.o(.constdata)
    tenpwrs_i                                0x08006324   Data          64  bigflt0.o(.constdata)
    locale$$data                             0x0800639c   Section       28  lc_numeric_c.o(locale$$data)
    __lcnum_c_name                           0x080063a0   Data           2  lc_numeric_c.o(locale$$data)
    __lcnum_c_start                          0x080063a8   Data           0  lc_numeric_c.o(locale$$data)
    __lcnum_c_point                          0x080063b4   Data           0  lc_numeric_c.o(locale$$data)
    __lcnum_c_thousands                      0x080063b6   Data           0  lc_numeric_c.o(locale$$data)
    __lcnum_c_grouping                       0x080063b7   Data           0  lc_numeric_c.o(locale$$data)
    locale$$data                             0x080063b8   Section      272  lc_ctype_c.o(locale$$data)
    __lcnum_c_end                            0x080063b8   Data           0  lc_numeric_c.o(locale$$data)
    __lcctype_c_name                         0x080063bc   Data           2  lc_ctype_c.o(locale$$data)
    __lcctype_c_start                        0x080063c4   Data           0  lc_ctype_c.o(locale$$data)
    __lcctype_c_end                          0x080064c8   Data           0  lc_ctype_c.o(locale$$data)
    .data                                    0x20000000   Section       20  system_stm32f10x.o(.data)
    .data                                    0x20000014   Section       20  stm32f10x_rcc.o(.data)
    APBAHBPrescTable                         0x20000014   Data          16  stm32f10x_rcc.o(.data)
    ADCPrescTable                            0x20000024   Data           4  stm32f10x_rcc.o(.data)
    .data                                    0x20000028   Section        6  lcd.o(.data)
    TextColor                                0x20000028   Data           2  lcd.o(.data)
    BackColor                                0x2000002a   Data           2  lcd.o(.data)
    .data                                    0x20000030   Section       89  main.o(.data)
    .data                                    0x2000008c   Section        8  stm32f10x_it.o(.data)
    .data                                    0x20000094   Section        2  usart.o(.data)
    .bss                                     0x20000098   Section      100  main.o(.bss)
    .bss                                     0x200000fc   Section       10  usart.o(.bss)
    .bss                                     0x20000108   Section       96  libspace.o(.bss)
    HEAP                                     0x20000168   Section      512  startup_stm32f10x_md.o(HEAP)
    Heap_Mem                                 0x20000168   Data         512  startup_stm32f10x_md.o(HEAP)
    STACK                                    0x20000368   Section     1024  startup_stm32f10x_md.o(STACK)
    Stack_Mem                                0x20000368   Data        1024  startup_stm32f10x_md.o(STACK)
    __initial_sp                             0x20000768   Data           0  startup_stm32f10x_md.o(STACK)

    Global Symbols

    Symbol Name                              Value     Ov Type        Size  Object(Section)

    BuildAttributes$$THM_ISAv4$P$D$K$B$S$PE$A:L22UL41UL21$X:L11$S22US41US21$IEEE1$IW$USESV6$~STKCKD$USESV7$~SHL$OTIME$ROPI$IEEEJ$EBA8$UX$STANDARDLIB$REQ8$PRES8$EABIv2 0x00000000   Number         0  anon$$obj.o ABSOLUTE
    __ARM_use_no_argv                        0x00000000   Number         0  main.o ABSOLUTE
    _printf_flags                            0x00000000   Number         0  printf_stubs.o ABSOLUTE
    _printf_return_value                     0x00000000   Number         0  printf_stubs.o ABSOLUTE
    _printf_sizespec                         0x00000000   Number         0  printf_stubs.o ABSOLUTE
    _printf_widthprec                        0x00000000   Number         0  printf_stubs.o ABSOLUTE
    __ARM_exceptions_init                     - Undefined Weak Reference
    __alloca_initialize                       - Undefined Weak Reference
    __arm_preinit_                            - Undefined Weak Reference
    __cpp_initialize__aeabi_                  - Undefined Weak Reference
    __cxa_finalize                            - Undefined Weak Reference
    __sigvec_lookup                           - Undefined Weak Reference
    _atexit_init                              - Undefined Weak Reference
    _call_atexit_fns                          - Undefined Weak Reference
    _clock_init                               - Undefined Weak Reference
    _fp_trap_init                             - Undefined Weak Reference
    _fp_trap_shutdown                         - Undefined Weak Reference
    _get_lc_collate                           - Undefined Weak Reference
    _get_lc_monetary                          - Undefined Weak Reference
    _get_lc_time                              - Undefined Weak Reference
    _getenv_init                              - Undefined Weak Reference
    _handle_redirection                       - Undefined Weak Reference
    _init_alloc                               - Undefined Weak Reference
    _init_user_alloc                          - Undefined Weak Reference
    _initio                                   - Undefined Weak Reference
    _printf_mbtowc                            - Undefined Weak Reference
    _printf_truncate_signed                   - Undefined Weak Reference
    _printf_truncate_unsigned                 - Undefined Weak Reference
    _rand_init                                - Undefined Weak Reference
    _signal_finish                            - Undefined Weak Reference
    _signal_init                              - Undefined Weak Reference
    _terminate_alloc                          - Undefined Weak Reference
    _terminate_user_alloc                     - Undefined Weak Reference
    _terminateio                              - Undefined Weak Reference
    __Vectors_Size                           0x000000ec   Number         0  startup_stm32f10x_md.o ABSOLUTE
    __Vectors                                0x08000000   Data           4  startup_stm32f10x_md.o(RESET)
    __Vectors_End                            0x080000ec   Data           0  startup_stm32f10x_md.o(RESET)
    __main                                   0x080000ed   Thumb Code     8  __main.o(!!!main)
    __scatterload                            0x080000f5   Thumb Code     0  __scatter.o(!!!scatter)
    __scatterload_rt2                        0x080000f5   Thumb Code    44  __scatter.o(!!!scatter)
    __scatterload_rt2_thumb_only             0x080000f5   Thumb Code     0  __scatter.o(!!!scatter)
    __scatterload_null                       0x08000103   Thumb Code     0  __scatter.o(!!!scatter)
    __scatterload_copy                       0x08000129   Thumb Code    26  __scatter_copy.o(!!handler_copy)
    __scatterload_zeroinit                   0x08000145   Thumb Code    28  __scatter_zi.o(!!handler_zi)
    _printf_f                                0x08000161   Thumb Code     0  _printf_f.o(.ARM.Collect$$_printf_percent$$00000003)
    _printf_percent                          0x08000161   Thumb Code     0  _printf_percent.o(.ARM.Collect$$_printf_percent$$00000000)
    _printf_d                                0x08000167   Thumb Code     0  _printf_d.o(.ARM.Collect$$_printf_percent$$00000009)
    _printf_s                                0x0800016d   Thumb Code     0  _printf_s.o(.ARM.Collect$$_printf_percent$$00000014)
    _printf_percent_end                      0x08000173   Thumb Code     0  _printf_percent_end.o(.ARM.Collect$$_printf_percent$$00000017)
    __rt_lib_init                            0x08000177   Thumb Code     0  libinit.o(.ARM.Collect$$libinit$$00000000)
    __rt_lib_init_fp_1                       0x08000179   Thumb Code     0  libinit2.o(.ARM.Collect$$libinit$$00000002)
    __rt_lib_init_heap_1                     0x08000179   Thumb Code     0  libinit2.o(.ARM.Collect$$libinit$$0000000A)
    __rt_lib_init_lc_common                  0x08000179   Thumb Code     0  libinit2.o(.ARM.Collect$$libinit$$0000000F)
    __rt_lib_init_preinit_1                  0x08000179   Thumb Code     0  libinit2.o(.ARM.Collect$$libinit$$00000004)
    __rt_lib_init_rand_1                     0x08000179   Thumb Code     0  libinit2.o(.ARM.Collect$$libinit$$0000000E)
    __rt_lib_init_user_alloc_1               0x08000179   Thumb Code     0  libinit2.o(.ARM.Collect$$libinit$$0000000C)
    __rt_lib_init_lc_collate_1               0x0800017f   Thumb Code     0  libinit2.o(.ARM.Collect$$libinit$$00000011)
    __rt_lib_init_lc_ctype_2                 0x0800017f   Thumb Code     0  libinit2.o(.ARM.Collect$$libinit$$00000012)
    __rt_lib_init_lc_ctype_1                 0x0800018b   Thumb Code     0  libinit2.o(.ARM.Collect$$libinit$$00000013)
    __rt_lib_init_lc_monetary_1              0x0800018b   Thumb Code     0  libinit2.o(.ARM.Collect$$libinit$$00000015)
    __rt_lib_init_lc_numeric_2               0x0800018b   Thumb Code     0  libinit2.o(.ARM.Collect$$libinit$$00000016)
    __rt_lib_init_alloca_1                   0x08000195   Thumb Code     0  libinit2.o(.ARM.Collect$$libinit$$0000002E)
    __rt_lib_init_argv_1                     0x08000195   Thumb Code     0  libinit2.o(.ARM.Collect$$libinit$$0000002C)
    __rt_lib_init_atexit_1                   0x08000195   Thumb Code     0  libinit2.o(.ARM.Collect$$libinit$$0000001B)
    __rt_lib_init_clock_1                    0x08000195   Thumb Code     0  libinit2.o(.ARM.Collect$$libinit$$00000021)
    __rt_lib_init_cpp_1                      0x08000195   Thumb Code     0  libinit2.o(.ARM.Collect$$libinit$$00000032)
    __rt_lib_init_exceptions_1               0x08000195   Thumb Code     0  libinit2.o(.ARM.Collect$$libinit$$00000030)
    __rt_lib_init_fp_trap_1                  0x08000195   Thumb Code     0  libinit2.o(.ARM.Collect$$libinit$$0000001F)
    __rt_lib_init_getenv_1                   0x08000195   Thumb Code     0  libinit2.o(.ARM.Collect$$libinit$$00000023)
    __rt_lib_init_lc_numeric_1               0x08000195   Thumb Code     0  libinit2.o(.ARM.Collect$$libinit$$00000017)
    __rt_lib_init_lc_time_1                  0x08000195   Thumb Code     0  libinit2.o(.ARM.Collect$$libinit$$00000019)
    __rt_lib_init_return                     0x08000195   Thumb Code     0  libinit2.o(.ARM.Collect$$libinit$$00000033)
    __rt_lib_init_signal_1                   0x08000195   Thumb Code     0  libinit2.o(.ARM.Collect$$libinit$$0000001D)
    __rt_lib_init_stdio_1                    0x08000195   Thumb Code     0  libinit2.o(.ARM.Collect$$libinit$$00000025)
    __rt_lib_shutdown                        0x08000197   Thumb Code     0  libshutdown.o(.ARM.Collect$$libshutdown$$00000000)
    __rt_lib_shutdown_cpp_1                  0x08000199   Thumb Code     0  libshutdown2.o(.ARM.Collect$$libshutdown$$00000002)
    __rt_lib_shutdown_fp_trap_1              0x08000199   Thumb Code     0  libshutdown2.o(.ARM.Collect$$libshutdown$$00000007)
    __rt_lib_shutdown_heap_1                 0x08000199   Thumb Code     0  libshutdown2.o(.ARM.Collect$$libshutdown$$0000000F)
    __rt_lib_shutdown_return                 0x08000199   Thumb Code     0  libshutdown2.o(.ARM.Collect$$libshutdown$$00000010)
    __rt_lib_shutdown_signal_1               0x08000199   Thumb Code     0  libshutdown2.o(.ARM.Collect$$libshutdown$$0000000A)
    __rt_lib_shutdown_stdio_1                0x08000199   Thumb Code     0  libshutdown2.o(.ARM.Collect$$libshutdown$$00000004)
    __rt_lib_shutdown_user_alloc_1           0x08000199   Thumb Code     0  libshutdown2.o(.ARM.Collect$$libshutdown$$0000000C)
    __rt_entry                               0x0800019b   Thumb Code     0  __rtentry.o(.ARM.Collect$$rtentry$$00000000)
    __rt_entry_presh_1                       0x0800019b   Thumb Code     0  __rtentry2.o(.ARM.Collect$$rtentry$$00000002)
    __rt_entry_sh                            0x0800019b   Thumb Code     0  __rtentry4.o(.ARM.Collect$$rtentry$$00000004)
    __rt_entry_li                            0x080001a1   Thumb Code     0  __rtentry2.o(.ARM.Collect$$rtentry$$0000000A)
    __rt_entry_postsh_1                      0x080001a1   Thumb Code     0  __rtentry2.o(.ARM.Collect$$rtentry$$00000009)
    __rt_entry_main                          0x080001a5   Thumb Code     0  __rtentry2.o(.ARM.Collect$$rtentry$$0000000D)
    __rt_entry_postli_1                      0x080001a5   Thumb Code     0  __rtentry2.o(.ARM.Collect$$rtentry$$0000000C)
    __rt_exit                                0x080001ad   Thumb Code     0  rtexit.o(.ARM.Collect$$rtexit$$00000000)
    __rt_exit_ls                             0x080001af   Thumb Code     0  rtexit2.o(.ARM.Collect$$rtexit$$00000003)
    __rt_exit_prels_1                        0x080001af   Thumb Code     0  rtexit2.o(.ARM.Collect$$rtexit$$00000002)
    __rt_exit_exit                           0x080001b3   Thumb Code     0  rtexit2.o(.ARM.Collect$$rtexit$$00000004)
    Reset_Handler                            0x080001b9   Thumb Code     8  startup_stm32f10x_md.o(.text)
    ADC1_2_IRQHandler                        0x080001d3   Thumb Code     0  startup_stm32f10x_md.o(.text)
    CAN1_RX1_IRQHandler                      0x080001d3   Thumb Code     0  startup_stm32f10x_md.o(.text)
    CAN1_SCE_IRQHandler                      0x080001d3   Thumb Code     0  startup_stm32f10x_md.o(.text)
    DMA1_Channel1_IRQHandler                 0x080001d3   Thumb Code     0  startup_stm32f10x_md.o(.text)
    DMA1_Channel2_IRQHandler                 0x080001d3   Thumb Code     0  startup_stm32f10x_md.o(.text)
    DMA1_Channel3_IRQHandler                 0x080001d3   Thumb Code     0  startup_stm32f10x_md.o(.text)
    DMA1_Channel4_IRQHandler                 0x080001d3   Thumb Code     0  startup_stm32f10x_md.o(.text)
    DMA1_Channel5_IRQHandler                 0x080001d3   Thumb Code     0  startup_stm32f10x_md.o(.text)
    DMA1_Channel6_IRQHandler                 0x080001d3   Thumb Code     0  startup_stm32f10x_md.o(.text)
    DMA1_Channel7_IRQHandler                 0x080001d3   Thumb Code     0  startup_stm32f10x_md.o(.text)
    EXTI0_IRQHandler                         0x080001d3   Thumb Code     0  startup_stm32f10x_md.o(.text)
    EXTI15_10_IRQHandler                     0x080001d3   Thumb Code     0  startup_stm32f10x_md.o(.text)
    EXTI1_IRQHandler                         0x080001d3   Thumb Code     0  startup_stm32f10x_md.o(.text)
    EXTI2_IRQHandler                         0x080001d3   Thumb Code     0  startup_stm32f10x_md.o(.text)
    EXTI3_IRQHandler                         0x080001d3   Thumb Code     0  startup_stm32f10x_md.o(.text)
    EXTI4_IRQHandler                         0x080001d3   Thumb Code     0  startup_stm32f10x_md.o(.text)
    EXTI9_5_IRQHandler                       0x080001d3   Thumb Code     0  startup_stm32f10x_md.o(.text)
    FLASH_IRQHandler                         0x080001d3   Thumb Code     0  startup_stm32f10x_md.o(.text)
    I2C1_ER_IRQHandler                       0x080001d3   Thumb Code     0  startup_stm32f10x_md.o(.text)
    I2C1_EV_IRQHandler                       0x080001d3   Thumb Code     0  startup_stm32f10x_md.o(.text)
    I2C2_ER_IRQHandler                       0x080001d3   Thumb Code     0  startup_stm32f10x_md.o(.text)
    I2C2_EV_IRQHandler                       0x080001d3   Thumb Code     0  startup_stm32f10x_md.o(.text)
    PVD_IRQHandler                           0x080001d3   Thumb Code     0  startup_stm32f10x_md.o(.text)
    RCC_IRQHandler                           0x080001d3   Thumb Code     0  startup_stm32f10x_md.o(.text)
    RTCAlarm_IRQHandler                      0x080001d3   Thumb Code     0  startup_stm32f10x_md.o(.text)
    RTC_IRQHandler                           0x080001d3   Thumb Code     0  startup_stm32f10x_md.o(.text)
    SPI1_IRQHandler                          0x080001d3   Thumb Code     0  startup_stm32f10x_md.o(.text)
    SPI2_IRQHandler                          0x080001d3   Thumb Code     0  startup_stm32f10x_md.o(.text)
    TAMPER_IRQHandler                        0x080001d3   Thumb Code     0  startup_stm32f10x_md.o(.text)
    TIM1_BRK_IRQHandler                      0x080001d3   Thumb Code     0  startup_stm32f10x_md.o(.text)
    TIM1_CC_IRQHandler                       0x080001d3   Thumb Code     0  startup_stm32f10x_md.o(.text)
    TIM1_TRG_COM_IRQHandler                  0x080001d3   Thumb Code     0  startup_stm32f10x_md.o(.text)
    TIM1_UP_IRQHandler                       0x080001d3   Thumb Code     0  startup_stm32f10x_md.o(.text)
    TIM2_IRQHandler                          0x080001d3   Thumb Code     0  startup_stm32f10x_md.o(.text)
    TIM3_IRQHandler                          0x080001d3   Thumb Code     0  startup_stm32f10x_md.o(.text)
    TIM4_IRQHandler                          0x080001d3   Thumb Code     0  startup_stm32f10x_md.o(.text)
    USART1_IRQHandler                        0x080001d3   Thumb Code     0  startup_stm32f10x_md.o(.text)
    USART3_IRQHandler                        0x080001d3   Thumb Code     0  startup_stm32f10x_md.o(.text)
    USBWakeUp_IRQHandler                     0x080001d3   Thumb Code     0  startup_stm32f10x_md.o(.text)
    USB_HP_CAN1_TX_IRQHandler                0x080001d3   Thumb Code     0  startup_stm32f10x_md.o(.text)
    USB_LP_CAN1_RX0_IRQHandler               0x080001d3   Thumb Code     0  startup_stm32f10x_md.o(.text)
    WWDG_IRQHandler                          0x080001d3   Thumb Code     0  startup_stm32f10x_md.o(.text)
    __user_initial_stackheap                 0x080001d5   Thumb Code     0  startup_stm32f10x_md.o(.text)
    SystemInit                               0x080002d7   Thumb Code    78  system_stm32f10x.o(.text)
    SystemCoreClockUpdate                    0x08000325   Thumb Code   142  system_stm32f10x.o(.text)
    GPIO_DeInit                              0x080003d9   Thumb Code   172  stm32f10x_gpio.o(.text)
    GPIO_AFIODeInit                          0x08000485   Thumb Code    20  stm32f10x_gpio.o(.text)
    GPIO_Init                                0x08000499   Thumb Code   278  stm32f10x_gpio.o(.text)
    GPIO_StructInit                          0x080005af   Thumb Code    16  stm32f10x_gpio.o(.text)
    GPIO_ReadInputDataBit                    0x080005bf   Thumb Code    18  stm32f10x_gpio.o(.text)
    GPIO_ReadInputData                       0x080005d1   Thumb Code     8  stm32f10x_gpio.o(.text)
    GPIO_ReadOutputDataBit                   0x080005d9   Thumb Code    18  stm32f10x_gpio.o(.text)
    GPIO_ReadOutputData                      0x080005eb   Thumb Code     8  stm32f10x_gpio.o(.text)
    GPIO_SetBits                             0x080005f3   Thumb Code     4  stm32f10x_gpio.o(.text)
    GPIO_ResetBits                           0x080005f7   Thumb Code     4  stm32f10x_gpio.o(.text)
    GPIO_WriteBit                            0x080005fb   Thumb Code    10  stm32f10x_gpio.o(.text)
    GPIO_Write                               0x08000605   Thumb Code     4  stm32f10x_gpio.o(.text)
    GPIO_PinLockConfig                       0x08000609   Thumb Code    18  stm32f10x_gpio.o(.text)
    GPIO_EventOutputConfig                   0x0800061b   Thumb Code    26  stm32f10x_gpio.o(.text)
    GPIO_EventOutputCmd                      0x08000635   Thumb Code     6  stm32f10x_gpio.o(.text)
    GPIO_PinRemapConfig                      0x0800063b   Thumb Code   138  stm32f10x_gpio.o(.text)
    GPIO_EXTILineConfig                      0x080006c5   Thumb Code    66  stm32f10x_gpio.o(.text)
    GPIO_ETH_MediaInterfaceConfig            0x08000707   Thumb Code     8  stm32f10x_gpio.o(.text)
    RCC_DeInit                               0x08000735   Thumb Code    64  stm32f10x_rcc.o(.text)
    RCC_HSEConfig                            0x08000775   Thumb Code    70  stm32f10x_rcc.o(.text)
    RCC_GetFlagStatus                        0x080007bb   Thumb Code    56  stm32f10x_rcc.o(.text)
    RCC_WaitForHSEStartUp                    0x080007f3   Thumb Code    56  stm32f10x_rcc.o(.text)
    RCC_AdjustHSICalibrationValue            0x0800082b   Thumb Code    20  stm32f10x_rcc.o(.text)
    RCC_HSICmd                               0x0800083f   Thumb Code     6  stm32f10x_rcc.o(.text)
    RCC_PLLConfig                            0x08000845   Thumb Code    24  stm32f10x_rcc.o(.text)
    RCC_PLLCmd                               0x0800085d   Thumb Code     6  stm32f10x_rcc.o(.text)
    RCC_SYSCLKConfig                         0x08000863   Thumb Code    18  stm32f10x_rcc.o(.text)
    RCC_GetSYSCLKSource                      0x08000875   Thumb Code    10  stm32f10x_rcc.o(.text)
    RCC_HCLKConfig                           0x0800087f   Thumb Code    18  stm32f10x_rcc.o(.text)
    RCC_PCLK1Config                          0x08000891   Thumb Code    18  stm32f10x_rcc.o(.text)
    RCC_PCLK2Config                          0x080008a3   Thumb Code    20  stm32f10x_rcc.o(.text)
    RCC_ITConfig                             0x080008b7   Thumb Code    26  stm32f10x_rcc.o(.text)
    RCC_USBCLKConfig                         0x080008d1   Thumb Code     8  stm32f10x_rcc.o(.text)
    RCC_ADCCLKConfig                         0x080008d9   Thumb Code    18  stm32f10x_rcc.o(.text)
    RCC_LSEConfig                            0x080008eb   Thumb Code    50  stm32f10x_rcc.o(.text)
    RCC_LSICmd                               0x0800091d   Thumb Code     6  stm32f10x_rcc.o(.text)
    RCC_RTCCLKConfig                         0x08000923   Thumb Code    12  stm32f10x_rcc.o(.text)
    RCC_RTCCLKCmd                            0x0800092f   Thumb Code     8  stm32f10x_rcc.o(.text)
    RCC_GetClocksFreq                        0x08000937   Thumb Code   192  stm32f10x_rcc.o(.text)
    RCC_AHBPeriphClockCmd                    0x080009f7   Thumb Code    26  stm32f10x_rcc.o(.text)
    RCC_APB2PeriphClockCmd                   0x08000a11   Thumb Code    26  stm32f10x_rcc.o(.text)
    RCC_APB1PeriphClockCmd                   0x08000a2b   Thumb Code    26  stm32f10x_rcc.o(.text)
    RCC_APB2PeriphResetCmd                   0x08000a45   Thumb Code    26  stm32f10x_rcc.o(.text)
    RCC_APB1PeriphResetCmd                   0x08000a5f   Thumb Code    26  stm32f10x_rcc.o(.text)
    RCC_BackupResetCmd                       0x08000a79   Thumb Code     8  stm32f10x_rcc.o(.text)
    RCC_ClockSecuritySystemCmd               0x08000a81   Thumb Code     6  stm32f10x_rcc.o(.text)
    RCC_MCOConfig                            0x08000a87   Thumb Code     6  stm32f10x_rcc.o(.text)
    RCC_ClearFlag                            0x08000a8d   Thumb Code    14  stm32f10x_rcc.o(.text)
    RCC_GetITStatus                          0x08000a9b   Thumb Code    20  stm32f10x_rcc.o(.text)
    RCC_ClearITPendingBit                    0x08000aaf   Thumb Code     6  stm32f10x_rcc.o(.text)
    TIM_DeInit                               0x08000ad9   Thumb Code   424  stm32f10x_tim.o(.text)
    TIM_TimeBaseInit                         0x08000c81   Thumb Code   122  stm32f10x_tim.o(.text)
    TIM_OC1Init                              0x08000cfb   Thumb Code   132  stm32f10x_tim.o(.text)
    TIM_OC2Init                              0x08000d7f   Thumb Code   154  stm32f10x_tim.o(.text)
    TIM_OC3Init                              0x08000e19   Thumb Code   150  stm32f10x_tim.o(.text)
    TIM_OC4Init                              0x08000eaf   Thumb Code   182  stm32f10x_tim.o(.text)
    TIM_SetIC4Prescaler                      0x08000f65   Thumb Code    26  stm32f10x_tim.o(.text)
    TIM_SetIC3Prescaler                      0x08001001   Thumb Code    18  stm32f10x_tim.o(.text)
    TIM_SetIC2Prescaler                      0x0800108d   Thumb Code    26  stm32f10x_tim.o(.text)
    TIM_SetIC1Prescaler                      0x08001129   Thumb Code    18  stm32f10x_tim.o(.text)
    TIM_ICInit                               0x080011a7   Thumb Code   150  stm32f10x_tim.o(.text)
    TIM_PWMIConfig                           0x0800123d   Thumb Code   124  stm32f10x_tim.o(.text)
    TIM_BDTRConfig                           0x080012b9   Thumb Code    32  stm32f10x_tim.o(.text)
    TIM_TimeBaseStructInit                   0x080012d9   Thumb Code    18  stm32f10x_tim.o(.text)
    TIM_OCStructInit                         0x080012eb   Thumb Code    20  stm32f10x_tim.o(.text)
    TIM_ICStructInit                         0x080012ff   Thumb Code    18  stm32f10x_tim.o(.text)
    TIM_BDTRStructInit                       0x08001311   Thumb Code    40  stm32f10x_tim.o(.text)
    TIM_Cmd                                  0x08001339   Thumb Code    24  stm32f10x_tim.o(.text)
    TIM_CtrlPWMOutputs                       0x08001351   Thumb Code    30  stm32f10x_tim.o(.text)
    TIM_ITConfig                             0x0800136f   Thumb Code    18  stm32f10x_tim.o(.text)
    TIM_GenerateEvent                        0x08001381   Thumb Code     4  stm32f10x_tim.o(.text)
    TIM_DMAConfig                            0x08001385   Thumb Code    10  stm32f10x_tim.o(.text)
    TIM_DMACmd                               0x0800138f   Thumb Code    18  stm32f10x_tim.o(.text)
    TIM_InternalClockConfig                  0x080013a1   Thumb Code    12  stm32f10x_tim.o(.text)
    TIM_SelectInputTrigger                   0x080013ad   Thumb Code    18  stm32f10x_tim.o(.text)
    TIM_ITRxExternalClockConfig              0x080013bf   Thumb Code    24  stm32f10x_tim.o(.text)
    TIM_TIxExternalClockConfig               0x080013d7   Thumb Code    62  stm32f10x_tim.o(.text)
    TIM_ETRConfig                            0x08001415   Thumb Code    28  stm32f10x_tim.o(.text)
    TIM_ETRClockMode1Config                  0x08001431   Thumb Code    54  stm32f10x_tim.o(.text)
    TIM_ETRClockMode2Config                  0x08001467   Thumb Code    32  stm32f10x_tim.o(.text)
    TIM_PrescalerConfig                      0x08001487   Thumb Code     6  stm32f10x_tim.o(.text)
    TIM_CounterModeConfig                    0x0800148d   Thumb Code    18  stm32f10x_tim.o(.text)
    TIM_EncoderInterfaceConfig               0x0800149f   Thumb Code    66  stm32f10x_tim.o(.text)
    TIM_ForcedOC1Config                      0x080014e1   Thumb Code    18  stm32f10x_tim.o(.text)
    TIM_ForcedOC2Config                      0x080014f3   Thumb Code    26  stm32f10x_tim.o(.text)
    TIM_ForcedOC3Config                      0x0800150d   Thumb Code    18  stm32f10x_tim.o(.text)
    TIM_ForcedOC4Config                      0x0800151f   Thumb Code    26  stm32f10x_tim.o(.text)
    TIM_ARRPreloadConfig                     0x08001539   Thumb Code    24  stm32f10x_tim.o(.text)
    TIM_SelectCOM                            0x08001551   Thumb Code    24  stm32f10x_tim.o(.text)
    TIM_SelectCCDMA                          0x08001569   Thumb Code    24  stm32f10x_tim.o(.text)
    TIM_CCPreloadControl                     0x08001581   Thumb Code    24  stm32f10x_tim.o(.text)
    TIM_OC1PreloadConfig                     0x08001599   Thumb Code    18  stm32f10x_tim.o(.text)
    TIM_OC2PreloadConfig                     0x080015ab   Thumb Code    26  stm32f10x_tim.o(.text)
    TIM_OC3PreloadConfig                     0x080015c5   Thumb Code    18  stm32f10x_tim.o(.text)
    TIM_OC4PreloadConfig                     0x080015d7   Thumb Code    26  stm32f10x_tim.o(.text)
    TIM_OC1FastConfig                        0x080015f1   Thumb Code    18  stm32f10x_tim.o(.text)
    TIM_OC2FastConfig                        0x08001603   Thumb Code    26  stm32f10x_tim.o(.text)
    TIM_OC3FastConfig                        0x0800161d   Thumb Code    18  stm32f10x_tim.o(.text)
    TIM_OC4FastConfig                        0x0800162f   Thumb Code    26  stm32f10x_tim.o(.text)
    TIM_ClearOC1Ref                          0x08001649   Thumb Code    18  stm32f10x_tim.o(.text)
    TIM_ClearOC2Ref                          0x0800165b   Thumb Code    24  stm32f10x_tim.o(.text)
    TIM_ClearOC3Ref                          0x08001673   Thumb Code    18  stm32f10x_tim.o(.text)
    TIM_ClearOC4Ref                          0x08001685   Thumb Code    24  stm32f10x_tim.o(.text)
    TIM_OC1PolarityConfig                    0x0800169d   Thumb Code    18  stm32f10x_tim.o(.text)
    TIM_OC1NPolarityConfig                   0x080016af   Thumb Code    18  stm32f10x_tim.o(.text)
    TIM_OC2PolarityConfig                    0x080016c1   Thumb Code    26  stm32f10x_tim.o(.text)
    TIM_OC2NPolarityConfig                   0x080016db   Thumb Code    26  stm32f10x_tim.o(.text)
    TIM_OC3PolarityConfig                    0x080016f5   Thumb Code    26  stm32f10x_tim.o(.text)
    TIM_OC3NPolarityConfig                   0x0800170f   Thumb Code    26  stm32f10x_tim.o(.text)
    TIM_OC4PolarityConfig                    0x08001729   Thumb Code    26  stm32f10x_tim.o(.text)
    TIM_CCxCmd                               0x08001743   Thumb Code    30  stm32f10x_tim.o(.text)
    TIM_CCxNCmd                              0x08001761   Thumb Code    30  stm32f10x_tim.o(.text)
    TIM_SelectOCxM                           0x0800177f   Thumb Code    82  stm32f10x_tim.o(.text)
    TIM_UpdateDisableConfig                  0x080017d1   Thumb Code    24  stm32f10x_tim.o(.text)
    TIM_UpdateRequestConfig                  0x080017e9   Thumb Code    24  stm32f10x_tim.o(.text)
    TIM_SelectHallSensor                     0x08001801   Thumb Code    24  stm32f10x_tim.o(.text)
    TIM_SelectOnePulseMode                   0x08001819   Thumb Code    18  stm32f10x_tim.o(.text)
    TIM_SelectOutputTrigger                  0x0800182b   Thumb Code    18  stm32f10x_tim.o(.text)
    TIM_SelectSlaveMode                      0x0800183d   Thumb Code    18  stm32f10x_tim.o(.text)
    TIM_SelectMasterSlaveMode                0x0800184f   Thumb Code    18  stm32f10x_tim.o(.text)
    TIM_SetCounter                           0x08001861   Thumb Code     4  stm32f10x_tim.o(.text)
    TIM_SetAutoreload                        0x08001865   Thumb Code     4  stm32f10x_tim.o(.text)
    TIM_SetCompare1                          0x08001869   Thumb Code     4  stm32f10x_tim.o(.text)
    TIM_SetCompare2                          0x0800186d   Thumb Code     4  stm32f10x_tim.o(.text)
    TIM_SetCompare3                          0x08001871   Thumb Code     4  stm32f10x_tim.o(.text)
    TIM_SetCompare4                          0x08001875   Thumb Code     6  stm32f10x_tim.o(.text)
    TIM_SetClockDivision                     0x0800187b   Thumb Code    18  stm32f10x_tim.o(.text)
    TIM_GetCapture1                          0x0800188d   Thumb Code     6  stm32f10x_tim.o(.text)
    TIM_GetCapture2                          0x08001893   Thumb Code     6  stm32f10x_tim.o(.text)
    TIM_GetCapture3                          0x08001899   Thumb Code     6  stm32f10x_tim.o(.text)
    TIM_GetCapture4                          0x0800189f   Thumb Code     8  stm32f10x_tim.o(.text)
    TIM_GetCounter                           0x080018a7   Thumb Code     6  stm32f10x_tim.o(.text)
    TIM_GetPrescaler                         0x080018ad   Thumb Code     6  stm32f10x_tim.o(.text)
    TIM_GetFlagStatus                        0x080018b3   Thumb Code    18  stm32f10x_tim.o(.text)
    TIM_ClearFlag                            0x080018c5   Thumb Code     6  stm32f10x_tim.o(.text)
    TIM_GetITStatus                          0x080018cb   Thumb Code    34  stm32f10x_tim.o(.text)
    TIM_ClearITPendingBit                    0x080018ed   Thumb Code     6  stm32f10x_tim.o(.text)
    USART_DeInit                             0x080018f5   Thumb Code   134  stm32f10x_usart.o(.text)
    USART_Init                               0x0800197b   Thumb Code   210  stm32f10x_usart.o(.text)
    USART_StructInit                         0x08001a4d   Thumb Code    24  stm32f10x_usart.o(.text)
    USART_ClockInit                          0x08001a65   Thumb Code    34  stm32f10x_usart.o(.text)
    USART_ClockStructInit                    0x08001a87   Thumb Code    12  stm32f10x_usart.o(.text)
    USART_Cmd                                0x08001a93   Thumb Code    24  stm32f10x_usart.o(.text)
    USART_ITConfig                           0x08001aab   Thumb Code    74  stm32f10x_usart.o(.text)
    USART_DMACmd                             0x08001af5   Thumb Code    18  stm32f10x_usart.o(.text)
    USART_SetAddress                         0x08001b07   Thumb Code    18  stm32f10x_usart.o(.text)
    USART_WakeUpConfig                       0x08001b19   Thumb Code    18  stm32f10x_usart.o(.text)
    USART_ReceiverWakeUpCmd                  0x08001b2b   Thumb Code    24  stm32f10x_usart.o(.text)
    USART_LINBreakDetectLengthConfig         0x08001b43   Thumb Code    18  stm32f10x_usart.o(.text)
    USART_LINCmd                             0x08001b55   Thumb Code    24  stm32f10x_usart.o(.text)
    USART_SendData                           0x08001b6d   Thumb Code     8  stm32f10x_usart.o(.text)
    USART_ReceiveData                        0x08001b75   Thumb Code    10  stm32f10x_usart.o(.text)
    USART_SendBreak                          0x08001b7f   Thumb Code    10  stm32f10x_usart.o(.text)
    USART_SetGuardTime                       0x08001b89   Thumb Code    16  stm32f10x_usart.o(.text)
    USART_SetPrescaler                       0x08001b99   Thumb Code    16  stm32f10x_usart.o(.text)
    USART_SmartCardCmd                       0x08001ba9   Thumb Code    24  stm32f10x_usart.o(.text)
    USART_SmartCardNACKCmd                   0x08001bc1   Thumb Code    24  stm32f10x_usart.o(.text)
    USART_HalfDuplexCmd                      0x08001bd9   Thumb Code    24  stm32f10x_usart.o(.text)
    USART_OverSampling8Cmd                   0x08001bf1   Thumb Code    22  stm32f10x_usart.o(.text)
    USART_OneBitMethodCmd                    0x08001c07   Thumb Code    24  stm32f10x_usart.o(.text)
    USART_IrDAConfig                         0x08001c1f   Thumb Code    18  stm32f10x_usart.o(.text)
    USART_IrDACmd                            0x08001c31   Thumb Code    24  stm32f10x_usart.o(.text)
    USART_GetFlagStatus                      0x08001c49   Thumb Code    26  stm32f10x_usart.o(.text)
    USART_ClearFlag                          0x08001c63   Thumb Code    18  stm32f10x_usart.o(.text)
    USART_GetITStatus                        0x08001c75   Thumb Code    84  stm32f10x_usart.o(.text)
    USART_ClearITPendingBit                  0x08001cc9   Thumb Code    52  stm32f10x_usart.o(.text)
    NVIC_PriorityGroupConfig                 0x08001cfd   Thumb Code    10  misc.o(.text)
    NVIC_Init                                0x08001d07   Thumb Code   100  misc.o(.text)
    NVIC_SetVectorTable                      0x08001d6b   Thumb Code    14  misc.o(.text)
    NVIC_SystemLPConfig                      0x08001d79   Thumb Code    34  misc.o(.text)
    SysTick_CLKSourceConfig                  0x08001d9b   Thumb Code    40  misc.o(.text)
    Delay_LCD                                0x08001dd9   Thumb Code    30  lcd.o(.text)
    LCD_WriteReg                             0x08001df7   Thumb Code    68  lcd.o(.text)
    REG_8230_Init                            0x08001e3b   Thumb Code   288  lcd.o(.text)
    REG_932X_Init                            0x08001f5b   Thumb Code   514  lcd.o(.text)
    LCD_BusOut                               0x0800215d   Thumb Code    32  lcd.o(.text)
    LCD_BusIn                                0x0800217d   Thumb Code    32  lcd.o(.text)
    LCD_ReadReg                              0x0800219d   Thumb Code    92  lcd.o(.text)
    LCD_CtrlLinesConfig                      0x080021f9   Thumb Code    68  lcd.o(.text)
    STM3210B_LCD_Init                        0x0800223d   Thumb Code    50  lcd.o(.text)
    LCD_SetTextColor                         0x0800226f   Thumb Code    12  lcd.o(.text)
    LCD_SetBackColor                         0x0800227b   Thumb Code    12  lcd.o(.text)
    LCD_SetCursor                            0x08002287   Thumb Code    24  lcd.o(.text)
    LCD_WriteRAM                             0x0800229f   Thumb Code    54  lcd.o(.text)
    LCD_WriteRAM_Prepare                     0x080022d5   Thumb Code    58  lcd.o(.text)
    LCD_DrawChar                             0x0800230f   Thumb Code   100  lcd.o(.text)
    LCD_DisplayChar                          0x08002373   Thumb Code    34  lcd.o(.text)
    LCD_DisplayStringLine                    0x08002395   Thumb Code    44  lcd.o(.text)
    LCD_ClearLine                            0x080023c1   Thumb Code    14  lcd.o(.text)
    LCD_Clear                                0x080023cf   Thumb Code    38  lcd.o(.text)
    LCD_SetDisplayWindow                     0x080023f5   Thumb Code    88  lcd.o(.text)
    LCD_WindowModeDisable                    0x0800244d   Thumb Code    28  lcd.o(.text)
    LCD_DrawLine                             0x08002469   Thumb Code    86  lcd.o(.text)
    LCD_DrawRect                             0x080024bf   Thumb Code    66  lcd.o(.text)
    LCD_DrawCircle                           0x08002501   Thumb Code   300  lcd.o(.text)
    LCD_DrawMonoPict                         0x0800262d   Thumb Code    76  lcd.o(.text)
    LCD_WriteBMP                             0x08002679   Thumb Code    74  lcd.o(.text)
    LCD_ReadRAM                              0x080026c3   Thumb Code    82  lcd.o(.text)
    LCD_PowerOn                              0x08002715   Thumb Code   118  lcd.o(.text)
    LCD_DisplayOn                            0x0800278b   Thumb Code    14  lcd.o(.text)
    LCD_DisplayOff                           0x08002799   Thumb Code    12  lcd.o(.text)
    LCD_DrawPicture                          0x080027a5   Thumb Code    48  lcd.o(.text)
    Delay_Ms                                 0x080027e5   Thumb Code    16  main.o(.text)
    Write_Data                               0x080027f5   Thumb Code    46  main.o(.text)
    Save_Data                                0x08002823   Thumb Code    84  main.o(.text)
    Mode_Control                             0x08002877   Thumb Code   178  main.o(.text)
    Usart_Control                            0x08002929   Thumb Code   274  main.o(.text)
    PWM_Control                              0x08002a3b   Thumb Code   200  main.o(.text)
    Setting                                  0x08002b03   Thumb Code   162  main.o(.text)
    Time_Control                             0x08002ba5   Thumb Code   226  main.o(.text)
    LCD_Show                                 0x08002c87   Thumb Code   126  main.o(.text)
    Read_Data                                0x08002d05   Thumb Code    60  main.o(.text)
    Init_Data                                0x08002d41   Thumb Code    80  main.o(.text)
    main                                     0x08002d91   Thumb Code   248  main.o(.text)
    NMI_Handler                              0x08002f39   Thumb Code     2  stm32f10x_it.o(.text)
    HardFault_Handler                        0x08002f3b   Thumb Code     4  stm32f10x_it.o(.text)
    MemManage_Handler                        0x08002f3f   Thumb Code     4  stm32f10x_it.o(.text)
    BusFault_Handler                         0x08002f43   Thumb Code     4  stm32f10x_it.o(.text)
    UsageFault_Handler                       0x08002f47   Thumb Code     4  stm32f10x_it.o(.text)
    DebugMon_Handler                         0x08002f4b   Thumb Code     2  stm32f10x_it.o(.text)
    SVC_Handler                              0x08002f4d   Thumb Code     2  stm32f10x_it.o(.text)
    PendSV_Handler                           0x08002f4f   Thumb Code     2  stm32f10x_it.o(.text)
    SysTick_Handler                          0x08002f51   Thumb Code    44  stm32f10x_it.o(.text)
    Key_Init                                 0x08002f89   Thumb Code    62  key.o(.text)
    Key_Scan                                 0x08002fc7   Thumb Code    82  key.o(.text)
    LED_Init                                 0x08003021   Thumb Code    62  led.o(.text)
    LED_Control                              0x0800305f   Thumb Code    60  led.o(.text)
    PWM_IO_Config                            0x080030a5   Thumb Code    38  pwm.o(.text)
    TIM_Config                               0x080030cb   Thumb Code   142  pwm.o(.text)
    USART_Config                             0x0800315d   Thumb Code    90  usart.o(.text)
    USART_SendString                         0x080031b7   Thumb Code    44  usart.o(.text)
    NVIC_Configuration                       0x080031e3   Thumb Code    42  usart.o(.text)
    USART2_IRQHandler                        0x0800320d   Thumb Code    82  usart.o(.text)
    SDA_Input_Mode                           0x08003275   Thumb Code    30  iic.o(.text)
    SDA_Output_Mode                          0x08003293   Thumb Code    30  iic.o(.text)
    SDA_Output                               0x080032b1   Thumb Code    26  iic.o(.text)
    SCL_Output                               0x080032cb   Thumb Code    26  iic.o(.text)
    SDA_Input                                0x080032e5   Thumb Code    12  iic.o(.text)
    delay1                                   0x080032f1   Thumb Code    12  iic.o(.text)
    I2CStart                                 0x080032fd   Thumb Code    60  iic.o(.text)
    I2CStop                                  0x08003339   Thumb Code    60  iic.o(.text)
    I2CWaitAck                               0x08003375   Thumb Code    88  iic.o(.text)
    I2CSendAck                               0x080033cd   Thumb Code    54  iic.o(.text)
    I2CSendNotAck                            0x08003403   Thumb Code    46  iic.o(.text)
    I2CSendByte                              0x08003431   Thumb Code    88  iic.o(.text)
    I2CReceiveByte                           0x08003489   Thumb Code    88  iic.o(.text)
    i2c_init                                 0x080034e1   Thumb Code    38  iic.o(.text)
    __2sprintf                               0x0800350d   Thumb Code    34  noretval__2sprintf.o(.text)
    _printf_pre_padding                      0x08003535   Thumb Code    44  _printf_pad.o(.text)
    _printf_post_padding                     0x08003561   Thumb Code    34  _printf_pad.o(.text)
    _printf_str                              0x08003583   Thumb Code    82  _printf_str.o(.text)
    _printf_int_dec                          0x080035d5   Thumb Code   104  _printf_dec.o(.text)
    __printf                                 0x0800364d   Thumb Code   352  __printf_ss_wp.o(.text)
    atoi                                     0x080037ad   Thumb Code    26  atoi.o(.text)
    strncpy                                  0x080037c7   Thumb Code    86  strncpy.o(.text)
    __use_two_region_memory                  0x0800381d   Thumb Code     2  heapauxi.o(.text)
    __rt_heap_escrow$2region                 0x0800381f   Thumb Code     2  heapauxi.o(.text)
    __rt_heap_expand$2region                 0x08003821   Thumb Code     2  heapauxi.o(.text)
    __aeabi_errno_addr                       0x08003825   Thumb Code     8  rt_errno_addr_intlibspace.o(.text)
    __errno$intlibspace                      0x08003825   Thumb Code     0  rt_errno_addr_intlibspace.o(.text)
    __rt_errno_addr$intlibspace              0x08003825   Thumb Code     0  rt_errno_addr_intlibspace.o(.text)
    _printf_int_common                       0x0800382d   Thumb Code   178  _printf_intcommon.o(.text)
    __lib_sel_fp_printf                      0x080038df   Thumb Code     2  _printf_fp_dec.o(.text)
    _printf_fp_dec_real                      0x08003a8d   Thumb Code   620  _printf_fp_dec.o(.text)
    _printf_char_common                      0x08003d03   Thumb Code    32  _printf_char_common.o(.text)
    _sputc                                   0x08003d29   Thumb Code    10  _sputc.o(.text)
    _printf_cs_common                        0x08003d33   Thumb Code    20  _printf_char.o(.text)
    _printf_char                             0x08003d47   Thumb Code    16  _printf_char.o(.text)
    _printf_string                           0x08003d57   Thumb Code     8  _printf_char.o(.text)
    strtol                                   0x08003d5f   Thumb Code   112  strtol.o(.text)
    __aeabi_memclr                           0x08003dcf   Thumb Code     0  rt_memclr.o(.text)
    __rt_memclr                              0x08003dcf   Thumb Code    68  rt_memclr.o(.text)
    _memset                                  0x08003dd3   Thumb Code     0  rt_memclr.o(.text)
    __user_libspace                          0x08003e15   Thumb Code     8  libspace.o(.text)
    __user_perproc_libspace                  0x08003e15   Thumb Code     0  libspace.o(.text)
    __user_perthread_libspace                0x08003e15   Thumb Code     0  libspace.o(.text)
    __rt_ctype_table                         0x08003e1d   Thumb Code    16  rt_ctype_table.o(.text)
    __rt_locale                              0x08003e2d   Thumb Code     8  rt_locale_intlibspace.o(.text)
    _ll_udiv10                               0x08003e35   Thumb Code   138  lludiv10.o(.text)
    _printf_fp_infnan                        0x08003ec1   Thumb Code   112  _printf_fp_infnan.o(.text)
    _strtoul                                 0x08003f41   Thumb Code   158  _strtoul.o(.text)
    _btod_etento                             0x08003fe1   Thumb Code   216  bigflt0.o(.text)
    __aeabi_memclr4                          0x080040bd   Thumb Code     0  rt_memclr_w.o(.text)
    __aeabi_memclr8                          0x080040bd   Thumb Code     0  rt_memclr_w.o(.text)
    __rt_memclr_w                            0x080040bd   Thumb Code    78  rt_memclr_w.o(.text)
    _memset_w                                0x080040c1   Thumb Code     0  rt_memclr_w.o(.text)
    __user_setup_stackheap                   0x0800410b   Thumb Code    74  sys_stackheap_outer.o(.text)
    _chval                                   0x08004155   Thumb Code    28  _chval.o(.text)
    exit                                     0x08004171   Thumb Code    18  exit.o(.text)
    strcmp                                   0x08004185   Thumb Code   128  strcmpv7m.o(.text)
    _sys_exit                                0x08004205   Thumb Code     8  sys_exit.o(.text)
    __I$use$semihosting                      0x08004211   Thumb Code     0  use_no_semi.o(.text)
    __use_no_semihosting_swi                 0x08004211   Thumb Code     2  use_no_semi.o(.text)
    __semihosting_library_function           0x08004213   Thumb Code     0  indicate_semi.o(.text)
    _btod_d2e                                0x08004213   Thumb Code    62  btod.o(CL$$btod_d2e)
    _d2e_denorm_low                          0x08004251   Thumb Code    70  btod.o(CL$$btod_d2e_denorm_low)
    _d2e_norm_op1                            0x08004297   Thumb Code    96  btod.o(CL$$btod_d2e_norm_op1)
    __btod_div_common                        0x080042f7   Thumb Code   696  btod.o(CL$$btod_div_common)
    _e2e                                     0x0800462f   Thumb Code   198  btod.o(CL$$btod_e2e)
    _btod_ediv                               0x080046f5   Thumb Code    40  btod.o(CL$$btod_ediv)
    _btod_emul                               0x0800471d   Thumb Code    40  btod.o(CL$$btod_emul)
    __btod_mult_common                       0x08004745   Thumb Code   580  btod.o(CL$$btod_mult_common)
    __ARM_fpclassify                         0x08004989   Thumb Code    40  fpclassify.o(i.__ARM_fpclassify)
    _is_digit                                0x080049b1   Thumb Code    14  __printf_wp.o(i._is_digit)
    _get_lc_numeric                          0x080049c1   Thumb Code    44  lc_numeric_c.o(locale$$code)
    _get_lc_ctype                            0x080049ed   Thumb Code    44  lc_ctype_c.o(locale$$code)
    __aeabi_dadd                             0x08004a19   Thumb Code     0  daddsub_clz.o(x$fpl$dadd)
    _dadd                                    0x08004a19   Thumb Code   332  daddsub_clz.o(x$fpl$dadd)
    __fpl_dcmp_Inf                           0x08004b69   Thumb Code    24  dcmpi.o(x$fpl$dcmpinf)
    __aeabi_d2iz                             0x08004b81   Thumb Code     0  dfix.o(x$fpl$dfix)
    _dfix                                    0x08004b81   Thumb Code    94  dfix.o(x$fpl$dfix)
    __aeabi_d2uiz                            0x08004be1   Thumb Code     0  dfixu.o(x$fpl$dfixu)
    _dfixu                                   0x08004be1   Thumb Code    90  dfixu.o(x$fpl$dfixu)
    __aeabi_ui2d                             0x08004c3b   Thumb Code     0  dflt_clz.o(x$fpl$dfltu)
    _dfltu                                   0x08004c3b   Thumb Code    38  dflt_clz.o(x$fpl$dfltu)
    __aeabi_cdcmple                          0x08004c61   Thumb Code     0  dleqf.o(x$fpl$dleqf)
    _dcmple                                  0x08004c61   Thumb Code   120  dleqf.o(x$fpl$dleqf)
    __fpl_dcmple_InfNaN                      0x08004cc3   Thumb Code     0  dleqf.o(x$fpl$dleqf)
    __aeabi_dmul                             0x08004cd9   Thumb Code     0  dmul.o(x$fpl$dmul)
    _dmul                                    0x08004cd9   Thumb Code   332  dmul.o(x$fpl$dmul)
    __fpl_dnaninf                            0x08004e2d   Thumb Code   156  dnaninf.o(x$fpl$dnaninf)
    __fpl_dretinf                            0x08004ec9   Thumb Code    12  dretinf.o(x$fpl$dretinf)
    __aeabi_cdrcmple                         0x08004ed5   Thumb Code     0  drleqf.o(x$fpl$drleqf)
    _drcmple                                 0x08004ed5   Thumb Code   108  drleqf.o(x$fpl$drleqf)
    __aeabi_dsub                             0x08004f41   Thumb Code     0  daddsub_clz.o(x$fpl$dsub)
    _dsub                                    0x08004f41   Thumb Code   464  daddsub_clz.o(x$fpl$dsub)
    _printf_fp_dec                           0x08005115   Thumb Code     4  printf1.o(x$fpl$printf1)
    ASCII_Table                              0x08005118   Data        4560  lcd.o(.constdata)
    __I$use$fp                               0x08005118   Number         0  usenofp.o(x$fpl$usenofp)
    Region$$Table$$Base                      0x0800637c   Number         0  anon$$obj.o(Region$$Table)
    Region$$Table$$Limit                     0x0800639c   Number         0  anon$$obj.o(Region$$Table)
    __ctype                                  0x080063c5   Data           0  lc_ctype_c.o(locale$$data)
    SystemCoreClock                          0x20000000   Data           4  system_stm32f10x.o(.data)
    AHBPrescTable                            0x20000004   Data          16  system_stm32f10x.o(.data)
    dummy                                    0x2000002c   Data           2  lcd.o(.data)
    TimingDelay                              0x20000030   Data           4  main.o(.data)
    PA1_Duty_Cycle                           0x20000038   Data           8  main.o(.data)
    PA2_Duty_Cycle                           0x20000040   Data           8  main.o(.data)
    Channel                                  0x20000048   Data           4  main.o(.data)
    PA1_Compare                              0x2000004c   Data           4  main.o(.data)
    PA2_Compare                              0x20000050   Data           4  main.o(.data)
    PA1_Mode                                 0x20000054   Data           4  main.o(.data)
    PA2_Mode                                 0x20000058   Data           4  main.o(.data)
    Command_Flag                             0x2000005c   Data           4  main.o(.data)
    PWM_Usart_Flag                           0x20000060   Data           4  main.o(.data)
    Setting_Low_Flagl                        0x20000064   Data           4  main.o(.data)
    hour                                     0x20000068   Data           4  main.o(.data)
    minute                                   0x2000006c   Data           4  main.o(.data)
    second                                   0x20000070   Data           4  main.o(.data)
    Setting_Hour                             0x20000074   Data           4  main.o(.data)
    Setting_Minute                           0x20000078   Data           4  main.o(.data)
    Setting_Second                           0x2000007c   Data           4  main.o(.data)
    Setting_Channel                          0x20000080   Data           4  main.o(.data)
    Setting_Low                              0x20000084   Data           4  main.o(.data)
    key                                      0x20000088   Data           1  main.o(.data)
    Time_Flag                                0x2000008c   Data           4  stm32f10x_it.o(.data)
    Change                                   0x20000090   Data           4  stm32f10x_it.o(.data)
    RXOVER                                   0x20000094   Data           1  usart.o(.data)
    RXCUNT                                   0x20000095   Data           1  usart.o(.data)
    PA1_Show                                 0x20000098   Data          20  main.o(.bss)
    PA2_Show                                 0x200000ac   Data          20  main.o(.bss)
    Time_Show                                0x200000c0   Data          20  main.o(.bss)
    Channel_Show                             0x200000d4   Data          20  main.o(.bss)
    Command_Show                             0x200000e8   Data          20  main.o(.bss)
    USART_RXBUF                              0x200000fc   Data          10  usart.o(.bss)
    __libspace_start                         0x20000108   Data          96  libspace.o(.bss)
    __temporary_stack_top$libspace           0x20000168   Data           0  libspace.o(.bss)



==============================================================================

Memory Map of the image

  Image Entry point : 0x080000ed

  Load Region LR_IROM1 (Base: 0x08000000, Size: 0x00006560, Max: 0x00020000, ABSOLUTE)

    Execution Region ER_IROM1 (Base: 0x08000000, Size: 0x000064c8, Max: 0x00020000, ABSOLUTE)

    Base Addr    Size         Type   Attr      Idx    E Section Name        Object

    0x08000000   0x000000ec   Data   RO            3    RESET               startup_stm32f10x_md.o
    0x080000ec   0x00000008   Code   RO          517  * !!!main             c_w.l(__main.o)
    0x080000f4   0x00000034   Code   RO          785    !!!scatter          c_w.l(__scatter.o)
    0x08000128   0x0000001a   Code   RO          787    !!handler_copy      c_w.l(__scatter_copy.o)
    0x08000142   0x00000002   PAD
    0x08000144   0x0000001c   Code   RO          789    !!handler_zi        c_w.l(__scatter_zi.o)
    0x08000160   0x00000000   Code   RO          510    .ARM.Collect$$_printf_percent$$00000000  c_w.l(_printf_percent.o)
    0x08000160   0x00000006   Code   RO          509    .ARM.Collect$$_printf_percent$$00000003  c_w.l(_printf_f.o)
    0x08000166   0x00000006   Code   RO          508    .ARM.Collect$$_printf_percent$$00000009  c_w.l(_printf_d.o)
    0x0800016c   0x00000006   Code   RO          507    .ARM.Collect$$_printf_percent$$00000014  c_w.l(_printf_s.o)
    0x08000172   0x00000004   Code   RO          561    .ARM.Collect$$_printf_percent$$00000017  c_w.l(_printf_percent_end.o)
    0x08000176   0x00000002   Code   RO          658    .ARM.Collect$$libinit$$00000000  c_w.l(libinit.o)
    0x08000178   0x00000000   Code   RO          660    .ARM.Collect$$libinit$$00000002  c_w.l(libinit2.o)
    0x08000178   0x00000000   Code   RO          662    .ARM.Collect$$libinit$$00000004  c_w.l(libinit2.o)
    0x08000178   0x00000000   Code   RO          665    .ARM.Collect$$libinit$$0000000A  c_w.l(libinit2.o)
    0x08000178   0x00000000   Code   RO          667    .ARM.Collect$$libinit$$0000000C  c_w.l(libinit2.o)
    0x08000178   0x00000000   Code   RO          669    .ARM.Collect$$libinit$$0000000E  c_w.l(libinit2.o)
    0x08000178   0x00000006   Code   RO          670    .ARM.Collect$$libinit$$0000000F  c_w.l(libinit2.o)
    0x0800017e   0x00000000   Code   RO          672    .ARM.Collect$$libinit$$00000011  c_w.l(libinit2.o)
    0x0800017e   0x0000000c   Code   RO          673    .ARM.Collect$$libinit$$00000012  c_w.l(libinit2.o)
    0x0800018a   0x00000000   Code   RO          674    .ARM.Collect$$libinit$$00000013  c_w.l(libinit2.o)
    0x0800018a   0x00000000   Code   RO          676    .ARM.Collect$$libinit$$00000015  c_w.l(libinit2.o)
    0x0800018a   0x0000000a   Code   RO          677    .ARM.Collect$$libinit$$00000016  c_w.l(libinit2.o)
    0x08000194   0x00000000   Code   RO          678    .ARM.Collect$$libinit$$00000017  c_w.l(libinit2.o)
    0x08000194   0x00000000   Code   RO          680    .ARM.Collect$$libinit$$00000019  c_w.l(libinit2.o)
    0x08000194   0x00000000   Code   RO          682    .ARM.Collect$$libinit$$0000001B  c_w.l(libinit2.o)
    0x08000194   0x00000000   Code   RO          684    .ARM.Collect$$libinit$$0000001D  c_w.l(libinit2.o)
    0x08000194   0x00000000   Code   RO          686    .ARM.Collect$$libinit$$0000001F  c_w.l(libinit2.o)
    0x08000194   0x00000000   Code   RO          688    .ARM.Collect$$libinit$$00000021  c_w.l(libinit2.o)
    0x08000194   0x00000000   Code   RO          690    .ARM.Collect$$libinit$$00000023  c_w.l(libinit2.o)
    0x08000194   0x00000000   Code   RO          692    .ARM.Collect$$libinit$$00000025  c_w.l(libinit2.o)
    0x08000194   0x00000000   Code   RO          696    .ARM.Collect$$libinit$$0000002C  c_w.l(libinit2.o)
    0x08000194   0x00000000   Code   RO          698    .ARM.Collect$$libinit$$0000002E  c_w.l(libinit2.o)
    0x08000194   0x00000000   Code   RO          700    .ARM.Collect$$libinit$$00000030  c_w.l(libinit2.o)
    0x08000194   0x00000000   Code   RO          702    .ARM.Collect$$libinit$$00000032  c_w.l(libinit2.o)
    0x08000194   0x00000002   Code   RO          703    .ARM.Collect$$libinit$$00000033  c_w.l(libinit2.o)
    0x08000196   0x00000002   Code   RO          733    .ARM.Collect$$libshutdown$$00000000  c_w.l(libshutdown.o)
    0x08000198   0x00000000   Code   RO          744    .ARM.Collect$$libshutdown$$00000002  c_w.l(libshutdown2.o)
    0x08000198   0x00000000   Code   RO          746    .ARM.Collect$$libshutdown$$00000004  c_w.l(libshutdown2.o)
    0x08000198   0x00000000   Code   RO          749    .ARM.Collect$$libshutdown$$00000007  c_w.l(libshutdown2.o)
    0x08000198   0x00000000   Code   RO          752    .ARM.Collect$$libshutdown$$0000000A  c_w.l(libshutdown2.o)
    0x08000198   0x00000000   Code   RO          754    .ARM.Collect$$libshutdown$$0000000C  c_w.l(libshutdown2.o)
    0x08000198   0x00000000   Code   RO          757    .ARM.Collect$$libshutdown$$0000000F  c_w.l(libshutdown2.o)
    0x08000198   0x00000002   Code   RO          758    .ARM.Collect$$libshutdown$$00000010  c_w.l(libshutdown2.o)
    0x0800019a   0x00000000   Code   RO          545    .ARM.Collect$$rtentry$$00000000  c_w.l(__rtentry.o)
    0x0800019a   0x00000000   Code   RO          577    .ARM.Collect$$rtentry$$00000002  c_w.l(__rtentry2.o)
    0x0800019a   0x00000006   Code   RO          589    .ARM.Collect$$rtentry$$00000004  c_w.l(__rtentry4.o)
    0x080001a0   0x00000000   Code   RO          579    .ARM.Collect$$rtentry$$00000009  c_w.l(__rtentry2.o)
    0x080001a0   0x00000004   Code   RO          580    .ARM.Collect$$rtentry$$0000000A  c_w.l(__rtentry2.o)
    0x080001a4   0x00000000   Code   RO          582    .ARM.Collect$$rtentry$$0000000C  c_w.l(__rtentry2.o)
    0x080001a4   0x00000008   Code   RO          583    .ARM.Collect$$rtentry$$0000000D  c_w.l(__rtentry2.o)
    0x080001ac   0x00000002   Code   RO          704    .ARM.Collect$$rtexit$$00000000  c_w.l(rtexit.o)
    0x080001ae   0x00000000   Code   RO          711    .ARM.Collect$$rtexit$$00000002  c_w.l(rtexit2.o)
    0x080001ae   0x00000004   Code   RO          712    .ARM.Collect$$rtexit$$00000003  c_w.l(rtexit2.o)
    0x080001b2   0x00000006   Code   RO          713    .ARM.Collect$$rtexit$$00000004  c_w.l(rtexit2.o)
    0x080001b8   0x00000040   Code   RO            4    .text               startup_stm32f10x_md.o
    0x080001f8   0x000001e0   Code   RO           26    .text               system_stm32f10x.o
    0x080003d8   0x0000035c   Code   RO          137    .text               stm32f10x_gpio.o
    0x08000734   0x000003a4   Code   RO          161    .text               stm32f10x_rcc.o
    0x08000ad8   0x00000e1a   Code   RO          183    .text               stm32f10x_tim.o
    0x080018f2   0x00000002   PAD
    0x080018f4   0x00000408   Code   RO          203    .text               stm32f10x_usart.o
    0x08001cfc   0x000000dc   Code   RO          243    .text               misc.o
    0x08001dd8   0x00000a0c   Code   RO          263    .text               lcd.o
    0x080027e4   0x00000754   Code   RO          293    .text               main.o
    0x08002f38   0x00000050   Code   RO          344    .text               stm32f10x_it.o
    0x08002f88   0x00000098   Code   RO          371    .text               key.o
    0x08003020   0x00000084   Code   RO          391    .text               led.o
    0x080030a4   0x000000b8   Code   RO          411    .text               pwm.o
    0x0800315c   0x00000118   Code   RO          431    .text               usart.o
    0x08003274   0x00000298   Code   RO          455    .text               iic.o
    0x0800350c   0x00000028   Code   RO          477    .text               c_w.l(noretval__2sprintf.o)
    0x08003534   0x0000004e   Code   RO          481    .text               c_w.l(_printf_pad.o)
    0x08003582   0x00000052   Code   RO          483    .text               c_w.l(_printf_str.o)
    0x080035d4   0x00000078   Code   RO          485    .text               c_w.l(_printf_dec.o)
    0x0800364c   0x00000160   Code   RO          502    .text               c_w.l(__printf_ss_wp.o)
    0x080037ac   0x0000001a   Code   RO          511    .text               c_w.l(atoi.o)
    0x080037c6   0x00000056   Code   RO          513    .text               c_w.l(strncpy.o)
    0x0800381c   0x00000006   Code   RO          515    .text               c_w.l(heapauxi.o)
    0x08003822   0x00000002   PAD
    0x08003824   0x00000008   Code   RO          549    .text               c_w.l(rt_errno_addr_intlibspace.o)
    0x0800382c   0x000000b2   Code   RO          551    .text               c_w.l(_printf_intcommon.o)
    0x080038de   0x0000041a   Code   RO          553    .text               c_w.l(_printf_fp_dec.o)
    0x08003cf8   0x00000030   Code   RO          555    .text               c_w.l(_printf_char_common.o)
    0x08003d28   0x0000000a   Code   RO          557    .text               c_w.l(_sputc.o)
    0x08003d32   0x0000002c   Code   RO          559    .text               c_w.l(_printf_char.o)
    0x08003d5e   0x00000070   Code   RO          562    .text               c_w.l(strtol.o)
    0x08003dce   0x00000044   Code   RO          564    .text               c_w.l(rt_memclr.o)
    0x08003e12   0x00000002   PAD
    0x08003e14   0x00000008   Code   RO          573    .text               c_w.l(libspace.o)
    0x08003e1c   0x00000010   Code   RO          591    .text               c_w.l(rt_ctype_table.o)
    0x08003e2c   0x00000008   Code   RO          596    .text               c_w.l(rt_locale_intlibspace.o)
    0x08003e34   0x0000008a   Code   RO          598    .text               c_w.l(lludiv10.o)
    0x08003ebe   0x00000002   PAD
    0x08003ec0   0x00000080   Code   RO          600    .text               c_w.l(_printf_fp_infnan.o)
    0x08003f40   0x0000009e   Code   RO          604    .text               c_w.l(_strtoul.o)
    0x08003fde   0x00000002   PAD
    0x08003fe0   0x000000dc   Code   RO          606    .text               c_w.l(bigflt0.o)
    0x080040bc   0x0000004e   Code   RO          634    .text               c_w.l(rt_memclr_w.o)
    0x0800410a   0x0000004a   Code   RO          642    .text               c_w.l(sys_stackheap_outer.o)
    0x08004154   0x0000001c   Code   RO          644    .text               c_w.l(_chval.o)
    0x08004170   0x00000012   Code   RO          649    .text               c_w.l(exit.o)
    0x08004182   0x00000002   PAD
    0x08004184   0x00000080   Code   RO          651    .text               c_w.l(strcmpv7m.o)
    0x08004204   0x0000000c   Code   RO          723    .text               c_w.l(sys_exit.o)
    0x08004210   0x00000002   Code   RO          734    .text               c_w.l(use_no_semi.o)
    0x08004212   0x00000000   Code   RO          736    .text               c_w.l(indicate_semi.o)
    0x08004212   0x0000003e   Code   RO          609    CL$$btod_d2e        c_w.l(btod.o)
    0x08004250   0x00000046   Code   RO          611    CL$$btod_d2e_denorm_low  c_w.l(btod.o)
    0x08004296   0x00000060   Code   RO          610    CL$$btod_d2e_norm_op1  c_w.l(btod.o)
    0x080042f6   0x00000338   Code   RO          619    CL$$btod_div_common  c_w.l(btod.o)
    0x0800462e   0x000000c6   Code   RO          616    CL$$btod_e2e        c_w.l(btod.o)
    0x080046f4   0x00000028   Code   RO          613    CL$$btod_ediv       c_w.l(btod.o)
    0x0800471c   0x00000028   Code   RO          612    CL$$btod_emul       c_w.l(btod.o)
    0x08004744   0x00000244   Code   RO          618    CL$$btod_mult_common  c_w.l(btod.o)
    0x08004988   0x00000028   Code   RO          640    i.__ARM_fpclassify  m_ws.l(fpclassify.o)
    0x080049b0   0x0000000e   Code   RO          497    i._is_digit         c_w.l(__printf_wp.o)
    0x080049be   0x00000002   PAD
    0x080049c0   0x0000002c   Code   RO          632    locale$$code        c_w.l(lc_numeric_c.o)
    0x080049ec   0x0000002c   Code   RO          647    locale$$code        c_w.l(lc_ctype_c.o)
    0x08004a18   0x00000150   Code   RO          519    x$fpl$dadd          fz_ws.l(daddsub_clz.o)
    0x08004b68   0x00000018   Code   RO          636    x$fpl$dcmpinf       fz_ws.l(dcmpi.o)
    0x08004b80   0x0000005e   Code   RO          525    x$fpl$dfix          fz_ws.l(dfix.o)
    0x08004bde   0x00000002   PAD
    0x08004be0   0x0000005a   Code   RO          529    x$fpl$dfixu         fz_ws.l(dfixu.o)
    0x08004c3a   0x00000026   Code   RO          533    x$fpl$dfltu         fz_ws.l(dflt_clz.o)
    0x08004c60   0x00000078   Code   RO          566    x$fpl$dleqf         fz_ws.l(dleqf.o)
    0x08004cd8   0x00000154   Code   RO          539    x$fpl$dmul          fz_ws.l(dmul.o)
    0x08004e2c   0x0000009c   Code   RO          568    x$fpl$dnaninf       fz_ws.l(dnaninf.o)
    0x08004ec8   0x0000000c   Code   RO          570    x$fpl$dretinf       fz_ws.l(dretinf.o)
    0x08004ed4   0x0000006c   Code   RO          541    x$fpl$drleqf        fz_ws.l(drleqf.o)
    0x08004f40   0x000001d4   Code   RO          521    x$fpl$dsub          fz_ws.l(daddsub_clz.o)
    0x08005114   0x00000004   Code   RO          543    x$fpl$printf1       fz_ws.l(printf1.o)
    0x08005118   0x00000000   Code   RO          572    x$fpl$usenofp       fz_ws.l(usenofp.o)
    0x08005118   0x000011d0   Data   RO          264    .constdata          lcd.o
    0x080062e8   0x00000094   Data   RO          607    .constdata          c_w.l(bigflt0.o)
    0x0800637c   0x00000020   Data   RO          783    Region$$Table       anon$$obj.o
    0x0800639c   0x0000001c   Data   RO          631    locale$$data        c_w.l(lc_numeric_c.o)
    0x080063b8   0x00000110   Data   RO          646    locale$$data        c_w.l(lc_ctype_c.o)


    Execution Region RW_IRAM1 (Base: 0x20000000, Size: 0x00000768, Max: 0x00005000, ABSOLUTE)

    Base Addr    Size         Type   Attr      Idx    E Section Name        Object

    0x20000000   0x00000014   Data   RW           27    .data               system_stm32f10x.o
    0x20000014   0x00000014   Data   RW          162    .data               stm32f10x_rcc.o
    0x20000028   0x00000006   Data   RW          265    .data               lcd.o
    0x2000002e   0x00000002   PAD
    0x20000030   0x00000059   Data   RW          295    .data               main.o
    0x20000089   0x00000003   PAD
    0x2000008c   0x00000008   Data   RW          345    .data               stm32f10x_it.o
    0x20000094   0x00000002   Data   RW          433    .data               usart.o
    0x20000096   0x00000002   PAD
    0x20000098   0x00000064   Zero   RW          294    .bss                main.o
    0x200000fc   0x0000000a   Zero   RW          432    .bss                usart.o
    0x20000106   0x00000002   PAD
    0x20000108   0x00000060   Zero   RW          574    .bss                c_w.l(libspace.o)
    0x20000168   0x00000200   Zero   RW            2    HEAP                startup_stm32f10x_md.o
    0x20000368   0x00000400   Zero   RW            1    STACK               startup_stm32f10x_md.o


==============================================================================

Image component sizes


      Code (inc. data)   RO Data    RW Data    ZI Data      Debug   Object Name

         0          0          0          0          0       4508   core_cm3.o
       664          6          0          0          0       2869   iic.o
       152          8          0          0          0        708   key.o
      2572         74       4560          6          0       8832   lcd.o
       132         10          0          0          0        743   led.o
      1876        336          0         89        100      26986   main.o
       220         22          0          0          0       1969   misc.o
       184          4          0          0          0        775   pwm.o
        64         26        236          0       1536        956   startup_stm32f10x_md.o
       860         38          0          0          0       5905   stm32f10x_gpio.o
        80         12          0          8          0       1609   stm32f10x_it.o
       932         36          0         20          0       9140   stm32f10x_rcc.o
      3610         88          0          0          0      23016   stm32f10x_tim.o
      1032         22          0          0          0       8628   stm32f10x_usart.o
       480         38          0         20          0     249783   system_stm32f10x.o
       280         22          0          2         10       1953   usart.o

    ----------------------------------------------------------------------
     13140        742       4828        152       1648     348380   Object Totals
         0          0         32          0          0          0   (incl. Generated)
         2          0          0          7          2          0   (incl. Padding)

    ----------------------------------------------------------------------

      Code (inc. data)   RO Data    RW Data    ZI Data      Debug   Library Member Name

         8          0          0          0          0         68   __main.o
       352          0          0          0          0         88   __printf_ss_wp.o
        14          0          0          0          0         68   __printf_wp.o
         0          0          0          0          0          0   __rtentry.o
        12          0          0          0          0          0   __rtentry2.o
         6          0          0          0          0          0   __rtentry4.o
        52          8          0          0          0          0   __scatter.o
        26          0          0          0          0          0   __scatter_copy.o
        28          0          0          0          0          0   __scatter_zi.o
        28          0          0          0          0         68   _chval.o
        44          0          0          0          0        108   _printf_char.o
        48          6          0          0          0         96   _printf_char_common.o
         6          0          0          0          0          0   _printf_d.o
       120         16          0          0          0         92   _printf_dec.o
         6          0          0          0          0          0   _printf_f.o
      1050          0          0          0          0        216   _printf_fp_dec.o
       128         16          0          0          0         84   _printf_fp_infnan.o
       178          0          0          0          0         88   _printf_intcommon.o
        78          0          0          0          0        108   _printf_pad.o
         0          0          0          0          0          0   _printf_percent.o
         4          0          0          0          0          0   _printf_percent_end.o
         6          0          0          0          0          0   _printf_s.o
        82          0          0          0          0         80   _printf_str.o
        10          0          0          0          0         68   _sputc.o
       158          0          0          0          0         92   _strtoul.o
        26          0          0          0          0         80   atoi.o
       220          4        148          0          0         96   bigflt0.o
      1910        128          0          0          0        672   btod.o
        18          0          0          0          0         80   exit.o
         6          0          0          0          0        152   heapauxi.o
         0          0          0          0          0          0   indicate_semi.o
        44         10        272          0          0         76   lc_ctype_c.o
        44         10         28          0          0         76   lc_numeric_c.o
         2          0          0          0          0          0   libinit.o
        30          0          0          0          0          0   libinit2.o
         2          0          0          0          0          0   libshutdown.o
         2          0          0          0          0          0   libshutdown2.o
         8          4          0          0         96         68   libspace.o
       138          0          0          0          0         80   lludiv10.o
        40          6          0          0          0         84   noretval__2sprintf.o
        16          4          0          0          0         76   rt_ctype_table.o
         8          4          0          0          0         68   rt_errno_addr_intlibspace.o
         8          4          0          0          0         68   rt_locale_intlibspace.o
        68          0          0          0          0         68   rt_memclr.o
        78          0          0          0          0         80   rt_memclr_w.o
         2          0          0          0          0          0   rtexit.o
        10          0          0          0          0          0   rtexit2.o
       128          0          0          0          0         68   strcmpv7m.o
        86          0          0          0          0         76   strncpy.o
       112          0          0          0          0         88   strtol.o
        12          4          0          0          0         68   sys_exit.o
        74          0          0          0          0         80   sys_stackheap_outer.o
         2          0          0          0          0         68   use_no_semi.o
       804         16          0          0          0        272   daddsub_clz.o
        24          0          0          0          0         68   dcmpi.o
        94          4          0          0          0         92   dfix.o
        90          4          0          0          0         92   dfixu.o
        38          0          0          0          0         68   dflt_clz.o
       120          4          0          0          0         92   dleqf.o
       340         12          0          0          0        104   dmul.o
       156          4          0          0          0         92   dnaninf.o
        12          0          0          0          0         68   dretinf.o
       108          0          0          0          0         80   drleqf.o
         4          0          0          0          0         68   printf1.o
         0          0          0          0          0          0   usenofp.o
        40          0          0          0          0         68   fpclassify.o

    ----------------------------------------------------------------------
      7384        268        448          0         96       4760   Library Totals
        16          0          0          0          0          0   (incl. Padding)

    ----------------------------------------------------------------------

      Code (inc. data)   RO Data    RW Data    ZI Data      Debug   Library Name

      5538        224        448          0         96       3596   c_w.l
      1790         44          0          0          0       1096   fz_ws.l
        40          0          0          0          0         68   m_ws.l

    ----------------------------------------------------------------------
      7384        268        448          0         96       4760   Library Totals

    ----------------------------------------------------------------------

==============================================================================


      Code (inc. data)   RO Data    RW Data    ZI Data      Debug   

     20524       1010       5276        152       1744     349236   Grand Totals
     20524       1010       5276        152       1744     349236   ELF Image Totals
     20524       1010       5276        152          0          0   ROM Totals

==============================================================================

    Total RO  Size (Code + RO Data)                25800 (  25.20kB)
    Total RW  Size (RW Data + ZI Data)              1896 (   1.85kB)
    Total ROM Size (Code + RO Data + RW Data)      25952 (  25.34kB)

==============================================================================

