Component: ARM Compiler 5.06 update 2 (build 183) Tool: armlink [4d35b7]

==============================================================================

Section Cross References

    startup_stm32f10x_md.o(RESET) refers to startup_stm32f10x_md.o(STACK) for __initial_sp
    startup_stm32f10x_md.o(RESET) refers to startup_stm32f10x_md.o(.text) for Reset_Handler
    startup_stm32f10x_md.o(RESET) refers to stm32f10x_it.o(.text) for NMI_Handler
    startup_stm32f10x_md.o(.text) refers to system_stm32f10x.o(.text) for SystemInit
    startup_stm32f10x_md.o(.text) refers to entry.o(.ARM.Collect$$$$00000000) for __main
    system_stm32f10x.o(.text) refers to system_stm32f10x.o(.data) for SystemCoreClock
    stm32f10x_gpio.o(.text) refers to stm32f10x_rcc.o(.text) for RCC_APB2PeriphResetCmd
    stm32f10x_rcc.o(.text) refers to stm32f10x_rcc.o(.data) for APBAHBPrescTable
    stm32f10x_adc.o(.text) refers to stm32f10x_rcc.o(.text) for RCC_APB2PeriphResetCmd
    lcd.o(.text) refers to stm32f10x_gpio.o(.text) for GPIO_Init
    lcd.o(.text) refers to stm32f10x_rcc.o(.text) for RCC_APB2PeriphClockCmd
    lcd.o(.text) refers to lcd.o(.data) for dummy
    lcd.o(.text) refers to lcd.o(.constdata) for ASCII_Table
    main.o(.text) refers to printfa.o(i.__0sprintf) for __2sprintf
    main.o(.text) refers to lcd.o(.text) for LCD_DisplayStringLine
    main.o(.text) refers to dadd.o(.text) for __aeabi_dsub
    main.o(.text) refers to cdrcmple.o(.text) for __aeabi_cdrcmple
    main.o(.text) refers to led.o(.text) for LED_Control
==============================================================================

Removing Unused input sections from the image.

    Removing startup_stm32f10x_md.o(HEAP), (512 bytes).
    Removing system_stm32f10x.o(.rev16_text), (4 bytes).
    Removing system_stm32f10x.o(.revsh_text), (4 bytes).
    Removing core_cm3.o(.emb_text), (32 bytes).
    Removing stm32f10x_gpio.o(.rev16_text), (4 bytes).
    Removing stm32f10x_gpio.o(.revsh_text), (4 bytes).
    Removing stm32f10x_rcc.o(.rev16_text), (4 bytes).
    Removing stm32f10x_rcc.o(.revsh_text), (4 bytes).
    Removing stm32f10x_adc.o(.rev16_text), (4 bytes).
    Removing stm32f10x_adc.o(.revsh_text), (4 bytes).
    Removing lcd.o(.rev16_text), (4 bytes).
    Removing lcd.o(.revsh_text), (4 bytes).
    Removing main.o(.rev16_text), (4 bytes).
    Removing main.o(.revsh_text), (4 bytes).
    Removing stm32f10x_it.o(.rev16_text), (4 bytes).
    Removing stm32f10x_it.o(.revsh_text), (4 bytes).
    Removing adc.o(.rev16_text), (4 bytes).
    Removing adc.o(.revsh_text), (4 bytes).
==============================================================================

Image Symbol Table

    Local Symbols

    Symbol Name                              Value     Ov Type        Size  Object(Section)

    ../clib/microlib/division.c              0x00000000   Number         0  uidiv.o ABSOLUTE
    ../clib/microlib/division.c              0x00000000   Number         0  uldiv.o ABSOLUTE
    ../clib/microlib/init/entry.s            0x00000000   Number         0  entry10b.o ABSOLUTE
    ../clib/microlib/init/entry.s            0x00000000   Number         0  entry10a.o ABSOLUTE
    ../clib/microlib/init/entry.s            0x00000000   Number         0  entry9a.o ABSOLUTE
    ../clib/microlib/init/entry.s            0x00000000   Number         0  entry5.o ABSOLUTE
    ../clib/microlib/init/entry.s            0x00000000   Number         0  entry8b.o ABSOLUTE
    ../clib/microlib/init/entry.s            0x00000000   Number         0  entry9b.o ABSOLUTE
    ../clib/microlib/init/entry.s            0x00000000   Number         0  entry.o ABSOLUTE
    ../clib/microlib/init/entry.s            0x00000000   Number         0  entry8a.o ABSOLUTE
    ../clib/microlib/init/entry.s            0x00000000   Number         0  entry11b.o ABSOLUTE
    ../clib/microlib/init/entry.s            0x00000000   Number         0  entry7b.o ABSOLUTE
    ../clib/microlib/init/entry.s            0x00000000   Number         0  entry7a.o ABSOLUTE
    ../clib/microlib/init/entry.s            0x00000000   Number         0  entry2.o ABSOLUTE
    ../clib/microlib/init/entry.s            0x00000000   Number         0  entry11a.o ABSOLUTE
    ../clib/microlib/longlong.c              0x00000000   Number         0  llushr.o ABSOLUTE
    ../clib/microlib/longlong.c              0x00000000   Number         0  llshl.o ABSOLUTE
    ../clib/microlib/longlong.c              0x00000000   Number         0  llsshr.o ABSOLUTE
    ../clib/microlib/printf/printf.c         0x00000000   Number         0  printf6.o ABSOLUTE
    ../clib/microlib/printf/printf.c         0x00000000   Number         0  printf7.o ABSOLUTE
    ../clib/microlib/printf/printf.c         0x00000000   Number         0  printf8.o ABSOLUTE
    ../clib/microlib/printf/printf.c         0x00000000   Number         0  printfa.o ABSOLUTE
    ../clib/microlib/printf/printf.c         0x00000000   Number         0  printfb.o ABSOLUTE
    ../clib/microlib/printf/printf.c         0x00000000   Number         0  printf0.o ABSOLUTE
    ../clib/microlib/printf/printf.c         0x00000000   Number         0  printf1.o ABSOLUTE
    ../clib/microlib/printf/printf.c         0x00000000   Number         0  printf2.o ABSOLUTE
    ../clib/microlib/printf/printf.c         0x00000000   Number         0  printf3.o ABSOLUTE
    ../clib/microlib/printf/printf.c         0x00000000   Number         0  printf4.o ABSOLUTE
    ../clib/microlib/printf/printf.c         0x00000000   Number         0  printf5.o ABSOLUTE
    ../clib/microlib/printf/stubs.s          0x00000000   Number         0  stubs.o ABSOLUTE
    ../clib/microlib/stdio/fputc.c           0x00000000   Number         0  fputc.o ABSOLUTE
    ../clib/microlib/stdio/semi.s            0x00000000   Number         0  semi.o ABSOLUTE
    ../clib/microlib/stdio/streams.c         0x00000000   Number         0  stdout.o ABSOLUTE
    ../clib/microlib/stubs.s                 0x00000000   Number         0  iusesemip.o ABSOLUTE
    ../clib/microlib/stubs.s                 0x00000000   Number         0  iusefp.o ABSOLUTE
    ../fplib/microlib/fpadd.c                0x00000000   Number         0  dadd.o ABSOLUTE
    ../fplib/microlib/fpdiv.c                0x00000000   Number         0  ddiv.o ABSOLUTE
    ../fplib/microlib/fpepilogue.c           0x00000000   Number         0  depilogue.o ABSOLUTE
    ../fplib/microlib/fpfix.c                0x00000000   Number         0  dfixul.o ABSOLUTE
    ../fplib/microlib/fpflt.c                0x00000000   Number         0  dfltui.o ABSOLUTE
    ../fplib/microlib/fpmul.c                0x00000000   Number         0  dmul.o ABSOLUTE
    ..\Libraries\CMSIS\CM3\CoreSupport\core_cm3.c 0x00000000   Number         0  core_cm3.o ABSOLUTE
    ..\Libraries\CMSIS\CM3\DeviceSupport\ST\STM32F10x\startup\arm\startup_stm32f10x_md.s 0x00000000   Number         0  startup_stm32f10x_md.o ABSOLUTE
    ..\Libraries\CMSIS\CM3\DeviceSupport\ST\STM32F10x\system_stm32f10x.c 0x00000000   Number         0  system_stm32f10x.o ABSOLUTE
    ..\Libraries\STM32F10x_StdPeriph_Driver\src\stm32f10x_adc.c 0x00000000   Number         0  stm32f10x_adc.o ABSOLUTE
    ..\Libraries\STM32F10x_StdPeriph_Driver\src\stm32f10x_gpio.c 0x00000000   Number         0  stm32f10x_gpio.o ABSOLUTE
    ..\Libraries\STM32F10x_StdPeriph_Driver\src\stm32f10x_rcc.c 0x00000000   Number         0  stm32f10x_rcc.o ABSOLUTE
    ..\Sre\adc.c                             0x00000000   Number         0  adc.o ABSOLUTE
    ..\Sre\key.c                             0x00000000   Number         0  key.o ABSOLUTE
    ..\Sre\lcd.c                             0x00000000   Number         0  lcd.o ABSOLUTE
    ..\Sre\led.c                             0x00000000   Number         0  led.o ABSOLUTE
    ..\Sre\main.c                            0x00000000   Number         0  main.o ABSOLUTE
    ..\Sre\stm32f10x_it.c                    0x00000000   Number         0  stm32f10x_it.o ABSOLUTE
    ..\Sre\volControl.c                      0x00000000   Number         0  volcontrol.o ABSOLUTE
    ..\\Libraries\\CMSIS\\CM3\\CoreSupport\\core_cm3.c 0x00000000   Number         0  core_cm3.o ABSOLUTE
    ..\\Libraries\\CMSIS\\CM3\\DeviceSupport\\ST\\STM32F10x\\system_stm32f10x.c 0x00000000   Number         0  system_stm32f10x.o ABSOLUTE
    ..\\Libraries\\STM32F10x_StdPeriph_Driver\\src\\stm32f10x_adc.c 0x00000000   Number         0  stm32f10x_adc.o ABSOLUTE
    ..\\Libraries\\STM32F10x_StdPeriph_Driver\\src\\stm32f10x_gpio.c 0x00000000   Number         0  stm32f10x_gpio.o ABSOLUTE
    ..\\Libraries\\STM32F10x_StdPeriph_Driver\\src\\stm32f10x_rcc.c 0x00000000   Number         0  stm32f10x_rcc.o ABSOLUTE
    ..\\Sre\\adc.c                           0x00000000   Number         0  adc.o ABSOLUTE
    ..\\Sre\\key.c                           0x00000000   Number         0  key.o ABSOLUTE
    ..\\Sre\\lcd.c                           0x00000000   Number         0  lcd.o ABSOLUTE
    ..\\Sre\\led.c                           0x00000000   Number         0  led.o ABSOLUTE
    ..\\Sre\\main.c                          0x00000000   Number         0  main.o ABSOLUTE
    ..\\Sre\\stm32f10x_it.c                  0x00000000   Number         0  stm32f10x_it.o ABSOLUTE
    ..\\Sre\\volControl.c                    0x00000000   Number         0  volcontrol.o ABSOLUTE
    cdcmple.s                                0x00000000   Number         0  cdcmple.o ABSOLUTE
    cdrcmple.s                               0x00000000   Number         0  cdrcmple.o ABSOLUTE
    dc.s                                     0x00000000   Number         0  dc.o ABSOLUTE
    handlers.s                               0x00000000   Number         0  handlers.o ABSOLUTE
    init.s                                   0x00000000   Number         0  init.o ABSOLUTE
    RESET                                    0x08000000   Section      236  startup_stm32f10x_md.o(RESET)
    .ARM.Collect$$$$00000000                 0x080000ec   Section        0  entry.o(.ARM.Collect$$$$00000000)
    .ARM.Collect$$$$00000001                 0x080000ec   Section        4  entry2.o(.ARM.Collect$$$$00000001)
    .ARM.Collect$$$$00000004                 0x080000f0   Section        4  entry5.o(.ARM.Collect$$$$00000004)
    .ARM.Collect$$$$00000008                 0x080000f4   Section        0  entry7b.o(.ARM.Collect$$$$00000008)
    .ARM.Collect$$$$0000000A                 0x080000f4   Section        0  entry8b.o(.ARM.Collect$$$$0000000A)
    .ARM.Collect$$$$0000000B                 0x080000f4   Section        8  entry9a.o(.ARM.Collect$$$$0000000B)
    .ARM.Collect$$$$0000000D                 0x080000fc   Section        0  entry10a.o(.ARM.Collect$$$$0000000D)
    .ARM.Collect$$$$0000000F                 0x080000fc   Section        0  entry11a.o(.ARM.Collect$$$$0000000F)
    .ARM.Collect$$$$00002712                 0x080000fc   Section        4  entry2.o(.ARM.Collect$$$$00002712)
    __lit__00000000                          0x080000fc   Data           4  entry2.o(.ARM.Collect$$$$00002712)
    .text                                    0x08000100   Section       36  startup_stm32f10x_md.o(.text)
    .text                                    0x08000124   Section        0  system_stm32f10x.o(.text)
    SetSysClockTo72                          0x08000125   Thumb Code   214  system_stm32f10x.o(.text)
    SetSysClock                              0x080001fb   Thumb Code     8  system_stm32f10x.o(.text)
    .text                                    0x08000304   Section        0  stm32f10x_gpio.o(.text)
    .text                                    0x08000660   Section        0  stm32f10x_rcc.o(.text)
    .text                                    0x08000a04   Section        0  stm32f10x_adc.o(.text)
    .text                                    0x08000e54   Section        0  lcd.o(.text)
    .text                                    0x08001860   Section        0  main.o(.text)
    .text                                    0x08001e9c   Section        0  stm32f10x_it.o(.text)
    .text                                    0x08001f30   Section        0  adc.o(.text)
    .text                                    0x08002004   Section        0  key.o(.text)
    .text                                    0x0800209c   Section        0  led.o(.text)
    .text                                    0x08002120   Section        0  volcontrol.o(.text)
    .text                                    0x0800219c   Section        0  dadd.o(.text)
    .text                                    0x080022ea   Section        0  dmul.o(.text)
    .text                                    0x080023ce   Section        0  ddiv.o(.text)
    .text                                    0x080024ac   Section        0  dfltui.o(.text)
    .text                                    0x080024c8   Section       48  cdcmple.o(.text)
    .text                                    0x080024f8   Section       48  cdrcmple.o(.text)
    .text                                    0x08002528   Section        0  uidiv.o(.text)
    .text                                    0x08002554   Section        0  uldiv.o(.text)
    .text                                    0x080025b6   Section        0  llshl.o(.text)
    .text                                    0x080025d4   Section        0  llsshr.o(.text)
    .text                                    0x080025f8   Section        0  iusefp.o(.text)
    .text                                    0x080025f8   Section        0  depilogue.o(.text)
    .text                                    0x080026b2   Section        0  dfixul.o(.text)
    .text                                    0x080026e4   Section       36  init.o(.text)
    .text                                    0x08002708   Section        0  llushr.o(.text)
    i.__0sprintf                             0x08002728   Section        0  printfa.o(i.__0sprintf)
    i.__scatterload_copy                     0x08002750   Section       14  handlers.o(i.__scatterload_copy)
    i.__scatterload_null                     0x0800275e   Section        2  handlers.o(i.__scatterload_null)
    i.__scatterload_zeroinit                 0x08002760   Section       14  handlers.o(i.__scatterload_zeroinit)
    i._fp_digits                             0x08002770   Section        0  printfa.o(i._fp_digits)
    _fp_digits                               0x08002771   Thumb Code   334  printfa.o(i._fp_digits)
    i._printf_core                           0x080028d4   Section        0  printfa.o(i._printf_core)
    _printf_core                             0x080028d5   Thumb Code  1744  printfa.o(i._printf_core)
    i._printf_post_padding                   0x08002fb0   Section        0  printfa.o(i._printf_post_padding)
    _printf_post_padding                     0x08002fb1   Thumb Code    36  printfa.o(i._printf_post_padding)
    i._printf_pre_padding                    0x08002fd4   Section        0  printfa.o(i._printf_pre_padding)
    _printf_pre_padding                      0x08002fd5   Thumb Code    46  printfa.o(i._printf_pre_padding)
    i._sputc                                 0x08003002   Section        0  printfa.o(i._sputc)
    _sputc                                   0x08003003   Thumb Code    10  printfa.o(i._sputc)
    .constdata                               0x0800300c   Section     4560  lcd.o(.constdata)
    .conststring                             0x080041dc   Section       23  main.o(.conststring)
    .data                                    0x20000000   Section       20  system_stm32f10x.o(.data)
    .data                                    0x20000014   Section       20  stm32f10x_rcc.o(.data)
    APBAHBPrescTable                         0x20000014   Data          16  stm32f10x_rcc.o(.data)
    ADCPrescTable                            0x20000024   Data           4  stm32f10x_rcc.o(.data)
    .data                                    0x20000028   Section        6  lcd.o(.data)
    TextColor                                0x20000028   Data           2  lcd.o(.data)
    BackColor                                0x2000002a   Data           2  lcd.o(.data)
    .data                                    0x20000030   Section       92  main.o(.data)
    .data                                    0x2000008c   Section        8  stm32f10x_it.o(.data)
    .bss                                     0x20000094   Section      144  main.o(.bss)
    STACK                                    0x20000128   Section     1024  startup_stm32f10x_md.o(STACK)

    Global Symbols

    Symbol Name                              Value     Ov Type        Size  Object(Section)

    BuildAttributes$$THM_ISAv4$P$D$K$B$S$PE$A:L22UL41UL21$X:L11$S22US41US21$IEEE1$IW$USESV6$~STKCKD$USESV7$~SHL$OSPACE$ROPI$EBA8$MICROLIB$REQ8$PRES8$EABIv2 0x00000000   Number         0  anon$$obj.o ABSOLUTE
    __ARM_use_no_argv                        0x00000000   Number         0  main.o ABSOLUTE
    _printf_a                                0x00000000   Number         0  stubs.o ABSOLUTE
    _printf_c                                0x00000000   Number         0  stubs.o ABSOLUTE
    _printf_charcount                        0x00000000   Number         0  stubs.o ABSOLUTE
    _printf_d                                0x00000000   Number         0  stubs.o ABSOLUTE
    _printf_e                                0x00000000   Number         0  stubs.o ABSOLUTE
    _printf_f                                0x00000000   Number         0  stubs.o ABSOLUTE
    _printf_flags                            0x00000000   Number         0  stubs.o ABSOLUTE
    _printf_fp_dec                           0x00000000   Number         0  stubs.o ABSOLUTE
    _printf_fp_hex                           0x00000000   Number         0  stubs.o ABSOLUTE
    _printf_g                                0x00000000   Number         0  stubs.o ABSOLUTE
    _printf_i                                0x00000000   Number         0  stubs.o ABSOLUTE
    _printf_int_dec                          0x00000000   Number         0  stubs.o ABSOLUTE
    _printf_l                                0x00000000   Number         0  stubs.o ABSOLUTE
    _printf_lc                               0x00000000   Number         0  stubs.o ABSOLUTE
    _printf_ll                               0x00000000   Number         0  stubs.o ABSOLUTE
    _printf_lld                              0x00000000   Number         0  stubs.o ABSOLUTE
    _printf_lli                              0x00000000   Number         0  stubs.o ABSOLUTE
    _printf_llo                              0x00000000   Number         0  stubs.o ABSOLUTE
    _printf_llu                              0x00000000   Number         0  stubs.o ABSOLUTE
    _printf_llx                              0x00000000   Number         0  stubs.o ABSOLUTE
    _printf_longlong_dec                     0x00000000   Number         0  stubs.o ABSOLUTE
    _printf_longlong_hex                     0x00000000   Number         0  stubs.o ABSOLUTE
    _printf_longlong_oct                     0x00000000   Number         0  stubs.o ABSOLUTE
    _printf_ls                               0x00000000   Number         0  stubs.o ABSOLUTE
    _printf_mbtowc                           0x00000000   Number         0  stubs.o ABSOLUTE
    _printf_n                                0x00000000   Number         0  stubs.o ABSOLUTE
    _printf_o                                0x00000000   Number         0  stubs.o ABSOLUTE
    _printf_p                                0x00000000   Number         0  stubs.o ABSOLUTE
    _printf_percent                          0x00000000   Number         0  stubs.o ABSOLUTE
    _printf_pre_padding                      0x00000000   Number         0  stubs.o ABSOLUTE
    _printf_return_value                     0x00000000   Number         0  stubs.o ABSOLUTE
    _printf_s                                0x00000000   Number         0  stubs.o ABSOLUTE
    _printf_sizespec                         0x00000000   Number         0  stubs.o ABSOLUTE
    _printf_str                              0x00000000   Number         0  stubs.o ABSOLUTE
    _printf_truncate_signed                  0x00000000   Number         0  stubs.o ABSOLUTE
    _printf_truncate_unsigned                0x00000000   Number         0  stubs.o ABSOLUTE
    _printf_u                                0x00000000   Number         0  stubs.o ABSOLUTE
    _printf_wc                               0x00000000   Number         0  stubs.o ABSOLUTE
    _printf_wctomb                           0x00000000   Number         0  stubs.o ABSOLUTE
    _printf_widthprec                        0x00000000   Number         0  stubs.o ABSOLUTE
    _printf_x                                0x00000000   Number         0  stubs.o ABSOLUTE
    __cpp_initialize__aeabi_                  - Undefined Weak Reference
    __cxa_finalize                            - Undefined Weak Reference
    __decompress                              - Undefined Weak Reference
    _clock_init                               - Undefined Weak Reference
    _microlib_exit                            - Undefined Weak Reference
    __Vectors_Size                           0x000000ec   Number         0  startup_stm32f10x_md.o ABSOLUTE
    __Vectors                                0x08000000   Data           4  startup_stm32f10x_md.o(RESET)
    __Vectors_End                            0x080000ec   Data           0  startup_stm32f10x_md.o(RESET)
    __main                                   0x080000ed   Thumb Code     0  entry.o(.ARM.Collect$$$$00000000)
    _main_stk                                0x080000ed   Thumb Code     0  entry2.o(.ARM.Collect$$$$00000001)
    _main_scatterload                        0x080000f1   Thumb Code     0  entry5.o(.ARM.Collect$$$$00000004)
    __main_after_scatterload                 0x080000f5   Thumb Code     0  entry5.o(.ARM.Collect$$$$00000004)
    _main_clock                              0x080000f5   Thumb Code     0  entry7b.o(.ARM.Collect$$$$00000008)
    _main_cpp_init                           0x080000f5   Thumb Code     0  entry8b.o(.ARM.Collect$$$$0000000A)
    _main_init                               0x080000f5   Thumb Code     0  entry9a.o(.ARM.Collect$$$$0000000B)
    __rt_final_cpp                           0x080000fd   Thumb Code     0  entry10a.o(.ARM.Collect$$$$0000000D)
    __rt_final_exit                          0x080000fd   Thumb Code     0  entry11a.o(.ARM.Collect$$$$0000000F)
    Reset_Handler                            0x08000101   Thumb Code     8  startup_stm32f10x_md.o(.text)
    ADC1_2_IRQHandler                        0x0800011b   Thumb Code     0  startup_stm32f10x_md.o(.text)
    CAN1_RX1_IRQHandler                      0x0800011b   Thumb Code     0  startup_stm32f10x_md.o(.text)
    CAN1_SCE_IRQHandler                      0x0800011b   Thumb Code     0  startup_stm32f10x_md.o(.text)
    DMA1_Channel1_IRQHandler                 0x0800011b   Thumb Code     0  startup_stm32f10x_md.o(.text)
    DMA1_Channel2_IRQHandler                 0x0800011b   Thumb Code     0  startup_stm32f10x_md.o(.text)
    DMA1_Channel3_IRQHandler                 0x0800011b   Thumb Code     0  startup_stm32f10x_md.o(.text)
    DMA1_Channel4_IRQHandler                 0x0800011b   Thumb Code     0  startup_stm32f10x_md.o(.text)
    DMA1_Channel5_IRQHandler                 0x0800011b   Thumb Code     0  startup_stm32f10x_md.o(.text)
    DMA1_Channel6_IRQHandler                 0x0800011b   Thumb Code     0  startup_stm32f10x_md.o(.text)
    DMA1_Channel7_IRQHandler                 0x0800011b   Thumb Code     0  startup_stm32f10x_md.o(.text)
    EXTI0_IRQHandler                         0x0800011b   Thumb Code     0  startup_stm32f10x_md.o(.text)
    EXTI15_10_IRQHandler                     0x0800011b   Thumb Code     0  startup_stm32f10x_md.o(.text)
    EXTI1_IRQHandler                         0x0800011b   Thumb Code     0  startup_stm32f10x_md.o(.text)
    EXTI2_IRQHandler                         0x0800011b   Thumb Code     0  startup_stm32f10x_md.o(.text)
    EXTI3_IRQHandler                         0x0800011b   Thumb Code     0  startup_stm32f10x_md.o(.text)
    EXTI4_IRQHandler                         0x0800011b   Thumb Code     0  startup_stm32f10x_md.o(.text)
    EXTI9_5_IRQHandler                       0x0800011b   Thumb Code     0  startup_stm32f10x_md.o(.text)
    FLASH_IRQHandler                         0x0800011b   Thumb Code     0  startup_stm32f10x_md.o(.text)
    I2C1_ER_IRQHandler                       0x0800011b   Thumb Code     0  startup_stm32f10x_md.o(.text)
    I2C1_EV_IRQHandler                       0x0800011b   Thumb Code     0  startup_stm32f10x_md.o(.text)
    I2C2_ER_IRQHandler                       0x0800011b   Thumb Code     0  startup_stm32f10x_md.o(.text)
    I2C2_EV_IRQHandler                       0x0800011b   Thumb Code     0  startup_stm32f10x_md.o(.text)
    PVD_IRQHandler                           0x0800011b   Thumb Code     0  startup_stm32f10x_md.o(.text)
    RCC_IRQHandler                           0x0800011b   Thumb Code     0  startup_stm32f10x_md.o(.text)
    RTCAlarm_IRQHandler                      0x0800011b   Thumb Code     0  startup_stm32f10x_md.o(.text)
    RTC_IRQHandler                           0x0800011b   Thumb Code     0  startup_stm32f10x_md.o(.text)
    SPI1_IRQHandler                          0x0800011b   Thumb Code     0  startup_stm32f10x_md.o(.text)
    SPI2_IRQHandler                          0x0800011b   Thumb Code     0  startup_stm32f10x_md.o(.text)
    TAMPER_IRQHandler                        0x0800011b   Thumb Code     0  startup_stm32f10x_md.o(.text)
    TIM1_BRK_IRQHandler                      0x0800011b   Thumb Code     0  startup_stm32f10x_md.o(.text)
    TIM1_CC_IRQHandler                       0x0800011b   Thumb Code     0  startup_stm32f10x_md.o(.text)
    TIM1_TRG_COM_IRQHandler                  0x0800011b   Thumb Code     0  startup_stm32f10x_md.o(.text)
    TIM1_UP_IRQHandler                       0x0800011b   Thumb Code     0  startup_stm32f10x_md.o(.text)
    TIM2_IRQHandler                          0x0800011b   Thumb Code     0  startup_stm32f10x_md.o(.text)
    TIM3_IRQHandler                          0x0800011b   Thumb Code     0  startup_stm32f10x_md.o(.text)
    TIM4_IRQHandler                          0x0800011b   Thumb Code     0  startup_stm32f10x_md.o(.text)
    USART1_IRQHandler                        0x0800011b   Thumb Code     0  startup_stm32f10x_md.o(.text)
    USART2_IRQHandler                        0x0800011b   Thumb Code     0  startup_stm32f10x_md.o(.text)
    USART3_IRQHandler                        0x0800011b   Thumb Code     0  startup_stm32f10x_md.o(.text)
    USBWakeUp_IRQHandler                     0x0800011b   Thumb Code     0  startup_stm32f10x_md.o(.text)
    USB_HP_CAN1_TX_IRQHandler                0x0800011b   Thumb Code     0  startup_stm32f10x_md.o(.text)
    USB_LP_CAN1_RX0_IRQHandler               0x0800011b   Thumb Code     0  startup_stm32f10x_md.o(.text)
    WWDG_IRQHandler                          0x0800011b   Thumb Code     0  startup_stm32f10x_md.o(.text)
    SystemInit                               0x08000203   Thumb Code    78  system_stm32f10x.o(.text)
    SystemCoreClockUpdate                    0x08000251   Thumb Code   142  system_stm32f10x.o(.text)
    GPIO_DeInit                              0x08000305   Thumb Code   172  stm32f10x_gpio.o(.text)
    GPIO_AFIODeInit                          0x080003b1   Thumb Code    20  stm32f10x_gpio.o(.text)
    GPIO_Init                                0x080003c5   Thumb Code   278  stm32f10x_gpio.o(.text)
    GPIO_StructInit                          0x080004db   Thumb Code    16  stm32f10x_gpio.o(.text)
    GPIO_ReadInputDataBit                    0x080004eb   Thumb Code    18  stm32f10x_gpio.o(.text)
    GPIO_ReadInputData                       0x080004fd   Thumb Code     8  stm32f10x_gpio.o(.text)
    GPIO_ReadOutputDataBit                   0x08000505   Thumb Code    18  stm32f10x_gpio.o(.text)
    GPIO_ReadOutputData                      0x08000517   Thumb Code     8  stm32f10x_gpio.o(.text)
    GPIO_SetBits                             0x0800051f   Thumb Code     4  stm32f10x_gpio.o(.text)
    GPIO_ResetBits                           0x08000523   Thumb Code     4  stm32f10x_gpio.o(.text)
    GPIO_WriteBit                            0x08000527   Thumb Code    10  stm32f10x_gpio.o(.text)
    GPIO_Write                               0x08000531   Thumb Code     4  stm32f10x_gpio.o(.text)
    GPIO_PinLockConfig                       0x08000535   Thumb Code    18  stm32f10x_gpio.o(.text)
    GPIO_EventOutputConfig                   0x08000547   Thumb Code    26  stm32f10x_gpio.o(.text)
    GPIO_EventOutputCmd                      0x08000561   Thumb Code     6  stm32f10x_gpio.o(.text)
    GPIO_PinRemapConfig                      0x08000567   Thumb Code   138  stm32f10x_gpio.o(.text)
    GPIO_EXTILineConfig                      0x080005f1   Thumb Code    66  stm32f10x_gpio.o(.text)
    GPIO_ETH_MediaInterfaceConfig            0x08000633   Thumb Code     8  stm32f10x_gpio.o(.text)
    RCC_DeInit                               0x08000661   Thumb Code    64  stm32f10x_rcc.o(.text)
    RCC_HSEConfig                            0x080006a1   Thumb Code    70  stm32f10x_rcc.o(.text)
    RCC_GetFlagStatus                        0x080006e7   Thumb Code    56  stm32f10x_rcc.o(.text)
    RCC_WaitForHSEStartUp                    0x0800071f   Thumb Code    56  stm32f10x_rcc.o(.text)
    RCC_AdjustHSICalibrationValue            0x08000757   Thumb Code    20  stm32f10x_rcc.o(.text)
    RCC_HSICmd                               0x0800076b   Thumb Code     6  stm32f10x_rcc.o(.text)
    RCC_PLLConfig                            0x08000771   Thumb Code    24  stm32f10x_rcc.o(.text)
    RCC_PLLCmd                               0x08000789   Thumb Code     6  stm32f10x_rcc.o(.text)
    RCC_SYSCLKConfig                         0x0800078f   Thumb Code    18  stm32f10x_rcc.o(.text)
    RCC_GetSYSCLKSource                      0x080007a1   Thumb Code    10  stm32f10x_rcc.o(.text)
    RCC_HCLKConfig                           0x080007ab   Thumb Code    18  stm32f10x_rcc.o(.text)
    RCC_PCLK1Config                          0x080007bd   Thumb Code    18  stm32f10x_rcc.o(.text)
    RCC_PCLK2Config                          0x080007cf   Thumb Code    20  stm32f10x_rcc.o(.text)
    RCC_ITConfig                             0x080007e3   Thumb Code    26  stm32f10x_rcc.o(.text)
    RCC_USBCLKConfig                         0x080007fd   Thumb Code     8  stm32f10x_rcc.o(.text)
    RCC_ADCCLKConfig                         0x08000805   Thumb Code    18  stm32f10x_rcc.o(.text)
    RCC_LSEConfig                            0x08000817   Thumb Code    50  stm32f10x_rcc.o(.text)
    RCC_LSICmd                               0x08000849   Thumb Code     6  stm32f10x_rcc.o(.text)
    RCC_RTCCLKConfig                         0x0800084f   Thumb Code    12  stm32f10x_rcc.o(.text)
    RCC_RTCCLKCmd                            0x0800085b   Thumb Code     8  stm32f10x_rcc.o(.text)
    RCC_GetClocksFreq                        0x08000863   Thumb Code   192  stm32f10x_rcc.o(.text)
    RCC_AHBPeriphClockCmd                    0x08000923   Thumb Code    26  stm32f10x_rcc.o(.text)
    RCC_APB2PeriphClockCmd                   0x0800093d   Thumb Code    26  stm32f10x_rcc.o(.text)
    RCC_APB1PeriphClockCmd                   0x08000957   Thumb Code    26  stm32f10x_rcc.o(.text)
    RCC_APB2PeriphResetCmd                   0x08000971   Thumb Code    26  stm32f10x_rcc.o(.text)
    RCC_APB1PeriphResetCmd                   0x0800098b   Thumb Code    26  stm32f10x_rcc.o(.text)
    RCC_BackupResetCmd                       0x080009a5   Thumb Code     8  stm32f10x_rcc.o(.text)
    RCC_ClockSecuritySystemCmd               0x080009ad   Thumb Code     6  stm32f10x_rcc.o(.text)
    RCC_MCOConfig                            0x080009b3   Thumb Code     6  stm32f10x_rcc.o(.text)
    RCC_ClearFlag                            0x080009b9   Thumb Code    14  stm32f10x_rcc.o(.text)
    RCC_GetITStatus                          0x080009c7   Thumb Code    20  stm32f10x_rcc.o(.text)
    RCC_ClearITPendingBit                    0x080009db   Thumb Code     6  stm32f10x_rcc.o(.text)
    ADC_DeInit                               0x08000a05   Thumb Code    78  stm32f10x_adc.o(.text)
    ADC_Init                                 0x08000a53   Thumb Code    70  stm32f10x_adc.o(.text)
    ADC_StructInit                           0x08000a99   Thumb Code    18  stm32f10x_adc.o(.text)
    ADC_Cmd                                  0x08000aab   Thumb Code    22  stm32f10x_adc.o(.text)
    ADC_DMACmd                               0x08000ac1   Thumb Code    22  stm32f10x_adc.o(.text)
    ADC_ITConfig                             0x08000ad7   Thumb Code    24  stm32f10x_adc.o(.text)
    ADC_ResetCalibration                     0x08000aef   Thumb Code    10  stm32f10x_adc.o(.text)
    ADC_GetResetCalibrationStatus            0x08000af9   Thumb Code    20  stm32f10x_adc.o(.text)
    ADC_StartCalibration                     0x08000b0d   Thumb Code    10  stm32f10x_adc.o(.text)
    ADC_GetCalibrationStatus                 0x08000b17   Thumb Code    20  stm32f10x_adc.o(.text)
    ADC_SoftwareStartConvCmd                 0x08000b2b   Thumb Code    22  stm32f10x_adc.o(.text)
    ADC_GetSoftwareStartConvStatus           0x08000b41   Thumb Code    20  stm32f10x_adc.o(.text)
    ADC_DiscModeChannelCountConfig           0x08000b55   Thumb Code    24  stm32f10x_adc.o(.text)
    ADC_DiscModeCmd                          0x08000b6d   Thumb Code    22  stm32f10x_adc.o(.text)
    ADC_RegularChannelConfig                 0x08000b83   Thumb Code   184  stm32f10x_adc.o(.text)
    ADC_ExternalTrigConvCmd                  0x08000c3b   Thumb Code    22  stm32f10x_adc.o(.text)
    ADC_GetConversionValue                   0x08000c51   Thumb Code     8  stm32f10x_adc.o(.text)
    ADC_GetDualModeConversionValue           0x08000c59   Thumb Code     8  stm32f10x_adc.o(.text)
    ADC_AutoInjectedConvCmd                  0x08000c61   Thumb Code    22  stm32f10x_adc.o(.text)
    ADC_InjectedDiscModeCmd                  0x08000c77   Thumb Code    22  stm32f10x_adc.o(.text)
    ADC_ExternalTrigInjectedConvConfig       0x08000c8d   Thumb Code    16  stm32f10x_adc.o(.text)
    ADC_ExternalTrigInjectedConvCmd          0x08000c9d   Thumb Code    22  stm32f10x_adc.o(.text)
    ADC_SoftwareStartInjectedConvCmd         0x08000cb3   Thumb Code    22  stm32f10x_adc.o(.text)
    ADC_GetSoftwareStartInjectedConvCmdStatus 0x08000cc9   Thumb Code    20  stm32f10x_adc.o(.text)
    ADC_InjectedChannelConfig                0x08000cdd   Thumb Code   130  stm32f10x_adc.o(.text)
    ADC_InjectedSequencerLengthConfig        0x08000d5f   Thumb Code    24  stm32f10x_adc.o(.text)
    ADC_SetInjectedOffset                    0x08000d77   Thumb Code    20  stm32f10x_adc.o(.text)
    ADC_GetInjectedConversionValue           0x08000d8b   Thumb Code    28  stm32f10x_adc.o(.text)
    ADC_AnalogWatchdogCmd                    0x08000da7   Thumb Code    16  stm32f10x_adc.o(.text)
    ADC_AnalogWatchdogThresholdsConfig       0x08000db7   Thumb Code     6  stm32f10x_adc.o(.text)
    ADC_AnalogWatchdogSingleChannelConfig    0x08000dbd   Thumb Code    16  stm32f10x_adc.o(.text)
    ADC_TempSensorVrefintCmd                 0x08000dcd   Thumb Code    64  stm32f10x_adc.o(.text)
    ADC_GetFlagStatus                        0x08000e0d   Thumb Code    18  stm32f10x_adc.o(.text)
    ADC_ClearFlag                            0x08000e1f   Thumb Code     6  stm32f10x_adc.o(.text)
    ADC_GetITStatus                          0x08000e25   Thumb Code    36  stm32f10x_adc.o(.text)
    ADC_ClearITPendingBit                    0x08000e49   Thumb Code    10  stm32f10x_adc.o(.text)
    Delay_LCD                                0x08000e55   Thumb Code    30  lcd.o(.text)
    LCD_WriteReg                             0x08000e73   Thumb Code    68  lcd.o(.text)
    REG_8230_Init                            0x08000eb7   Thumb Code   288  lcd.o(.text)
    REG_932X_Init                            0x08000fd7   Thumb Code   514  lcd.o(.text)
    LCD_BusOut                               0x080011d9   Thumb Code    32  lcd.o(.text)
    LCD_BusIn                                0x080011f9   Thumb Code    32  lcd.o(.text)
    LCD_ReadReg                              0x08001219   Thumb Code    92  lcd.o(.text)
    LCD_CtrlLinesConfig                      0x08001275   Thumb Code    68  lcd.o(.text)
    STM3210B_LCD_Init                        0x080012b9   Thumb Code    50  lcd.o(.text)
    LCD_SetTextColor                         0x080012eb   Thumb Code    12  lcd.o(.text)
    LCD_SetBackColor                         0x080012f7   Thumb Code    12  lcd.o(.text)
    LCD_SetCursor                            0x08001303   Thumb Code    24  lcd.o(.text)
    LCD_WriteRAM                             0x0800131b   Thumb Code    54  lcd.o(.text)
    LCD_WriteRAM_Prepare                     0x08001351   Thumb Code    58  lcd.o(.text)
    LCD_DrawChar                             0x0800138b   Thumb Code   100  lcd.o(.text)
    LCD_DisplayChar                          0x080013ef   Thumb Code    34  lcd.o(.text)
    LCD_DisplayStringLine                    0x08001411   Thumb Code    44  lcd.o(.text)
    LCD_ClearLine                            0x0800143d   Thumb Code    14  lcd.o(.text)
    LCD_Clear                                0x0800144b   Thumb Code    38  lcd.o(.text)
    LCD_SetDisplayWindow                     0x08001471   Thumb Code    88  lcd.o(.text)
    LCD_WindowModeDisable                    0x080014c9   Thumb Code    28  lcd.o(.text)
    LCD_DrawLine                             0x080014e5   Thumb Code    86  lcd.o(.text)
    LCD_DrawRect                             0x0800153b   Thumb Code    66  lcd.o(.text)
    LCD_DrawCircle                           0x0800157d   Thumb Code   300  lcd.o(.text)
    LCD_DrawMonoPict                         0x080016a9   Thumb Code    76  lcd.o(.text)
    LCD_WriteBMP                             0x080016f5   Thumb Code    74  lcd.o(.text)
    LCD_ReadRAM                              0x0800173f   Thumb Code    82  lcd.o(.text)
    LCD_PowerOn                              0x08001791   Thumb Code   118  lcd.o(.text)
    LCD_DisplayOn                            0x08001807   Thumb Code    14  lcd.o(.text)
    LCD_DisplayOff                           0x08001815   Thumb Code    12  lcd.o(.text)
    LCD_DrawPicture                          0x08001821   Thumb Code    48  lcd.o(.text)
    Upate_Data                               0x08001861   Thumb Code    82  main.o(.text)
    Fflush_Main                              0x080018b3   Thumb Code    32  main.o(.text)
    Key4_Control                             0x080018d3   Thumb Code   272  main.o(.text)
    Key3_Control                             0x080019e3   Thumb Code   286  main.o(.text)
    DymaicShow                               0x08001b01   Thumb Code   544  main.o(.text)
    Fflush_Setting                           0x08001d21   Thumb Code    50  main.o(.text)
    setting                                  0x08001d53   Thumb Code   108  main.o(.text)
    Delay_Ms                                 0x08001dbf   Thumb Code    16  main.o(.text)
    main                                     0x08001dcf   Thumb Code   168  main.o(.text)
    NMI_Handler                              0x08001e9d   Thumb Code     2  stm32f10x_it.o(.text)
    HardFault_Handler                        0x08001e9f   Thumb Code     4  stm32f10x_it.o(.text)
    MemManage_Handler                        0x08001ea3   Thumb Code     4  stm32f10x_it.o(.text)
    BusFault_Handler                         0x08001ea7   Thumb Code     4  stm32f10x_it.o(.text)
    UsageFault_Handler                       0x08001eab   Thumb Code     4  stm32f10x_it.o(.text)
    DebugMon_Handler                         0x08001eaf   Thumb Code     2  stm32f10x_it.o(.text)
    SVC_Handler                              0x08001eb1   Thumb Code     2  stm32f10x_it.o(.text)
    PendSV_Handler                           0x08001eb3   Thumb Code     2  stm32f10x_it.o(.text)
    SysTick_Handler                          0x08001eb5   Thumb Code   106  stm32f10x_it.o(.text)
    ADC_Config                               0x08001f31   Thumb Code   136  adc.o(.text)
    Get_Adc                                  0x08001fb9   Thumb Code    58  adc.o(.text)
    KEY_Init                                 0x08002005   Thumb Code    62  key.o(.text)
    KEY_Scan                                 0x08002043   Thumb Code    82  key.o(.text)
    LED_Init                                 0x0800209d   Thumb Code    62  led.o(.text)
    LED_Control                              0x080020db   Thumb Code    60  led.o(.text)
    Status_Control                           0x08002121   Thumb Code    92  volcontrol.o(.text)
    __aeabi_dadd                             0x0800219d   Thumb Code   322  dadd.o(.text)
    __aeabi_dsub                             0x080022df   Thumb Code     6  dadd.o(.text)
    __aeabi_drsub                            0x080022e5   Thumb Code     6  dadd.o(.text)
    __aeabi_dmul                             0x080022eb   Thumb Code   228  dmul.o(.text)
    __aeabi_ddiv                             0x080023cf   Thumb Code   222  ddiv.o(.text)
    __aeabi_ui2d                             0x080024ad   Thumb Code    26  dfltui.o(.text)
    __aeabi_cdcmpeq                          0x080024c9   Thumb Code     0  cdcmple.o(.text)
    __aeabi_cdcmple                          0x080024c9   Thumb Code    48  cdcmple.o(.text)
    __aeabi_cdrcmple                         0x080024f9   Thumb Code    48  cdrcmple.o(.text)
    __aeabi_uidiv                            0x08002529   Thumb Code     0  uidiv.o(.text)
    __aeabi_uidivmod                         0x08002529   Thumb Code    44  uidiv.o(.text)
    __aeabi_uldivmod                         0x08002555   Thumb Code    98  uldiv.o(.text)
    __aeabi_llsl                             0x080025b7   Thumb Code    30  llshl.o(.text)
    _ll_shift_l                              0x080025b7   Thumb Code     0  llshl.o(.text)
    __aeabi_lasr                             0x080025d5   Thumb Code    36  llsshr.o(.text)
    _ll_sshift_r                             0x080025d5   Thumb Code     0  llsshr.o(.text)
    __I$use$fp                               0x080025f9   Thumb Code     0  iusefp.o(.text)
    _double_round                            0x080025f9   Thumb Code    30  depilogue.o(.text)
    _double_epilogue                         0x08002617   Thumb Code   156  depilogue.o(.text)
    __aeabi_d2ulz                            0x080026b3   Thumb Code    48  dfixul.o(.text)
    __scatterload                            0x080026e5   Thumb Code    28  init.o(.text)
    __scatterload_rt2                        0x080026e5   Thumb Code     0  init.o(.text)
    __aeabi_llsr                             0x08002709   Thumb Code    32  llushr.o(.text)
    _ll_ushift_r                             0x08002709   Thumb Code     0  llushr.o(.text)
    __0sprintf                               0x08002729   Thumb Code    34  printfa.o(i.__0sprintf)
    __1sprintf                               0x08002729   Thumb Code     0  printfa.o(i.__0sprintf)
    __2sprintf                               0x08002729   Thumb Code     0  printfa.o(i.__0sprintf)
    __c89sprintf                             0x08002729   Thumb Code     0  printfa.o(i.__0sprintf)
    sprintf                                  0x08002729   Thumb Code     0  printfa.o(i.__0sprintf)
    __scatterload_copy                       0x08002751   Thumb Code    14  handlers.o(i.__scatterload_copy)
    __scatterload_null                       0x0800275f   Thumb Code     2  handlers.o(i.__scatterload_null)
    __scatterload_zeroinit                   0x08002761   Thumb Code    14  handlers.o(i.__scatterload_zeroinit)
    ASCII_Table                              0x0800300c   Data        4560  lcd.o(.constdata)
    Region$$Table$$Base                      0x080041f4   Number         0  anon$$obj.o(Region$$Table)
    Region$$Table$$Limit                     0x08004214   Number         0  anon$$obj.o(Region$$Table)
    SystemCoreClock                          0x20000000   Data           4  system_stm32f10x.o(.data)
    AHBPrescTable                            0x20000004   Data          16  system_stm32f10x.o(.data)
    dummy                                    0x2000002c   Data           2  lcd.o(.data)
    TimingDelay                              0x20000030   Data           4  main.o(.data)
    Status                                   0x20000034   Data          32  main.o(.data)
    LED_Arr                                  0x20000054   Data          18  main.o(.data)
    Vol                                      0x20000068   Data           8  main.o(.data)
    MaxVol                                   0x20000070   Data           8  main.o(.data)
    MinVOl                                   0x20000078   Data           8  main.o(.data)
    UpperLED                                 0x20000080   Data           4  main.o(.data)
    LowerLED                                 0x20000084   Data           4  main.o(.data)
    Status_Flag                              0x20000088   Data           4  main.o(.data)
    Led_Dealy                                0x2000008c   Data           1  stm32f10x_it.o(.data)
    Led_Flag                                 0x20000090   Data           4  stm32f10x_it.o(.data)
    MaxVolDisplay                            0x20000094   Data          24  main.o(.bss)
    MinVolDisplay                            0x200000ac   Data          24  main.o(.bss)
    UpperDisplay                             0x200000c4   Data          24  main.o(.bss)
    LowerDisplay                             0x200000dc   Data          24  main.o(.bss)
    StatusDisplay                            0x200000f4   Data          24  main.o(.bss)
    VolDisplay                               0x2000010c   Data          24  main.o(.bss)
    __initial_sp                             0x20000528   Data           0  startup_stm32f10x_md.o(STACK)



==============================================================================

Memory Map of the image

  Image Entry point : 0x080000ed

  Load Region LR_IROM1 (Base: 0x08000000, Size: 0x000042a8, Max: 0x00020000, ABSOLUTE)

    Execution Region ER_IROM1 (Base: 0x08000000, Size: 0x00004214, Max: 0x00020000, ABSOLUTE)

    Base Addr    Size         Type   Attr      Idx    E Section Name        Object

    0x08000000   0x000000ec   Data   RO            3    RESET               startup_stm32f10x_md.o
    0x080000ec   0x00000000   Code   RO          384  * .ARM.Collect$$$$00000000  mc_w.l(entry.o)
    0x080000ec   0x00000004   Code   RO          660    .ARM.Collect$$$$00000001  mc_w.l(entry2.o)
    0x080000f0   0x00000004   Code   RO          663    .ARM.Collect$$$$00000004  mc_w.l(entry5.o)
    0x080000f4   0x00000000   Code   RO          665    .ARM.Collect$$$$00000008  mc_w.l(entry7b.o)
    0x080000f4   0x00000000   Code   RO          667    .ARM.Collect$$$$0000000A  mc_w.l(entry8b.o)
    0x080000f4   0x00000008   Code   RO          668    .ARM.Collect$$$$0000000B  mc_w.l(entry9a.o)
    0x080000fc   0x00000000   Code   RO          670    .ARM.Collect$$$$0000000D  mc_w.l(entry10a.o)
    0x080000fc   0x00000000   Code   RO          672    .ARM.Collect$$$$0000000F  mc_w.l(entry11a.o)
    0x080000fc   0x00000004   Code   RO          661    .ARM.Collect$$$$00002712  mc_w.l(entry2.o)
    0x08000100   0x00000024   Code   RO            4    .text               startup_stm32f10x_md.o
    0x08000124   0x000001e0   Code   RO           12    .text               system_stm32f10x.o
    0x08000304   0x0000035c   Code   RO          137    .text               stm32f10x_gpio.o
    0x08000660   0x000003a4   Code   RO          161    .text               stm32f10x_rcc.o
    0x08000a04   0x0000044e   Code   RO          183    .text               stm32f10x_adc.o
    0x08000e52   0x00000002   PAD
    0x08000e54   0x00000a0c   Code   RO          203    .text               lcd.o
    0x08001860   0x0000063c   Code   RO          233    .text               main.o
    0x08001e9c   0x00000094   Code   RO          275    .text               stm32f10x_it.o
    0x08001f30   0x000000d4   Code   RO          302    .text               adc.o
    0x08002004   0x00000098   Code   RO          322    .text               key.o
    0x0800209c   0x00000084   Code   RO          342    .text               led.o
    0x08002120   0x0000007c   Code   RO          362    .text               volcontrol.o
    0x0800219c   0x0000014e   Code   RO          648    .text               mf_w.l(dadd.o)
    0x080022ea   0x000000e4   Code   RO          650    .text               mf_w.l(dmul.o)
    0x080023ce   0x000000de   Code   RO          652    .text               mf_w.l(ddiv.o)
    0x080024ac   0x0000001a   Code   RO          654    .text               mf_w.l(dfltui.o)
    0x080024c6   0x00000002   PAD
    0x080024c8   0x00000030   Code   RO          656    .text               mf_w.l(cdcmple.o)
    0x080024f8   0x00000030   Code   RO          658    .text               mf_w.l(cdrcmple.o)
    0x08002528   0x0000002c   Code   RO          677    .text               mc_w.l(uidiv.o)
    0x08002554   0x00000062   Code   RO          679    .text               mc_w.l(uldiv.o)
    0x080025b6   0x0000001e   Code   RO          681    .text               mc_w.l(llshl.o)
    0x080025d4   0x00000024   Code   RO          683    .text               mc_w.l(llsshr.o)
    0x080025f8   0x00000000   Code   RO          685    .text               mc_w.l(iusefp.o)
    0x080025f8   0x000000ba   Code   RO          686    .text               mf_w.l(depilogue.o)
    0x080026b2   0x00000030   Code   RO          688    .text               mf_w.l(dfixul.o)
    0x080026e2   0x00000002   PAD
    0x080026e4   0x00000024   Code   RO          690    .text               mc_w.l(init.o)
    0x08002708   0x00000020   Code   RO          693    .text               mc_w.l(llushr.o)
    0x08002728   0x00000028   Code   RO          622    i.__0sprintf        mc_w.l(printfa.o)
    0x08002750   0x0000000e   Code   RO          698    i.__scatterload_copy  mc_w.l(handlers.o)
    0x0800275e   0x00000002   Code   RO          699    i.__scatterload_null  mc_w.l(handlers.o)
    0x08002760   0x0000000e   Code   RO          700    i.__scatterload_zeroinit  mc_w.l(handlers.o)
    0x0800276e   0x00000002   PAD
    0x08002770   0x00000164   Code   RO          627    i._fp_digits        mc_w.l(printfa.o)
    0x080028d4   0x000006dc   Code   RO          628    i._printf_core      mc_w.l(printfa.o)
    0x08002fb0   0x00000024   Code   RO          629    i._printf_post_padding  mc_w.l(printfa.o)
    0x08002fd4   0x0000002e   Code   RO          630    i._printf_pre_padding  mc_w.l(printfa.o)
    0x08003002   0x0000000a   Code   RO          632    i._sputc            mc_w.l(printfa.o)
    0x0800300c   0x000011d0   Data   RO          204    .constdata          lcd.o
    0x080041dc   0x00000017   Data   RO          235    .conststring        main.o
    0x080041f3   0x00000001   PAD
    0x080041f4   0x00000020   Data   RO          696    Region$$Table       anon$$obj.o


    Execution Region RW_IRAM1 (Base: 0x20000000, Size: 0x00000528, Max: 0x00005000, ABSOLUTE)

    Base Addr    Size         Type   Attr      Idx    E Section Name        Object

    0x20000000   0x00000014   Data   RW           13    .data               system_stm32f10x.o
    0x20000014   0x00000014   Data   RW          162    .data               stm32f10x_rcc.o
    0x20000028   0x00000006   Data   RW          205    .data               lcd.o
    0x2000002e   0x00000002   PAD
    0x20000030   0x0000005c   Data   RW          236    .data               main.o
    0x2000008c   0x00000008   Data   RW          276    .data               stm32f10x_it.o
    0x20000094   0x00000090   Zero   RW          234    .bss                main.o
    0x20000124   0x00000004   PAD
    0x20000128   0x00000400   Zero   RW            1    STACK               startup_stm32f10x_md.o


==============================================================================

Image component sizes


      Code (inc. data)   RO Data    RW Data    ZI Data      Debug   Object Name

       212         18          0          0          0        781   adc.o
       152          8          0          0          0        684   key.o
      2572         74       4560          6          0       8752   lcd.o
       132         10          0          0          0        723   led.o
      1596        302         23         92        144      25810   main.o
        36          8        236          0       1024        936   startup_stm32f10x_md.o
      1102         26          0          0          0      11173   stm32f10x_adc.o
       860         38          0          0          0       5865   stm32f10x_gpio.o
       148         18          0          8          0       1599   stm32f10x_it.o
       932         36          0         20          0       9080   stm32f10x_rcc.o
       480         38          0         20          0     234883   system_stm32f10x.o
       124         32          0          0          0        497   volcontrol.o

    ----------------------------------------------------------------------
      8348        608       4852        148       1172     300783   Object Totals
         0          0         32          0          0          0   (incl. Generated)
         2          0          1          2          4          0   (incl. Padding)

    ----------------------------------------------------------------------

      Code (inc. data)   RO Data    RW Data    ZI Data      Debug   Library Member Name

         0          0          0          0          0          0   entry.o
         0          0          0          0          0          0   entry10a.o
         0          0          0          0          0          0   entry11a.o
         8          4          0          0          0          0   entry2.o
         4          0          0          0          0          0   entry5.o
         0          0          0          0          0          0   entry7b.o
         0          0          0          0          0          0   entry8b.o
         8          4          0          0          0          0   entry9a.o
        30          0          0          0          0          0   handlers.o
        36          8          0          0          0         68   init.o
         0          0          0          0          0          0   iusefp.o
        30          0          0          0          0         68   llshl.o
        36          0          0          0          0         68   llsshr.o
        32          0          0          0          0         68   llushr.o
      2244         86          0          0          0        512   printfa.o
        44          0          0          0          0         80   uidiv.o
        98          0          0          0          0         92   uldiv.o
        48          0          0          0          0         68   cdcmple.o
        48          0          0          0          0         68   cdrcmple.o
       334          0          0          0          0        148   dadd.o
       222          0          0          0          0        100   ddiv.o
       186          0          0          0          0        176   depilogue.o
        48          0          0          0          0         68   dfixul.o
        26          0          0          0          0         76   dfltui.o
       228          0          0          0          0         96   dmul.o

    ----------------------------------------------------------------------
      3716        102          0          0          0       1756   Library Totals
         6          0          0          0          0          0   (incl. Padding)

    ----------------------------------------------------------------------

      Code (inc. data)   RO Data    RW Data    ZI Data      Debug   Library Name

      2570        102          0          0          0        956   mc_w.l
      1140          0          0          0          0        800   mf_w.l

    ----------------------------------------------------------------------
      3716        102          0          0          0       1756   Library Totals

    ----------------------------------------------------------------------

==============================================================================


      Code (inc. data)   RO Data    RW Data    ZI Data      Debug   

     12064        710       4852        148       1172     300819   Grand Totals
     12064        710       4852        148       1172     300819   ELF Image Totals
     12064        710       4852        148          0          0   ROM Totals

==============================================================================

    Total RO  Size (Code + RO Data)                16916 (  16.52kB)
    Total RW  Size (RW Data + ZI Data)              1320 (   1.29kB)
    Total ROM Size (Code + RO Data + RW Data)      17064 (  16.66kB)

==============================================================================

