Component: ARM Compiler 5.06 update 2 (build 183) Tool: armlink [4d35b7]

==============================================================================

Section Cross References

    startup_stm32f10x_md.o(STACK) refers (Special) to heapauxi.o(.text) for __use_two_region_memory
    startup_stm32f10x_md.o(HEAP) refers (Special) to heapauxi.o(.text) for __use_two_region_memory
    startup_stm32f10x_md.o(RESET) refers (Special) to heapauxi.o(.text) for __use_two_region_memory
    startup_stm32f10x_md.o(RESET) refers to startup_stm32f10x_md.o(STACK) for __initial_sp
    startup_stm32f10x_md.o(RESET) refers to startup_stm32f10x_md.o(.text) for Reset_Handler
    startup_stm32f10x_md.o(RESET) refers to stm32f10x_it.o(.text) for NMI_Handler
    startup_stm32f10x_md.o(.text) refers (Special) to heapauxi.o(.text) for __use_two_region_memory
    startup_stm32f10x_md.o(.text) refers to system_stm32f10x.o(.text) for SystemInit
    startup_stm32f10x_md.o(.text) refers to __main.o(!!!main) for __main
    startup_stm32f10x_md.o(.text) refers to startup_stm32f10x_md.o(HEAP) for Heap_Mem
    startup_stm32f10x_md.o(.text) refers to startup_stm32f10x_md.o(STACK) for Stack_Mem
    system_stm32f10x.o(.text) refers to system_stm32f10x.o(.data) for SystemCoreClock
    stm32f10x_gpio.o(.text) refers to stm32f10x_rcc.o(.text) for RCC_APB2PeriphResetCmd
    stm32f10x_rcc.o(.text) refers to stm32f10x_rcc.o(.data) for APBAHBPrescTable
    stm32f10x_adc.o(.text) refers to stm32f10x_rcc.o(.text) for RCC_APB2PeriphResetCmd
    stm32f10x_tim.o(.text) refers to stm32f10x_rcc.o(.text) for RCC_APB2PeriphResetCmd
    lcd_1.o(.text) refers to stm32f10x_gpio.o(.text) for GPIO_Init
    lcd_1.o(.text) refers to stm32f10x_rcc.o(.text) for RCC_APB2PeriphClockCmd
==============================================================================

Removing Unused input sections from the image.

    Removing core_cm3.o(.emb_text), (32 bytes).
    Removing system_stm32f10x.o(.rev16_text), (4 bytes).
    Removing system_stm32f10x.o(.revsh_text), (4 bytes).
    Removing stm32f10x_gpio.o(.rev16_text), (4 bytes).
    Removing stm32f10x_gpio.o(.revsh_text), (4 bytes).
    Removing stm32f10x_rcc.o(.rev16_text), (4 bytes).
    Removing stm32f10x_rcc.o(.revsh_text), (4 bytes).
    Removing stm32f10x_adc.o(.rev16_text), (4 bytes).
    Removing stm32f10x_adc.o(.revsh_text), (4 bytes).
    Removing stm32f10x_tim.o(.rev16_text), (4 bytes).
    Removing stm32f10x_tim.o(.revsh_text), (4 bytes).
    Removing stm32f10x_tim.o(.text), (3610 bytes).
    Removing lcd_1.o(.rev16_text), (4 bytes).
    Removing lcd_1.o(.revsh_text), (4 bytes).
    Removing main.o(.rev16_text), (4 bytes).
    Removing main.o(.revsh_text), (4 bytes).
    Removing stm32f10x_it.o(.rev16_text), (4 bytes).
    Removing stm32f10x_it.o(.revsh_text), (4 bytes).
==============================================================================

Image Symbol Table

    Local Symbols

    Symbol Name                              Value     Ov Type        Size  Object(Section)

    ../clib/angel/boardlib.s                 0x00000000   Number         0  boardinit3.o ABSOLUTE
    ../clib/angel/boardlib.s                 0x00000000   Number         0  boardinit2.o ABSOLUTE
    ../clib/angel/boardlib.s                 0x00000000   Number         0  boardshut.o ABSOLUTE
    ../clib/angel/boardlib.s                 0x00000000   Number         0  boardinit1.o ABSOLUTE
    ../clib/angel/handlers.s                 0x00000000   Number         0  __scatter_copy.o ABSOLUTE
    ../clib/angel/handlers.s                 0x00000000   Number         0  __scatter_zi.o ABSOLUTE
    ../clib/angel/kernel.s                   0x00000000   Number         0  rtexit2.o ABSOLUTE
    ../clib/angel/kernel.s                   0x00000000   Number         0  rtexit.o ABSOLUTE
    ../clib/angel/kernel.s                   0x00000000   Number         0  __rtentry4.o ABSOLUTE
    ../clib/angel/kernel.s                   0x00000000   Number         0  __rtentry2.o ABSOLUTE
    ../clib/angel/kernel.s                   0x00000000   Number         0  __rtentry.o ABSOLUTE
    ../clib/angel/rt.s                       0x00000000   Number         0  rt_raise.o ABSOLUTE
    ../clib/angel/rt.s                       0x00000000   Number         0  rt_locale.o ABSOLUTE
    ../clib/angel/rt.s                       0x00000000   Number         0  rt_locale_intlibspace.o ABSOLUTE
    ../clib/angel/scatter.s                  0x00000000   Number         0  __scatter.o ABSOLUTE
    ../clib/angel/startup.s                  0x00000000   Number         0  __main.o ABSOLUTE
    ../clib/angel/sys.s                      0x00000000   Number         0  sys_stackheap_outer.o ABSOLUTE
    ../clib/angel/sys.s                      0x00000000   Number         0  indicate_semi.o ABSOLUTE
    ../clib/angel/sys.s                      0x00000000   Number         0  libspace.o ABSOLUTE
    ../clib/angel/sys.s                      0x00000000   Number         0  use_no_semi.o ABSOLUTE
    ../clib/angel/sysapp.c                   0x00000000   Number         0  sys_command.o ABSOLUTE
    ../clib/angel/sysapp.c                   0x00000000   Number         0  sys_wrch.o ABSOLUTE
    ../clib/angel/sysapp.c                   0x00000000   Number         0  sys_exit.o ABSOLUTE
    ../clib/armsys.c                         0x00000000   Number         0  argv_veneer.o ABSOLUTE
    ../clib/armsys.c                         0x00000000   Number         0  no_argv.o ABSOLUTE
    ../clib/armsys.c                         0x00000000   Number         0  _get_argv_nomalloc.o ABSOLUTE
    ../clib/armsys.c                         0x00000000   Number         0  argv_veneer.o ABSOLUTE
    ../clib/bigflt.c                         0x00000000   Number         0  bigflt0.o ABSOLUTE
    ../clib/btod.s                           0x00000000   Number         0  btod.o ABSOLUTE
    ../clib/heapalloc.c                      0x00000000   Number         0  hrguard.o ABSOLUTE
    ../clib/heapaux.c                        0x00000000   Number         0  heapauxi.o ABSOLUTE
    ../clib/libinit.s                        0x00000000   Number         0  libshutdown2.o ABSOLUTE
    ../clib/libinit.s                        0x00000000   Number         0  libshutdown.o ABSOLUTE
    ../clib/libinit.s                        0x00000000   Number         0  libinit2.o ABSOLUTE
    ../clib/libinit.s                        0x00000000   Number         0  libinit.o ABSOLUTE
    ../clib/locale.s                         0x00000000   Number         0  lc_numeric_c.o ABSOLUTE
    ../clib/longlong.s                       0x00000000   Number         0  lludiv10.o ABSOLUTE
    ../clib/memcpset.s                       0x00000000   Number         0  strcmpv7m.o ABSOLUTE
    ../clib/misc.s                           0x00000000   Number         0  printf_stubs.o ABSOLUTE
    ../clib/printf.c                         0x00000000   Number         0  _printf_fp_infnan.o ABSOLUTE
    ../clib/printf.c                         0x00000000   Number         0  __printf_nopercent.o ABSOLUTE
    ../clib/printf.c                         0x00000000   Number         0  _printf_char_common.o ABSOLUTE
    ../clib/printf.c                         0x00000000   Number         0  _printf_dec.o ABSOLUTE
    ../clib/printf.c                         0x00000000   Number         0  _printf_fp_dec.o ABSOLUTE
    ../clib/printf.c                         0x00000000   Number         0  _printf_intcommon.o ABSOLUTE
    ../clib/printf.c                         0x00000000   Number         0  _sputc.o ABSOLUTE
    ../clib/printf.c                         0x00000000   Number         0  __printf_flags.o ABSOLUTE
    ../clib/printf.c                         0x00000000   Number         0  __printf_ss.o ABSOLUTE
    ../clib/printf.c                         0x00000000   Number         0  __printf_flags_ss_wp.o ABSOLUTE
    ../clib/printf.c                         0x00000000   Number         0  __printf_ss_wp.o ABSOLUTE
    ../clib/printf.c                         0x00000000   Number         0  __printf_flags_wp.o ABSOLUTE
    ../clib/printf.c                         0x00000000   Number         0  __2sprintf.o ABSOLUTE
    ../clib/printf.c                         0x00000000   Number         0  noretval__2sprintf.o ABSOLUTE
    ../clib/printf.c                         0x00000000   Number         0  __printf_wp.o ABSOLUTE
    ../clib/printf.c                         0x00000000   Number         0  __printf.o ABSOLUTE
    ../clib/printf.c                         0x00000000   Number         0  _printf_pad.o ABSOLUTE
    ../clib/printf.c                         0x00000000   Number         0  __printf_flags_ss.o ABSOLUTE
    ../clib/printf_percent.s                 0x00000000   Number         0  _printf_percent_end.o ABSOLUTE
    ../clib/printf_percent.s                 0x00000000   Number         0  _printf_f.o ABSOLUTE
    ../clib/printf_percent.s                 0x00000000   Number         0  _printf_d.o ABSOLUTE
    ../clib/printf_percent.s                 0x00000000   Number         0  _printf_percent.o ABSOLUTE
    ../clib/signal.c                         0x00000000   Number         0  defsig_stak_inner.o ABSOLUTE
    ../clib/signal.c                         0x00000000   Number         0  defsig_rtred_inner.o ABSOLUTE
    ../clib/signal.c                         0x00000000   Number         0  defsig_fpe_inner.o ABSOLUTE
    ../clib/signal.c                         0x00000000   Number         0  defsig_abrt_inner.o ABSOLUTE
    ../clib/signal.c                         0x00000000   Number         0  defsig_rtmem_outer.o ABSOLUTE
    ../clib/signal.c                         0x00000000   Number         0  defsig_general.o ABSOLUTE
    ../clib/signal.c                         0x00000000   Number         0  defsig_rtmem_formal.o ABSOLUTE
    ../clib/signal.c                         0x00000000   Number         0  __raise.o ABSOLUTE
    ../clib/signal.c                         0x00000000   Number         0  defsig_rtmem_inner.o ABSOLUTE
    ../clib/signal.c                         0x00000000   Number         0  defsig_exit.o ABSOLUTE
    ../clib/signal.c                         0x00000000   Number         0  defsig_pvfn_inner.o ABSOLUTE
    ../clib/signal.c                         0x00000000   Number         0  defsig_cppl_inner.o ABSOLUTE
    ../clib/signal.c                         0x00000000   Number         0  defsig_segv_inner.o ABSOLUTE
    ../clib/signal.c                         0x00000000   Number         0  defsig_other.o ABSOLUTE
    ../clib/signal.s                         0x00000000   Number         0  defsig.o ABSOLUTE
    ../clib/stdlib.c                         0x00000000   Number         0  exit.o ABSOLUTE
    ../fplib/daddsub.s                       0x00000000   Number         0  daddsub_clz.o ABSOLUTE
    ../fplib/dcmpi.s                         0x00000000   Number         0  dcmpi.o ABSOLUTE
    ../fplib/ddiv.s                          0x00000000   Number         0  ddiv.o ABSOLUTE
    ../fplib/dflt.s                          0x00000000   Number         0  dflt_clz.o ABSOLUTE
    ../fplib/dleqf.s                         0x00000000   Number         0  dleqf.o ABSOLUTE
    ../fplib/dmul.s                          0x00000000   Number         0  dmul.o ABSOLUTE
    ../fplib/dnaninf.s                       0x00000000   Number         0  dnaninf.o ABSOLUTE
    ../fplib/dretinf.s                       0x00000000   Number         0  dretinf.o ABSOLUTE
    ../fplib/drleqf.s                        0x00000000   Number         0  drleqf.o ABSOLUTE
    ../fplib/fpinit.s                        0x00000000   Number         0  fpinit.o ABSOLUTE
    ../fplib/istatus.s                       0x00000000   Number         0  istatus.o ABSOLUTE
    ../fplib/printf1.s                       0x00000000   Number         0  printf1.o ABSOLUTE
    ../fplib/usenofp.s                       0x00000000   Number         0  usenofp.o ABSOLUTE
    ../mathlib/fpclassify.c                  0x00000000   Number         0  fpclassify.o ABSOLUTE
    ..\..\..\第十届省赛真题\十届真题1.1\Sre\adc.c 0x00000000   Number         0  adc.o ABSOLUTE
    ..\Libraries\CMSIS\CM3\CoreSupport\core_cm3.c 0x00000000   Number         0  core_cm3.o ABSOLUTE
    ..\Libraries\CMSIS\CM3\DeviceSupport\ST\STM32F10x\startup\arm\startup_stm32f10x_md.s 0x00000000   Number         0  startup_stm32f10x_md.o ABSOLUTE
    ..\Libraries\CMSIS\CM3\DeviceSupport\ST\STM32F10x\system_stm32f10x.c 0x00000000   Number         0  system_stm32f10x.o ABSOLUTE
    ..\Libraries\STM32F10x_StdPeriph_Driver\src\stm32f10x_adc.c 0x00000000   Number         0  stm32f10x_adc.o ABSOLUTE
    ..\Libraries\STM32F10x_StdPeriph_Driver\src\stm32f10x_gpio.c 0x00000000   Number         0  stm32f10x_gpio.o ABSOLUTE
    ..\Libraries\STM32F10x_StdPeriph_Driver\src\stm32f10x_rcc.c 0x00000000   Number         0  stm32f10x_rcc.o ABSOLUTE
    ..\Libraries\STM32F10x_StdPeriph_Driver\src\stm32f10x_tim.c 0x00000000   Number         0  stm32f10x_tim.o ABSOLUTE
    ..\Sre\iic.c                             0x00000000   Number         0  iic.o ABSOLUTE
    ..\Sre\key.c                             0x00000000   Number         0  key.o ABSOLUTE
    ..\Sre\lcd.c                             0x00000000   Number         0  lcd_1.o ABSOLUTE
    ..\Sre\led.c                             0x00000000   Number         0  led.o ABSOLUTE
    ..\Sre\main.c                            0x00000000   Number         0  main.o ABSOLUTE
    ..\Sre\stm32f10x_it.c                    0x00000000   Number         0  stm32f10x_it.o ABSOLUTE
    ..\\..\\..\\\265\332\312\256\275\354\312\241\310\374\325\346\314\342\\\312\256\275\354\325\346\314\3421.1\\Sre\\adc.c 0x00000000   Number         0  adc.o ABSOLUTE
    ..\\Libraries\\CMSIS\\CM3\\CoreSupport\\core_cm3.c 0x00000000   Number         0  core_cm3.o ABSOLUTE
    ..\\Libraries\\CMSIS\\CM3\\DeviceSupport\\ST\\STM32F10x\\system_stm32f10x.c 0x00000000   Number         0  system_stm32f10x.o ABSOLUTE
    ..\\Libraries\\STM32F10x_StdPeriph_Driver\\src\\stm32f10x_adc.c 0x00000000   Number         0  stm32f10x_adc.o ABSOLUTE
    ..\\Libraries\\STM32F10x_StdPeriph_Driver\\src\\stm32f10x_gpio.c 0x00000000   Number         0  stm32f10x_gpio.o ABSOLUTE
    ..\\Libraries\\STM32F10x_StdPeriph_Driver\\src\\stm32f10x_rcc.c 0x00000000   Number         0  stm32f10x_rcc.o ABSOLUTE
    ..\\Libraries\\STM32F10x_StdPeriph_Driver\\src\\stm32f10x_tim.c 0x00000000   Number         0  stm32f10x_tim.o ABSOLUTE
    ..\\Sre\\iic.c                           0x00000000   Number         0  iic.o ABSOLUTE
    ..\\Sre\\key.c                           0x00000000   Number         0  key.o ABSOLUTE
    ..\\Sre\\lcd.c                           0x00000000   Number         0  lcd_1.o ABSOLUTE
    ..\\Sre\\led.c                           0x00000000   Number         0  led.o ABSOLUTE
    ..\\Sre\\main.c                          0x00000000   Number         0  main.o ABSOLUTE
    ..\\Sre\\stm32f10x_it.c                  0x00000000   Number         0  stm32f10x_it.o ABSOLUTE
    dc.s                                     0x00000000   Number         0  dc.o ABSOLUTE
    RESET                                    0x08000000   Section      236  startup_stm32f10x_md.o(RESET)
    !!!main                                  0x080000ec   Section        8  __main.o(!!!main)
    !!!scatter                               0x080000f4   Section       52  __scatter.o(!!!scatter)
    !!handler_copy                           0x08000128   Section       26  __scatter_copy.o(!!handler_copy)
    !!handler_zi                             0x08000144   Section       28  __scatter_zi.o(!!handler_zi)
    .ARM.Collect$$_printf_percent$$00000000  0x08000160   Section        0  _printf_percent.o(.ARM.Collect$$_printf_percent$$00000000)
    .ARM.Collect$$_printf_percent$$00000003  0x08000160   Section        6  _printf_f.o(.ARM.Collect$$_printf_percent$$00000003)
    .ARM.Collect$$_printf_percent$$00000009  0x08000166   Section        6  _printf_d.o(.ARM.Collect$$_printf_percent$$00000009)
    .ARM.Collect$$_printf_percent$$00000017  0x0800016c   Section        4  _printf_percent_end.o(.ARM.Collect$$_printf_percent$$00000017)
    .ARM.Collect$$libinit$$00000000          0x08000170   Section        2  libinit.o(.ARM.Collect$$libinit$$00000000)
    .ARM.Collect$$libinit$$00000002          0x08000172   Section        0  libinit2.o(.ARM.Collect$$libinit$$00000002)
    .ARM.Collect$$libinit$$00000004          0x08000172   Section        0  libinit2.o(.ARM.Collect$$libinit$$00000004)
    .ARM.Collect$$libinit$$0000000A          0x08000172   Section        0  libinit2.o(.ARM.Collect$$libinit$$0000000A)
    .ARM.Collect$$libinit$$0000000C          0x08000172   Section        0  libinit2.o(.ARM.Collect$$libinit$$0000000C)
    .ARM.Collect$$libinit$$0000000E          0x08000172   Section        0  libinit2.o(.ARM.Collect$$libinit$$0000000E)
    .ARM.Collect$$libinit$$0000000F          0x08000172   Section        6  libinit2.o(.ARM.Collect$$libinit$$0000000F)
    .ARM.Collect$$libinit$$00000011          0x08000178   Section        0  libinit2.o(.ARM.Collect$$libinit$$00000011)
    .ARM.Collect$$libinit$$00000013          0x08000178   Section        0  libinit2.o(.ARM.Collect$$libinit$$00000013)
    .ARM.Collect$$libinit$$00000015          0x08000178   Section        0  libinit2.o(.ARM.Collect$$libinit$$00000015)
    .ARM.Collect$$libinit$$00000016          0x08000178   Section       10  libinit2.o(.ARM.Collect$$libinit$$00000016)
    .ARM.Collect$$libinit$$00000017          0x08000182   Section        0  libinit2.o(.ARM.Collect$$libinit$$00000017)
    .ARM.Collect$$libinit$$00000019          0x08000182   Section        0  libinit2.o(.ARM.Collect$$libinit$$00000019)
    .ARM.Collect$$libinit$$0000001B          0x08000182   Section        0  libinit2.o(.ARM.Collect$$libinit$$0000001B)
    .ARM.Collect$$libinit$$0000001D          0x08000182   Section        0  libinit2.o(.ARM.Collect$$libinit$$0000001D)
    .ARM.Collect$$libinit$$0000001F          0x08000182   Section        0  libinit2.o(.ARM.Collect$$libinit$$0000001F)
    .ARM.Collect$$libinit$$00000021          0x08000182   Section        0  libinit2.o(.ARM.Collect$$libinit$$00000021)
    .ARM.Collect$$libinit$$00000023          0x08000182   Section        0  libinit2.o(.ARM.Collect$$libinit$$00000023)
    .ARM.Collect$$libinit$$00000025          0x08000182   Section        0  libinit2.o(.ARM.Collect$$libinit$$00000025)
    .ARM.Collect$$libinit$$0000002C          0x08000182   Section        0  libinit2.o(.ARM.Collect$$libinit$$0000002C)
    .ARM.Collect$$libinit$$0000002E          0x08000182   Section        0  libinit2.o(.ARM.Collect$$libinit$$0000002E)
    .ARM.Collect$$libinit$$00000030          0x08000182   Section        0  libinit2.o(.ARM.Collect$$libinit$$00000030)
    .ARM.Collect$$libinit$$00000032          0x08000182   Section        0  libinit2.o(.ARM.Collect$$libinit$$00000032)
    .ARM.Collect$$libinit$$00000033          0x08000182   Section        2  libinit2.o(.ARM.Collect$$libinit$$00000033)
    .ARM.Collect$$libshutdown$$00000000      0x08000184   Section        2  libshutdown.o(.ARM.Collect$$libshutdown$$00000000)
    .ARM.Collect$$libshutdown$$00000002      0x08000186   Section        0  libshutdown2.o(.ARM.Collect$$libshutdown$$00000002)
    .ARM.Collect$$libshutdown$$00000004      0x08000186   Section        0  libshutdown2.o(.ARM.Collect$$libshutdown$$00000004)
    .ARM.Collect$$libshutdown$$00000007      0x08000186   Section        0  libshutdown2.o(.ARM.Collect$$libshutdown$$00000007)
    .ARM.Collect$$libshutdown$$0000000A      0x08000186   Section        0  libshutdown2.o(.ARM.Collect$$libshutdown$$0000000A)
    .ARM.Collect$$libshutdown$$0000000C      0x08000186   Section        0  libshutdown2.o(.ARM.Collect$$libshutdown$$0000000C)
    .ARM.Collect$$libshutdown$$0000000F      0x08000186   Section        0  libshutdown2.o(.ARM.Collect$$libshutdown$$0000000F)
    .ARM.Collect$$libshutdown$$00000010      0x08000186   Section        2  libshutdown2.o(.ARM.Collect$$libshutdown$$00000010)
    .ARM.Collect$$rtentry$$00000000          0x08000188   Section        0  __rtentry.o(.ARM.Collect$$rtentry$$00000000)
    .ARM.Collect$$rtentry$$00000002          0x08000188   Section        0  __rtentry2.o(.ARM.Collect$$rtentry$$00000002)
    .ARM.Collect$$rtentry$$00000004          0x08000188   Section        6  __rtentry4.o(.ARM.Collect$$rtentry$$00000004)
    .ARM.Collect$$rtentry$$00000009          0x0800018e   Section        0  __rtentry2.o(.ARM.Collect$$rtentry$$00000009)
    .ARM.Collect$$rtentry$$0000000A          0x0800018e   Section        4  __rtentry2.o(.ARM.Collect$$rtentry$$0000000A)
    .ARM.Collect$$rtentry$$0000000C          0x08000192   Section        0  __rtentry2.o(.ARM.Collect$$rtentry$$0000000C)
    .ARM.Collect$$rtentry$$0000000D          0x08000192   Section        8  __rtentry2.o(.ARM.Collect$$rtentry$$0000000D)
    .ARM.Collect$$rtexit$$00000000           0x0800019a   Section        2  rtexit.o(.ARM.Collect$$rtexit$$00000000)
    .ARM.Collect$$rtexit$$00000002           0x0800019c   Section        0  rtexit2.o(.ARM.Collect$$rtexit$$00000002)
    .ARM.Collect$$rtexit$$00000003           0x0800019c   Section        4  rtexit2.o(.ARM.Collect$$rtexit$$00000003)
    .ARM.Collect$$rtexit$$00000004           0x080001a0   Section        6  rtexit2.o(.ARM.Collect$$rtexit$$00000004)
    .text                                    0x080001a8   Section       64  startup_stm32f10x_md.o(.text)
    .text                                    0x080001e8   Section        0  system_stm32f10x.o(.text)
    SetSysClockTo72                          0x080001e9   Thumb Code   214  system_stm32f10x.o(.text)
    SetSysClock                              0x080002bf   Thumb Code     8  system_stm32f10x.o(.text)
    .text                                    0x080003c8   Section        0  stm32f10x_gpio.o(.text)
    .text                                    0x08000724   Section        0  stm32f10x_rcc.o(.text)
    .text                                    0x08000ac8   Section        0  stm32f10x_adc.o(.text)
    .text                                    0x08000f18   Section        0  lcd_1.o(.text)
    .text                                    0x08001924   Section        0  main.o(.text)
    .text                                    0x08001ef4   Section        0  stm32f10x_it.o(.text)
    .text                                    0x08001fc4   Section        0  iic.o(.text)
    .text                                    0x0800225c   Section        0  led.o(.text)
    .text                                    0x080022e0   Section        0  key.o(.text)
    .text                                    0x0800238c   Section        0  adc.o(.text)
    .text                                    0x08002460   Section        0  noretval__2sprintf.o(.text)
    .text                                    0x08002488   Section        0  _printf_pad.o(.text)
    .text                                    0x080024d8   Section        0  _printf_dec.o(.text)
    .text                                    0x08002550   Section        0  __printf_wp.o(.text)
    .text                                    0x0800265e   Section        0  heapauxi.o(.text)
    .text                                    0x08002664   Section        0  _printf_intcommon.o(.text)
    .text                                    0x08002716   Section        0  _printf_fp_dec.o(.text)
    _fp_digits                               0x08002719   Thumb Code   428  _printf_fp_dec.o(.text)
    .text                                    0x08002b30   Section        0  _printf_char_common.o(.text)
    _printf_input_char                       0x08002b31   Thumb Code    10  _printf_char_common.o(.text)
    .text                                    0x08002b60   Section        0  _sputc.o(.text)
    .text                                    0x08002b6c   Section        8  rt_locale_intlibspace.o(.text)
    .text                                    0x08002b74   Section      138  lludiv10.o(.text)
    .text                                    0x08002c00   Section        0  _printf_fp_infnan.o(.text)
    .text                                    0x08002c80   Section        0  bigflt0.o(.text)
    .text                                    0x08002d5c   Section        8  libspace.o(.text)
    .text                                    0x08002d64   Section       74  sys_stackheap_outer.o(.text)
    .text                                    0x08002dae   Section        0  exit.o(.text)
    .text                                    0x08002dc0   Section      128  strcmpv7m.o(.text)
    .text                                    0x08002e40   Section        0  sys_exit.o(.text)
    .text                                    0x08002e4c   Section        2  use_no_semi.o(.text)
    .text                                    0x08002e4e   Section        0  indicate_semi.o(.text)
    CL$$btod_d2e                             0x08002e4e   Section       62  btod.o(CL$$btod_d2e)
    CL$$btod_d2e_denorm_low                  0x08002e8c   Section       70  btod.o(CL$$btod_d2e_denorm_low)
    CL$$btod_d2e_norm_op1                    0x08002ed2   Section       96  btod.o(CL$$btod_d2e_norm_op1)
    CL$$btod_div_common                      0x08002f32   Section      824  btod.o(CL$$btod_div_common)
    CL$$btod_e2e                             0x0800326a   Section      198  btod.o(CL$$btod_e2e)
    CL$$btod_ediv                            0x08003330   Section       40  btod.o(CL$$btod_ediv)
    CL$$btod_emul                            0x08003358   Section       40  btod.o(CL$$btod_emul)
    CL$$btod_mult_common                     0x08003380   Section      580  btod.o(CL$$btod_mult_common)
    i.__ARM_fpclassify                       0x080035c4   Section        0  fpclassify.o(i.__ARM_fpclassify)
    i._is_digit                              0x080035ec   Section        0  __printf_wp.o(i._is_digit)
    locale$$code                             0x080035fc   Section       44  lc_numeric_c.o(locale$$code)
    x$fpl$dadd                               0x08003628   Section      336  daddsub_clz.o(x$fpl$dadd)
    _dadd1                                   0x08003639   Thumb Code     0  daddsub_clz.o(x$fpl$dadd)
    x$fpl$dcmpinf                            0x08003778   Section       24  dcmpi.o(x$fpl$dcmpinf)
    x$fpl$ddiv                               0x08003790   Section      688  ddiv.o(x$fpl$ddiv)
    ddiv_entry                               0x08003797   Thumb Code     0  ddiv.o(x$fpl$ddiv)
    x$fpl$dfltu                              0x08003a40   Section       38  dflt_clz.o(x$fpl$dfltu)
    x$fpl$dleqf                              0x08003a68   Section      120  dleqf.o(x$fpl$dleqf)
    x$fpl$dmul                               0x08003ae0   Section      340  dmul.o(x$fpl$dmul)
    x$fpl$dnaninf                            0x08003c34   Section      156  dnaninf.o(x$fpl$dnaninf)
    x$fpl$dretinf                            0x08003cd0   Section       12  dretinf.o(x$fpl$dretinf)
    x$fpl$drleqf                             0x08003cdc   Section      108  drleqf.o(x$fpl$drleqf)
    x$fpl$dsub                               0x08003d48   Section      468  daddsub_clz.o(x$fpl$dsub)
    _dsub1                                   0x08003d59   Thumb Code     0  daddsub_clz.o(x$fpl$dsub)
    x$fpl$printf1                            0x08003f1c   Section        4  printf1.o(x$fpl$printf1)
    .constdata                               0x08003f20   Section     4560  lcd_1.o(.constdata)
    x$fpl$usenofp                            0x08003f20   Section        0  usenofp.o(x$fpl$usenofp)
    .constdata                               0x080050f0   Section      148  bigflt0.o(.constdata)
    tenpwrs_x                                0x080050f0   Data          60  bigflt0.o(.constdata)
    tenpwrs_i                                0x0800512c   Data          64  bigflt0.o(.constdata)
    locale$$data                             0x080051a4   Section       28  lc_numeric_c.o(locale$$data)
    __lcnum_c_name                           0x080051a8   Data           2  lc_numeric_c.o(locale$$data)
    __lcnum_c_start                          0x080051b0   Data           0  lc_numeric_c.o(locale$$data)
    __lcnum_c_point                          0x080051bc   Data           0  lc_numeric_c.o(locale$$data)
    __lcnum_c_thousands                      0x080051be   Data           0  lc_numeric_c.o(locale$$data)
    __lcnum_c_grouping                       0x080051bf   Data           0  lc_numeric_c.o(locale$$data)
    __lcnum_c_end                            0x080051c0   Data           0  lc_numeric_c.o(locale$$data)
    .data                                    0x20000000   Section       20  system_stm32f10x.o(.data)
    .data                                    0x20000014   Section       20  stm32f10x_rcc.o(.data)
    APBAHBPrescTable                         0x20000014   Data          16  stm32f10x_rcc.o(.data)
    ADCPrescTable                            0x20000024   Data           4  stm32f10x_rcc.o(.data)
    .data                                    0x20000028   Section        6  lcd_1.o(.data)
    TextColor                                0x20000028   Data           2  lcd_1.o(.data)
    BackColor                                0x2000002a   Data           2  lcd_1.o(.data)
    .data                                    0x20000030   Section       68  main.o(.data)
    .data                                    0x20000074   Section       12  stm32f10x_it.o(.data)
    .bss                                     0x20000080   Section      640  main.o(.bss)
    .bss                                     0x20000300   Section       96  libspace.o(.bss)
    HEAP                                     0x20000360   Section      512  startup_stm32f10x_md.o(HEAP)
    Heap_Mem                                 0x20000360   Data         512  startup_stm32f10x_md.o(HEAP)
    STACK                                    0x20000560   Section     1024  startup_stm32f10x_md.o(STACK)
    Stack_Mem                                0x20000560   Data        1024  startup_stm32f10x_md.o(STACK)
    __initial_sp                             0x20000960   Data           0  startup_stm32f10x_md.o(STACK)

    Global Symbols

    Symbol Name                              Value     Ov Type        Size  Object(Section)

    BuildAttributes$$THM_ISAv4$P$D$K$B$S$PE$A:L22UL41UL21$X:L11$S22US41US21$IEEE1$IW$USESV6$~STKCKD$USESV7$~SHL$OTIME$ROPI$IEEEJ$EBA8$UX$STANDARDLIB$REQ8$PRES8$EABIv2 0x00000000   Number         0  anon$$obj.o ABSOLUTE
    __ARM_use_no_argv                        0x00000000   Number         0  main.o ABSOLUTE
    _printf_flags                            0x00000000   Number         0  printf_stubs.o ABSOLUTE
    _printf_return_value                     0x00000000   Number         0  printf_stubs.o ABSOLUTE
    _printf_sizespec                         0x00000000   Number         0  printf_stubs.o ABSOLUTE
    _printf_widthprec                        0x00000000   Number         0  printf_stubs.o ABSOLUTE
    __ARM_exceptions_init                     - Undefined Weak Reference
    __alloca_initialize                       - Undefined Weak Reference
    __arm_preinit_                            - Undefined Weak Reference
    __cpp_initialize__aeabi_                  - Undefined Weak Reference
    __cxa_finalize                            - Undefined Weak Reference
    __sigvec_lookup                           - Undefined Weak Reference
    _atexit_init                              - Undefined Weak Reference
    _call_atexit_fns                          - Undefined Weak Reference
    _clock_init                               - Undefined Weak Reference
    _fp_trap_init                             - Undefined Weak Reference
    _fp_trap_shutdown                         - Undefined Weak Reference
    _get_lc_collate                           - Undefined Weak Reference
    _get_lc_ctype                             - Undefined Weak Reference
    _get_lc_monetary                          - Undefined Weak Reference
    _get_lc_time                              - Undefined Weak Reference
    _getenv_init                              - Undefined Weak Reference
    _handle_redirection                       - Undefined Weak Reference
    _init_alloc                               - Undefined Weak Reference
    _init_user_alloc                          - Undefined Weak Reference
    _initio                                   - Undefined Weak Reference
    _printf_truncate_signed                   - Undefined Weak Reference
    _printf_truncate_unsigned                 - Undefined Weak Reference
    _rand_init                                - Undefined Weak Reference
    _signal_finish                            - Undefined Weak Reference
    _signal_init                              - Undefined Weak Reference
    _terminate_alloc                          - Undefined Weak Reference
    _terminate_user_alloc                     - Undefined Weak Reference
    _terminateio                              - Undefined Weak Reference
    __Vectors_Size                           0x000000ec   Number         0  startup_stm32f10x_md.o ABSOLUTE
    __Vectors                                0x08000000   Data           4  startup_stm32f10x_md.o(RESET)
    __Vectors_End                            0x080000ec   Data           0  startup_stm32f10x_md.o(RESET)
    __main                                   0x080000ed   Thumb Code     8  __main.o(!!!main)
    __scatterload                            0x080000f5   Thumb Code     0  __scatter.o(!!!scatter)
    __scatterload_rt2                        0x080000f5   Thumb Code    44  __scatter.o(!!!scatter)
    __scatterload_rt2_thumb_only             0x080000f5   Thumb Code     0  __scatter.o(!!!scatter)
    __scatterload_null                       0x08000103   Thumb Code     0  __scatter.o(!!!scatter)
    __scatterload_copy                       0x08000129   Thumb Code    26  __scatter_copy.o(!!handler_copy)
    __scatterload_zeroinit                   0x08000145   Thumb Code    28  __scatter_zi.o(!!handler_zi)
    _printf_f                                0x08000161   Thumb Code     0  _printf_f.o(.ARM.Collect$$_printf_percent$$00000003)
    _printf_percent                          0x08000161   Thumb Code     0  _printf_percent.o(.ARM.Collect$$_printf_percent$$00000000)
    _printf_d                                0x08000167   Thumb Code     0  _printf_d.o(.ARM.Collect$$_printf_percent$$00000009)
    _printf_percent_end                      0x0800016d   Thumb Code     0  _printf_percent_end.o(.ARM.Collect$$_printf_percent$$00000017)
    __rt_lib_init                            0x08000171   Thumb Code     0  libinit.o(.ARM.Collect$$libinit$$00000000)
    __rt_lib_init_fp_1                       0x08000173   Thumb Code     0  libinit2.o(.ARM.Collect$$libinit$$00000002)
    __rt_lib_init_heap_1                     0x08000173   Thumb Code     0  libinit2.o(.ARM.Collect$$libinit$$0000000A)
    __rt_lib_init_lc_common                  0x08000173   Thumb Code     0  libinit2.o(.ARM.Collect$$libinit$$0000000F)
    __rt_lib_init_preinit_1                  0x08000173   Thumb Code     0  libinit2.o(.ARM.Collect$$libinit$$00000004)
    __rt_lib_init_rand_1                     0x08000173   Thumb Code     0  libinit2.o(.ARM.Collect$$libinit$$0000000E)
    __rt_lib_init_user_alloc_1               0x08000173   Thumb Code     0  libinit2.o(.ARM.Collect$$libinit$$0000000C)
    __rt_lib_init_lc_collate_1               0x08000179   Thumb Code     0  libinit2.o(.ARM.Collect$$libinit$$00000011)
    __rt_lib_init_lc_ctype_1                 0x08000179   Thumb Code     0  libinit2.o(.ARM.Collect$$libinit$$00000013)
    __rt_lib_init_lc_monetary_1              0x08000179   Thumb Code     0  libinit2.o(.ARM.Collect$$libinit$$00000015)
    __rt_lib_init_lc_numeric_2               0x08000179   Thumb Code     0  libinit2.o(.ARM.Collect$$libinit$$00000016)
    __rt_lib_init_alloca_1                   0x08000183   Thumb Code     0  libinit2.o(.ARM.Collect$$libinit$$0000002E)
    __rt_lib_init_argv_1                     0x08000183   Thumb Code     0  libinit2.o(.ARM.Collect$$libinit$$0000002C)
    __rt_lib_init_atexit_1                   0x08000183   Thumb Code     0  libinit2.o(.ARM.Collect$$libinit$$0000001B)
    __rt_lib_init_clock_1                    0x08000183   Thumb Code     0  libinit2.o(.ARM.Collect$$libinit$$00000021)
    __rt_lib_init_cpp_1                      0x08000183   Thumb Code     0  libinit2.o(.ARM.Collect$$libinit$$00000032)
    __rt_lib_init_exceptions_1               0x08000183   Thumb Code     0  libinit2.o(.ARM.Collect$$libinit$$00000030)
    __rt_lib_init_fp_trap_1                  0x08000183   Thumb Code     0  libinit2.o(.ARM.Collect$$libinit$$0000001F)
    __rt_lib_init_getenv_1                   0x08000183   Thumb Code     0  libinit2.o(.ARM.Collect$$libinit$$00000023)
    __rt_lib_init_lc_numeric_1               0x08000183   Thumb Code     0  libinit2.o(.ARM.Collect$$libinit$$00000017)
    __rt_lib_init_lc_time_1                  0x08000183   Thumb Code     0  libinit2.o(.ARM.Collect$$libinit$$00000019)
    __rt_lib_init_return                     0x08000183   Thumb Code     0  libinit2.o(.ARM.Collect$$libinit$$00000033)
    __rt_lib_init_signal_1                   0x08000183   Thumb Code     0  libinit2.o(.ARM.Collect$$libinit$$0000001D)
    __rt_lib_init_stdio_1                    0x08000183   Thumb Code     0  libinit2.o(.ARM.Collect$$libinit$$00000025)
    __rt_lib_shutdown                        0x08000185   Thumb Code     0  libshutdown.o(.ARM.Collect$$libshutdown$$00000000)
    __rt_lib_shutdown_cpp_1                  0x08000187   Thumb Code     0  libshutdown2.o(.ARM.Collect$$libshutdown$$00000002)
    __rt_lib_shutdown_fp_trap_1              0x08000187   Thumb Code     0  libshutdown2.o(.ARM.Collect$$libshutdown$$00000007)
    __rt_lib_shutdown_heap_1                 0x08000187   Thumb Code     0  libshutdown2.o(.ARM.Collect$$libshutdown$$0000000F)
    __rt_lib_shutdown_return                 0x08000187   Thumb Code     0  libshutdown2.o(.ARM.Collect$$libshutdown$$00000010)
    __rt_lib_shutdown_signal_1               0x08000187   Thumb Code     0  libshutdown2.o(.ARM.Collect$$libshutdown$$0000000A)
    __rt_lib_shutdown_stdio_1                0x08000187   Thumb Code     0  libshutdown2.o(.ARM.Collect$$libshutdown$$00000004)
    __rt_lib_shutdown_user_alloc_1           0x08000187   Thumb Code     0  libshutdown2.o(.ARM.Collect$$libshutdown$$0000000C)
    __rt_entry                               0x08000189   Thumb Code     0  __rtentry.o(.ARM.Collect$$rtentry$$00000000)
    __rt_entry_presh_1                       0x08000189   Thumb Code     0  __rtentry2.o(.ARM.Collect$$rtentry$$00000002)
    __rt_entry_sh                            0x08000189   Thumb Code     0  __rtentry4.o(.ARM.Collect$$rtentry$$00000004)
    __rt_entry_li                            0x0800018f   Thumb Code     0  __rtentry2.o(.ARM.Collect$$rtentry$$0000000A)
    __rt_entry_postsh_1                      0x0800018f   Thumb Code     0  __rtentry2.o(.ARM.Collect$$rtentry$$00000009)
    __rt_entry_main                          0x08000193   Thumb Code     0  __rtentry2.o(.ARM.Collect$$rtentry$$0000000D)
    __rt_entry_postli_1                      0x08000193   Thumb Code     0  __rtentry2.o(.ARM.Collect$$rtentry$$0000000C)
    __rt_exit                                0x0800019b   Thumb Code     0  rtexit.o(.ARM.Collect$$rtexit$$00000000)
    __rt_exit_ls                             0x0800019d   Thumb Code     0  rtexit2.o(.ARM.Collect$$rtexit$$00000003)
    __rt_exit_prels_1                        0x0800019d   Thumb Code     0  rtexit2.o(.ARM.Collect$$rtexit$$00000002)
    __rt_exit_exit                           0x080001a1   Thumb Code     0  rtexit2.o(.ARM.Collect$$rtexit$$00000004)
    Reset_Handler                            0x080001a9   Thumb Code     8  startup_stm32f10x_md.o(.text)
    ADC1_2_IRQHandler                        0x080001c3   Thumb Code     0  startup_stm32f10x_md.o(.text)
    CAN1_RX1_IRQHandler                      0x080001c3   Thumb Code     0  startup_stm32f10x_md.o(.text)
    CAN1_SCE_IRQHandler                      0x080001c3   Thumb Code     0  startup_stm32f10x_md.o(.text)
    DMA1_Channel1_IRQHandler                 0x080001c3   Thumb Code     0  startup_stm32f10x_md.o(.text)
    DMA1_Channel2_IRQHandler                 0x080001c3   Thumb Code     0  startup_stm32f10x_md.o(.text)
    DMA1_Channel3_IRQHandler                 0x080001c3   Thumb Code     0  startup_stm32f10x_md.o(.text)
    DMA1_Channel4_IRQHandler                 0x080001c3   Thumb Code     0  startup_stm32f10x_md.o(.text)
    DMA1_Channel5_IRQHandler                 0x080001c3   Thumb Code     0  startup_stm32f10x_md.o(.text)
    DMA1_Channel6_IRQHandler                 0x080001c3   Thumb Code     0  startup_stm32f10x_md.o(.text)
    DMA1_Channel7_IRQHandler                 0x080001c3   Thumb Code     0  startup_stm32f10x_md.o(.text)
    EXTI0_IRQHandler                         0x080001c3   Thumb Code     0  startup_stm32f10x_md.o(.text)
    EXTI15_10_IRQHandler                     0x080001c3   Thumb Code     0  startup_stm32f10x_md.o(.text)
    EXTI1_IRQHandler                         0x080001c3   Thumb Code     0  startup_stm32f10x_md.o(.text)
    EXTI2_IRQHandler                         0x080001c3   Thumb Code     0  startup_stm32f10x_md.o(.text)
    EXTI3_IRQHandler                         0x080001c3   Thumb Code     0  startup_stm32f10x_md.o(.text)
    EXTI4_IRQHandler                         0x080001c3   Thumb Code     0  startup_stm32f10x_md.o(.text)
    EXTI9_5_IRQHandler                       0x080001c3   Thumb Code     0  startup_stm32f10x_md.o(.text)
    FLASH_IRQHandler                         0x080001c3   Thumb Code     0  startup_stm32f10x_md.o(.text)
    I2C1_ER_IRQHandler                       0x080001c3   Thumb Code     0  startup_stm32f10x_md.o(.text)
    I2C1_EV_IRQHandler                       0x080001c3   Thumb Code     0  startup_stm32f10x_md.o(.text)
    I2C2_ER_IRQHandler                       0x080001c3   Thumb Code     0  startup_stm32f10x_md.o(.text)
    I2C2_EV_IRQHandler                       0x080001c3   Thumb Code     0  startup_stm32f10x_md.o(.text)
    PVD_IRQHandler                           0x080001c3   Thumb Code     0  startup_stm32f10x_md.o(.text)
    RCC_IRQHandler                           0x080001c3   Thumb Code     0  startup_stm32f10x_md.o(.text)
    RTCAlarm_IRQHandler                      0x080001c3   Thumb Code     0  startup_stm32f10x_md.o(.text)
    RTC_IRQHandler                           0x080001c3   Thumb Code     0  startup_stm32f10x_md.o(.text)
    SPI1_IRQHandler                          0x080001c3   Thumb Code     0  startup_stm32f10x_md.o(.text)
    SPI2_IRQHandler                          0x080001c3   Thumb Code     0  startup_stm32f10x_md.o(.text)
    TAMPER_IRQHandler                        0x080001c3   Thumb Code     0  startup_stm32f10x_md.o(.text)
    TIM1_BRK_IRQHandler                      0x080001c3   Thumb Code     0  startup_stm32f10x_md.o(.text)
    TIM1_CC_IRQHandler                       0x080001c3   Thumb Code     0  startup_stm32f10x_md.o(.text)
    TIM1_TRG_COM_IRQHandler                  0x080001c3   Thumb Code     0  startup_stm32f10x_md.o(.text)
    TIM1_UP_IRQHandler                       0x080001c3   Thumb Code     0  startup_stm32f10x_md.o(.text)
    TIM2_IRQHandler                          0x080001c3   Thumb Code     0  startup_stm32f10x_md.o(.text)
    TIM3_IRQHandler                          0x080001c3   Thumb Code     0  startup_stm32f10x_md.o(.text)
    TIM4_IRQHandler                          0x080001c3   Thumb Code     0  startup_stm32f10x_md.o(.text)
    USART1_IRQHandler                        0x080001c3   Thumb Code     0  startup_stm32f10x_md.o(.text)
    USART2_IRQHandler                        0x080001c3   Thumb Code     0  startup_stm32f10x_md.o(.text)
    USART3_IRQHandler                        0x080001c3   Thumb Code     0  startup_stm32f10x_md.o(.text)
    USBWakeUp_IRQHandler                     0x080001c3   Thumb Code     0  startup_stm32f10x_md.o(.text)
    USB_HP_CAN1_TX_IRQHandler                0x080001c3   Thumb Code     0  startup_stm32f10x_md.o(.text)
    USB_LP_CAN1_RX0_IRQHandler               0x080001c3   Thumb Code     0  startup_stm32f10x_md.o(.text)
    WWDG_IRQHandler                          0x080001c3   Thumb Code     0  startup_stm32f10x_md.o(.text)
    __user_initial_stackheap                 0x080001c5   Thumb Code     0  startup_stm32f10x_md.o(.text)
    SystemInit                               0x080002c7   Thumb Code    78  system_stm32f10x.o(.text)
    SystemCoreClockUpdate                    0x08000315   Thumb Code   142  system_stm32f10x.o(.text)
    GPIO_DeInit                              0x080003c9   Thumb Code   172  stm32f10x_gpio.o(.text)
    GPIO_AFIODeInit                          0x08000475   Thumb Code    20  stm32f10x_gpio.o(.text)
    GPIO_Init                                0x08000489   Thumb Code   278  stm32f10x_gpio.o(.text)
    GPIO_StructInit                          0x0800059f   Thumb Code    16  stm32f10x_gpio.o(.text)
    GPIO_ReadInputDataBit                    0x080005af   Thumb Code    18  stm32f10x_gpio.o(.text)
    GPIO_ReadInputData                       0x080005c1   Thumb Code     8  stm32f10x_gpio.o(.text)
    GPIO_ReadOutputDataBit                   0x080005c9   Thumb Code    18  stm32f10x_gpio.o(.text)
    GPIO_ReadOutputData                      0x080005db   Thumb Code     8  stm32f10x_gpio.o(.text)
    GPIO_SetBits                             0x080005e3   Thumb Code     4  stm32f10x_gpio.o(.text)
    GPIO_ResetBits                           0x080005e7   Thumb Code     4  stm32f10x_gpio.o(.text)
    GPIO_WriteBit                            0x080005eb   Thumb Code    10  stm32f10x_gpio.o(.text)
    GPIO_Write                               0x080005f5   Thumb Code     4  stm32f10x_gpio.o(.text)
    GPIO_PinLockConfig                       0x080005f9   Thumb Code    18  stm32f10x_gpio.o(.text)
    GPIO_EventOutputConfig                   0x0800060b   Thumb Code    26  stm32f10x_gpio.o(.text)
    GPIO_EventOutputCmd                      0x08000625   Thumb Code     6  stm32f10x_gpio.o(.text)
    GPIO_PinRemapConfig                      0x0800062b   Thumb Code   138  stm32f10x_gpio.o(.text)
    GPIO_EXTILineConfig                      0x080006b5   Thumb Code    66  stm32f10x_gpio.o(.text)
    GPIO_ETH_MediaInterfaceConfig            0x080006f7   Thumb Code     8  stm32f10x_gpio.o(.text)
    RCC_DeInit                               0x08000725   Thumb Code    64  stm32f10x_rcc.o(.text)
    RCC_HSEConfig                            0x08000765   Thumb Code    70  stm32f10x_rcc.o(.text)
    RCC_GetFlagStatus                        0x080007ab   Thumb Code    56  stm32f10x_rcc.o(.text)
    RCC_WaitForHSEStartUp                    0x080007e3   Thumb Code    56  stm32f10x_rcc.o(.text)
    RCC_AdjustHSICalibrationValue            0x0800081b   Thumb Code    20  stm32f10x_rcc.o(.text)
    RCC_HSICmd                               0x0800082f   Thumb Code     6  stm32f10x_rcc.o(.text)
    RCC_PLLConfig                            0x08000835   Thumb Code    24  stm32f10x_rcc.o(.text)
    RCC_PLLCmd                               0x0800084d   Thumb Code     6  stm32f10x_rcc.o(.text)
    RCC_SYSCLKConfig                         0x08000853   Thumb Code    18  stm32f10x_rcc.o(.text)
    RCC_GetSYSCLKSource                      0x08000865   Thumb Code    10  stm32f10x_rcc.o(.text)
    RCC_HCLKConfig                           0x0800086f   Thumb Code    18  stm32f10x_rcc.o(.text)
    RCC_PCLK1Config                          0x08000881   Thumb Code    18  stm32f10x_rcc.o(.text)
    RCC_PCLK2Config                          0x08000893   Thumb Code    20  stm32f10x_rcc.o(.text)
    RCC_ITConfig                             0x080008a7   Thumb Code    26  stm32f10x_rcc.o(.text)
    RCC_USBCLKConfig                         0x080008c1   Thumb Code     8  stm32f10x_rcc.o(.text)
    RCC_ADCCLKConfig                         0x080008c9   Thumb Code    18  stm32f10x_rcc.o(.text)
    RCC_LSEConfig                            0x080008db   Thumb Code    50  stm32f10x_rcc.o(.text)
    RCC_LSICmd                               0x0800090d   Thumb Code     6  stm32f10x_rcc.o(.text)
    RCC_RTCCLKConfig                         0x08000913   Thumb Code    12  stm32f10x_rcc.o(.text)
    RCC_RTCCLKCmd                            0x0800091f   Thumb Code     8  stm32f10x_rcc.o(.text)
    RCC_GetClocksFreq                        0x08000927   Thumb Code   192  stm32f10x_rcc.o(.text)
    RCC_AHBPeriphClockCmd                    0x080009e7   Thumb Code    26  stm32f10x_rcc.o(.text)
    RCC_APB2PeriphClockCmd                   0x08000a01   Thumb Code    26  stm32f10x_rcc.o(.text)
    RCC_APB1PeriphClockCmd                   0x08000a1b   Thumb Code    26  stm32f10x_rcc.o(.text)
    RCC_APB2PeriphResetCmd                   0x08000a35   Thumb Code    26  stm32f10x_rcc.o(.text)
    RCC_APB1PeriphResetCmd                   0x08000a4f   Thumb Code    26  stm32f10x_rcc.o(.text)
    RCC_BackupResetCmd                       0x08000a69   Thumb Code     8  stm32f10x_rcc.o(.text)
    RCC_ClockSecuritySystemCmd               0x08000a71   Thumb Code     6  stm32f10x_rcc.o(.text)
    RCC_MCOConfig                            0x08000a77   Thumb Code     6  stm32f10x_rcc.o(.text)
    RCC_ClearFlag                            0x08000a7d   Thumb Code    14  stm32f10x_rcc.o(.text)
    RCC_GetITStatus                          0x08000a8b   Thumb Code    20  stm32f10x_rcc.o(.text)
    RCC_ClearITPendingBit                    0x08000a9f   Thumb Code     6  stm32f10x_rcc.o(.text)
    ADC_DeInit                               0x08000ac9   Thumb Code    78  stm32f10x_adc.o(.text)
    ADC_Init                                 0x08000b17   Thumb Code    70  stm32f10x_adc.o(.text)
    ADC_StructInit                           0x08000b5d   Thumb Code    18  stm32f10x_adc.o(.text)
    ADC_Cmd                                  0x08000b6f   Thumb Code    22  stm32f10x_adc.o(.text)
    ADC_DMACmd                               0x08000b85   Thumb Code    22  stm32f10x_adc.o(.text)
    ADC_ITConfig                             0x08000b9b   Thumb Code    24  stm32f10x_adc.o(.text)
    ADC_ResetCalibration                     0x08000bb3   Thumb Code    10  stm32f10x_adc.o(.text)
    ADC_GetResetCalibrationStatus            0x08000bbd   Thumb Code    20  stm32f10x_adc.o(.text)
    ADC_StartCalibration                     0x08000bd1   Thumb Code    10  stm32f10x_adc.o(.text)
    ADC_GetCalibrationStatus                 0x08000bdb   Thumb Code    20  stm32f10x_adc.o(.text)
    ADC_SoftwareStartConvCmd                 0x08000bef   Thumb Code    22  stm32f10x_adc.o(.text)
    ADC_GetSoftwareStartConvStatus           0x08000c05   Thumb Code    20  stm32f10x_adc.o(.text)
    ADC_DiscModeChannelCountConfig           0x08000c19   Thumb Code    24  stm32f10x_adc.o(.text)
    ADC_DiscModeCmd                          0x08000c31   Thumb Code    22  stm32f10x_adc.o(.text)
    ADC_RegularChannelConfig                 0x08000c47   Thumb Code   184  stm32f10x_adc.o(.text)
    ADC_ExternalTrigConvCmd                  0x08000cff   Thumb Code    22  stm32f10x_adc.o(.text)
    ADC_GetConversionValue                   0x08000d15   Thumb Code     8  stm32f10x_adc.o(.text)
    ADC_GetDualModeConversionValue           0x08000d1d   Thumb Code     8  stm32f10x_adc.o(.text)
    ADC_AutoInjectedConvCmd                  0x08000d25   Thumb Code    22  stm32f10x_adc.o(.text)
    ADC_InjectedDiscModeCmd                  0x08000d3b   Thumb Code    22  stm32f10x_adc.o(.text)
    ADC_ExternalTrigInjectedConvConfig       0x08000d51   Thumb Code    16  stm32f10x_adc.o(.text)
    ADC_ExternalTrigInjectedConvCmd          0x08000d61   Thumb Code    22  stm32f10x_adc.o(.text)
    ADC_SoftwareStartInjectedConvCmd         0x08000d77   Thumb Code    22  stm32f10x_adc.o(.text)
    ADC_GetSoftwareStartInjectedConvCmdStatus 0x08000d8d   Thumb Code    20  stm32f10x_adc.o(.text)
    ADC_InjectedChannelConfig                0x08000da1   Thumb Code   130  stm32f10x_adc.o(.text)
    ADC_InjectedSequencerLengthConfig        0x08000e23   Thumb Code    24  stm32f10x_adc.o(.text)
    ADC_SetInjectedOffset                    0x08000e3b   Thumb Code    20  stm32f10x_adc.o(.text)
    ADC_GetInjectedConversionValue           0x08000e4f   Thumb Code    28  stm32f10x_adc.o(.text)
    ADC_AnalogWatchdogCmd                    0x08000e6b   Thumb Code    16  stm32f10x_adc.o(.text)
    ADC_AnalogWatchdogThresholdsConfig       0x08000e7b   Thumb Code     6  stm32f10x_adc.o(.text)
    ADC_AnalogWatchdogSingleChannelConfig    0x08000e81   Thumb Code    16  stm32f10x_adc.o(.text)
    ADC_TempSensorVrefintCmd                 0x08000e91   Thumb Code    64  stm32f10x_adc.o(.text)
    ADC_GetFlagStatus                        0x08000ed1   Thumb Code    18  stm32f10x_adc.o(.text)
    ADC_ClearFlag                            0x08000ee3   Thumb Code     6  stm32f10x_adc.o(.text)
    ADC_GetITStatus                          0x08000ee9   Thumb Code    36  stm32f10x_adc.o(.text)
    ADC_ClearITPendingBit                    0x08000f0d   Thumb Code    10  stm32f10x_adc.o(.text)
    Delay_LCD                                0x08000f19   Thumb Code    30  lcd_1.o(.text)
    LCD_WriteReg                             0x08000f37   Thumb Code    68  lcd_1.o(.text)
    REG_8230_Init                            0x08000f7b   Thumb Code   288  lcd_1.o(.text)
    REG_932X_Init                            0x0800109b   Thumb Code   514  lcd_1.o(.text)
    LCD_BusOut                               0x0800129d   Thumb Code    32  lcd_1.o(.text)
    LCD_BusIn                                0x080012bd   Thumb Code    32  lcd_1.o(.text)
    LCD_ReadReg                              0x080012dd   Thumb Code    92  lcd_1.o(.text)
    LCD_CtrlLinesConfig                      0x08001339   Thumb Code    68  lcd_1.o(.text)
    STM3210B_LCD_Init                        0x0800137d   Thumb Code    50  lcd_1.o(.text)
    LCD_SetTextColor                         0x080013af   Thumb Code    12  lcd_1.o(.text)
    LCD_SetBackColor                         0x080013bb   Thumb Code    12  lcd_1.o(.text)
    LCD_SetCursor                            0x080013c7   Thumb Code    24  lcd_1.o(.text)
    LCD_WriteRAM                             0x080013df   Thumb Code    54  lcd_1.o(.text)
    LCD_WriteRAM_Prepare                     0x08001415   Thumb Code    58  lcd_1.o(.text)
    LCD_DrawChar                             0x0800144f   Thumb Code   100  lcd_1.o(.text)
    LCD_DisplayChar                          0x080014b3   Thumb Code    34  lcd_1.o(.text)
    LCD_DisplayStringLine                    0x080014d5   Thumb Code    44  lcd_1.o(.text)
    LCD_ClearLine                            0x08001501   Thumb Code    14  lcd_1.o(.text)
    LCD_Clear                                0x0800150f   Thumb Code    38  lcd_1.o(.text)
    LCD_SetDisplayWindow                     0x08001535   Thumb Code    88  lcd_1.o(.text)
    LCD_WindowModeDisable                    0x0800158d   Thumb Code    28  lcd_1.o(.text)
    LCD_DrawLine                             0x080015a9   Thumb Code    86  lcd_1.o(.text)
    LCD_DrawRect                             0x080015ff   Thumb Code    66  lcd_1.o(.text)
    LCD_DrawCircle                           0x08001641   Thumb Code   300  lcd_1.o(.text)
    LCD_DrawMonoPict                         0x0800176d   Thumb Code    76  lcd_1.o(.text)
    LCD_WriteBMP                             0x080017b9   Thumb Code    74  lcd_1.o(.text)
    LCD_ReadRAM                              0x08001803   Thumb Code    82  lcd_1.o(.text)
    LCD_PowerOn                              0x08001855   Thumb Code   118  lcd_1.o(.text)
    LCD_DisplayOn                            0x080018cb   Thumb Code    14  lcd_1.o(.text)
    LCD_DisplayOff                           0x080018d9   Thumb Code    12  lcd_1.o(.text)
    LCD_DrawPicture                          0x080018e5   Thumb Code    48  lcd_1.o(.text)
    Change_Signal                            0x08001925   Thumb Code    46  main.o(.text)
    Change_Interval                          0x08001953   Thumb Code    66  main.o(.text)
    Change_Humidity                          0x08001995   Thumb Code    66  main.o(.text)
    Change_Temp                              0x080019d7   Thumb Code    70  main.o(.text)
    Choose_Setting                           0x08001a1d   Thumb Code    48  main.o(.text)
    Key_Control                              0x08001a4d   Thumb Code    88  main.o(.text)
    Setting_Gui                              0x08001aa5   Thumb Code   286  main.o(.text)
    Data_Gui                                 0x08001bc3   Thumb Code   102  main.o(.text)
    Choose_Disp                              0x08001c29   Thumb Code    66  main.o(.text)
    Get_Temp                                 0x08001c6b   Thumb Code    68  main.o(.text)
    Delay_Ms                                 0x08001caf   Thumb Code    16  main.o(.text)
    main                                     0x08001cbf   Thumb Code   458  main.o(.text)
    HighLight                                0x08001e89   Thumb Code     2  main.o(.text)
    Read_Data                                0x08001e8b   Thumb Code    60  main.o(.text)
    Write_Data                               0x08001ec7   Thumb Code    46  main.o(.text)
    NMI_Handler                              0x08001ef5   Thumb Code     2  stm32f10x_it.o(.text)
    HardFault_Handler                        0x08001ef7   Thumb Code     4  stm32f10x_it.o(.text)
    MemManage_Handler                        0x08001efb   Thumb Code     4  stm32f10x_it.o(.text)
    BusFault_Handler                         0x08001eff   Thumb Code     4  stm32f10x_it.o(.text)
    UsageFault_Handler                       0x08001f03   Thumb Code     4  stm32f10x_it.o(.text)
    DebugMon_Handler                         0x08001f07   Thumb Code     2  stm32f10x_it.o(.text)
    SVC_Handler                              0x08001f09   Thumb Code     2  stm32f10x_it.o(.text)
    PendSV_Handler                           0x08001f0b   Thumb Code     2  stm32f10x_it.o(.text)
    SysTick_Handler                          0x08001f0d   Thumb Code   146  stm32f10x_it.o(.text)
    SDA_Input_Mode                           0x08001fc5   Thumb Code    30  iic.o(.text)
    SDA_Output_Mode                          0x08001fe3   Thumb Code    30  iic.o(.text)
    SDA_Output                               0x08002001   Thumb Code    26  iic.o(.text)
    SCL_Output                               0x0800201b   Thumb Code    26  iic.o(.text)
    SDA_Input                                0x08002035   Thumb Code    12  iic.o(.text)
    delay1                                   0x08002041   Thumb Code    12  iic.o(.text)
    I2CStart                                 0x0800204d   Thumb Code    60  iic.o(.text)
    I2CStop                                  0x08002089   Thumb Code    60  iic.o(.text)
    I2CWaitAck                               0x080020c5   Thumb Code    88  iic.o(.text)
    I2CSendAck                               0x0800211d   Thumb Code    54  iic.o(.text)
    I2CSendNotAck                            0x08002153   Thumb Code    46  iic.o(.text)
    I2CSendByte                              0x08002181   Thumb Code    88  iic.o(.text)
    I2CReceiveByte                           0x080021d9   Thumb Code    88  iic.o(.text)
    i2c_init                                 0x08002231   Thumb Code    38  iic.o(.text)
    LED_Init                                 0x0800225d   Thumb Code    62  led.o(.text)
    LED_Control                              0x0800229b   Thumb Code    60  led.o(.text)
    Delay_Ms1                                0x080022e1   Thumb Code    16  key.o(.text)
    KEY_Init                                 0x080022f1   Thumb Code    62  key.o(.text)
    KEY_Scan                                 0x0800232f   Thumb Code    82  key.o(.text)
    ADC_Config                               0x0800238d   Thumb Code   136  adc.o(.text)
    Get_Adc                                  0x08002415   Thumb Code    58  adc.o(.text)
    __2sprintf                               0x08002461   Thumb Code    34  noretval__2sprintf.o(.text)
    _printf_pre_padding                      0x08002489   Thumb Code    44  _printf_pad.o(.text)
    _printf_post_padding                     0x080024b5   Thumb Code    34  _printf_pad.o(.text)
    _printf_int_dec                          0x080024d9   Thumb Code   104  _printf_dec.o(.text)
    __printf                                 0x08002551   Thumb Code   270  __printf_wp.o(.text)
    __use_two_region_memory                  0x0800265f   Thumb Code     2  heapauxi.o(.text)
    __rt_heap_escrow$2region                 0x08002661   Thumb Code     2  heapauxi.o(.text)
    __rt_heap_expand$2region                 0x08002663   Thumb Code     2  heapauxi.o(.text)
    _printf_int_common                       0x08002665   Thumb Code   178  _printf_intcommon.o(.text)
    __lib_sel_fp_printf                      0x08002717   Thumb Code     2  _printf_fp_dec.o(.text)
    _printf_fp_dec_real                      0x080028c5   Thumb Code   620  _printf_fp_dec.o(.text)
    _printf_char_common                      0x08002b3b   Thumb Code    32  _printf_char_common.o(.text)
    _sputc                                   0x08002b61   Thumb Code    10  _sputc.o(.text)
    __rt_locale                              0x08002b6d   Thumb Code     8  rt_locale_intlibspace.o(.text)
    _ll_udiv10                               0x08002b75   Thumb Code   138  lludiv10.o(.text)
    _printf_fp_infnan                        0x08002c01   Thumb Code   112  _printf_fp_infnan.o(.text)
    _btod_etento                             0x08002c81   Thumb Code   216  bigflt0.o(.text)
    __user_libspace                          0x08002d5d   Thumb Code     8  libspace.o(.text)
    __user_perproc_libspace                  0x08002d5d   Thumb Code     0  libspace.o(.text)
    __user_perthread_libspace                0x08002d5d   Thumb Code     0  libspace.o(.text)
    __user_setup_stackheap                   0x08002d65   Thumb Code    74  sys_stackheap_outer.o(.text)
    exit                                     0x08002daf   Thumb Code    18  exit.o(.text)
    strcmp                                   0x08002dc1   Thumb Code   128  strcmpv7m.o(.text)
    _sys_exit                                0x08002e41   Thumb Code     8  sys_exit.o(.text)
    __I$use$semihosting                      0x08002e4d   Thumb Code     0  use_no_semi.o(.text)
    __use_no_semihosting_swi                 0x08002e4d   Thumb Code     2  use_no_semi.o(.text)
    __semihosting_library_function           0x08002e4f   Thumb Code     0  indicate_semi.o(.text)
    _btod_d2e                                0x08002e4f   Thumb Code    62  btod.o(CL$$btod_d2e)
    _d2e_denorm_low                          0x08002e8d   Thumb Code    70  btod.o(CL$$btod_d2e_denorm_low)
    _d2e_norm_op1                            0x08002ed3   Thumb Code    96  btod.o(CL$$btod_d2e_norm_op1)
    __btod_div_common                        0x08002f33   Thumb Code   696  btod.o(CL$$btod_div_common)
    _e2e                                     0x0800326b   Thumb Code   198  btod.o(CL$$btod_e2e)
    _btod_ediv                               0x08003331   Thumb Code    40  btod.o(CL$$btod_ediv)
    _btod_emul                               0x08003359   Thumb Code    40  btod.o(CL$$btod_emul)
    __btod_mult_common                       0x08003381   Thumb Code   580  btod.o(CL$$btod_mult_common)
    __ARM_fpclassify                         0x080035c5   Thumb Code    40  fpclassify.o(i.__ARM_fpclassify)
    _is_digit                                0x080035ed   Thumb Code    14  __printf_wp.o(i._is_digit)
    _get_lc_numeric                          0x080035fd   Thumb Code    44  lc_numeric_c.o(locale$$code)
    __aeabi_dadd                             0x08003629   Thumb Code     0  daddsub_clz.o(x$fpl$dadd)
    _dadd                                    0x08003629   Thumb Code   332  daddsub_clz.o(x$fpl$dadd)
    __fpl_dcmp_Inf                           0x08003779   Thumb Code    24  dcmpi.o(x$fpl$dcmpinf)
    __aeabi_ddiv                             0x08003791   Thumb Code     0  ddiv.o(x$fpl$ddiv)
    _ddiv                                    0x08003791   Thumb Code   552  ddiv.o(x$fpl$ddiv)
    __aeabi_ui2d                             0x08003a41   Thumb Code     0  dflt_clz.o(x$fpl$dfltu)
    _dfltu                                   0x08003a41   Thumb Code    38  dflt_clz.o(x$fpl$dfltu)
    __aeabi_cdcmple                          0x08003a69   Thumb Code     0  dleqf.o(x$fpl$dleqf)
    _dcmple                                  0x08003a69   Thumb Code   120  dleqf.o(x$fpl$dleqf)
    __fpl_dcmple_InfNaN                      0x08003acb   Thumb Code     0  dleqf.o(x$fpl$dleqf)
    __aeabi_dmul                             0x08003ae1   Thumb Code     0  dmul.o(x$fpl$dmul)
    _dmul                                    0x08003ae1   Thumb Code   332  dmul.o(x$fpl$dmul)
    __fpl_dnaninf                            0x08003c35   Thumb Code   156  dnaninf.o(x$fpl$dnaninf)
    __fpl_dretinf                            0x08003cd1   Thumb Code    12  dretinf.o(x$fpl$dretinf)
    __aeabi_cdrcmple                         0x08003cdd   Thumb Code     0  drleqf.o(x$fpl$drleqf)
    _drcmple                                 0x08003cdd   Thumb Code   108  drleqf.o(x$fpl$drleqf)
    __aeabi_dsub                             0x08003d49   Thumb Code     0  daddsub_clz.o(x$fpl$dsub)
    _dsub                                    0x08003d49   Thumb Code   464  daddsub_clz.o(x$fpl$dsub)
    _printf_fp_dec                           0x08003f1d   Thumb Code     4  printf1.o(x$fpl$printf1)
    ASCII_Table                              0x08003f20   Data        4560  lcd_1.o(.constdata)
    __I$use$fp                               0x08003f20   Number         0  usenofp.o(x$fpl$usenofp)
    Region$$Table$$Base                      0x08005184   Number         0  anon$$obj.o(Region$$Table)
    Region$$Table$$Limit                     0x080051a4   Number         0  anon$$obj.o(Region$$Table)
    SystemCoreClock                          0x20000000   Data           4  system_stm32f10x.o(.data)
    AHBPrescTable                            0x20000004   Data          16  system_stm32f10x.o(.data)
    dummy                                    0x2000002c   Data           2  lcd_1.o(.data)
    TimingDelay                              0x20000030   Data           4  main.o(.data)
    test_signal                              0x20000038   Data           8  main.o(.data)
    temperature_limit                        0x20000040   Data           4  main.o(.data)
    humidity_limit                           0x20000044   Data           4  main.o(.data)
    sampaling_interval                       0x20000048   Data           4  main.o(.data)
    current_temperature                      0x20000050   Data           8  main.o(.data)
    current_humidity                         0x20000058   Data           4  main.o(.data)
    current_hour                             0x2000005c   Data           4  main.o(.data)
    current_minute                           0x20000060   Data           4  main.o(.data)
    current_second                           0x20000064   Data           4  main.o(.data)
    current_record_count                     0x20000068   Data           4  main.o(.data)
    Disp_Flag                                0x2000006c   Data           4  main.o(.data)
    Setting_Flag                             0x20000070   Data           4  main.o(.data)
    _count                                   0x20000074   Data           4  stm32f10x_it.o(.data)
    _interval_flag                           0x20000078   Data           4  stm32f10x_it.o(.data)
    temp_index                               0x2000007c   Data           4  stm32f10x_it.o(.data)
    current_temperature_disp                 0x20000080   Data          20  main.o(.bss)
    current_humidity_disp                    0x20000094   Data          20  main.o(.bss)
    current_time_disp                        0x200000a8   Data          20  main.o(.bss)
    current_record_count_disp                0x200000bc   Data          20  main.o(.bss)
    humidity_limit_disp                      0x200000d0   Data          20  main.o(.bss)
    temperature_limit_disp                   0x200000e4   Data          20  main.o(.bss)
    test_signal_disp                         0x200000f8   Data          20  main.o(.bss)
    sampling_interval_disp                   0x2000010c   Data          20  main.o(.bss)
    temp_array                               0x20000120   Data         480  main.o(.bss)
    __libspace_start                         0x20000300   Data          96  libspace.o(.bss)
    __temporary_stack_top$libspace           0x20000360   Data           0  libspace.o(.bss)



==============================================================================

Memory Map of the image

  Image Entry point : 0x080000ed

  Load Region LR_IROM1 (Base: 0x08000000, Size: 0x00005240, Max: 0x00020000, ABSOLUTE)

    Execution Region ER_IROM1 (Base: 0x08000000, Size: 0x000051c0, Max: 0x00020000, ABSOLUTE)

    Base Addr    Size         Type   Attr      Idx    E Section Name        Object

    0x08000000   0x000000ec   Data   RO            3    RESET               startup_stm32f10x_md.o
    0x080000ec   0x00000008   Code   RO          437  * !!!main             c_w.l(__main.o)
    0x080000f4   0x00000034   Code   RO          679    !!!scatter          c_w.l(__scatter.o)
    0x08000128   0x0000001a   Code   RO          681    !!handler_copy      c_w.l(__scatter_copy.o)
    0x08000142   0x00000002   PAD
    0x08000144   0x0000001c   Code   RO          683    !!handler_zi        c_w.l(__scatter_zi.o)
    0x08000160   0x00000000   Code   RO          434    .ARM.Collect$$_printf_percent$$00000000  c_w.l(_printf_percent.o)
    0x08000160   0x00000006   Code   RO          433    .ARM.Collect$$_printf_percent$$00000003  c_w.l(_printf_f.o)
    0x08000166   0x00000006   Code   RO          432    .ARM.Collect$$_printf_percent$$00000009  c_w.l(_printf_d.o)
    0x0800016c   0x00000004   Code   RO          470    .ARM.Collect$$_printf_percent$$00000017  c_w.l(_printf_percent_end.o)
    0x08000170   0x00000002   Code   RO          552    .ARM.Collect$$libinit$$00000000  c_w.l(libinit.o)
    0x08000172   0x00000000   Code   RO          554    .ARM.Collect$$libinit$$00000002  c_w.l(libinit2.o)
    0x08000172   0x00000000   Code   RO          556    .ARM.Collect$$libinit$$00000004  c_w.l(libinit2.o)
    0x08000172   0x00000000   Code   RO          559    .ARM.Collect$$libinit$$0000000A  c_w.l(libinit2.o)
    0x08000172   0x00000000   Code   RO          561    .ARM.Collect$$libinit$$0000000C  c_w.l(libinit2.o)
    0x08000172   0x00000000   Code   RO          563    .ARM.Collect$$libinit$$0000000E  c_w.l(libinit2.o)
    0x08000172   0x00000006   Code   RO          564    .ARM.Collect$$libinit$$0000000F  c_w.l(libinit2.o)
    0x08000178   0x00000000   Code   RO          566    .ARM.Collect$$libinit$$00000011  c_w.l(libinit2.o)
    0x08000178   0x00000000   Code   RO          568    .ARM.Collect$$libinit$$00000013  c_w.l(libinit2.o)
    0x08000178   0x00000000   Code   RO          570    .ARM.Collect$$libinit$$00000015  c_w.l(libinit2.o)
    0x08000178   0x0000000a   Code   RO          571    .ARM.Collect$$libinit$$00000016  c_w.l(libinit2.o)
    0x08000182   0x00000000   Code   RO          572    .ARM.Collect$$libinit$$00000017  c_w.l(libinit2.o)
    0x08000182   0x00000000   Code   RO          574    .ARM.Collect$$libinit$$00000019  c_w.l(libinit2.o)
    0x08000182   0x00000000   Code   RO          576    .ARM.Collect$$libinit$$0000001B  c_w.l(libinit2.o)
    0x08000182   0x00000000   Code   RO          578    .ARM.Collect$$libinit$$0000001D  c_w.l(libinit2.o)
    0x08000182   0x00000000   Code   RO          580    .ARM.Collect$$libinit$$0000001F  c_w.l(libinit2.o)
    0x08000182   0x00000000   Code   RO          582    .ARM.Collect$$libinit$$00000021  c_w.l(libinit2.o)
    0x08000182   0x00000000   Code   RO          584    .ARM.Collect$$libinit$$00000023  c_w.l(libinit2.o)
    0x08000182   0x00000000   Code   RO          586    .ARM.Collect$$libinit$$00000025  c_w.l(libinit2.o)
    0x08000182   0x00000000   Code   RO          590    .ARM.Collect$$libinit$$0000002C  c_w.l(libinit2.o)
    0x08000182   0x00000000   Code   RO          592    .ARM.Collect$$libinit$$0000002E  c_w.l(libinit2.o)
    0x08000182   0x00000000   Code   RO          594    .ARM.Collect$$libinit$$00000030  c_w.l(libinit2.o)
    0x08000182   0x00000000   Code   RO          596    .ARM.Collect$$libinit$$00000032  c_w.l(libinit2.o)
    0x08000182   0x00000002   Code   RO          597    .ARM.Collect$$libinit$$00000033  c_w.l(libinit2.o)
    0x08000184   0x00000002   Code   RO          627    .ARM.Collect$$libshutdown$$00000000  c_w.l(libshutdown.o)
    0x08000186   0x00000000   Code   RO          638    .ARM.Collect$$libshutdown$$00000002  c_w.l(libshutdown2.o)
    0x08000186   0x00000000   Code   RO          640    .ARM.Collect$$libshutdown$$00000004  c_w.l(libshutdown2.o)
    0x08000186   0x00000000   Code   RO          643    .ARM.Collect$$libshutdown$$00000007  c_w.l(libshutdown2.o)
    0x08000186   0x00000000   Code   RO          646    .ARM.Collect$$libshutdown$$0000000A  c_w.l(libshutdown2.o)
    0x08000186   0x00000000   Code   RO          648    .ARM.Collect$$libshutdown$$0000000C  c_w.l(libshutdown2.o)
    0x08000186   0x00000000   Code   RO          651    .ARM.Collect$$libshutdown$$0000000F  c_w.l(libshutdown2.o)
    0x08000186   0x00000002   Code   RO          652    .ARM.Collect$$libshutdown$$00000010  c_w.l(libshutdown2.o)
    0x08000188   0x00000000   Code   RO          461    .ARM.Collect$$rtentry$$00000000  c_w.l(__rtentry.o)
    0x08000188   0x00000000   Code   RO          479    .ARM.Collect$$rtentry$$00000002  c_w.l(__rtentry2.o)
    0x08000188   0x00000006   Code   RO          491    .ARM.Collect$$rtentry$$00000004  c_w.l(__rtentry4.o)
    0x0800018e   0x00000000   Code   RO          481    .ARM.Collect$$rtentry$$00000009  c_w.l(__rtentry2.o)
    0x0800018e   0x00000004   Code   RO          482    .ARM.Collect$$rtentry$$0000000A  c_w.l(__rtentry2.o)
    0x08000192   0x00000000   Code   RO          484    .ARM.Collect$$rtentry$$0000000C  c_w.l(__rtentry2.o)
    0x08000192   0x00000008   Code   RO          485    .ARM.Collect$$rtentry$$0000000D  c_w.l(__rtentry2.o)
    0x0800019a   0x00000002   Code   RO          598    .ARM.Collect$$rtexit$$00000000  c_w.l(rtexit.o)
    0x0800019c   0x00000000   Code   RO          605    .ARM.Collect$$rtexit$$00000002  c_w.l(rtexit2.o)
    0x0800019c   0x00000004   Code   RO          606    .ARM.Collect$$rtexit$$00000003  c_w.l(rtexit2.o)
    0x080001a0   0x00000006   Code   RO          607    .ARM.Collect$$rtexit$$00000004  c_w.l(rtexit2.o)
    0x080001a6   0x00000002   PAD
    0x080001a8   0x00000040   Code   RO            4    .text               startup_stm32f10x_md.o
    0x080001e8   0x000001e0   Code   RO           26    .text               system_stm32f10x.o
    0x080003c8   0x0000035c   Code   RO          137    .text               stm32f10x_gpio.o
    0x08000724   0x000003a4   Code   RO          161    .text               stm32f10x_rcc.o
    0x08000ac8   0x0000044e   Code   RO          183    .text               stm32f10x_adc.o
    0x08000f16   0x00000002   PAD
    0x08000f18   0x00000a0c   Code   RO          223    .text               lcd_1.o
    0x08001924   0x000005d0   Code   RO          253    .text               main.o
    0x08001ef4   0x000000d0   Code   RO          294    .text               stm32f10x_it.o
    0x08001fc4   0x00000298   Code   RO          321    .text               iic.o
    0x0800225c   0x00000084   Code   RO          341    .text               led.o
    0x080022e0   0x000000ac   Code   RO          361    .text               key.o
    0x0800238c   0x000000d4   Code   RO          382    .text               adc.o
    0x08002460   0x00000028   Code   RO          404    .text               c_w.l(noretval__2sprintf.o)
    0x08002488   0x0000004e   Code   RO          408    .text               c_w.l(_printf_pad.o)
    0x080024d6   0x00000002   PAD
    0x080024d8   0x00000078   Code   RO          410    .text               c_w.l(_printf_dec.o)
    0x08002550   0x0000010e   Code   RO          420    .text               c_w.l(__printf_wp.o)
    0x0800265e   0x00000006   Code   RO          435    .text               c_w.l(heapauxi.o)
    0x08002664   0x000000b2   Code   RO          462    .text               c_w.l(_printf_intcommon.o)
    0x08002716   0x0000041a   Code   RO          464    .text               c_w.l(_printf_fp_dec.o)
    0x08002b30   0x00000030   Code   RO          466    .text               c_w.l(_printf_char_common.o)
    0x08002b60   0x0000000a   Code   RO          468    .text               c_w.l(_sputc.o)
    0x08002b6a   0x00000002   PAD
    0x08002b6c   0x00000008   Code   RO          496    .text               c_w.l(rt_locale_intlibspace.o)
    0x08002b74   0x0000008a   Code   RO          498    .text               c_w.l(lludiv10.o)
    0x08002bfe   0x00000002   PAD
    0x08002c00   0x00000080   Code   RO          500    .text               c_w.l(_printf_fp_infnan.o)
    0x08002c80   0x000000dc   Code   RO          504    .text               c_w.l(bigflt0.o)
    0x08002d5c   0x00000008   Code   RO          538    .text               c_w.l(libspace.o)
    0x08002d64   0x0000004a   Code   RO          541    .text               c_w.l(sys_stackheap_outer.o)
    0x08002dae   0x00000012   Code   RO          543    .text               c_w.l(exit.o)
    0x08002dc0   0x00000080   Code   RO          545    .text               c_w.l(strcmpv7m.o)
    0x08002e40   0x0000000c   Code   RO          617    .text               c_w.l(sys_exit.o)
    0x08002e4c   0x00000002   Code   RO          628    .text               c_w.l(use_no_semi.o)
    0x08002e4e   0x00000000   Code   RO          630    .text               c_w.l(indicate_semi.o)
    0x08002e4e   0x0000003e   Code   RO          507    CL$$btod_d2e        c_w.l(btod.o)
    0x08002e8c   0x00000046   Code   RO          509    CL$$btod_d2e_denorm_low  c_w.l(btod.o)
    0x08002ed2   0x00000060   Code   RO          508    CL$$btod_d2e_norm_op1  c_w.l(btod.o)
    0x08002f32   0x00000338   Code   RO          517    CL$$btod_div_common  c_w.l(btod.o)
    0x0800326a   0x000000c6   Code   RO          514    CL$$btod_e2e        c_w.l(btod.o)
    0x08003330   0x00000028   Code   RO          511    CL$$btod_ediv       c_w.l(btod.o)
    0x08003358   0x00000028   Code   RO          510    CL$$btod_emul       c_w.l(btod.o)
    0x08003380   0x00000244   Code   RO          516    CL$$btod_mult_common  c_w.l(btod.o)
    0x080035c4   0x00000028   Code   RO          536    i.__ARM_fpclassify  m_ws.l(fpclassify.o)
    0x080035ec   0x0000000e   Code   RO          422    i._is_digit         c_w.l(__printf_wp.o)
    0x080035fa   0x00000002   PAD
    0x080035fc   0x0000002c   Code   RO          530    locale$$code        c_w.l(lc_numeric_c.o)
    0x08003628   0x00000150   Code   RO          439    x$fpl$dadd          fz_ws.l(daddsub_clz.o)
    0x08003778   0x00000018   Code   RO          532    x$fpl$dcmpinf       fz_ws.l(dcmpi.o)
    0x08003790   0x000002b0   Code   RO          446    x$fpl$ddiv          fz_ws.l(ddiv.o)
    0x08003a40   0x00000026   Code   RO          449    x$fpl$dfltu         fz_ws.l(dflt_clz.o)
    0x08003a66   0x00000002   PAD
    0x08003a68   0x00000078   Code   RO          471    x$fpl$dleqf         fz_ws.l(dleqf.o)
    0x08003ae0   0x00000154   Code   RO          455    x$fpl$dmul          fz_ws.l(dmul.o)
    0x08003c34   0x0000009c   Code   RO          473    x$fpl$dnaninf       fz_ws.l(dnaninf.o)
    0x08003cd0   0x0000000c   Code   RO          475    x$fpl$dretinf       fz_ws.l(dretinf.o)
    0x08003cdc   0x0000006c   Code   RO          457    x$fpl$drleqf        fz_ws.l(drleqf.o)
    0x08003d48   0x000001d4   Code   RO          441    x$fpl$dsub          fz_ws.l(daddsub_clz.o)
    0x08003f1c   0x00000004   Code   RO          459    x$fpl$printf1       fz_ws.l(printf1.o)
    0x08003f20   0x00000000   Code   RO          477    x$fpl$usenofp       fz_ws.l(usenofp.o)
    0x08003f20   0x000011d0   Data   RO          224    .constdata          lcd_1.o
    0x080050f0   0x00000094   Data   RO          505    .constdata          c_w.l(bigflt0.o)
    0x08005184   0x00000020   Data   RO          677    Region$$Table       anon$$obj.o
    0x080051a4   0x0000001c   Data   RO          529    locale$$data        c_w.l(lc_numeric_c.o)


    Execution Region RW_IRAM1 (Base: 0x20000000, Size: 0x00000960, Max: 0x00005000, ABSOLUTE)

    Base Addr    Size         Type   Attr      Idx    E Section Name        Object

    0x20000000   0x00000014   Data   RW           27    .data               system_stm32f10x.o
    0x20000014   0x00000014   Data   RW          162    .data               stm32f10x_rcc.o
    0x20000028   0x00000006   Data   RW          225    .data               lcd_1.o
    0x2000002e   0x00000002   PAD
    0x20000030   0x00000044   Data   RW          255    .data               main.o
    0x20000074   0x0000000c   Data   RW          295    .data               stm32f10x_it.o
    0x20000080   0x00000280   Zero   RW          254    .bss                main.o
    0x20000300   0x00000060   Zero   RW          539    .bss                c_w.l(libspace.o)
    0x20000360   0x00000200   Zero   RW            2    HEAP                startup_stm32f10x_md.o
    0x20000560   0x00000400   Zero   RW            1    STACK               startup_stm32f10x_md.o


==============================================================================

Image component sizes


      Code (inc. data)   RO Data    RW Data    ZI Data      Debug   Object Name

       212         18          0          0          0        877   adc.o
         0          0          0          0          0       4508   core_cm3.o
       664          6          0          0          0       2857   iic.o
       172         12          0          0          0        878   key.o
      2572         74       4560          6          0       8792   lcd_1.o
       132         10          0          0          0        735   led.o
      1488        304          0         68        640      27548   main.o
        64         26        236          0       1536        948   startup_stm32f10x_md.o
      1102         26          0          0          0      11193   stm32f10x_adc.o
       860         38          0          0          0       5885   stm32f10x_gpio.o
       208         38          0         12          0       1693   stm32f10x_it.o
       932         36          0         20          0       9104   stm32f10x_rcc.o
       480         38          0         20          0     230451   system_stm32f10x.o

    ----------------------------------------------------------------------
      8888        626       4828        128       2176     305469   Object Totals
         0          0         32          0          0          0   (incl. Generated)
         2          0          0          2          0          0   (incl. Padding)

    ----------------------------------------------------------------------

      Code (inc. data)   RO Data    RW Data    ZI Data      Debug   Library Member Name

         8          0          0          0          0         68   __main.o
       284          0          0          0          0        156   __printf_wp.o
         0          0          0          0          0          0   __rtentry.o
        12          0          0          0          0          0   __rtentry2.o
         6          0          0          0          0          0   __rtentry4.o
        52          8          0          0          0          0   __scatter.o
        26          0          0          0          0          0   __scatter_copy.o
        28          0          0          0          0          0   __scatter_zi.o
        48          6          0          0          0         96   _printf_char_common.o
         6          0          0          0          0          0   _printf_d.o
       120         16          0          0          0         92   _printf_dec.o
         6          0          0          0          0          0   _printf_f.o
      1050          0          0          0          0        216   _printf_fp_dec.o
       128         16          0          0          0         84   _printf_fp_infnan.o
       178          0          0          0          0         88   _printf_intcommon.o
        78          0          0          0          0        108   _printf_pad.o
         0          0          0          0          0          0   _printf_percent.o
         4          0          0          0          0          0   _printf_percent_end.o
        10          0          0          0          0         68   _sputc.o
       220          4        148          0          0         96   bigflt0.o
      1910        128          0          0          0        672   btod.o
        18          0          0          0          0         80   exit.o
         6          0          0          0          0        152   heapauxi.o
         0          0          0          0          0          0   indicate_semi.o
        44         10         28          0          0         76   lc_numeric_c.o
         2          0          0          0          0          0   libinit.o
        18          0          0          0          0          0   libinit2.o
         2          0          0          0          0          0   libshutdown.o
         2          0          0          0          0          0   libshutdown2.o
         8          4          0          0         96         68   libspace.o
       138          0          0          0          0         80   lludiv10.o
        40          6          0          0          0         84   noretval__2sprintf.o
         8          4          0          0          0         68   rt_locale_intlibspace.o
         2          0          0          0          0          0   rtexit.o
        10          0          0          0          0          0   rtexit2.o
       128          0          0          0          0         68   strcmpv7m.o
        12          4          0          0          0         68   sys_exit.o
        74          0          0          0          0         80   sys_stackheap_outer.o
         2          0          0          0          0         68   use_no_semi.o
       804         16          0          0          0        272   daddsub_clz.o
        24          0          0          0          0         68   dcmpi.o
       688        140          0          0          0        208   ddiv.o
        38          0          0          0          0         68   dflt_clz.o
       120          4          0          0          0         92   dleqf.o
       340         12          0          0          0        104   dmul.o
       156          4          0          0          0         92   dnaninf.o
        12          0          0          0          0         68   dretinf.o
       108          0          0          0          0         80   drleqf.o
         4          0          0          0          0         68   printf1.o
         0          0          0          0          0          0   usenofp.o
        40          0          0          0          0         68   fpclassify.o

    ----------------------------------------------------------------------
      7036        382        176          0         96       3824   Library Totals
        14          0          0          0          0          0   (incl. Padding)

    ----------------------------------------------------------------------

      Code (inc. data)   RO Data    RW Data    ZI Data      Debug   Library Name

      4688        206        176          0         96       2636   c_w.l
      2294        176          0          0          0       1120   fz_ws.l
        40          0          0          0          0         68   m_ws.l

    ----------------------------------------------------------------------
      7036        382        176          0         96       3824   Library Totals

    ----------------------------------------------------------------------

==============================================================================


      Code (inc. data)   RO Data    RW Data    ZI Data      Debug   

     15924       1008       5004        128       2272     306169   Grand Totals
     15924       1008       5004        128       2272     306169   ELF Image Totals
     15924       1008       5004        128          0          0   ROM Totals

==============================================================================

    Total RO  Size (Code + RO Data)                20928 (  20.44kB)
    Total RW  Size (RW Data + ZI Data)              2400 (   2.34kB)
    Total ROM Size (Code + RO Data + RW Data)      21056 (  20.56kB)

==============================================================================

